{
	"contract.sol": {
		"SelfHelp": {
			"abi": [
				{
					"anonymous": false,
					"inputs": [
						{
							"indexed": true,
							"internalType": "uint256",
							"name": "shgId",
							"type": "uint256"
						},
						{
							"indexed": true,
							"internalType": "address",
							"name": "funder",
							"type": "address"
						},
						{
							"indexed": false,
							"internalType": "uint256",
							"name": "amount",
							"type": "uint256"
						}
					],
					"name": "FundsAdded",
					"type": "event"
				},
				{
					"anonymous": false,
					"inputs": [
						{
							"indexed": true,
							"internalType": "uint256",
							"name": "shgId",
							"type": "uint256"
						},
						{
							"indexed": true,
							"internalType": "uint256",
							"name": "proposalId",
							"type": "uint256"
						},
						{
							"indexed": true,
							"internalType": "address",
							"name": "proposer",
							"type": "address"
						},
						{
							"indexed": false,
							"internalType": "uint256",
							"name": "amount",
							"type": "uint256"
						}
					],
					"name": "FundsClaimed",
					"type": "event"
				},
				{
					"anonymous": false,
					"inputs": [
						{
							"indexed": true,
							"internalType": "uint256",
							"name": "proposalId",
							"type": "uint256"
						},
						{
							"indexed": true,
							"internalType": "uint256",
							"name": "shgId",
							"type": "uint256"
						},
						{
							"indexed": true,
							"internalType": "address",
							"name": "proposer",
							"type": "address"
						},
						{
							"indexed": false,
							"internalType": "string",
							"name": "name",
							"type": "string"
						}
					],
					"name": "ProposalCreated",
					"type": "event"
				},
				{
					"anonymous": false,
					"inputs": [
						{
							"indexed": true,
							"internalType": "uint256",
							"name": "proposalId",
							"type": "uint256"
						},
						{
							"indexed": false,
							"internalType": "enum SelfHelp.ProposalStatus",
							"name": "status",
							"type": "uint8"
						}
					],
					"name": "ProposalFinalized",
					"type": "event"
				},
				{
					"anonymous": false,
					"inputs": [
						{
							"indexed": true,
							"internalType": "uint256",
							"name": "shgId",
							"type": "uint256"
						},
						{
							"indexed": true,
							"internalType": "address",
							"name": "admin",
							"type": "address"
						},
						{
							"indexed": false,
							"internalType": "string",
							"name": "name",
							"type": "string"
						}
					],
					"name": "SHGCreated",
					"type": "event"
				},
				{
					"anonymous": false,
					"inputs": [
						{
							"indexed": true,
							"internalType": "uint256",
							"name": "proposalId",
							"type": "uint256"
						},
						{
							"indexed": true,
							"internalType": "address",
							"name": "voter",
							"type": "address"
						},
						{
							"indexed": false,
							"internalType": "bool",
							"name": "inFavour",
							"type": "bool"
						}
					],
					"name": "Voted",
					"type": "event"
				},
				{
					"inputs": [
						{
							"internalType": "uint256",
							"name": "_shgId",
							"type": "uint256"
						}
					],
					"name": "addFunds",
					"outputs": [],
					"stateMutability": "payable",
					"type": "function"
				},
				{
					"inputs": [
						{
							"internalType": "string",
							"name": "_shgName",
							"type": "string"
						},
						{
							"internalType": "string",
							"name": "_shgDescription",
							"type": "string"
						},
						{
							"internalType": "uint256",
							"name": "_votingDuration",
							"type": "uint256"
						}
					],
					"name": "addSHG",
					"outputs": [],
					"stateMutability": "nonpayable",
					"type": "function"
				},
				{
					"inputs": [
						{
							"internalType": "uint256",
							"name": "_shgId",
							"type": "uint256"
						},
						{
							"internalType": "uint256",
							"name": "_proposalId",
							"type": "uint256"
						}
					],
					"name": "claimFund",
					"outputs": [],
					"stateMutability": "nonpayable",
					"type": "function"
				},
				{
					"inputs": [
						{
							"internalType": "uint256",
							"name": "_shgId",
							"type": "uint256"
						},
						{
							"internalType": "string",
							"name": "_proposalName",
							"type": "string"
						},
						{
							"internalType": "string",
							"name": "_proposalDescription",
							"type": "string"
						},
						{
							"internalType": "uint256",
							"name": "_amount",
							"type": "uint256"
						}
					],
					"name": "createProposal",
					"outputs": [],
					"stateMutability": "nonpayable",
					"type": "function"
				},
				{
					"inputs": [
						{
							"internalType": "uint256",
							"name": "_proposalId",
							"type": "uint256"
						}
					],
					"name": "finalizeProposal",
					"outputs": [],
					"stateMutability": "nonpayable",
					"type": "function"
				},
				{
					"inputs": [
						{
							"internalType": "address",
							"name": "",
							"type": "address"
						},
						{
							"internalType": "uint256",
							"name": "",
							"type": "uint256"
						}
					],
					"name": "memberOfShg",
					"outputs": [
						{
							"internalType": "uint256",
							"name": "",
							"type": "uint256"
						}
					],
					"stateMutability": "view",
					"type": "function"
				},
				{
					"inputs": [
						{
							"internalType": "uint256",
							"name": "",
							"type": "uint256"
						},
						{
							"internalType": "uint256",
							"name": "",
							"type": "uint256"
						}
					],
					"name": "members",
					"outputs": [
						{
							"internalType": "address",
							"name": "",
							"type": "address"
						}
					],
					"stateMutability": "view",
					"type": "function"
				},
				{
					"inputs": [
						{
							"internalType": "uint256",
							"name": "",
							"type": "uint256"
						}
					],
					"name": "proposalDetails",
					"outputs": [
						{
							"internalType": "uint256",
							"name": "shgId",
							"type": "uint256"
						},
						{
							"internalType": "address",
							"name": "proposer",
							"type": "address"
						},
						{
							"internalType": "string",
							"name": "proposalName",
							"type": "string"
						},
						{
							"internalType": "string",
							"name": "proposalDescription",
							"type": "string"
						},
						{
							"internalType": "uint256",
							"name": "amount",
							"type": "uint256"
						},
						{
							"internalType": "uint256",
							"name": "votesInFavour",
							"type": "uint256"
						},
						{
							"internalType": "uint256",
							"name": "votesAgainst",
							"type": "uint256"
						},
						{
							"internalType": "uint256",
							"name": "timeOfProposal",
							"type": "uint256"
						},
						{
							"internalType": "enum SelfHelp.ProposalStatus",
							"name": "status",
							"type": "uint8"
						}
					],
					"stateMutability": "view",
					"type": "function"
				},
				{
					"inputs": [],
					"name": "proposalId",
					"outputs": [
						{
							"internalType": "uint256",
							"name": "",
							"type": "uint256"
						}
					],
					"stateMutability": "view",
					"type": "function"
				},
				{
					"inputs": [
						{
							"internalType": "uint256",
							"name": "",
							"type": "uint256"
						},
						{
							"internalType": "uint256",
							"name": "",
							"type": "uint256"
						}
					],
					"name": "proposalIdInShg",
					"outputs": [
						{
							"internalType": "uint256",
							"name": "",
							"type": "uint256"
						}
					],
					"stateMutability": "view",
					"type": "function"
				},
				{
					"inputs": [
						{
							"internalType": "uint256",
							"name": "",
							"type": "uint256"
						}
					],
					"name": "shgDetails",
					"outputs": [
						{
							"internalType": "address",
							"name": "admin",
							"type": "address"
						},
						{
							"internalType": "string",
							"name": "shgName",
							"type": "string"
						},
						{
							"internalType": "string",
							"name": "shgDescription",
							"type": "string"
						},
						{
							"internalType": "uint256",
							"name": "timeOfCreation",
							"type": "uint256"
						},
						{
							"internalType": "uint256",
							"name": "balance",
							"type": "uint256"
						},
						{
							"internalType": "uint256",
							"name": "votingDuration",
							"type": "uint256"
						}
					],
					"stateMutability": "view",
					"type": "function"
				},
				{
					"inputs": [],
					"name": "shgId",
					"outputs": [
						{
							"internalType": "uint256",
							"name": "",
							"type": "uint256"
						}
					],
					"stateMutability": "view",
					"type": "function"
				},
				{
					"inputs": [
						{
							"internalType": "uint256",
							"name": "_proposalId",
							"type": "uint256"
						},
						{
							"internalType": "bool",
							"name": "_inFavour",
							"type": "bool"
						}
					],
					"name": "vote",
					"outputs": [],
					"stateMutability": "nonpayable",
					"type": "function"
				}
			],
			"devdoc": {
				"kind": "dev",
				"methods": {},
				"version": 1
			},
			"evm": {
				"assembly": "    /* \"contract.sol\":60:6182  contract SelfHelp {... */\n  mstore(0x40, 0x80)\n    /* \"contract.sol\":722:723  0 */\n  0x00\n    /* \"contract.sol\":699:723  uint256 public shgId = 0 */\n  dup1\n  sstore\n    /* \"contract.sol\":758:759  0 */\n  0x00\n    /* \"contract.sol\":730:759  uint256 public proposalId = 0 */\n  0x01\n  sstore\n    /* \"contract.sol\":60:6182  contract SelfHelp {... */\n  callvalue\n  dup1\n  iszero\n  tag_1\n  jumpi\n  0x00\n  dup1\n  revert\ntag_1:\n  pop\n  dataSize(sub_0)\n  dup1\n  dataOffset(sub_0)\n  0x00\n  codecopy\n  0x00\n  return\nstop\n\nsub_0: assembly {\n        /* \"contract.sol\":60:6182  contract SelfHelp {... */\n      mstore(0x40, 0x80)\n      jumpi(tag_1, lt(calldatasize, 0x04))\n      shr(0xe0, calldataload(0x00))\n      dup1\n      0x7641f2b8\n      gt\n      tag_15\n      jumpi\n      dup1\n      0xbc35baa3\n      gt\n      tag_16\n      jumpi\n      dup1\n      0xbc35baa3\n      eq\n      tag_11\n      jumpi\n      dup1\n      0xbe999705\n      eq\n      tag_12\n      jumpi\n      dup1\n      0xc9d27afe\n      eq\n      tag_13\n      jumpi\n      dup1\n      0xf5fffc0f\n      eq\n      tag_14\n      jumpi\n      jump(tag_1)\n    tag_16:\n      dup1\n      0x7641f2b8\n      eq\n      tag_8\n      jumpi\n      dup1\n      0x976eb774\n      eq\n      tag_9\n      jumpi\n      dup1\n      0xb979ce06\n      eq\n      tag_10\n      jumpi\n      jump(tag_1)\n    tag_15:\n      dup1\n      0x01fc20e2\n      eq\n      tag_2\n      jumpi\n      dup1\n      0x16e9eaec\n      eq\n      tag_3\n      jumpi\n      dup1\n      0x1cc75df4\n      eq\n      tag_4\n      jumpi\n      dup1\n      0x2dfca445\n      eq\n      tag_5\n      jumpi\n      dup1\n      0x5652077c\n      eq\n      tag_6\n      jumpi\n      dup1\n      0x5ada0a41\n      eq\n      tag_7\n      jumpi\n    tag_1:\n      0x00\n      dup1\n      revert\n        /* \"contract.sol\":874:918  mapping(uint256 => address[]) public members */\n    tag_2:\n      callvalue\n      dup1\n      iszero\n      tag_17\n      jumpi\n      0x00\n      dup1\n      revert\n    tag_17:\n      pop\n      tag_18\n      0x04\n      dup1\n      calldatasize\n      sub\n      dup2\n      add\n      swap1\n      tag_19\n      swap2\n      swap1\n      tag_20\n      jump\t// in\n    tag_19:\n      tag_21\n      jump\t// in\n    tag_18:\n      mload(0x40)\n      tag_22\n      swap2\n      swap1\n      tag_23\n      jump\t// in\n    tag_22:\n      mload(0x40)\n      dup1\n      swap2\n      sub\n      swap1\n      return\n        /* \"contract.sol\":816:867  mapping(uint256 => Proposal) public proposalDetails */\n    tag_3:\n      callvalue\n      dup1\n      iszero\n      tag_24\n      jumpi\n      0x00\n      dup1\n      revert\n    tag_24:\n      pop\n      tag_25\n      0x04\n      dup1\n      calldatasize\n      sub\n      dup2\n      add\n      swap1\n      tag_26\n      swap2\n      swap1\n      tag_27\n      jump\t// in\n    tag_26:\n      tag_28\n      jump\t// in\n    tag_25:\n      mload(0x40)\n      tag_29\n      swap10\n      swap9\n      swap8\n      swap7\n      swap6\n      swap5\n      swap4\n      swap3\n      swap2\n      swap1\n      tag_30\n      jump\t// in\n    tag_29:\n      mload(0x40)\n      dup1\n      swap2\n      sub\n      swap1\n      return\n        /* \"contract.sol\":1931:2621  function addSHG(string memory _shgName, string memory _shgDescription, uint256 _votingDuration) public {... */\n    tag_4:\n      callvalue\n      dup1\n      iszero\n      tag_31\n      jumpi\n      0x00\n      dup1\n      revert\n    tag_31:\n      pop\n      tag_32\n      0x04\n      dup1\n      calldatasize\n      sub\n      dup2\n      add\n      swap1\n      tag_33\n      swap2\n      swap1\n      tag_34\n      jump\t// in\n    tag_33:\n      tag_35\n      jump\t// in\n    tag_32:\n      stop\n        /* \"contract.sol\":730:759  uint256 public proposalId = 0 */\n    tag_5:\n      callvalue\n      dup1\n      iszero\n      tag_36\n      jumpi\n      0x00\n      dup1\n      revert\n    tag_36:\n      pop\n      tag_37\n      tag_38\n      jump\t// in\n    tag_37:\n      mload(0x40)\n      tag_39\n      swap2\n      swap1\n      tag_40\n      jump\t// in\n    tag_39:\n      mload(0x40)\n      dup1\n      swap2\n      sub\n      swap1\n      return\n        /* \"contract.sol\":4524:5494  function finalizeProposal(uint256 _proposalId) public {... */\n    tag_6:\n      callvalue\n      dup1\n      iszero\n      tag_41\n      jumpi\n      0x00\n      dup1\n      revert\n    tag_41:\n      pop\n      tag_42\n      0x04\n      dup1\n      calldatasize\n      sub\n      dup2\n      add\n      swap1\n      tag_43\n      swap2\n      swap1\n      tag_27\n      jump\t// in\n    tag_43:\n      tag_44\n      jump\t// in\n    tag_42:\n      stop\n        /* \"contract.sol\":3092:3895  function createProposal(... */\n    tag_7:\n      callvalue\n      dup1\n      iszero\n      tag_45\n      jumpi\n      0x00\n      dup1\n      revert\n    tag_45:\n      pop\n      tag_46\n      0x04\n      dup1\n      calldatasize\n      sub\n      dup2\n      add\n      swap1\n      tag_47\n      swap2\n      swap1\n      tag_48\n      jump\t// in\n    tag_47:\n      tag_49\n      jump\t// in\n    tag_46:\n      stop\n        /* \"contract.sol\":980:1032  mapping(uint256 => uint256[]) public proposalIdInShg */\n    tag_8:\n      callvalue\n      dup1\n      iszero\n      tag_50\n      jumpi\n      0x00\n      dup1\n      revert\n    tag_50:\n      pop\n      tag_51\n      0x04\n      dup1\n      calldatasize\n      sub\n      dup2\n      add\n      swap1\n      tag_52\n      swap2\n      swap1\n      tag_20\n      jump\t// in\n    tag_52:\n      tag_53\n      jump\t// in\n    tag_51:\n      mload(0x40)\n      tag_54\n      swap2\n      swap1\n      tag_40\n      jump\t// in\n    tag_54:\n      mload(0x40)\n      dup1\n      swap2\n      sub\n      swap1\n      return\n        /* \"contract.sol\":768:809  mapping(uint256 => SHG) public shgDetails */\n    tag_9:\n      callvalue\n      dup1\n      iszero\n      tag_55\n      jumpi\n      0x00\n      dup1\n      revert\n    tag_55:\n      pop\n      tag_56\n      0x04\n      dup1\n      calldatasize\n      sub\n      dup2\n      add\n      swap1\n      tag_57\n      swap2\n      swap1\n      tag_27\n      jump\t// in\n    tag_57:\n      tag_58\n      jump\t// in\n    tag_56:\n      mload(0x40)\n      tag_59\n      swap7\n      swap6\n      swap5\n      swap4\n      swap3\n      swap2\n      swap1\n      tag_60\n      jump\t// in\n    tag_59:\n      mload(0x40)\n      dup1\n      swap2\n      sub\n      swap1\n      return\n        /* \"contract.sol\":699:723  uint256 public shgId = 0 */\n    tag_10:\n      callvalue\n      dup1\n      iszero\n      tag_61\n      jumpi\n      0x00\n      dup1\n      revert\n    tag_61:\n      pop\n      tag_62\n      tag_63\n      jump\t// in\n    tag_62:\n      mload(0x40)\n      tag_64\n      swap2\n      swap1\n      tag_40\n      jump\t// in\n    tag_64:\n      mload(0x40)\n      dup1\n      swap2\n      sub\n      swap1\n      return\n        /* \"contract.sol\":925:973  mapping(address => uint256[]) public memberOfShg */\n    tag_11:\n      callvalue\n      dup1\n      iszero\n      tag_65\n      jumpi\n      0x00\n      dup1\n      revert\n    tag_65:\n      pop\n      tag_66\n      0x04\n      dup1\n      calldatasize\n      sub\n      dup2\n      add\n      swap1\n      tag_67\n      swap2\n      swap1\n      tag_68\n      jump\t// in\n    tag_67:\n      tag_69\n      jump\t// in\n    tag_66:\n      mload(0x40)\n      tag_70\n      swap2\n      swap1\n      tag_40\n      jump\t// in\n    tag_70:\n      mload(0x40)\n      dup1\n      swap2\n      sub\n      swap1\n      return\n        /* \"contract.sol\":2629:3084  function addFunds(uint256 _shgId) public payable {... */\n    tag_12:\n      tag_71\n      0x04\n      dup1\n      calldatasize\n      sub\n      dup2\n      add\n      swap1\n      tag_72\n      swap2\n      swap1\n      tag_27\n      jump\t// in\n    tag_72:\n      tag_73\n      jump\t// in\n    tag_71:\n      stop\n        /* \"contract.sol\":3903:4516  function vote(uint256 _proposalId, bool _inFavour) public {... */\n    tag_13:\n      callvalue\n      dup1\n      iszero\n      tag_74\n      jumpi\n      0x00\n      dup1\n      revert\n    tag_74:\n      pop\n      tag_75\n      0x04\n      dup1\n      calldatasize\n      sub\n      dup2\n      add\n      swap1\n      tag_76\n      swap2\n      swap1\n      tag_77\n      jump\t// in\n    tag_76:\n      tag_78\n      jump\t// in\n    tag_75:\n      stop\n        /* \"contract.sol\":5502:6179  function claimFund(uint256 _shgId, uint256 _proposalId) public {... */\n    tag_14:\n      callvalue\n      dup1\n      iszero\n      tag_79\n      jumpi\n      0x00\n      dup1\n      revert\n    tag_79:\n      pop\n      tag_80\n      0x04\n      dup1\n      calldatasize\n      sub\n      dup2\n      add\n      swap1\n      tag_81\n      swap2\n      swap1\n      tag_20\n      jump\t// in\n    tag_81:\n      tag_82\n      jump\t// in\n    tag_80:\n      stop\n        /* \"contract.sol\":874:918  mapping(uint256 => address[]) public members */\n    tag_21:\n      mstore(0x20, 0x04)\n      dup2\n      0x00\n      mstore\n      keccak256(0x00, 0x40)\n      dup2\n      dup2\n      sload\n      dup2\n      lt\n      tag_83\n      jumpi\n      0x00\n      dup1\n      revert\n    tag_83:\n      swap1\n      0x00\n      mstore\n      keccak256(0x00, 0x20)\n      add\n      0x00\n      swap2\n      pop\n      swap2\n      pop\n      swap1\n      sload\n      swap1\n      0x0100\n      exp\n      swap1\n      div\n      0xffffffffffffffffffffffffffffffffffffffff\n      and\n      dup2\n      jump\t// out\n        /* \"contract.sol\":816:867  mapping(uint256 => Proposal) public proposalDetails */\n    tag_28:\n      mstore(0x20, 0x03)\n      dup1\n      0x00\n      mstore\n      keccak256(0x00, 0x40)\n      0x00\n      swap2\n      pop\n      swap1\n      pop\n      dup1\n      0x00\n      add\n      sload\n      swap1\n      dup1\n      0x01\n      add\n      0x00\n      swap1\n      sload\n      swap1\n      0x0100\n      exp\n      swap1\n      div\n      0xffffffffffffffffffffffffffffffffffffffff\n      and\n      swap1\n      dup1\n      0x02\n      add\n      dup1\n      sload\n      tag_85\n      swap1\n      tag_86\n      jump\t// in\n    tag_85:\n      dup1\n      0x1f\n      add\n      0x20\n      dup1\n      swap2\n      div\n      mul\n      0x20\n      add\n      mload(0x40)\n      swap1\n      dup2\n      add\n      0x40\n      mstore\n      dup1\n      swap3\n      swap2\n      swap1\n      dup2\n      dup2\n      mstore\n      0x20\n      add\n      dup3\n      dup1\n      sload\n      tag_87\n      swap1\n      tag_86\n      jump\t// in\n    tag_87:\n      dup1\n      iszero\n      tag_88\n      jumpi\n      dup1\n      0x1f\n      lt\n      tag_89\n      jumpi\n      0x0100\n      dup1\n      dup4\n      sload\n      div\n      mul\n      dup4\n      mstore\n      swap2\n      0x20\n      add\n      swap2\n      jump(tag_88)\n    tag_89:\n      dup3\n      add\n      swap2\n      swap1\n      0x00\n      mstore\n      keccak256(0x00, 0x20)\n      swap1\n    tag_90:\n      dup2\n      sload\n      dup2\n      mstore\n      swap1\n      0x01\n      add\n      swap1\n      0x20\n      add\n      dup1\n      dup4\n      gt\n      tag_90\n      jumpi\n      dup3\n      swap1\n      sub\n      0x1f\n      and\n      dup3\n      add\n      swap2\n    tag_88:\n      pop\n      pop\n      pop\n      pop\n      pop\n      swap1\n      dup1\n      0x03\n      add\n      dup1\n      sload\n      tag_91\n      swap1\n      tag_86\n      jump\t// in\n    tag_91:\n      dup1\n      0x1f\n      add\n      0x20\n      dup1\n      swap2\n      div\n      mul\n      0x20\n      add\n      mload(0x40)\n      swap1\n      dup2\n      add\n      0x40\n      mstore\n      dup1\n      swap3\n      swap2\n      swap1\n      dup2\n      dup2\n      mstore\n      0x20\n      add\n      dup3\n      dup1\n      sload\n      tag_92\n      swap1\n      tag_86\n      jump\t// in\n    tag_92:\n      dup1\n      iszero\n      tag_93\n      jumpi\n      dup1\n      0x1f\n      lt\n      tag_94\n      jumpi\n      0x0100\n      dup1\n      dup4\n      sload\n      div\n      mul\n      dup4\n      mstore\n      swap2\n      0x20\n      add\n      swap2\n      jump(tag_93)\n    tag_94:\n      dup3\n      add\n      swap2\n      swap1\n      0x00\n      mstore\n      keccak256(0x00, 0x20)\n      swap1\n    tag_95:\n      dup2\n      sload\n      dup2\n      mstore\n      swap1\n      0x01\n      add\n      swap1\n      0x20\n      add\n      dup1\n      dup4\n      gt\n      tag_95\n      jumpi\n      dup3\n      swap1\n      sub\n      0x1f\n      and\n      dup3\n      add\n      swap2\n    tag_93:\n      pop\n      pop\n      pop\n      pop\n      pop\n      swap1\n      dup1\n      0x04\n      add\n      sload\n      swap1\n      dup1\n      0x05\n      add\n      sload\n      swap1\n      dup1\n      0x06\n      add\n      sload\n      swap1\n      dup1\n      0x07\n      add\n      sload\n      swap1\n      dup1\n      0x08\n      add\n      0x00\n      swap1\n      sload\n      swap1\n      0x0100\n      exp\n      swap1\n      div\n      0xff\n      and\n      swap1\n      pop\n      dup10\n      jump\t// out\n        /* \"contract.sol\":1931:2621  function addSHG(string memory _shgName, string memory _shgDescription, uint256 _votingDuration) public {... */\n    tag_35:\n        /* \"contract.sol\":2045:2050  shgId */\n      0x00\n      dup1\n        /* \"contract.sol\":2045:2052  shgId++ */\n      dup2\n      sload\n      dup1\n      swap3\n      swap2\n      swap1\n      tag_97\n      swap1\n      tag_98\n      jump\t// in\n    tag_97:\n      swap2\n      swap1\n      pop\n      sstore\n      pop\n        /* \"contract.sol\":2105:2106  0 */\n      0x00\n        /* \"contract.sol\":2071:2082  memberOfShg */\n      0x05\n        /* \"contract.sol\":2071:2094  memberOfShg[msg.sender] */\n      0x00\n        /* \"contract.sol\":2083:2093  msg.sender */\n      caller\n        /* \"contract.sol\":2071:2094  memberOfShg[msg.sender] */\n      0xffffffffffffffffffffffffffffffffffffffff\n      and\n      0xffffffffffffffffffffffffffffffffffffffff\n      and\n      dup2\n      mstore\n      0x20\n      add\n      swap1\n      dup2\n      mstore\n      0x20\n      add\n      0x00\n      keccak256\n        /* \"contract.sol\":2071:2101  memberOfShg[msg.sender].length */\n      dup1\n      sload\n      swap1\n      pop\n        /* \"contract.sol\":2071:2106  memberOfShg[msg.sender].length == 0 */\n      eq\n        /* \"contract.sol\":2063:2138  require(memberOfShg[msg.sender].length == 0, \"You can only create one SHG\") */\n      tag_99\n      jumpi\n      mload(0x40)\n      0x08c379a000000000000000000000000000000000000000000000000000000000\n      dup2\n      mstore\n      0x04\n      add\n      tag_100\n      swap1\n      tag_101\n      jump\t// in\n    tag_100:\n      mload(0x40)\n      dup1\n      swap2\n      sub\n      swap1\n      revert\n    tag_99:\n        /* \"contract.sol\":2159:2177  SHG storage newShg */\n      0x00\n        /* \"contract.sol\":2180:2190  shgDetails */\n      0x02\n        /* \"contract.sol\":2180:2197  shgDetails[shgId] */\n      0x00\n        /* \"contract.sol\":2191:2196  shgId */\n      dup1\n      sload\n        /* \"contract.sol\":2180:2197  shgDetails[shgId] */\n      dup2\n      mstore\n      0x20\n      add\n      swap1\n      dup2\n      mstore\n      0x20\n      add\n      0x00\n      keccak256\n        /* \"contract.sol\":2159:2197  SHG storage newShg = shgDetails[shgId] */\n      swap1\n      pop\n        /* \"contract.sol\":2223:2233  msg.sender */\n      caller\n        /* \"contract.sol\":2208:2214  newShg */\n      dup2\n        /* \"contract.sol\":2208:2220  newShg.admin */\n      0x00\n      add\n      0x00\n        /* \"contract.sol\":2208:2233  newShg.admin = msg.sender */\n      0x0100\n      exp\n      dup2\n      sload\n      dup2\n      0xffffffffffffffffffffffffffffffffffffffff\n      mul\n      not\n      and\n      swap1\n      dup4\n      0xffffffffffffffffffffffffffffffffffffffff\n      and\n      mul\n      or\n      swap1\n      sstore\n      pop\n        /* \"contract.sol\":2261:2269  _shgName */\n      dup4\n        /* \"contract.sol\":2244:2250  newShg */\n      dup2\n        /* \"contract.sol\":2244:2258  newShg.shgName */\n      0x01\n      add\n        /* \"contract.sol\":2244:2269  newShg.shgName = _shgName */\n      swap1\n      dup2\n      tag_102\n      swap2\n      swap1\n      tag_103\n      jump\t// in\n    tag_102:\n      pop\n        /* \"contract.sol\":2304:2319  _shgDescription */\n      dup3\n        /* \"contract.sol\":2280:2286  newShg */\n      dup2\n        /* \"contract.sol\":2280:2301  newShg.shgDescription */\n      0x02\n      add\n        /* \"contract.sol\":2280:2319  newShg.shgDescription = _shgDescription */\n      swap1\n      dup2\n      tag_104\n      swap2\n      swap1\n      tag_103\n      jump\t// in\n    tag_104:\n      pop\n        /* \"contract.sol\":2354:2369  block.timestamp */\n      timestamp\n        /* \"contract.sol\":2330:2336  newShg */\n      dup2\n        /* \"contract.sol\":2330:2351  newShg.timeOfCreation */\n      0x03\n      add\n        /* \"contract.sol\":2330:2369  newShg.timeOfCreation = block.timestamp */\n      dup2\n      swap1\n      sstore\n      pop\n        /* \"contract.sol\":2397:2398  0 */\n      0x00\n        /* \"contract.sol\":2380:2386  newShg */\n      dup2\n        /* \"contract.sol\":2380:2394  newShg.balance */\n      0x04\n      add\n        /* \"contract.sol\":2380:2398  newShg.balance = 0 */\n      dup2\n      swap1\n      sstore\n      pop\n        /* \"contract.sol\":2451:2458  1 hours */\n      0x0e10\n        /* \"contract.sol\":2433:2448  _votingDuration */\n      dup3\n        /* \"contract.sol\":2433:2458  _votingDuration * 1 hours */\n      tag_105\n      swap2\n      swap1\n      tag_106\n      jump\t// in\n    tag_105:\n        /* \"contract.sol\":2409:2415  newShg */\n      dup2\n        /* \"contract.sol\":2409:2430  newShg.votingDuration */\n      0x06\n      add\n        /* \"contract.sol\":2409:2458  newShg.votingDuration = _votingDuration * 1 hours */\n      dup2\n      swap1\n      sstore\n      pop\n        /* \"contract.sol\":2471:2482  memberOfShg */\n      0x05\n        /* \"contract.sol\":2471:2494  memberOfShg[msg.sender] */\n      0x00\n        /* \"contract.sol\":2483:2493  msg.sender */\n      caller\n        /* \"contract.sol\":2471:2494  memberOfShg[msg.sender] */\n      0xffffffffffffffffffffffffffffffffffffffff\n      and\n      0xffffffffffffffffffffffffffffffffffffffff\n      and\n      dup2\n      mstore\n      0x20\n      add\n      swap1\n      dup2\n      mstore\n      0x20\n      add\n      0x00\n      keccak256\n        /* \"contract.sol\":2500:2505  shgId */\n      sload(0x00)\n        /* \"contract.sol\":2471:2506  memberOfShg[msg.sender].push(shgId) */\n      swap1\n      dup1\n      0x01\n      dup2\n      sload\n      add\n      dup1\n      dup3\n      sstore\n      dup1\n      swap2\n      pop\n      pop\n      0x01\n      swap1\n      sub\n      swap1\n      0x00\n      mstore\n      keccak256(0x00, 0x20)\n      add\n      0x00\n      swap1\n      swap2\n      swap1\n      swap2\n      swap1\n      swap2\n      pop\n      sstore\n        /* \"contract.sol\":2517:2524  members */\n      0x04\n        /* \"contract.sol\":2517:2531  members[shgId] */\n      0x00\n        /* \"contract.sol\":2525:2530  shgId */\n      dup1\n      sload\n        /* \"contract.sol\":2517:2531  members[shgId] */\n      dup2\n      mstore\n      0x20\n      add\n      swap1\n      dup2\n      mstore\n      0x20\n      add\n      0x00\n      keccak256\n        /* \"contract.sol\":2537:2547  msg.sender */\n      caller\n        /* \"contract.sol\":2517:2548  members[shgId].push(msg.sender) */\n      swap1\n      dup1\n      0x01\n      dup2\n      sload\n      add\n      dup1\n      dup3\n      sstore\n      dup1\n      swap2\n      pop\n      pop\n      0x01\n      swap1\n      sub\n      swap1\n      0x00\n      mstore\n      keccak256(0x00, 0x20)\n      add\n      0x00\n      swap1\n      swap2\n      swap1\n      swap2\n      swap1\n      swap2\n      0x0100\n      exp\n      dup2\n      sload\n      dup2\n      0xffffffffffffffffffffffffffffffffffffffff\n      mul\n      not\n      and\n      swap1\n      dup4\n      0xffffffffffffffffffffffffffffffffffffffff\n      and\n      mul\n      or\n      swap1\n      sstore\n      pop\n        /* \"contract.sol\":2592:2602  msg.sender */\n      caller\n        /* \"contract.sol\":2574:2613  SHGCreated(shgId, msg.sender, _shgName) */\n      0xffffffffffffffffffffffffffffffffffffffff\n      and\n        /* \"contract.sol\":2585:2590  shgId */\n      sload(0x00)\n        /* \"contract.sol\":2574:2613  SHGCreated(shgId, msg.sender, _shgName) */\n      0xc1542960c8708fa89cc7bbc364ab9741be9373ede08d56467e106a08365bbba0\n        /* \"contract.sol\":2604:2612  _shgName */\n      dup7\n        /* \"contract.sol\":2574:2613  SHGCreated(shgId, msg.sender, _shgName) */\n      mload(0x40)\n      tag_109\n      swap2\n      swap1\n      tag_110\n      jump\t// in\n    tag_109:\n      mload(0x40)\n      dup1\n      swap2\n      sub\n      swap1\n      log3\n        /* \"contract.sol\":2034:2621  {... */\n      pop\n        /* \"contract.sol\":1931:2621  function addSHG(string memory _shgName, string memory _shgDescription, uint256 _votingDuration) public {... */\n      pop\n      pop\n      pop\n      jump\t// out\n        /* \"contract.sol\":730:759  uint256 public proposalId = 0 */\n    tag_38:\n      sload(0x01)\n      dup2\n      jump\t// out\n        /* \"contract.sol\":4524:5494  function finalizeProposal(uint256 _proposalId) public {... */\n    tag_44:\n        /* \"contract.sol\":4589:4610  Proposal storage prop */\n      0x00\n        /* \"contract.sol\":4613:4628  proposalDetails */\n      0x03\n        /* \"contract.sol\":4613:4641  proposalDetails[_proposalId] */\n      0x00\n        /* \"contract.sol\":4629:4640  _proposalId */\n      dup4\n        /* \"contract.sol\":4613:4641  proposalDetails[_proposalId] */\n      dup2\n      mstore\n      0x20\n      add\n      swap1\n      dup2\n      mstore\n      0x20\n      add\n      0x00\n      keccak256\n        /* \"contract.sol\":4589:4641  Proposal storage prop = proposalDetails[_proposalId] */\n      swap1\n      pop\n        /* \"contract.sol\":4652:4667  SHG storage shg */\n      0x00\n        /* \"contract.sol\":4670:4680  shgDetails */\n      0x02\n        /* \"contract.sol\":4670:4692  shgDetails[prop.shgId] */\n      0x00\n        /* \"contract.sol\":4681:4685  prop */\n      dup4\n        /* \"contract.sol\":4681:4691  prop.shgId */\n      0x00\n      add\n      sload\n        /* \"contract.sol\":4670:4692  shgDetails[prop.shgId] */\n      dup2\n      mstore\n      0x20\n      add\n      swap1\n      dup2\n      mstore\n      0x20\n      add\n      0x00\n      keccak256\n        /* \"contract.sol\":4652:4692  SHG storage shg = shgDetails[prop.shgId] */\n      swap1\n      pop\n        /* \"contract.sol\":4751:4754  shg */\n      dup1\n        /* \"contract.sol\":4751:4769  shg.votingDuration */\n      0x06\n      add\n      sload\n        /* \"contract.sol\":4729:4733  prop */\n      dup3\n        /* \"contract.sol\":4729:4748  prop.timeOfProposal */\n      0x07\n      add\n      sload\n        /* \"contract.sol\":4729:4769  prop.timeOfProposal + shg.votingDuration */\n      tag_112\n      swap2\n      swap1\n      tag_113\n      jump\t// in\n    tag_112:\n        /* \"contract.sol\":4711:4726  block.timestamp */\n      timestamp\n        /* \"contract.sol\":4711:4769  block.timestamp > prop.timeOfProposal + shg.votingDuration */\n      gt\n        /* \"contract.sol\":4703:4798  require(block.timestamp > prop.timeOfProposal + shg.votingDuration, \"Voting still in progress\") */\n      tag_114\n      jumpi\n      mload(0x40)\n      0x08c379a000000000000000000000000000000000000000000000000000000000\n      dup2\n      mstore\n      0x04\n      add\n      tag_115\n      swap1\n      tag_116\n      jump\t// in\n    tag_115:\n      mload(0x40)\n      dup1\n      swap2\n      sub\n      swap1\n      revert\n    tag_114:\n        /* \"contract.sol\":4832:4854  ProposalStatus.Pending */\n      0x00\n        /* \"contract.sol\":4817:4854  prop.status == ProposalStatus.Pending */\n      0x03\n      dup2\n      gt\n      iszero\n      tag_117\n      jumpi\n      tag_118\n      tag_119\n      jump\t// in\n    tag_118:\n    tag_117:\n        /* \"contract.sol\":4817:4821  prop */\n      dup3\n        /* \"contract.sol\":4817:4828  prop.status */\n      0x08\n      add\n      0x00\n      swap1\n      sload\n      swap1\n      0x0100\n      exp\n      swap1\n      div\n      0xff\n      and\n        /* \"contract.sol\":4817:4854  prop.status == ProposalStatus.Pending */\n      0x03\n      dup2\n      gt\n      iszero\n      tag_120\n      jumpi\n      tag_121\n      tag_119\n      jump\t// in\n    tag_121:\n    tag_120:\n      eq\n        /* \"contract.sol\":4809:4885  require(prop.status == ProposalStatus.Pending, \"Proposal already finalized\") */\n      tag_122\n      jumpi\n      mload(0x40)\n      0x08c379a000000000000000000000000000000000000000000000000000000000\n      dup2\n      mstore\n      0x04\n      add\n      tag_123\n      swap1\n      tag_124\n      jump\t// in\n    tag_123:\n      mload(0x40)\n      dup1\n      swap2\n      sub\n      swap1\n      revert\n    tag_122:\n        /* \"contract.sol\":4898:4918  uint256 totalMembers */\n      0x00\n        /* \"contract.sol\":4921:4928  members */\n      0x04\n        /* \"contract.sol\":4921:4940  members[prop.shgId] */\n      0x00\n        /* \"contract.sol\":4929:4933  prop */\n      dup5\n        /* \"contract.sol\":4929:4939  prop.shgId */\n      0x00\n      add\n      sload\n        /* \"contract.sol\":4921:4940  members[prop.shgId] */\n      dup2\n      mstore\n      0x20\n      add\n      swap1\n      dup2\n      mstore\n      0x20\n      add\n      0x00\n      keccak256\n        /* \"contract.sol\":4921:4947  members[prop.shgId].length */\n      dup1\n      sload\n      swap1\n      pop\n        /* \"contract.sol\":4898:4947  uint256 totalMembers = members[prop.shgId].length */\n      swap1\n      pop\n        /* \"contract.sol\":4958:4979  uint256 requiredVotes */\n      0x00\n        /* \"contract.sol\":5004:5007  100 */\n      0x64\n        /* \"contract.sol\":4998:5000  50 */\n      0x32\n        /* \"contract.sol\":4983:4995  totalMembers */\n      dup4\n        /* \"contract.sol\":4983:5000  totalMembers * 50 */\n      tag_125\n      swap2\n      swap1\n      tag_106\n      jump\t// in\n    tag_125:\n        /* \"contract.sol\":4982:5007  (totalMembers * 50) / 100 */\n      tag_126\n      swap2\n      swap1\n      tag_127\n      jump\t// in\n    tag_126:\n        /* \"contract.sol\":4958:5007  uint256 requiredVotes = (totalMembers * 50) / 100 */\n      swap1\n      pop\n        /* \"contract.sol\":5081:5085  prop */\n      dup4\n        /* \"contract.sol\":5081:5098  prop.votesAgainst */\n      0x06\n      add\n      sload\n        /* \"contract.sol\":5060:5064  prop */\n      dup5\n        /* \"contract.sol\":5060:5078  prop.votesInFavour */\n      0x05\n      add\n      sload\n        /* \"contract.sol\":5060:5098  prop.votesInFavour > prop.votesAgainst */\n      gt\n        /* \"contract.sol\":5060:5159  prop.votesInFavour > prop.votesAgainst && (prop.votesInFavour + prop.votesAgainst) >= requiredVotes */\n      dup1\n      iszero\n      tag_128\n      jumpi\n      pop\n        /* \"contract.sol\":5146:5159  requiredVotes */\n      dup1\n        /* \"contract.sol\":5124:5128  prop */\n      dup5\n        /* \"contract.sol\":5124:5141  prop.votesAgainst */\n      0x06\n      add\n      sload\n        /* \"contract.sol\":5103:5107  prop */\n      dup6\n        /* \"contract.sol\":5103:5121  prop.votesInFavour */\n      0x05\n      add\n      sload\n        /* \"contract.sol\":5103:5141  prop.votesInFavour + prop.votesAgainst */\n      tag_129\n      swap2\n      swap1\n      tag_113\n      jump\t// in\n    tag_129:\n        /* \"contract.sol\":5102:5159  (prop.votesInFavour + prop.votesAgainst) >= requiredVotes */\n      lt\n      iszero\n        /* \"contract.sol\":5060:5159  prop.votesInFavour > prop.votesAgainst && (prop.votesInFavour + prop.votesAgainst) >= requiredVotes */\n    tag_128:\n        /* \"contract.sol\":5056:5426  if (prop.votesInFavour > prop.votesAgainst && (prop.votesInFavour + prop.votesAgainst) >= requiredVotes) {... */\n      iszero\n      tag_130\n      jumpi\n        /* \"contract.sol\":5190:5213  ProposalStatus.Approved */\n      0x01\n        /* \"contract.sol\":5176:5180  prop */\n      dup5\n        /* \"contract.sol\":5176:5187  prop.status */\n      0x08\n      add\n      0x00\n        /* \"contract.sol\":5176:5213  prop.status = ProposalStatus.Approved */\n      0x0100\n      exp\n      dup2\n      sload\n      dup2\n      0xff\n      mul\n      not\n      and\n      swap1\n      dup4\n      0x03\n      dup2\n      gt\n      iszero\n      tag_131\n      jumpi\n      tag_132\n      tag_119\n      jump\t// in\n    tag_132:\n    tag_131:\n      mul\n      or\n      swap1\n      sstore\n      pop\n        /* \"contract.sol\":5056:5426  if (prop.votesInFavour > prop.votesAgainst && (prop.votesInFavour + prop.votesAgainst) >= requiredVotes) {... */\n      jump(tag_133)\n    tag_130:\n        /* \"contract.sol\":5278:5291  requiredVotes */\n      dup1\n        /* \"contract.sol\":5257:5261  prop */\n      dup5\n        /* \"contract.sol\":5257:5274  prop.votesAgainst */\n      0x06\n      add\n      sload\n        /* \"contract.sol\":5236:5240  prop */\n      dup6\n        /* \"contract.sol\":5236:5254  prop.votesInFavour */\n      0x05\n      add\n      sload\n        /* \"contract.sol\":5236:5274  prop.votesInFavour + prop.votesAgainst */\n      tag_134\n      swap2\n      swap1\n      tag_113\n      jump\t// in\n    tag_134:\n        /* \"contract.sol\":5235:5291  (prop.votesInFavour + prop.votesAgainst) < requiredVotes */\n      lt\n        /* \"contract.sol\":5231:5426  if ((prop.votesInFavour + prop.votesAgainst) < requiredVotes) {... */\n      iszero\n      tag_135\n      jumpi\n        /* \"contract.sol\":5322:5344  ProposalStatus.Expired */\n      0x03\n        /* \"contract.sol\":5308:5312  prop */\n      dup5\n        /* \"contract.sol\":5308:5319  prop.status */\n      0x08\n      add\n      0x00\n        /* \"contract.sol\":5308:5344  prop.status = ProposalStatus.Expired */\n      0x0100\n      exp\n      dup2\n      sload\n      dup2\n      0xff\n      mul\n      not\n      and\n      swap1\n      dup4\n      0x03\n      dup2\n      gt\n      iszero\n      tag_136\n      jumpi\n      tag_137\n      tag_119\n      jump\t// in\n    tag_137:\n    tag_136:\n      mul\n      or\n      swap1\n      sstore\n      pop\n        /* \"contract.sol\":5231:5426  if ((prop.votesInFavour + prop.votesAgainst) < requiredVotes) {... */\n      jump(tag_138)\n    tag_135:\n        /* \"contract.sol\":5391:5414  ProposalStatus.Rejected */\n      0x02\n        /* \"contract.sol\":5377:5381  prop */\n      dup5\n        /* \"contract.sol\":5377:5388  prop.status */\n      0x08\n      add\n      0x00\n        /* \"contract.sol\":5377:5414  prop.status = ProposalStatus.Rejected */\n      0x0100\n      exp\n      dup2\n      sload\n      dup2\n      0xff\n      mul\n      not\n      and\n      swap1\n      dup4\n      0x03\n      dup2\n      gt\n      iszero\n      tag_139\n      jumpi\n      tag_140\n      tag_119\n      jump\t// in\n    tag_140:\n    tag_139:\n      mul\n      or\n      swap1\n      sstore\n      pop\n        /* \"contract.sol\":5231:5426  if ((prop.votesInFavour + prop.votesAgainst) < requiredVotes) {... */\n    tag_138:\n        /* \"contract.sol\":5056:5426  if (prop.votesInFavour > prop.votesAgainst && (prop.votesInFavour + prop.votesAgainst) >= requiredVotes) {... */\n    tag_133:\n        /* \"contract.sol\":5461:5472  _proposalId */\n      dup5\n        /* \"contract.sol\":5443:5486  ProposalFinalized(_proposalId, prop.status) */\n      0x34a42c4ce0a88d16ad098de6406057747139a2a3dd8dd8616ee7bbabcecb768e\n        /* \"contract.sol\":5474:5478  prop */\n      dup6\n        /* \"contract.sol\":5474:5485  prop.status */\n      0x08\n      add\n      0x00\n      swap1\n      sload\n      swap1\n      0x0100\n      exp\n      swap1\n      div\n      0xff\n      and\n        /* \"contract.sol\":5443:5486  ProposalFinalized(_proposalId, prop.status) */\n      mload(0x40)\n      tag_141\n      swap2\n      swap1\n      tag_142\n      jump\t// in\n    tag_141:\n      mload(0x40)\n      dup1\n      swap2\n      sub\n      swap1\n      log2\n        /* \"contract.sol\":4578:5494  {... */\n      pop\n      pop\n      pop\n      pop\n        /* \"contract.sol\":4524:5494  function finalizeProposal(uint256 _proposalId) public {... */\n      pop\n      jump\t// out\n        /* \"contract.sol\":3092:3895  function createProposal(... */\n    tag_49:\n        /* \"contract.sol\":3278:3284  _shgId */\n      dup4\n        /* \"contract.sol\":1099:1109  shgDetails */\n      0x02\n        /* \"contract.sol\":1099:1117  shgDetails[_shgId] */\n      0x00\n        /* \"contract.sol\":1110:1116  _shgId */\n      dup3\n        /* \"contract.sol\":1099:1117  shgDetails[_shgId] */\n      dup2\n      mstore\n      0x20\n      add\n      swap1\n      dup2\n      mstore\n      0x20\n      add\n      0x00\n      keccak256\n        /* \"contract.sol\":1099:1125  shgDetails[_shgId].funders */\n      0x05\n      add\n        /* \"contract.sol\":1099:1137  shgDetails[_shgId].funders[msg.sender] */\n      0x00\n        /* \"contract.sol\":1126:1136  msg.sender */\n      caller\n        /* \"contract.sol\":1099:1137  shgDetails[_shgId].funders[msg.sender] */\n      0xffffffffffffffffffffffffffffffffffffffff\n      and\n      0xffffffffffffffffffffffffffffffffffffffff\n      and\n      dup2\n      mstore\n      0x20\n      add\n      swap1\n      dup2\n      mstore\n      0x20\n      add\n      0x00\n      keccak256\n      0x00\n      swap1\n      sload\n      swap1\n      0x0100\n      exp\n      swap1\n      div\n      0xff\n      and\n        /* \"contract.sol\":1091:1166  require(shgDetails[_shgId].funders[msg.sender], \"Not a member of this SHG\") */\n      tag_144\n      jumpi\n      mload(0x40)\n      0x08c379a000000000000000000000000000000000000000000000000000000000\n      dup2\n      mstore\n      0x04\n      add\n      tag_145\n      swap1\n      tag_146\n      jump\t// in\n    tag_145:\n      mload(0x40)\n      dup1\n      swap2\n      sub\n      swap1\n      revert\n    tag_144:\n        /* \"contract.sol\":3316:3326  shgDetails */\n      0x02\n        /* \"contract.sol\":3316:3334  shgDetails[_shgId] */\n      0x00\n        /* \"contract.sol\":3327:3333  _shgId */\n      dup7\n        /* \"contract.sol\":3316:3334  shgDetails[_shgId] */\n      dup2\n      mstore\n      0x20\n      add\n      swap1\n      dup2\n      mstore\n      0x20\n      add\n      0x00\n      keccak256\n        /* \"contract.sol\":3316:3342  shgDetails[_shgId].balance */\n      0x04\n      add\n      sload\n        /* \"contract.sol\":3305:3312  _amount */\n      dup3\n        /* \"contract.sol\":3305:3342  _amount <= shgDetails[_shgId].balance */\n      gt\n      iszero\n        /* \"contract.sol\":3297:3371  require(_amount <= shgDetails[_shgId].balance, \"Insufficient SHG balance\") */\n      tag_148\n      jumpi\n      mload(0x40)\n      0x08c379a000000000000000000000000000000000000000000000000000000000\n      dup2\n      mstore\n      0x04\n      add\n      tag_149\n      swap1\n      tag_150\n      jump\t// in\n    tag_149:\n      mload(0x40)\n      dup1\n      swap2\n      sub\n      swap1\n      revert\n    tag_148:\n        /* \"contract.sol\":3384:3394  proposalId */\n      0x01\n      0x00\n        /* \"contract.sol\":3384:3396  proposalId++ */\n      dup2\n      sload\n      dup1\n      swap3\n      swap2\n      swap1\n      tag_151\n      swap1\n      tag_98\n      jump\t// in\n    tag_151:\n      swap2\n      swap1\n      pop\n      sstore\n      pop\n        /* \"contract.sol\":3407:3422  proposalIdInShg */\n      0x06\n        /* \"contract.sol\":3407:3430  proposalIdInShg[_shgId] */\n      0x00\n        /* \"contract.sol\":3423:3429  _shgId */\n      dup7\n        /* \"contract.sol\":3407:3430  proposalIdInShg[_shgId] */\n      dup2\n      mstore\n      0x20\n      add\n      swap1\n      dup2\n      mstore\n      0x20\n      add\n      0x00\n      keccak256\n        /* \"contract.sol\":3436:3446  proposalId */\n      sload(0x01)\n        /* \"contract.sol\":3407:3447  proposalIdInShg[_shgId].push(proposalId) */\n      swap1\n      dup1\n      0x01\n      dup2\n      sload\n      add\n      dup1\n      dup3\n      sstore\n      dup1\n      swap2\n      pop\n      pop\n      0x01\n      swap1\n      sub\n      swap1\n      0x00\n      mstore\n      keccak256(0x00, 0x20)\n      add\n      0x00\n      swap1\n      swap2\n      swap1\n      swap2\n      swap1\n      swap2\n      pop\n      sstore\n        /* \"contract.sol\":3460:3481  Proposal storage prop */\n      0x00\n        /* \"contract.sol\":3484:3499  proposalDetails */\n      0x03\n        /* \"contract.sol\":3484:3511  proposalDetails[proposalId] */\n      0x00\n        /* \"contract.sol\":3500:3510  proposalId */\n      sload(0x01)\n        /* \"contract.sol\":3484:3511  proposalDetails[proposalId] */\n      dup2\n      mstore\n      0x20\n      add\n      swap1\n      dup2\n      mstore\n      0x20\n      add\n      0x00\n      keccak256\n        /* \"contract.sol\":3460:3511  Proposal storage prop = proposalDetails[proposalId] */\n      swap1\n      pop\n        /* \"contract.sol\":3535:3541  _shgId */\n      dup6\n        /* \"contract.sol\":3522:3526  prop */\n      dup2\n        /* \"contract.sol\":3522:3532  prop.shgId */\n      0x00\n      add\n        /* \"contract.sol\":3522:3541  prop.shgId = _shgId */\n      dup2\n      swap1\n      sstore\n      pop\n        /* \"contract.sol\":3568:3578  msg.sender */\n      caller\n        /* \"contract.sol\":3552:3556  prop */\n      dup2\n        /* \"contract.sol\":3552:3565  prop.proposer */\n      0x01\n      add\n      0x00\n        /* \"contract.sol\":3552:3578  prop.proposer = msg.sender */\n      0x0100\n      exp\n      dup2\n      sload\n      dup2\n      0xffffffffffffffffffffffffffffffffffffffff\n      mul\n      not\n      and\n      swap1\n      dup4\n      0xffffffffffffffffffffffffffffffffffffffff\n      and\n      mul\n      or\n      swap1\n      sstore\n      pop\n        /* \"contract.sol\":3609:3622  _proposalName */\n      dup5\n        /* \"contract.sol\":3589:3593  prop */\n      dup2\n        /* \"contract.sol\":3589:3606  prop.proposalName */\n      0x02\n      add\n        /* \"contract.sol\":3589:3622  prop.proposalName = _proposalName */\n      swap1\n      dup2\n      tag_153\n      swap2\n      swap1\n      tag_103\n      jump\t// in\n    tag_153:\n      pop\n        /* \"contract.sol\":3660:3680  _proposalDescription */\n      dup4\n        /* \"contract.sol\":3633:3637  prop */\n      dup2\n        /* \"contract.sol\":3633:3657  prop.proposalDescription */\n      0x03\n      add\n        /* \"contract.sol\":3633:3680  prop.proposalDescription = _proposalDescription */\n      swap1\n      dup2\n      tag_154\n      swap2\n      swap1\n      tag_103\n      jump\t// in\n    tag_154:\n      pop\n        /* \"contract.sol\":3705:3712  _amount */\n      dup3\n        /* \"contract.sol\":3691:3695  prop */\n      dup2\n        /* \"contract.sol\":3691:3702  prop.amount */\n      0x04\n      add\n        /* \"contract.sol\":3691:3712  prop.amount = _amount */\n      dup2\n      swap1\n      sstore\n      pop\n        /* \"contract.sol\":3745:3760  block.timestamp */\n      timestamp\n        /* \"contract.sol\":3723:3727  prop */\n      dup2\n        /* \"contract.sol\":3723:3742  prop.timeOfProposal */\n      0x07\n      add\n        /* \"contract.sol\":3723:3760  prop.timeOfProposal = block.timestamp */\n      dup2\n      swap1\n      sstore\n      pop\n        /* \"contract.sol\":3785:3807  ProposalStatus.Pending */\n      0x00\n        /* \"contract.sol\":3771:3775  prop */\n      dup2\n        /* \"contract.sol\":3771:3782  prop.status */\n      0x08\n      add\n      0x00\n        /* \"contract.sol\":3771:3807  prop.status = ProposalStatus.Pending */\n      0x0100\n      exp\n      dup2\n      sload\n      dup2\n      0xff\n      mul\n      not\n      and\n      swap1\n      dup4\n      0x03\n      dup2\n      gt\n      iszero\n      tag_155\n      jumpi\n      tag_156\n      tag_119\n      jump\t// in\n    tag_156:\n    tag_155:\n      mul\n      or\n      swap1\n      sstore\n      pop\n        /* \"contract.sol\":3861:3871  msg.sender */\n      caller\n        /* \"contract.sol\":3825:3887  ProposalCreated(proposalId, _shgId, msg.sender, _proposalName) */\n      0xffffffffffffffffffffffffffffffffffffffff\n      and\n        /* \"contract.sol\":3853:3859  _shgId */\n      dup7\n        /* \"contract.sol\":3841:3851  proposalId */\n      sload(0x01)\n        /* \"contract.sol\":3825:3887  ProposalCreated(proposalId, _shgId, msg.sender, _proposalName) */\n      0x6f3322e9e9bcd9739d7dcbb73278ee28b363d39f7900bd404831ee8dfb41608e\n        /* \"contract.sol\":3873:3886  _proposalName */\n      dup9\n        /* \"contract.sol\":3825:3887  ProposalCreated(proposalId, _shgId, msg.sender, _proposalName) */\n      mload(0x40)\n      tag_157\n      swap2\n      swap1\n      tag_110\n      jump\t// in\n    tag_157:\n      mload(0x40)\n      dup1\n      swap2\n      sub\n      swap1\n      log4\n        /* \"contract.sol\":3286:3895  {... */\n      pop\n        /* \"contract.sol\":3092:3895  function createProposal(... */\n      pop\n      pop\n      pop\n      pop\n      pop\n      jump\t// out\n        /* \"contract.sol\":980:1032  mapping(uint256 => uint256[]) public proposalIdInShg */\n    tag_53:\n      mstore(0x20, 0x06)\n      dup2\n      0x00\n      mstore\n      keccak256(0x00, 0x40)\n      dup2\n      dup2\n      sload\n      dup2\n      lt\n      tag_158\n      jumpi\n      0x00\n      dup1\n      revert\n    tag_158:\n      swap1\n      0x00\n      mstore\n      keccak256(0x00, 0x20)\n      add\n      0x00\n      swap2\n      pop\n      swap2\n      pop\n      pop\n      sload\n      dup2\n      jump\t// out\n        /* \"contract.sol\":768:809  mapping(uint256 => SHG) public shgDetails */\n    tag_58:\n      mstore(0x20, 0x02)\n      dup1\n      0x00\n      mstore\n      keccak256(0x00, 0x40)\n      0x00\n      swap2\n      pop\n      swap1\n      pop\n      dup1\n      0x00\n      add\n      0x00\n      swap1\n      sload\n      swap1\n      0x0100\n      exp\n      swap1\n      div\n      0xffffffffffffffffffffffffffffffffffffffff\n      and\n      swap1\n      dup1\n      0x01\n      add\n      dup1\n      sload\n      tag_160\n      swap1\n      tag_86\n      jump\t// in\n    tag_160:\n      dup1\n      0x1f\n      add\n      0x20\n      dup1\n      swap2\n      div\n      mul\n      0x20\n      add\n      mload(0x40)\n      swap1\n      dup2\n      add\n      0x40\n      mstore\n      dup1\n      swap3\n      swap2\n      swap1\n      dup2\n      dup2\n      mstore\n      0x20\n      add\n      dup3\n      dup1\n      sload\n      tag_161\n      swap1\n      tag_86\n      jump\t// in\n    tag_161:\n      dup1\n      iszero\n      tag_162\n      jumpi\n      dup1\n      0x1f\n      lt\n      tag_163\n      jumpi\n      0x0100\n      dup1\n      dup4\n      sload\n      div\n      mul\n      dup4\n      mstore\n      swap2\n      0x20\n      add\n      swap2\n      jump(tag_162)\n    tag_163:\n      dup3\n      add\n      swap2\n      swap1\n      0x00\n      mstore\n      keccak256(0x00, 0x20)\n      swap1\n    tag_164:\n      dup2\n      sload\n      dup2\n      mstore\n      swap1\n      0x01\n      add\n      swap1\n      0x20\n      add\n      dup1\n      dup4\n      gt\n      tag_164\n      jumpi\n      dup3\n      swap1\n      sub\n      0x1f\n      and\n      dup3\n      add\n      swap2\n    tag_162:\n      pop\n      pop\n      pop\n      pop\n      pop\n      swap1\n      dup1\n      0x02\n      add\n      dup1\n      sload\n      tag_165\n      swap1\n      tag_86\n      jump\t// in\n    tag_165:\n      dup1\n      0x1f\n      add\n      0x20\n      dup1\n      swap2\n      div\n      mul\n      0x20\n      add\n      mload(0x40)\n      swap1\n      dup2\n      add\n      0x40\n      mstore\n      dup1\n      swap3\n      swap2\n      swap1\n      dup2\n      dup2\n      mstore\n      0x20\n      add\n      dup3\n      dup1\n      sload\n      tag_166\n      swap1\n      tag_86\n      jump\t// in\n    tag_166:\n      dup1\n      iszero\n      tag_167\n      jumpi\n      dup1\n      0x1f\n      lt\n      tag_168\n      jumpi\n      0x0100\n      dup1\n      dup4\n      sload\n      div\n      mul\n      dup4\n      mstore\n      swap2\n      0x20\n      add\n      swap2\n      jump(tag_167)\n    tag_168:\n      dup3\n      add\n      swap2\n      swap1\n      0x00\n      mstore\n      keccak256(0x00, 0x20)\n      swap1\n    tag_169:\n      dup2\n      sload\n      dup2\n      mstore\n      swap1\n      0x01\n      add\n      swap1\n      0x20\n      add\n      dup1\n      dup4\n      gt\n      tag_169\n      jumpi\n      dup3\n      swap1\n      sub\n      0x1f\n      and\n      dup3\n      add\n      swap2\n    tag_167:\n      pop\n      pop\n      pop\n      pop\n      pop\n      swap1\n      dup1\n      0x03\n      add\n      sload\n      swap1\n      dup1\n      0x04\n      add\n      sload\n      swap1\n      dup1\n      0x06\n      add\n      sload\n      swap1\n      pop\n      dup7\n      jump\t// out\n        /* \"contract.sol\":699:723  uint256 public shgId = 0 */\n    tag_63:\n      sload(0x00)\n      dup2\n      jump\t// out\n        /* \"contract.sol\":925:973  mapping(address => uint256[]) public memberOfShg */\n    tag_69:\n      mstore(0x20, 0x05)\n      dup2\n      0x00\n      mstore\n      keccak256(0x00, 0x40)\n      dup2\n      dup2\n      sload\n      dup2\n      lt\n      tag_170\n      jumpi\n      0x00\n      dup1\n      revert\n    tag_170:\n      swap1\n      0x00\n      mstore\n      keccak256(0x00, 0x20)\n      add\n      0x00\n      swap2\n      pop\n      swap2\n      pop\n      pop\n      sload\n      dup2\n      jump\t// out\n        /* \"contract.sol\":2629:3084  function addFunds(uint256 _shgId) public payable {... */\n    tag_73:\n        /* \"contract.sol\":2709:2710  0 */\n      0x00\n        /* \"contract.sol\":2697:2706  msg.value */\n      callvalue\n        /* \"contract.sol\":2697:2710  msg.value > 0 */\n      gt\n        /* \"contract.sol\":2689:2730  require(msg.value > 0, \"Must send funds\") */\n      tag_173\n      jumpi\n      mload(0x40)\n      0x08c379a000000000000000000000000000000000000000000000000000000000\n      dup2\n      mstore\n      0x04\n      add\n      tag_174\n      swap1\n      tag_175\n      jump\t// in\n    tag_174:\n      mload(0x40)\n      dup1\n      swap2\n      sub\n      swap1\n      revert\n    tag_173:\n        /* \"contract.sol\":2741:2756  SHG storage shg */\n      0x00\n        /* \"contract.sol\":2759:2769  shgDetails */\n      0x02\n        /* \"contract.sol\":2759:2777  shgDetails[_shgId] */\n      0x00\n        /* \"contract.sol\":2770:2776  _shgId */\n      dup4\n        /* \"contract.sol\":2759:2777  shgDetails[_shgId] */\n      dup2\n      mstore\n      0x20\n      add\n      swap1\n      dup2\n      mstore\n      0x20\n      add\n      0x00\n      keccak256\n        /* \"contract.sol\":2741:2777  SHG storage shg = shgDetails[_shgId] */\n      swap1\n      pop\n        /* \"contract.sol\":2803:2806  shg */\n      dup1\n        /* \"contract.sol\":2803:2814  shg.funders */\n      0x05\n      add\n        /* \"contract.sol\":2803:2826  shg.funders[msg.sender] */\n      0x00\n        /* \"contract.sol\":2815:2825  msg.sender */\n      caller\n        /* \"contract.sol\":2803:2826  shg.funders[msg.sender] */\n      0xffffffffffffffffffffffffffffffffffffffff\n      and\n      0xffffffffffffffffffffffffffffffffffffffff\n      and\n      dup2\n      mstore\n      0x20\n      add\n      swap1\n      dup2\n      mstore\n      0x20\n      add\n      0x00\n      keccak256\n      0x00\n      swap1\n      sload\n      swap1\n      0x0100\n      exp\n      swap1\n      div\n      0xff\n      and\n        /* \"contract.sol\":2798:2983  if (!shg.funders[msg.sender]) {... */\n      tag_176\n      jumpi\n        /* \"contract.sol\":2869:2873  true */\n      0x01\n        /* \"contract.sol\":2843:2846  shg */\n      dup2\n        /* \"contract.sol\":2843:2854  shg.funders */\n      0x05\n      add\n        /* \"contract.sol\":2843:2866  shg.funders[msg.sender] */\n      0x00\n        /* \"contract.sol\":2855:2865  msg.sender */\n      caller\n        /* \"contract.sol\":2843:2866  shg.funders[msg.sender] */\n      0xffffffffffffffffffffffffffffffffffffffff\n      and\n      0xffffffffffffffffffffffffffffffffffffffff\n      and\n      dup2\n      mstore\n      0x20\n      add\n      swap1\n      dup2\n      mstore\n      0x20\n      add\n      0x00\n      keccak256\n      0x00\n        /* \"contract.sol\":2843:2873  shg.funders[msg.sender] = true */\n      0x0100\n      exp\n      dup2\n      sload\n      dup2\n      0xff\n      mul\n      not\n      and\n      swap1\n      dup4\n      iszero\n      iszero\n      mul\n      or\n      swap1\n      sstore\n      pop\n        /* \"contract.sol\":2888:2895  members */\n      0x04\n        /* \"contract.sol\":2888:2903  members[_shgId] */\n      0x00\n        /* \"contract.sol\":2896:2902  _shgId */\n      dup4\n        /* \"contract.sol\":2888:2903  members[_shgId] */\n      dup2\n      mstore\n      0x20\n      add\n      swap1\n      dup2\n      mstore\n      0x20\n      add\n      0x00\n      keccak256\n        /* \"contract.sol\":2909:2919  msg.sender */\n      caller\n        /* \"contract.sol\":2888:2920  members[_shgId].push(msg.sender) */\n      swap1\n      dup1\n      0x01\n      dup2\n      sload\n      add\n      dup1\n      dup3\n      sstore\n      dup1\n      swap2\n      pop\n      pop\n      0x01\n      swap1\n      sub\n      swap1\n      0x00\n      mstore\n      keccak256(0x00, 0x20)\n      add\n      0x00\n      swap1\n      swap2\n      swap1\n      swap2\n      swap1\n      swap2\n      0x0100\n      exp\n      dup2\n      sload\n      dup2\n      0xffffffffffffffffffffffffffffffffffffffff\n      mul\n      not\n      and\n      swap1\n      dup4\n      0xffffffffffffffffffffffffffffffffffffffff\n      and\n      mul\n      or\n      swap1\n      sstore\n      pop\n        /* \"contract.sol\":2935:2946  memberOfShg */\n      0x05\n        /* \"contract.sol\":2935:2958  memberOfShg[msg.sender] */\n      0x00\n        /* \"contract.sol\":2947:2957  msg.sender */\n      caller\n        /* \"contract.sol\":2935:2958  memberOfShg[msg.sender] */\n      0xffffffffffffffffffffffffffffffffffffffff\n      and\n      0xffffffffffffffffffffffffffffffffffffffff\n      and\n      dup2\n      mstore\n      0x20\n      add\n      swap1\n      dup2\n      mstore\n      0x20\n      add\n      0x00\n      keccak256\n        /* \"contract.sol\":2964:2970  _shgId */\n      dup3\n        /* \"contract.sol\":2935:2971  memberOfShg[msg.sender].push(_shgId) */\n      swap1\n      dup1\n      0x01\n      dup2\n      sload\n      add\n      dup1\n      dup3\n      sstore\n      dup1\n      swap2\n      pop\n      pop\n      0x01\n      swap1\n      sub\n      swap1\n      0x00\n      mstore\n      keccak256(0x00, 0x20)\n      add\n      0x00\n      swap1\n      swap2\n      swap1\n      swap2\n      swap1\n      swap2\n      pop\n      sstore\n        /* \"contract.sol\":2798:2983  if (!shg.funders[msg.sender]) {... */\n    tag_176:\n        /* \"contract.sol\":3010:3019  msg.value */\n      callvalue\n        /* \"contract.sol\":2995:2998  shg */\n      dup2\n        /* \"contract.sol\":2995:3006  shg.balance */\n      0x04\n      add\n      0x00\n        /* \"contract.sol\":2995:3019  shg.balance += msg.value */\n      dup3\n      dup3\n      sload\n      tag_179\n      swap2\n      swap1\n      tag_113\n      jump\t// in\n    tag_179:\n      swap3\n      pop\n      pop\n      dup2\n      swap1\n      sstore\n      pop\n        /* \"contract.sol\":3054:3064  msg.sender */\n      caller\n        /* \"contract.sol\":3035:3076  FundsAdded(_shgId, msg.sender, msg.value) */\n      0xffffffffffffffffffffffffffffffffffffffff\n      and\n        /* \"contract.sol\":3046:3052  _shgId */\n      dup3\n        /* \"contract.sol\":3035:3076  FundsAdded(_shgId, msg.sender, msg.value) */\n      0x71237963accfab6ceb4010b83f2ad8c635a475fea605b9a1be57cab17d5f9a65\n        /* \"contract.sol\":3066:3075  msg.value */\n      callvalue\n        /* \"contract.sol\":3035:3076  FundsAdded(_shgId, msg.sender, msg.value) */\n      mload(0x40)\n      tag_180\n      swap2\n      swap1\n      tag_40\n      jump\t// in\n    tag_180:\n      mload(0x40)\n      dup1\n      swap2\n      sub\n      swap1\n      log3\n        /* \"contract.sol\":2678:3084  {... */\n      pop\n        /* \"contract.sol\":2629:3084  function addFunds(uint256 _shgId) public payable {... */\n      pop\n      jump\t// out\n        /* \"contract.sol\":3903:4516  function vote(uint256 _proposalId, bool _inFavour) public {... */\n    tag_78:\n        /* \"contract.sol\":3972:3993  Proposal storage prop */\n      0x00\n        /* \"contract.sol\":3996:4011  proposalDetails */\n      0x03\n        /* \"contract.sol\":3996:4024  proposalDetails[_proposalId] */\n      0x00\n        /* \"contract.sol\":4012:4023  _proposalId */\n      dup5\n        /* \"contract.sol\":3996:4024  proposalDetails[_proposalId] */\n      dup2\n      mstore\n      0x20\n      add\n      swap1\n      dup2\n      mstore\n      0x20\n      add\n      0x00\n      keccak256\n        /* \"contract.sol\":3972:4024  Proposal storage prop = proposalDetails[_proposalId] */\n      swap1\n      pop\n        /* \"contract.sol\":4035:4050  SHG storage shg */\n      0x00\n        /* \"contract.sol\":4053:4063  shgDetails */\n      0x02\n        /* \"contract.sol\":4053:4075  shgDetails[prop.shgId] */\n      0x00\n        /* \"contract.sol\":4064:4068  prop */\n      dup4\n        /* \"contract.sol\":4064:4074  prop.shgId */\n      0x00\n      add\n      sload\n        /* \"contract.sol\":4053:4075  shgDetails[prop.shgId] */\n      dup2\n      mstore\n      0x20\n      add\n      swap1\n      dup2\n      mstore\n      0x20\n      add\n      0x00\n      keccak256\n        /* \"contract.sol\":4035:4075  SHG storage shg = shgDetails[prop.shgId] */\n      swap1\n      pop\n        /* \"contract.sol\":4094:4097  shg */\n      dup1\n        /* \"contract.sol\":4094:4105  shg.funders */\n      0x05\n      add\n        /* \"contract.sol\":4094:4117  shg.funders[msg.sender] */\n      0x00\n        /* \"contract.sol\":4106:4116  msg.sender */\n      caller\n        /* \"contract.sol\":4094:4117  shg.funders[msg.sender] */\n      0xffffffffffffffffffffffffffffffffffffffff\n      and\n      0xffffffffffffffffffffffffffffffffffffffff\n      and\n      dup2\n      mstore\n      0x20\n      add\n      swap1\n      dup2\n      mstore\n      0x20\n      add\n      0x00\n      keccak256\n      0x00\n      swap1\n      sload\n      swap1\n      0x0100\n      exp\n      swap1\n      div\n      0xff\n      and\n        /* \"contract.sol\":4086:4146  require(shg.funders[msg.sender], \"Not a member of this SHG\") */\n      tag_182\n      jumpi\n      mload(0x40)\n      0x08c379a000000000000000000000000000000000000000000000000000000000\n      dup2\n      mstore\n      0x04\n      add\n      tag_183\n      swap1\n      tag_146\n      jump\t// in\n    tag_183:\n      mload(0x40)\n      dup1\n      swap2\n      sub\n      swap1\n      revert\n    tag_182:\n        /* \"contract.sol\":4206:4209  shg */\n      dup1\n        /* \"contract.sol\":4206:4224  shg.votingDuration */\n      0x06\n      add\n      sload\n        /* \"contract.sol\":4184:4188  prop */\n      dup3\n        /* \"contract.sol\":4184:4203  prop.timeOfProposal */\n      0x07\n      add\n      sload\n        /* \"contract.sol\":4184:4224  prop.timeOfProposal + shg.votingDuration */\n      tag_184\n      swap2\n      swap1\n      tag_113\n      jump\t// in\n    tag_184:\n        /* \"contract.sol\":4165:4180  block.timestamp */\n      timestamp\n        /* \"contract.sol\":4165:4224  block.timestamp <= prop.timeOfProposal + shg.votingDuration */\n      gt\n      iszero\n        /* \"contract.sol\":4157:4252  require(block.timestamp <= prop.timeOfProposal + shg.votingDuration, \"Voting period has ended\") */\n      tag_185\n      jumpi\n      mload(0x40)\n      0x08c379a000000000000000000000000000000000000000000000000000000000\n      dup2\n      mstore\n      0x04\n      add\n      tag_186\n      swap1\n      tag_187\n      jump\t// in\n    tag_186:\n      mload(0x40)\n      dup1\n      swap2\n      sub\n      swap1\n      revert\n    tag_185:\n        /* \"contract.sol\":4285:4289  prop */\n      dup2\n        /* \"contract.sol\":4285:4298  prop.proposer */\n      0x01\n      add\n      0x00\n      swap1\n      sload\n      swap1\n      0x0100\n      exp\n      swap1\n      div\n      0xffffffffffffffffffffffffffffffffffffffff\n      and\n        /* \"contract.sol\":4271:4298  msg.sender != prop.proposer */\n      0xffffffffffffffffffffffffffffffffffffffff\n      and\n        /* \"contract.sol\":4271:4281  msg.sender */\n      caller\n        /* \"contract.sol\":4271:4298  msg.sender != prop.proposer */\n      0xffffffffffffffffffffffffffffffffffffffff\n      and\n      sub\n        /* \"contract.sol\":4263:4323  require(msg.sender != prop.proposer, \"Proposer cannot vote\") */\n      tag_188\n      jumpi\n      mload(0x40)\n      0x08c379a000000000000000000000000000000000000000000000000000000000\n      dup2\n      mstore\n      0x04\n      add\n      tag_189\n      swap1\n      tag_190\n      jump\t// in\n    tag_189:\n      mload(0x40)\n      dup1\n      swap2\n      sub\n      swap1\n      revert\n    tag_188:\n        /* \"contract.sol\":4340:4349  _inFavour */\n      dup3\n        /* \"contract.sol\":4336:4450  if (_inFavour) {... */\n      iszero\n      tag_191\n      jumpi\n        /* \"contract.sol\":4366:4370  prop */\n      dup2\n        /* \"contract.sol\":4366:4384  prop.votesInFavour */\n      0x05\n      add\n      0x00\n        /* \"contract.sol\":4366:4386  prop.votesInFavour++ */\n      dup2\n      sload\n      dup1\n      swap3\n      swap2\n      swap1\n      tag_192\n      swap1\n      tag_98\n      jump\t// in\n    tag_192:\n      swap2\n      swap1\n      pop\n      sstore\n      pop\n        /* \"contract.sol\":4336:4450  if (_inFavour) {... */\n      jump(tag_193)\n    tag_191:\n        /* \"contract.sol\":4419:4423  prop */\n      dup2\n        /* \"contract.sol\":4419:4436  prop.votesAgainst */\n      0x06\n      add\n      0x00\n        /* \"contract.sol\":4419:4438  prop.votesAgainst++ */\n      dup2\n      sload\n      dup1\n      swap3\n      swap2\n      swap1\n      tag_194\n      swap1\n      tag_98\n      jump\t// in\n    tag_194:\n      swap2\n      swap1\n      pop\n      sstore\n      pop\n        /* \"contract.sol\":4336:4450  if (_inFavour) {... */\n    tag_193:\n        /* \"contract.sol\":4486:4496  msg.sender */\n      caller\n        /* \"contract.sol\":4467:4508  Voted(_proposalId, msg.sender, _inFavour) */\n      0xffffffffffffffffffffffffffffffffffffffff\n      and\n        /* \"contract.sol\":4473:4484  _proposalId */\n      dup5\n        /* \"contract.sol\":4467:4508  Voted(_proposalId, msg.sender, _inFavour) */\n      0xf2913dbe661ee2acc4a046d8fbcdc792373bda34c41c6086484b5345e5785e5f\n        /* \"contract.sol\":4498:4507  _inFavour */\n      dup6\n        /* \"contract.sol\":4467:4508  Voted(_proposalId, msg.sender, _inFavour) */\n      mload(0x40)\n      tag_195\n      swap2\n      swap1\n      tag_196\n      jump\t// in\n    tag_195:\n      mload(0x40)\n      dup1\n      swap2\n      sub\n      swap1\n      log3\n        /* \"contract.sol\":3961:4516  {... */\n      pop\n      pop\n        /* \"contract.sol\":3903:4516  function vote(uint256 _proposalId, bool _inFavour) public {... */\n      pop\n      pop\n      jump\t// out\n        /* \"contract.sol\":5502:6179  function claimFund(uint256 _shgId, uint256 _proposalId) public {... */\n    tag_82:\n        /* \"contract.sol\":5576:5597  Proposal storage prop */\n      0x00\n        /* \"contract.sol\":5600:5615  proposalDetails */\n      0x03\n        /* \"contract.sol\":5600:5628  proposalDetails[_proposalId] */\n      0x00\n        /* \"contract.sol\":5616:5627  _proposalId */\n      dup4\n        /* \"contract.sol\":5600:5628  proposalDetails[_proposalId] */\n      dup2\n      mstore\n      0x20\n      add\n      swap1\n      dup2\n      mstore\n      0x20\n      add\n      0x00\n      keccak256\n        /* \"contract.sol\":5576:5628  Proposal storage prop = proposalDetails[_proposalId] */\n      swap1\n      pop\n        /* \"contract.sol\":5639:5654  SHG storage shg */\n      0x00\n        /* \"contract.sol\":5657:5667  shgDetails */\n      0x02\n        /* \"contract.sol\":5657:5675  shgDetails[_shgId] */\n      0x00\n        /* \"contract.sol\":5668:5674  _shgId */\n      dup6\n        /* \"contract.sol\":5657:5675  shgDetails[_shgId] */\n      dup2\n      mstore\n      0x20\n      add\n      swap1\n      dup2\n      mstore\n      0x20\n      add\n      0x00\n      keccak256\n        /* \"contract.sol\":5639:5675  SHG storage shg = shgDetails[_shgId] */\n      swap1\n      pop\n        /* \"contract.sol\":5710:5714  prop */\n      dup2\n        /* \"contract.sol\":5710:5723  prop.proposer */\n      0x01\n      add\n      0x00\n      swap1\n      sload\n      swap1\n      0x0100\n      exp\n      swap1\n      div\n      0xffffffffffffffffffffffffffffffffffffffff\n      and\n        /* \"contract.sol\":5696:5723  msg.sender == prop.proposer */\n      0xffffffffffffffffffffffffffffffffffffffff\n      and\n        /* \"contract.sol\":5696:5706  msg.sender */\n      caller\n        /* \"contract.sol\":5696:5723  msg.sender == prop.proposer */\n      0xffffffffffffffffffffffffffffffffffffffff\n      and\n      eq\n        /* \"contract.sol\":5688:5757  require(msg.sender == prop.proposer, \"Only proposer can claim funds\") */\n      tag_198\n      jumpi\n      mload(0x40)\n      0x08c379a000000000000000000000000000000000000000000000000000000000\n      dup2\n      mstore\n      0x04\n      add\n      tag_199\n      swap1\n      tag_200\n      jump\t// in\n    tag_199:\n      mload(0x40)\n      dup1\n      swap2\n      sub\n      swap1\n      revert\n    tag_198:\n        /* \"contract.sol\":5791:5814  ProposalStatus.Approved */\n      0x01\n        /* \"contract.sol\":5776:5814  prop.status == ProposalStatus.Approved */\n      0x03\n      dup2\n      gt\n      iszero\n      tag_201\n      jumpi\n      tag_202\n      tag_119\n      jump\t// in\n    tag_202:\n    tag_201:\n        /* \"contract.sol\":5776:5780  prop */\n      dup3\n        /* \"contract.sol\":5776:5787  prop.status */\n      0x08\n      add\n      0x00\n      swap1\n      sload\n      swap1\n      0x0100\n      exp\n      swap1\n      div\n      0xff\n      and\n        /* \"contract.sol\":5776:5814  prop.status == ProposalStatus.Approved */\n      0x03\n      dup2\n      gt\n      iszero\n      tag_203\n      jumpi\n      tag_204\n      tag_119\n      jump\t// in\n    tag_204:\n    tag_203:\n      eq\n        /* \"contract.sol\":5768:5840  require(prop.status == ProposalStatus.Approved, \"Proposal not approved\") */\n      tag_205\n      jumpi\n      mload(0x40)\n      0x08c379a000000000000000000000000000000000000000000000000000000000\n      dup2\n      mstore\n      0x04\n      add\n      tag_206\n      swap1\n      tag_207\n      jump\t// in\n    tag_206:\n      mload(0x40)\n      dup1\n      swap2\n      sub\n      swap1\n      revert\n    tag_205:\n        /* \"contract.sol\":5874:5877  shg */\n      dup1\n        /* \"contract.sol\":5874:5885  shg.balance */\n      0x04\n      add\n      sload\n        /* \"contract.sol\":5859:5863  prop */\n      dup3\n        /* \"contract.sol\":5859:5870  prop.amount */\n      0x04\n      add\n      sload\n        /* \"contract.sol\":5859:5885  prop.amount <= shg.balance */\n      gt\n      iszero\n        /* \"contract.sol\":5851:5914  require(prop.amount <= shg.balance, \"Insufficient SHG balance\") */\n      tag_208\n      jumpi\n      mload(0x40)\n      0x08c379a000000000000000000000000000000000000000000000000000000000\n      dup2\n      mstore\n      0x04\n      add\n      tag_209\n      swap1\n      tag_150\n      jump\t// in\n    tag_209:\n      mload(0x40)\n      dup1\n      swap2\n      sub\n      swap1\n      revert\n    tag_208:\n        /* \"contract.sol\":5927:5951  uint256 amountToTransfer */\n      0x00\n        /* \"contract.sol\":5954:5958  prop */\n      dup3\n        /* \"contract.sol\":5954:5965  prop.amount */\n      0x04\n      add\n      sload\n        /* \"contract.sol\":5927:5965  uint256 amountToTransfer = prop.amount */\n      swap1\n      pop\n        /* \"contract.sol\":5990:5991  0 */\n      0x00\n        /* \"contract.sol\":5976:5980  prop */\n      dup4\n        /* \"contract.sol\":5976:5987  prop.amount */\n      0x04\n      add\n        /* \"contract.sol\":5976:5991  prop.amount = 0 */\n      dup2\n      swap1\n      sstore\n      pop\n        /* \"contract.sol\":6017:6033  amountToTransfer */\n      dup1\n        /* \"contract.sol\":6002:6005  shg */\n      dup3\n        /* \"contract.sol\":6002:6013  shg.balance */\n      0x04\n      add\n      0x00\n        /* \"contract.sol\":6002:6033  shg.balance -= amountToTransfer */\n      dup3\n      dup3\n      sload\n      tag_210\n      swap2\n      swap1\n      tag_211\n      jump\t// in\n    tag_210:\n      swap3\n      pop\n      pop\n      dup2\n      swap1\n      sstore\n      pop\n        /* \"contract.sol\":6052:6062  msg.sender */\n      caller\n        /* \"contract.sol\":6044:6072  payable(msg.sender).transfer */\n      0xffffffffffffffffffffffffffffffffffffffff\n      and\n        /* \"contract.sol\":6044:6090  payable(msg.sender).transfer(amountToTransfer) */\n      0x08fc\n        /* \"contract.sol\":6073:6089  amountToTransfer */\n      dup3\n        /* \"contract.sol\":6044:6090  payable(msg.sender).transfer(amountToTransfer) */\n      swap1\n      dup2\n      iszero\n      mul\n      swap1\n      mload(0x40)\n      0x00\n      mload(0x40)\n      dup1\n      dup4\n      sub\n      dup2\n      dup6\n      dup9\n      dup9\n      call\n      swap4\n      pop\n      pop\n      pop\n      pop\n      iszero\n      dup1\n      iszero\n      tag_213\n      jumpi\n      returndatasize\n      0x00\n      dup1\n      returndatacopy\n      revert(0x00, returndatasize)\n    tag_213:\n      pop\n        /* \"contract.sol\":6142:6152  msg.sender */\n      caller\n        /* \"contract.sol\":6108:6171  FundsClaimed(_shgId, _proposalId, msg.sender, amountToTransfer) */\n      0xffffffffffffffffffffffffffffffffffffffff\n      and\n        /* \"contract.sol\":6129:6140  _proposalId */\n      dup5\n        /* \"contract.sol\":6121:6127  _shgId */\n      dup7\n        /* \"contract.sol\":6108:6171  FundsClaimed(_shgId, _proposalId, msg.sender, amountToTransfer) */\n      0x3f53f5f381ee0b1fbf730fa56efb0a2aec8a882b2847a1ec0279982d8846e4f2\n        /* \"contract.sol\":6154:6170  amountToTransfer */\n      dup5\n        /* \"contract.sol\":6108:6171  FundsClaimed(_shgId, _proposalId, msg.sender, amountToTransfer) */\n      mload(0x40)\n      tag_214\n      swap2\n      swap1\n      tag_40\n      jump\t// in\n    tag_214:\n      mload(0x40)\n      dup1\n      swap2\n      sub\n      swap1\n      log4\n        /* \"contract.sol\":5565:6179  {... */\n      pop\n      pop\n      pop\n        /* \"contract.sol\":5502:6179  function claimFund(uint256 _shgId, uint256 _proposalId) public {... */\n      pop\n      pop\n      jump\t// out\n        /* \"#utility.yul\":7:82   */\n    tag_215:\n        /* \"#utility.yul\":40:46   */\n      0x00\n        /* \"#utility.yul\":73:75   */\n      0x40\n        /* \"#utility.yul\":67:76   */\n      mload\n        /* \"#utility.yul\":57:76   */\n      swap1\n      pop\n        /* \"#utility.yul\":7:82   */\n      swap1\n      jump\t// out\n        /* \"#utility.yul\":88:205   */\n    tag_216:\n        /* \"#utility.yul\":197:198   */\n      0x00\n        /* \"#utility.yul\":194:195   */\n      dup1\n        /* \"#utility.yul\":187:199   */\n      revert\n        /* \"#utility.yul\":211:328   */\n    tag_217:\n        /* \"#utility.yul\":320:321   */\n      0x00\n        /* \"#utility.yul\":317:318   */\n      dup1\n        /* \"#utility.yul\":310:322   */\n      revert\n        /* \"#utility.yul\":334:411   */\n    tag_218:\n        /* \"#utility.yul\":371:378   */\n      0x00\n        /* \"#utility.yul\":400:405   */\n      dup2\n        /* \"#utility.yul\":389:405   */\n      swap1\n      pop\n        /* \"#utility.yul\":334:411   */\n      swap2\n      swap1\n      pop\n      jump\t// out\n        /* \"#utility.yul\":417:539   */\n    tag_219:\n        /* \"#utility.yul\":490:514   */\n      tag_293\n        /* \"#utility.yul\":508:513   */\n      dup2\n        /* \"#utility.yul\":490:514   */\n      tag_218\n      jump\t// in\n    tag_293:\n        /* \"#utility.yul\":483:488   */\n      dup2\n        /* \"#utility.yul\":480:515   */\n      eq\n        /* \"#utility.yul\":470:533   */\n      tag_294\n      jumpi\n        /* \"#utility.yul\":529:530   */\n      0x00\n        /* \"#utility.yul\":526:527   */\n      dup1\n        /* \"#utility.yul\":519:531   */\n      revert\n        /* \"#utility.yul\":470:533   */\n    tag_294:\n        /* \"#utility.yul\":417:539   */\n      pop\n      jump\t// out\n        /* \"#utility.yul\":545:684   */\n    tag_220:\n        /* \"#utility.yul\":591:596   */\n      0x00\n        /* \"#utility.yul\":629:635   */\n      dup2\n        /* \"#utility.yul\":616:636   */\n      calldataload\n        /* \"#utility.yul\":607:636   */\n      swap1\n      pop\n        /* \"#utility.yul\":645:678   */\n      tag_296\n        /* \"#utility.yul\":672:677   */\n      dup2\n        /* \"#utility.yul\":645:678   */\n      tag_219\n      jump\t// in\n    tag_296:\n        /* \"#utility.yul\":545:684   */\n      swap3\n      swap2\n      pop\n      pop\n      jump\t// out\n        /* \"#utility.yul\":690:1164   */\n    tag_20:\n        /* \"#utility.yul\":758:764   */\n      0x00\n        /* \"#utility.yul\":766:772   */\n      dup1\n        /* \"#utility.yul\":815:817   */\n      0x40\n        /* \"#utility.yul\":803:812   */\n      dup4\n        /* \"#utility.yul\":794:801   */\n      dup6\n        /* \"#utility.yul\":790:813   */\n      sub\n        /* \"#utility.yul\":786:818   */\n      slt\n        /* \"#utility.yul\":783:902   */\n      iszero\n      tag_298\n      jumpi\n        /* \"#utility.yul\":821:900   */\n      tag_299\n      tag_216\n      jump\t// in\n    tag_299:\n        /* \"#utility.yul\":783:902   */\n    tag_298:\n        /* \"#utility.yul\":941:942   */\n      0x00\n        /* \"#utility.yul\":966:1019   */\n      tag_300\n        /* \"#utility.yul\":1011:1018   */\n      dup6\n        /* \"#utility.yul\":1002:1008   */\n      dup3\n        /* \"#utility.yul\":991:1000   */\n      dup7\n        /* \"#utility.yul\":987:1009   */\n      add\n        /* \"#utility.yul\":966:1019   */\n      tag_220\n      jump\t// in\n    tag_300:\n        /* \"#utility.yul\":956:1019   */\n      swap3\n      pop\n        /* \"#utility.yul\":912:1029   */\n      pop\n        /* \"#utility.yul\":1068:1070   */\n      0x20\n        /* \"#utility.yul\":1094:1147   */\n      tag_301\n        /* \"#utility.yul\":1139:1146   */\n      dup6\n        /* \"#utility.yul\":1130:1136   */\n      dup3\n        /* \"#utility.yul\":1119:1128   */\n      dup7\n        /* \"#utility.yul\":1115:1137   */\n      add\n        /* \"#utility.yul\":1094:1147   */\n      tag_220\n      jump\t// in\n    tag_301:\n        /* \"#utility.yul\":1084:1147   */\n      swap2\n      pop\n        /* \"#utility.yul\":1039:1157   */\n      pop\n        /* \"#utility.yul\":690:1164   */\n      swap3\n      pop\n      swap3\n      swap1\n      pop\n      jump\t// out\n        /* \"#utility.yul\":1170:1296   */\n    tag_221:\n        /* \"#utility.yul\":1207:1214   */\n      0x00\n        /* \"#utility.yul\":1247:1289   */\n      0xffffffffffffffffffffffffffffffffffffffff\n        /* \"#utility.yul\":1240:1245   */\n      dup3\n        /* \"#utility.yul\":1236:1290   */\n      and\n        /* \"#utility.yul\":1225:1290   */\n      swap1\n      pop\n        /* \"#utility.yul\":1170:1296   */\n      swap2\n      swap1\n      pop\n      jump\t// out\n        /* \"#utility.yul\":1302:1398   */\n    tag_222:\n        /* \"#utility.yul\":1339:1346   */\n      0x00\n        /* \"#utility.yul\":1368:1392   */\n      tag_304\n        /* \"#utility.yul\":1386:1391   */\n      dup3\n        /* \"#utility.yul\":1368:1392   */\n      tag_221\n      jump\t// in\n    tag_304:\n        /* \"#utility.yul\":1357:1392   */\n      swap1\n      pop\n        /* \"#utility.yul\":1302:1398   */\n      swap2\n      swap1\n      pop\n      jump\t// out\n        /* \"#utility.yul\":1404:1522   */\n    tag_223:\n        /* \"#utility.yul\":1491:1515   */\n      tag_306\n        /* \"#utility.yul\":1509:1514   */\n      dup2\n        /* \"#utility.yul\":1491:1515   */\n      tag_222\n      jump\t// in\n    tag_306:\n        /* \"#utility.yul\":1486:1489   */\n      dup3\n        /* \"#utility.yul\":1479:1516   */\n      mstore\n        /* \"#utility.yul\":1404:1522   */\n      pop\n      pop\n      jump\t// out\n        /* \"#utility.yul\":1528:1750   */\n    tag_23:\n        /* \"#utility.yul\":1621:1625   */\n      0x00\n        /* \"#utility.yul\":1659:1661   */\n      0x20\n        /* \"#utility.yul\":1648:1657   */\n      dup3\n        /* \"#utility.yul\":1644:1662   */\n      add\n        /* \"#utility.yul\":1636:1662   */\n      swap1\n      pop\n        /* \"#utility.yul\":1672:1743   */\n      tag_308\n        /* \"#utility.yul\":1740:1741   */\n      0x00\n        /* \"#utility.yul\":1729:1738   */\n      dup4\n        /* \"#utility.yul\":1725:1742   */\n      add\n        /* \"#utility.yul\":1716:1722   */\n      dup5\n        /* \"#utility.yul\":1672:1743   */\n      tag_223\n      jump\t// in\n    tag_308:\n        /* \"#utility.yul\":1528:1750   */\n      swap3\n      swap2\n      pop\n      pop\n      jump\t// out\n        /* \"#utility.yul\":1756:2085   */\n    tag_27:\n        /* \"#utility.yul\":1815:1821   */\n      0x00\n        /* \"#utility.yul\":1864:1866   */\n      0x20\n        /* \"#utility.yul\":1852:1861   */\n      dup3\n        /* \"#utility.yul\":1843:1850   */\n      dup5\n        /* \"#utility.yul\":1839:1862   */\n      sub\n        /* \"#utility.yul\":1835:1867   */\n      slt\n        /* \"#utility.yul\":1832:1951   */\n      iszero\n      tag_310\n      jumpi\n        /* \"#utility.yul\":1870:1949   */\n      tag_311\n      tag_216\n      jump\t// in\n    tag_311:\n        /* \"#utility.yul\":1832:1951   */\n    tag_310:\n        /* \"#utility.yul\":1990:1991   */\n      0x00\n        /* \"#utility.yul\":2015:2068   */\n      tag_312\n        /* \"#utility.yul\":2060:2067   */\n      dup5\n        /* \"#utility.yul\":2051:2057   */\n      dup3\n        /* \"#utility.yul\":2040:2049   */\n      dup6\n        /* \"#utility.yul\":2036:2058   */\n      add\n        /* \"#utility.yul\":2015:2068   */\n      tag_220\n      jump\t// in\n    tag_312:\n        /* \"#utility.yul\":2005:2068   */\n      swap2\n      pop\n        /* \"#utility.yul\":1961:2078   */\n      pop\n        /* \"#utility.yul\":1756:2085   */\n      swap3\n      swap2\n      pop\n      pop\n      jump\t// out\n        /* \"#utility.yul\":2091:2209   */\n    tag_224:\n        /* \"#utility.yul\":2178:2202   */\n      tag_314\n        /* \"#utility.yul\":2196:2201   */\n      dup2\n        /* \"#utility.yul\":2178:2202   */\n      tag_218\n      jump\t// in\n    tag_314:\n        /* \"#utility.yul\":2173:2176   */\n      dup3\n        /* \"#utility.yul\":2166:2203   */\n      mstore\n        /* \"#utility.yul\":2091:2209   */\n      pop\n      pop\n      jump\t// out\n        /* \"#utility.yul\":2215:2314   */\n    tag_225:\n        /* \"#utility.yul\":2267:2273   */\n      0x00\n        /* \"#utility.yul\":2301:2306   */\n      dup2\n        /* \"#utility.yul\":2295:2307   */\n      mload\n        /* \"#utility.yul\":2285:2307   */\n      swap1\n      pop\n        /* \"#utility.yul\":2215:2314   */\n      swap2\n      swap1\n      pop\n      jump\t// out\n        /* \"#utility.yul\":2320:2489   */\n    tag_226:\n        /* \"#utility.yul\":2404:2415   */\n      0x00\n        /* \"#utility.yul\":2438:2444   */\n      dup3\n        /* \"#utility.yul\":2433:2436   */\n      dup3\n        /* \"#utility.yul\":2426:2445   */\n      mstore\n        /* \"#utility.yul\":2478:2482   */\n      0x20\n        /* \"#utility.yul\":2473:2476   */\n      dup3\n        /* \"#utility.yul\":2469:2483   */\n      add\n        /* \"#utility.yul\":2454:2483   */\n      swap1\n      pop\n        /* \"#utility.yul\":2320:2489   */\n      swap3\n      swap2\n      pop\n      pop\n      jump\t// out\n        /* \"#utility.yul\":2495:2634   */\n    tag_227:\n        /* \"#utility.yul\":2584:2590   */\n      dup3\n        /* \"#utility.yul\":2579:2582   */\n      dup2\n        /* \"#utility.yul\":2574:2577   */\n      dup4\n        /* \"#utility.yul\":2568:2591   */\n      mcopy\n        /* \"#utility.yul\":2625:2626   */\n      0x00\n        /* \"#utility.yul\":2616:2622   */\n      dup4\n        /* \"#utility.yul\":2611:2614   */\n      dup4\n        /* \"#utility.yul\":2607:2623   */\n      add\n        /* \"#utility.yul\":2600:2627   */\n      mstore\n        /* \"#utility.yul\":2495:2634   */\n      pop\n      pop\n      pop\n      jump\t// out\n        /* \"#utility.yul\":2640:2742   */\n    tag_228:\n        /* \"#utility.yul\":2681:2687   */\n      0x00\n        /* \"#utility.yul\":2732:2734   */\n      0x1f\n        /* \"#utility.yul\":2728:2735   */\n      not\n        /* \"#utility.yul\":2723:2725   */\n      0x1f\n        /* \"#utility.yul\":2716:2721   */\n      dup4\n        /* \"#utility.yul\":2712:2726   */\n      add\n        /* \"#utility.yul\":2708:2736   */\n      and\n        /* \"#utility.yul\":2698:2736   */\n      swap1\n      pop\n        /* \"#utility.yul\":2640:2742   */\n      swap2\n      swap1\n      pop\n      jump\t// out\n        /* \"#utility.yul\":2748:3125   */\n    tag_229:\n        /* \"#utility.yul\":2836:2839   */\n      0x00\n        /* \"#utility.yul\":2864:2903   */\n      tag_320\n        /* \"#utility.yul\":2897:2902   */\n      dup3\n        /* \"#utility.yul\":2864:2903   */\n      tag_225\n      jump\t// in\n    tag_320:\n        /* \"#utility.yul\":2919:2990   */\n      tag_321\n        /* \"#utility.yul\":2983:2989   */\n      dup2\n        /* \"#utility.yul\":2978:2981   */\n      dup6\n        /* \"#utility.yul\":2919:2990   */\n      tag_226\n      jump\t// in\n    tag_321:\n        /* \"#utility.yul\":2912:2990   */\n      swap4\n      pop\n        /* \"#utility.yul\":2999:3064   */\n      tag_322\n        /* \"#utility.yul\":3057:3063   */\n      dup2\n        /* \"#utility.yul\":3052:3055   */\n      dup6\n        /* \"#utility.yul\":3045:3049   */\n      0x20\n        /* \"#utility.yul\":3038:3043   */\n      dup7\n        /* \"#utility.yul\":3034:3050   */\n      add\n        /* \"#utility.yul\":2999:3064   */\n      tag_227\n      jump\t// in\n    tag_322:\n        /* \"#utility.yul\":3089:3118   */\n      tag_323\n        /* \"#utility.yul\":3111:3117   */\n      dup2\n        /* \"#utility.yul\":3089:3118   */\n      tag_228\n      jump\t// in\n    tag_323:\n        /* \"#utility.yul\":3084:3087   */\n      dup5\n        /* \"#utility.yul\":3080:3119   */\n      add\n        /* \"#utility.yul\":3073:3119   */\n      swap2\n      pop\n        /* \"#utility.yul\":2840:3125   */\n      pop\n        /* \"#utility.yul\":2748:3125   */\n      swap3\n      swap2\n      pop\n      pop\n      jump\t// out\n        /* \"#utility.yul\":3131:3311   */\n    tag_119:\n        /* \"#utility.yul\":3179:3256   */\n      0x4e487b7100000000000000000000000000000000000000000000000000000000\n        /* \"#utility.yul\":3176:3177   */\n      0x00\n        /* \"#utility.yul\":3169:3257   */\n      mstore\n        /* \"#utility.yul\":3276:3280   */\n      0x21\n        /* \"#utility.yul\":3273:3274   */\n      0x04\n        /* \"#utility.yul\":3266:3281   */\n      mstore\n        /* \"#utility.yul\":3300:3304   */\n      0x24\n        /* \"#utility.yul\":3297:3298   */\n      0x00\n        /* \"#utility.yul\":3290:3305   */\n      revert\n        /* \"#utility.yul\":3317:3439   */\n    tag_230:\n        /* \"#utility.yul\":3407:3408   */\n      0x04\n        /* \"#utility.yul\":3400:3405   */\n      dup2\n        /* \"#utility.yul\":3397:3409   */\n      lt\n        /* \"#utility.yul\":3387:3433   */\n      tag_326\n      jumpi\n        /* \"#utility.yul\":3413:3431   */\n      tag_327\n      tag_119\n      jump\t// in\n    tag_327:\n        /* \"#utility.yul\":3387:3433   */\n    tag_326:\n        /* \"#utility.yul\":3317:3439   */\n      pop\n      jump\t// out\n        /* \"#utility.yul\":3445:3590   */\n    tag_231:\n        /* \"#utility.yul\":3499:3506   */\n      0x00\n        /* \"#utility.yul\":3528:3533   */\n      dup2\n        /* \"#utility.yul\":3517:3533   */\n      swap1\n      pop\n        /* \"#utility.yul\":3534:3584   */\n      tag_329\n        /* \"#utility.yul\":3578:3583   */\n      dup3\n        /* \"#utility.yul\":3534:3584   */\n      tag_230\n      jump\t// in\n    tag_329:\n        /* \"#utility.yul\":3445:3590   */\n      swap2\n      swap1\n      pop\n      jump\t// out\n        /* \"#utility.yul\":3596:3741   */\n    tag_232:\n        /* \"#utility.yul\":3661:3670   */\n      0x00\n        /* \"#utility.yul\":3694:3735   */\n      tag_331\n        /* \"#utility.yul\":3729:3734   */\n      dup3\n        /* \"#utility.yul\":3694:3735   */\n      tag_231\n      jump\t// in\n    tag_331:\n        /* \"#utility.yul\":3681:3735   */\n      swap1\n      pop\n        /* \"#utility.yul\":3596:3741   */\n      swap2\n      swap1\n      pop\n      jump\t// out\n        /* \"#utility.yul\":3747:3908   */\n    tag_233:\n        /* \"#utility.yul\":3849:3901   */\n      tag_333\n        /* \"#utility.yul\":3895:3900   */\n      dup2\n        /* \"#utility.yul\":3849:3901   */\n      tag_232\n      jump\t// in\n    tag_333:\n        /* \"#utility.yul\":3844:3847   */\n      dup3\n        /* \"#utility.yul\":3837:3902   */\n      mstore\n        /* \"#utility.yul\":3747:3908   */\n      pop\n      pop\n      jump\t// out\n        /* \"#utility.yul\":3914:5234   */\n    tag_30:\n        /* \"#utility.yul\":4286:4290   */\n      0x00\n        /* \"#utility.yul\":4324:4327   */\n      0x0120\n        /* \"#utility.yul\":4313:4322   */\n      dup3\n        /* \"#utility.yul\":4309:4328   */\n      add\n        /* \"#utility.yul\":4301:4328   */\n      swap1\n      pop\n        /* \"#utility.yul\":4338:4409   */\n      tag_335\n        /* \"#utility.yul\":4406:4407   */\n      0x00\n        /* \"#utility.yul\":4395:4404   */\n      dup4\n        /* \"#utility.yul\":4391:4408   */\n      add\n        /* \"#utility.yul\":4382:4388   */\n      dup13\n        /* \"#utility.yul\":4338:4409   */\n      tag_224\n      jump\t// in\n    tag_335:\n        /* \"#utility.yul\":4419:4491   */\n      tag_336\n        /* \"#utility.yul\":4487:4489   */\n      0x20\n        /* \"#utility.yul\":4476:4485   */\n      dup4\n        /* \"#utility.yul\":4472:4490   */\n      add\n        /* \"#utility.yul\":4463:4469   */\n      dup12\n        /* \"#utility.yul\":4419:4491   */\n      tag_223\n      jump\t// in\n    tag_336:\n        /* \"#utility.yul\":4538:4547   */\n      dup2\n        /* \"#utility.yul\":4532:4536   */\n      dup2\n        /* \"#utility.yul\":4528:4548   */\n      sub\n        /* \"#utility.yul\":4523:4525   */\n      0x40\n        /* \"#utility.yul\":4512:4521   */\n      dup4\n        /* \"#utility.yul\":4508:4526   */\n      add\n        /* \"#utility.yul\":4501:4549   */\n      mstore\n        /* \"#utility.yul\":4566:4644   */\n      tag_337\n        /* \"#utility.yul\":4639:4643   */\n      dup2\n        /* \"#utility.yul\":4630:4636   */\n      dup11\n        /* \"#utility.yul\":4566:4644   */\n      tag_229\n      jump\t// in\n    tag_337:\n        /* \"#utility.yul\":4558:4644   */\n      swap1\n      pop\n        /* \"#utility.yul\":4691:4700   */\n      dup2\n        /* \"#utility.yul\":4685:4689   */\n      dup2\n        /* \"#utility.yul\":4681:4701   */\n      sub\n        /* \"#utility.yul\":4676:4678   */\n      0x60\n        /* \"#utility.yul\":4665:4674   */\n      dup4\n        /* \"#utility.yul\":4661:4679   */\n      add\n        /* \"#utility.yul\":4654:4702   */\n      mstore\n        /* \"#utility.yul\":4719:4797   */\n      tag_338\n        /* \"#utility.yul\":4792:4796   */\n      dup2\n        /* \"#utility.yul\":4783:4789   */\n      dup10\n        /* \"#utility.yul\":4719:4797   */\n      tag_229\n      jump\t// in\n    tag_338:\n        /* \"#utility.yul\":4711:4797   */\n      swap1\n      pop\n        /* \"#utility.yul\":4807:4880   */\n      tag_339\n        /* \"#utility.yul\":4875:4878   */\n      0x80\n        /* \"#utility.yul\":4864:4873   */\n      dup4\n        /* \"#utility.yul\":4860:4879   */\n      add\n        /* \"#utility.yul\":4851:4857   */\n      dup9\n        /* \"#utility.yul\":4807:4880   */\n      tag_224\n      jump\t// in\n    tag_339:\n        /* \"#utility.yul\":4890:4963   */\n      tag_340\n        /* \"#utility.yul\":4958:4961   */\n      0xa0\n        /* \"#utility.yul\":4947:4956   */\n      dup4\n        /* \"#utility.yul\":4943:4962   */\n      add\n        /* \"#utility.yul\":4934:4940   */\n      dup8\n        /* \"#utility.yul\":4890:4963   */\n      tag_224\n      jump\t// in\n    tag_340:\n        /* \"#utility.yul\":4973:5046   */\n      tag_341\n        /* \"#utility.yul\":5041:5044   */\n      0xc0\n        /* \"#utility.yul\":5030:5039   */\n      dup4\n        /* \"#utility.yul\":5026:5045   */\n      add\n        /* \"#utility.yul\":5017:5023   */\n      dup7\n        /* \"#utility.yul\":4973:5046   */\n      tag_224\n      jump\t// in\n    tag_341:\n        /* \"#utility.yul\":5056:5129   */\n      tag_342\n        /* \"#utility.yul\":5124:5127   */\n      0xe0\n        /* \"#utility.yul\":5113:5122   */\n      dup4\n        /* \"#utility.yul\":5109:5128   */\n      add\n        /* \"#utility.yul\":5100:5106   */\n      dup6\n        /* \"#utility.yul\":5056:5129   */\n      tag_224\n      jump\t// in\n    tag_342:\n        /* \"#utility.yul\":5139:5227   */\n      tag_343\n        /* \"#utility.yul\":5222:5225   */\n      0x0100\n        /* \"#utility.yul\":5211:5220   */\n      dup4\n        /* \"#utility.yul\":5207:5226   */\n      add\n        /* \"#utility.yul\":5198:5204   */\n      dup5\n        /* \"#utility.yul\":5139:5227   */\n      tag_233\n      jump\t// in\n    tag_343:\n        /* \"#utility.yul\":3914:5234   */\n      swap11\n      swap10\n      pop\n      pop\n      pop\n      pop\n      pop\n      pop\n      pop\n      pop\n      pop\n      pop\n      jump\t// out\n        /* \"#utility.yul\":5240:5357   */\n    tag_234:\n        /* \"#utility.yul\":5349:5350   */\n      0x00\n        /* \"#utility.yul\":5346:5347   */\n      dup1\n        /* \"#utility.yul\":5339:5351   */\n      revert\n        /* \"#utility.yul\":5363:5480   */\n    tag_235:\n        /* \"#utility.yul\":5472:5473   */\n      0x00\n        /* \"#utility.yul\":5469:5470   */\n      dup1\n        /* \"#utility.yul\":5462:5474   */\n      revert\n        /* \"#utility.yul\":5486:5666   */\n    tag_236:\n        /* \"#utility.yul\":5534:5611   */\n      0x4e487b7100000000000000000000000000000000000000000000000000000000\n        /* \"#utility.yul\":5531:5532   */\n      0x00\n        /* \"#utility.yul\":5524:5612   */\n      mstore\n        /* \"#utility.yul\":5631:5635   */\n      0x41\n        /* \"#utility.yul\":5628:5629   */\n      0x04\n        /* \"#utility.yul\":5621:5636   */\n      mstore\n        /* \"#utility.yul\":5655:5659   */\n      0x24\n        /* \"#utility.yul\":5652:5653   */\n      0x00\n        /* \"#utility.yul\":5645:5660   */\n      revert\n        /* \"#utility.yul\":5672:5953   */\n    tag_237:\n        /* \"#utility.yul\":5755:5782   */\n      tag_348\n        /* \"#utility.yul\":5777:5781   */\n      dup3\n        /* \"#utility.yul\":5755:5782   */\n      tag_228\n      jump\t// in\n    tag_348:\n        /* \"#utility.yul\":5747:5753   */\n      dup2\n        /* \"#utility.yul\":5743:5783   */\n      add\n        /* \"#utility.yul\":5885:5891   */\n      dup2\n        /* \"#utility.yul\":5873:5883   */\n      dup2\n        /* \"#utility.yul\":5870:5892   */\n      lt\n        /* \"#utility.yul\":5849:5867   */\n      0xffffffffffffffff\n        /* \"#utility.yul\":5837:5847   */\n      dup3\n        /* \"#utility.yul\":5834:5868   */\n      gt\n        /* \"#utility.yul\":5831:5893   */\n      or\n        /* \"#utility.yul\":5828:5916   */\n      iszero\n      tag_349\n      jumpi\n        /* \"#utility.yul\":5896:5914   */\n      tag_350\n      tag_236\n      jump\t// in\n    tag_350:\n        /* \"#utility.yul\":5828:5916   */\n    tag_349:\n        /* \"#utility.yul\":5936:5946   */\n      dup1\n        /* \"#utility.yul\":5932:5934   */\n      0x40\n        /* \"#utility.yul\":5925:5947   */\n      mstore\n        /* \"#utility.yul\":5715:5953   */\n      pop\n        /* \"#utility.yul\":5672:5953   */\n      pop\n      pop\n      jump\t// out\n        /* \"#utility.yul\":5959:6088   */\n    tag_238:\n        /* \"#utility.yul\":5993:5999   */\n      0x00\n        /* \"#utility.yul\":6020:6040   */\n      tag_352\n      tag_215\n      jump\t// in\n    tag_352:\n        /* \"#utility.yul\":6010:6040   */\n      swap1\n      pop\n        /* \"#utility.yul\":6049:6082   */\n      tag_353\n        /* \"#utility.yul\":6077:6081   */\n      dup3\n        /* \"#utility.yul\":6069:6075   */\n      dup3\n        /* \"#utility.yul\":6049:6082   */\n      tag_237\n      jump\t// in\n    tag_353:\n        /* \"#utility.yul\":5959:6088   */\n      swap2\n      swap1\n      pop\n      jump\t// out\n        /* \"#utility.yul\":6094:6402   */\n    tag_239:\n        /* \"#utility.yul\":6156:6160   */\n      0x00\n        /* \"#utility.yul\":6246:6264   */\n      0xffffffffffffffff\n        /* \"#utility.yul\":6238:6244   */\n      dup3\n        /* \"#utility.yul\":6235:6265   */\n      gt\n        /* \"#utility.yul\":6232:6288   */\n      iszero\n      tag_355\n      jumpi\n        /* \"#utility.yul\":6268:6286   */\n      tag_356\n      tag_236\n      jump\t// in\n    tag_356:\n        /* \"#utility.yul\":6232:6288   */\n    tag_355:\n        /* \"#utility.yul\":6306:6335   */\n      tag_357\n        /* \"#utility.yul\":6328:6334   */\n      dup3\n        /* \"#utility.yul\":6306:6335   */\n      tag_228\n      jump\t// in\n    tag_357:\n        /* \"#utility.yul\":6298:6335   */\n      swap1\n      pop\n        /* \"#utility.yul\":6390:6394   */\n      0x20\n        /* \"#utility.yul\":6384:6388   */\n      dup2\n        /* \"#utility.yul\":6380:6395   */\n      add\n        /* \"#utility.yul\":6372:6395   */\n      swap1\n      pop\n        /* \"#utility.yul\":6094:6402   */\n      swap2\n      swap1\n      pop\n      jump\t// out\n        /* \"#utility.yul\":6408:6556   */\n    tag_240:\n        /* \"#utility.yul\":6506:6512   */\n      dup3\n        /* \"#utility.yul\":6501:6504   */\n      dup2\n        /* \"#utility.yul\":6496:6499   */\n      dup4\n        /* \"#utility.yul\":6483:6513   */\n      calldatacopy\n        /* \"#utility.yul\":6547:6548   */\n      0x00\n        /* \"#utility.yul\":6538:6544   */\n      dup4\n        /* \"#utility.yul\":6533:6536   */\n      dup4\n        /* \"#utility.yul\":6529:6545   */\n      add\n        /* \"#utility.yul\":6522:6549   */\n      mstore\n        /* \"#utility.yul\":6408:6556   */\n      pop\n      pop\n      pop\n      jump\t// out\n        /* \"#utility.yul\":6562:6987   */\n    tag_241:\n        /* \"#utility.yul\":6640:6645   */\n      0x00\n        /* \"#utility.yul\":6665:6731   */\n      tag_360\n        /* \"#utility.yul\":6681:6730   */\n      tag_361\n        /* \"#utility.yul\":6723:6729   */\n      dup5\n        /* \"#utility.yul\":6681:6730   */\n      tag_239\n      jump\t// in\n    tag_361:\n        /* \"#utility.yul\":6665:6731   */\n      tag_238\n      jump\t// in\n    tag_360:\n        /* \"#utility.yul\":6656:6731   */\n      swap1\n      pop\n        /* \"#utility.yul\":6754:6760   */\n      dup3\n        /* \"#utility.yul\":6747:6752   */\n      dup2\n        /* \"#utility.yul\":6740:6761   */\n      mstore\n        /* \"#utility.yul\":6792:6796   */\n      0x20\n        /* \"#utility.yul\":6785:6790   */\n      dup2\n        /* \"#utility.yul\":6781:6797   */\n      add\n        /* \"#utility.yul\":6830:6833   */\n      dup5\n        /* \"#utility.yul\":6821:6827   */\n      dup5\n        /* \"#utility.yul\":6816:6819   */\n      dup5\n        /* \"#utility.yul\":6812:6828   */\n      add\n        /* \"#utility.yul\":6809:6834   */\n      gt\n        /* \"#utility.yul\":6806:6918   */\n      iszero\n      tag_362\n      jumpi\n        /* \"#utility.yul\":6837:6916   */\n      tag_363\n      tag_235\n      jump\t// in\n    tag_363:\n        /* \"#utility.yul\":6806:6918   */\n    tag_362:\n        /* \"#utility.yul\":6927:6981   */\n      tag_364\n        /* \"#utility.yul\":6974:6980   */\n      dup5\n        /* \"#utility.yul\":6969:6972   */\n      dup3\n        /* \"#utility.yul\":6964:6967   */\n      dup6\n        /* \"#utility.yul\":6927:6981   */\n      tag_240\n      jump\t// in\n    tag_364:\n        /* \"#utility.yul\":6646:6987   */\n      pop\n        /* \"#utility.yul\":6562:6987   */\n      swap4\n      swap3\n      pop\n      pop\n      pop\n      jump\t// out\n        /* \"#utility.yul\":7007:7347   */\n    tag_242:\n        /* \"#utility.yul\":7063:7068   */\n      0x00\n        /* \"#utility.yul\":7112:7115   */\n      dup3\n        /* \"#utility.yul\":7105:7109   */\n      0x1f\n        /* \"#utility.yul\":7097:7103   */\n      dup4\n        /* \"#utility.yul\":7093:7110   */\n      add\n        /* \"#utility.yul\":7089:7116   */\n      slt\n        /* \"#utility.yul\":7079:7201   */\n      tag_366\n      jumpi\n        /* \"#utility.yul\":7120:7199   */\n      tag_367\n      tag_234\n      jump\t// in\n    tag_367:\n        /* \"#utility.yul\":7079:7201   */\n    tag_366:\n        /* \"#utility.yul\":7237:7243   */\n      dup2\n        /* \"#utility.yul\":7224:7244   */\n      calldataload\n        /* \"#utility.yul\":7262:7341   */\n      tag_368\n        /* \"#utility.yul\":7337:7340   */\n      dup5\n        /* \"#utility.yul\":7329:7335   */\n      dup3\n        /* \"#utility.yul\":7322:7326   */\n      0x20\n        /* \"#utility.yul\":7314:7320   */\n      dup7\n        /* \"#utility.yul\":7310:7327   */\n      add\n        /* \"#utility.yul\":7262:7341   */\n      tag_241\n      jump\t// in\n    tag_368:\n        /* \"#utility.yul\":7253:7341   */\n      swap2\n      pop\n        /* \"#utility.yul\":7069:7347   */\n      pop\n        /* \"#utility.yul\":7007:7347   */\n      swap3\n      swap2\n      pop\n      pop\n      jump\t// out\n        /* \"#utility.yul\":7353:8332   */\n    tag_34:\n        /* \"#utility.yul\":7450:7456   */\n      0x00\n        /* \"#utility.yul\":7458:7464   */\n      dup1\n        /* \"#utility.yul\":7466:7472   */\n      0x00\n        /* \"#utility.yul\":7515:7517   */\n      0x60\n        /* \"#utility.yul\":7503:7512   */\n      dup5\n        /* \"#utility.yul\":7494:7501   */\n      dup7\n        /* \"#utility.yul\":7490:7513   */\n      sub\n        /* \"#utility.yul\":7486:7518   */\n      slt\n        /* \"#utility.yul\":7483:7602   */\n      iszero\n      tag_370\n      jumpi\n        /* \"#utility.yul\":7521:7600   */\n      tag_371\n      tag_216\n      jump\t// in\n    tag_371:\n        /* \"#utility.yul\":7483:7602   */\n    tag_370:\n        /* \"#utility.yul\":7669:7670   */\n      0x00\n        /* \"#utility.yul\":7658:7667   */\n      dup5\n        /* \"#utility.yul\":7654:7671   */\n      add\n        /* \"#utility.yul\":7641:7672   */\n      calldataload\n        /* \"#utility.yul\":7699:7717   */\n      0xffffffffffffffff\n        /* \"#utility.yul\":7691:7697   */\n      dup2\n        /* \"#utility.yul\":7688:7718   */\n      gt\n        /* \"#utility.yul\":7685:7802   */\n      iszero\n      tag_372\n      jumpi\n        /* \"#utility.yul\":7721:7800   */\n      tag_373\n      tag_217\n      jump\t// in\n    tag_373:\n        /* \"#utility.yul\":7685:7802   */\n    tag_372:\n        /* \"#utility.yul\":7826:7889   */\n      tag_374\n        /* \"#utility.yul\":7881:7888   */\n      dup7\n        /* \"#utility.yul\":7872:7878   */\n      dup3\n        /* \"#utility.yul\":7861:7870   */\n      dup8\n        /* \"#utility.yul\":7857:7879   */\n      add\n        /* \"#utility.yul\":7826:7889   */\n      tag_242\n      jump\t// in\n    tag_374:\n        /* \"#utility.yul\":7816:7889   */\n      swap4\n      pop\n        /* \"#utility.yul\":7612:7899   */\n      pop\n        /* \"#utility.yul\":7966:7968   */\n      0x20\n        /* \"#utility.yul\":7955:7964   */\n      dup5\n        /* \"#utility.yul\":7951:7969   */\n      add\n        /* \"#utility.yul\":7938:7970   */\n      calldataload\n        /* \"#utility.yul\":7997:8015   */\n      0xffffffffffffffff\n        /* \"#utility.yul\":7989:7995   */\n      dup2\n        /* \"#utility.yul\":7986:8016   */\n      gt\n        /* \"#utility.yul\":7983:8100   */\n      iszero\n      tag_375\n      jumpi\n        /* \"#utility.yul\":8019:8098   */\n      tag_376\n      tag_217\n      jump\t// in\n    tag_376:\n        /* \"#utility.yul\":7983:8100   */\n    tag_375:\n        /* \"#utility.yul\":8124:8187   */\n      tag_377\n        /* \"#utility.yul\":8179:8186   */\n      dup7\n        /* \"#utility.yul\":8170:8176   */\n      dup3\n        /* \"#utility.yul\":8159:8168   */\n      dup8\n        /* \"#utility.yul\":8155:8177   */\n      add\n        /* \"#utility.yul\":8124:8187   */\n      tag_242\n      jump\t// in\n    tag_377:\n        /* \"#utility.yul\":8114:8187   */\n      swap3\n      pop\n        /* \"#utility.yul\":7909:8197   */\n      pop\n        /* \"#utility.yul\":8236:8238   */\n      0x40\n        /* \"#utility.yul\":8262:8315   */\n      tag_378\n        /* \"#utility.yul\":8307:8314   */\n      dup7\n        /* \"#utility.yul\":8298:8304   */\n      dup3\n        /* \"#utility.yul\":8287:8296   */\n      dup8\n        /* \"#utility.yul\":8283:8305   */\n      add\n        /* \"#utility.yul\":8262:8315   */\n      tag_220\n      jump\t// in\n    tag_378:\n        /* \"#utility.yul\":8252:8315   */\n      swap2\n      pop\n        /* \"#utility.yul\":8207:8325   */\n      pop\n        /* \"#utility.yul\":7353:8332   */\n      swap3\n      pop\n      swap3\n      pop\n      swap3\n      jump\t// out\n        /* \"#utility.yul\":8338:8560   */\n    tag_40:\n        /* \"#utility.yul\":8431:8435   */\n      0x00\n        /* \"#utility.yul\":8469:8471   */\n      0x20\n        /* \"#utility.yul\":8458:8467   */\n      dup3\n        /* \"#utility.yul\":8454:8472   */\n      add\n        /* \"#utility.yul\":8446:8472   */\n      swap1\n      pop\n        /* \"#utility.yul\":8482:8553   */\n      tag_380\n        /* \"#utility.yul\":8550:8551   */\n      0x00\n        /* \"#utility.yul\":8539:8548   */\n      dup4\n        /* \"#utility.yul\":8535:8552   */\n      add\n        /* \"#utility.yul\":8526:8532   */\n      dup5\n        /* \"#utility.yul\":8482:8553   */\n      tag_224\n      jump\t// in\n    tag_380:\n        /* \"#utility.yul\":8338:8560   */\n      swap3\n      swap2\n      pop\n      pop\n      jump\t// out\n        /* \"#utility.yul\":8566:9691   */\n    tag_48:\n        /* \"#utility.yul\":8672:8678   */\n      0x00\n        /* \"#utility.yul\":8680:8686   */\n      dup1\n        /* \"#utility.yul\":8688:8694   */\n      0x00\n        /* \"#utility.yul\":8696:8702   */\n      dup1\n        /* \"#utility.yul\":8745:8748   */\n      0x80\n        /* \"#utility.yul\":8733:8742   */\n      dup6\n        /* \"#utility.yul\":8724:8731   */\n      dup8\n        /* \"#utility.yul\":8720:8743   */\n      sub\n        /* \"#utility.yul\":8716:8749   */\n      slt\n        /* \"#utility.yul\":8713:8833   */\n      iszero\n      tag_382\n      jumpi\n        /* \"#utility.yul\":8752:8831   */\n      tag_383\n      tag_216\n      jump\t// in\n    tag_383:\n        /* \"#utility.yul\":8713:8833   */\n    tag_382:\n        /* \"#utility.yul\":8872:8873   */\n      0x00\n        /* \"#utility.yul\":8897:8950   */\n      tag_384\n        /* \"#utility.yul\":8942:8949   */\n      dup8\n        /* \"#utility.yul\":8933:8939   */\n      dup3\n        /* \"#utility.yul\":8922:8931   */\n      dup9\n        /* \"#utility.yul\":8918:8940   */\n      add\n        /* \"#utility.yul\":8897:8950   */\n      tag_220\n      jump\t// in\n    tag_384:\n        /* \"#utility.yul\":8887:8950   */\n      swap5\n      pop\n        /* \"#utility.yul\":8843:8960   */\n      pop\n        /* \"#utility.yul\":9027:9029   */\n      0x20\n        /* \"#utility.yul\":9016:9025   */\n      dup6\n        /* \"#utility.yul\":9012:9030   */\n      add\n        /* \"#utility.yul\":8999:9031   */\n      calldataload\n        /* \"#utility.yul\":9058:9076   */\n      0xffffffffffffffff\n        /* \"#utility.yul\":9050:9056   */\n      dup2\n        /* \"#utility.yul\":9047:9077   */\n      gt\n        /* \"#utility.yul\":9044:9161   */\n      iszero\n      tag_385\n      jumpi\n        /* \"#utility.yul\":9080:9159   */\n      tag_386\n      tag_217\n      jump\t// in\n    tag_386:\n        /* \"#utility.yul\":9044:9161   */\n    tag_385:\n        /* \"#utility.yul\":9185:9248   */\n      tag_387\n        /* \"#utility.yul\":9240:9247   */\n      dup8\n        /* \"#utility.yul\":9231:9237   */\n      dup3\n        /* \"#utility.yul\":9220:9229   */\n      dup9\n        /* \"#utility.yul\":9216:9238   */\n      add\n        /* \"#utility.yul\":9185:9248   */\n      tag_242\n      jump\t// in\n    tag_387:\n        /* \"#utility.yul\":9175:9248   */\n      swap4\n      pop\n        /* \"#utility.yul\":8970:9258   */\n      pop\n        /* \"#utility.yul\":9325:9327   */\n      0x40\n        /* \"#utility.yul\":9314:9323   */\n      dup6\n        /* \"#utility.yul\":9310:9328   */\n      add\n        /* \"#utility.yul\":9297:9329   */\n      calldataload\n        /* \"#utility.yul\":9356:9374   */\n      0xffffffffffffffff\n        /* \"#utility.yul\":9348:9354   */\n      dup2\n        /* \"#utility.yul\":9345:9375   */\n      gt\n        /* \"#utility.yul\":9342:9459   */\n      iszero\n      tag_388\n      jumpi\n        /* \"#utility.yul\":9378:9457   */\n      tag_389\n      tag_217\n      jump\t// in\n    tag_389:\n        /* \"#utility.yul\":9342:9459   */\n    tag_388:\n        /* \"#utility.yul\":9483:9546   */\n      tag_390\n        /* \"#utility.yul\":9538:9545   */\n      dup8\n        /* \"#utility.yul\":9529:9535   */\n      dup3\n        /* \"#utility.yul\":9518:9527   */\n      dup9\n        /* \"#utility.yul\":9514:9536   */\n      add\n        /* \"#utility.yul\":9483:9546   */\n      tag_242\n      jump\t// in\n    tag_390:\n        /* \"#utility.yul\":9473:9546   */\n      swap3\n      pop\n        /* \"#utility.yul\":9268:9556   */\n      pop\n        /* \"#utility.yul\":9595:9597   */\n      0x60\n        /* \"#utility.yul\":9621:9674   */\n      tag_391\n        /* \"#utility.yul\":9666:9673   */\n      dup8\n        /* \"#utility.yul\":9657:9663   */\n      dup3\n        /* \"#utility.yul\":9646:9655   */\n      dup9\n        /* \"#utility.yul\":9642:9664   */\n      add\n        /* \"#utility.yul\":9621:9674   */\n      tag_220\n      jump\t// in\n    tag_391:\n        /* \"#utility.yul\":9611:9674   */\n      swap2\n      pop\n        /* \"#utility.yul\":9566:9684   */\n      pop\n        /* \"#utility.yul\":8566:9691   */\n      swap3\n      swap6\n      swap2\n      swap5\n      pop\n      swap3\n      pop\n      jump\t// out\n        /* \"#utility.yul\":9697:10654   */\n    tag_60:\n        /* \"#utility.yul\":9970:9974   */\n      0x00\n        /* \"#utility.yul\":10008:10011   */\n      0xc0\n        /* \"#utility.yul\":9997:10006   */\n      dup3\n        /* \"#utility.yul\":9993:10012   */\n      add\n        /* \"#utility.yul\":9985:10012   */\n      swap1\n      pop\n        /* \"#utility.yul\":10022:10093   */\n      tag_393\n        /* \"#utility.yul\":10090:10091   */\n      0x00\n        /* \"#utility.yul\":10079:10088   */\n      dup4\n        /* \"#utility.yul\":10075:10092   */\n      add\n        /* \"#utility.yul\":10066:10072   */\n      dup10\n        /* \"#utility.yul\":10022:10093   */\n      tag_223\n      jump\t// in\n    tag_393:\n        /* \"#utility.yul\":10140:10149   */\n      dup2\n        /* \"#utility.yul\":10134:10138   */\n      dup2\n        /* \"#utility.yul\":10130:10150   */\n      sub\n        /* \"#utility.yul\":10125:10127   */\n      0x20\n        /* \"#utility.yul\":10114:10123   */\n      dup4\n        /* \"#utility.yul\":10110:10128   */\n      add\n        /* \"#utility.yul\":10103:10151   */\n      mstore\n        /* \"#utility.yul\":10168:10246   */\n      tag_394\n        /* \"#utility.yul\":10241:10245   */\n      dup2\n        /* \"#utility.yul\":10232:10238   */\n      dup9\n        /* \"#utility.yul\":10168:10246   */\n      tag_229\n      jump\t// in\n    tag_394:\n        /* \"#utility.yul\":10160:10246   */\n      swap1\n      pop\n        /* \"#utility.yul\":10293:10302   */\n      dup2\n        /* \"#utility.yul\":10287:10291   */\n      dup2\n        /* \"#utility.yul\":10283:10303   */\n      sub\n        /* \"#utility.yul\":10278:10280   */\n      0x40\n        /* \"#utility.yul\":10267:10276   */\n      dup4\n        /* \"#utility.yul\":10263:10281   */\n      add\n        /* \"#utility.yul\":10256:10304   */\n      mstore\n        /* \"#utility.yul\":10321:10399   */\n      tag_395\n        /* \"#utility.yul\":10394:10398   */\n      dup2\n        /* \"#utility.yul\":10385:10391   */\n      dup8\n        /* \"#utility.yul\":10321:10399   */\n      tag_229\n      jump\t// in\n    tag_395:\n        /* \"#utility.yul\":10313:10399   */\n      swap1\n      pop\n        /* \"#utility.yul\":10409:10481   */\n      tag_396\n        /* \"#utility.yul\":10477:10479   */\n      0x60\n        /* \"#utility.yul\":10466:10475   */\n      dup4\n        /* \"#utility.yul\":10462:10480   */\n      add\n        /* \"#utility.yul\":10453:10459   */\n      dup7\n        /* \"#utility.yul\":10409:10481   */\n      tag_224\n      jump\t// in\n    tag_396:\n        /* \"#utility.yul\":10491:10564   */\n      tag_397\n        /* \"#utility.yul\":10559:10562   */\n      0x80\n        /* \"#utility.yul\":10548:10557   */\n      dup4\n        /* \"#utility.yul\":10544:10563   */\n      add\n        /* \"#utility.yul\":10535:10541   */\n      dup6\n        /* \"#utility.yul\":10491:10564   */\n      tag_224\n      jump\t// in\n    tag_397:\n        /* \"#utility.yul\":10574:10647   */\n      tag_398\n        /* \"#utility.yul\":10642:10645   */\n      0xa0\n        /* \"#utility.yul\":10631:10640   */\n      dup4\n        /* \"#utility.yul\":10627:10646   */\n      add\n        /* \"#utility.yul\":10618:10624   */\n      dup5\n        /* \"#utility.yul\":10574:10647   */\n      tag_224\n      jump\t// in\n    tag_398:\n        /* \"#utility.yul\":9697:10654   */\n      swap8\n      swap7\n      pop\n      pop\n      pop\n      pop\n      pop\n      pop\n      pop\n      jump\t// out\n        /* \"#utility.yul\":10660:10782   */\n    tag_243:\n        /* \"#utility.yul\":10733:10757   */\n      tag_400\n        /* \"#utility.yul\":10751:10756   */\n      dup2\n        /* \"#utility.yul\":10733:10757   */\n      tag_222\n      jump\t// in\n    tag_400:\n        /* \"#utility.yul\":10726:10731   */\n      dup2\n        /* \"#utility.yul\":10723:10758   */\n      eq\n        /* \"#utility.yul\":10713:10776   */\n      tag_401\n      jumpi\n        /* \"#utility.yul\":10772:10773   */\n      0x00\n        /* \"#utility.yul\":10769:10770   */\n      dup1\n        /* \"#utility.yul\":10762:10774   */\n      revert\n        /* \"#utility.yul\":10713:10776   */\n    tag_401:\n        /* \"#utility.yul\":10660:10782   */\n      pop\n      jump\t// out\n        /* \"#utility.yul\":10788:10927   */\n    tag_244:\n        /* \"#utility.yul\":10834:10839   */\n      0x00\n        /* \"#utility.yul\":10872:10878   */\n      dup2\n        /* \"#utility.yul\":10859:10879   */\n      calldataload\n        /* \"#utility.yul\":10850:10879   */\n      swap1\n      pop\n        /* \"#utility.yul\":10888:10921   */\n      tag_403\n        /* \"#utility.yul\":10915:10920   */\n      dup2\n        /* \"#utility.yul\":10888:10921   */\n      tag_243\n      jump\t// in\n    tag_403:\n        /* \"#utility.yul\":10788:10927   */\n      swap3\n      swap2\n      pop\n      pop\n      jump\t// out\n        /* \"#utility.yul\":10933:11407   */\n    tag_68:\n        /* \"#utility.yul\":11001:11007   */\n      0x00\n        /* \"#utility.yul\":11009:11015   */\n      dup1\n        /* \"#utility.yul\":11058:11060   */\n      0x40\n        /* \"#utility.yul\":11046:11055   */\n      dup4\n        /* \"#utility.yul\":11037:11044   */\n      dup6\n        /* \"#utility.yul\":11033:11056   */\n      sub\n        /* \"#utility.yul\":11029:11061   */\n      slt\n        /* \"#utility.yul\":11026:11145   */\n      iszero\n      tag_405\n      jumpi\n        /* \"#utility.yul\":11064:11143   */\n      tag_406\n      tag_216\n      jump\t// in\n    tag_406:\n        /* \"#utility.yul\":11026:11145   */\n    tag_405:\n        /* \"#utility.yul\":11184:11185   */\n      0x00\n        /* \"#utility.yul\":11209:11262   */\n      tag_407\n        /* \"#utility.yul\":11254:11261   */\n      dup6\n        /* \"#utility.yul\":11245:11251   */\n      dup3\n        /* \"#utility.yul\":11234:11243   */\n      dup7\n        /* \"#utility.yul\":11230:11252   */\n      add\n        /* \"#utility.yul\":11209:11262   */\n      tag_244\n      jump\t// in\n    tag_407:\n        /* \"#utility.yul\":11199:11262   */\n      swap3\n      pop\n        /* \"#utility.yul\":11155:11272   */\n      pop\n        /* \"#utility.yul\":11311:11313   */\n      0x20\n        /* \"#utility.yul\":11337:11390   */\n      tag_408\n        /* \"#utility.yul\":11382:11389   */\n      dup6\n        /* \"#utility.yul\":11373:11379   */\n      dup3\n        /* \"#utility.yul\":11362:11371   */\n      dup7\n        /* \"#utility.yul\":11358:11380   */\n      add\n        /* \"#utility.yul\":11337:11390   */\n      tag_220\n      jump\t// in\n    tag_408:\n        /* \"#utility.yul\":11327:11390   */\n      swap2\n      pop\n        /* \"#utility.yul\":11282:11400   */\n      pop\n        /* \"#utility.yul\":10933:11407   */\n      swap3\n      pop\n      swap3\n      swap1\n      pop\n      jump\t// out\n        /* \"#utility.yul\":11413:11503   */\n    tag_245:\n        /* \"#utility.yul\":11447:11454   */\n      0x00\n        /* \"#utility.yul\":11490:11495   */\n      dup2\n        /* \"#utility.yul\":11483:11496   */\n      iszero\n        /* \"#utility.yul\":11476:11497   */\n      iszero\n        /* \"#utility.yul\":11465:11497   */\n      swap1\n      pop\n        /* \"#utility.yul\":11413:11503   */\n      swap2\n      swap1\n      pop\n      jump\t// out\n        /* \"#utility.yul\":11509:11625   */\n    tag_246:\n        /* \"#utility.yul\":11579:11600   */\n      tag_411\n        /* \"#utility.yul\":11594:11599   */\n      dup2\n        /* \"#utility.yul\":11579:11600   */\n      tag_245\n      jump\t// in\n    tag_411:\n        /* \"#utility.yul\":11572:11577   */\n      dup2\n        /* \"#utility.yul\":11569:11601   */\n      eq\n        /* \"#utility.yul\":11559:11619   */\n      tag_412\n      jumpi\n        /* \"#utility.yul\":11615:11616   */\n      0x00\n        /* \"#utility.yul\":11612:11613   */\n      dup1\n        /* \"#utility.yul\":11605:11617   */\n      revert\n        /* \"#utility.yul\":11559:11619   */\n    tag_412:\n        /* \"#utility.yul\":11509:11625   */\n      pop\n      jump\t// out\n        /* \"#utility.yul\":11631:11764   */\n    tag_247:\n        /* \"#utility.yul\":11674:11679   */\n      0x00\n        /* \"#utility.yul\":11712:11718   */\n      dup2\n        /* \"#utility.yul\":11699:11719   */\n      calldataload\n        /* \"#utility.yul\":11690:11719   */\n      swap1\n      pop\n        /* \"#utility.yul\":11728:11758   */\n      tag_414\n        /* \"#utility.yul\":11752:11757   */\n      dup2\n        /* \"#utility.yul\":11728:11758   */\n      tag_246\n      jump\t// in\n    tag_414:\n        /* \"#utility.yul\":11631:11764   */\n      swap3\n      swap2\n      pop\n      pop\n      jump\t// out\n        /* \"#utility.yul\":11770:12238   */\n    tag_77:\n        /* \"#utility.yul\":11835:11841   */\n      0x00\n        /* \"#utility.yul\":11843:11849   */\n      dup1\n        /* \"#utility.yul\":11892:11894   */\n      0x40\n        /* \"#utility.yul\":11880:11889   */\n      dup4\n        /* \"#utility.yul\":11871:11878   */\n      dup6\n        /* \"#utility.yul\":11867:11890   */\n      sub\n        /* \"#utility.yul\":11863:11895   */\n      slt\n        /* \"#utility.yul\":11860:11979   */\n      iszero\n      tag_416\n      jumpi\n        /* \"#utility.yul\":11898:11977   */\n      tag_417\n      tag_216\n      jump\t// in\n    tag_417:\n        /* \"#utility.yul\":11860:11979   */\n    tag_416:\n        /* \"#utility.yul\":12018:12019   */\n      0x00\n        /* \"#utility.yul\":12043:12096   */\n      tag_418\n        /* \"#utility.yul\":12088:12095   */\n      dup6\n        /* \"#utility.yul\":12079:12085   */\n      dup3\n        /* \"#utility.yul\":12068:12077   */\n      dup7\n        /* \"#utility.yul\":12064:12086   */\n      add\n        /* \"#utility.yul\":12043:12096   */\n      tag_220\n      jump\t// in\n    tag_418:\n        /* \"#utility.yul\":12033:12096   */\n      swap3\n      pop\n        /* \"#utility.yul\":11989:12106   */\n      pop\n        /* \"#utility.yul\":12145:12147   */\n      0x20\n        /* \"#utility.yul\":12171:12221   */\n      tag_419\n        /* \"#utility.yul\":12213:12220   */\n      dup6\n        /* \"#utility.yul\":12204:12210   */\n      dup3\n        /* \"#utility.yul\":12193:12202   */\n      dup7\n        /* \"#utility.yul\":12189:12211   */\n      add\n        /* \"#utility.yul\":12171:12221   */\n      tag_247\n      jump\t// in\n    tag_419:\n        /* \"#utility.yul\":12161:12221   */\n      swap2\n      pop\n        /* \"#utility.yul\":12116:12231   */\n      pop\n        /* \"#utility.yul\":11770:12238   */\n      swap3\n      pop\n      swap3\n      swap1\n      pop\n      jump\t// out\n        /* \"#utility.yul\":12244:12424   */\n    tag_248:\n        /* \"#utility.yul\":12292:12369   */\n      0x4e487b7100000000000000000000000000000000000000000000000000000000\n        /* \"#utility.yul\":12289:12290   */\n      0x00\n        /* \"#utility.yul\":12282:12370   */\n      mstore\n        /* \"#utility.yul\":12389:12393   */\n      0x22\n        /* \"#utility.yul\":12386:12387   */\n      0x04\n        /* \"#utility.yul\":12379:12394   */\n      mstore\n        /* \"#utility.yul\":12413:12417   */\n      0x24\n        /* \"#utility.yul\":12410:12411   */\n      0x00\n        /* \"#utility.yul\":12403:12418   */\n      revert\n        /* \"#utility.yul\":12430:12750   */\n    tag_86:\n        /* \"#utility.yul\":12474:12480   */\n      0x00\n        /* \"#utility.yul\":12511:12512   */\n      0x02\n        /* \"#utility.yul\":12505:12509   */\n      dup3\n        /* \"#utility.yul\":12501:12513   */\n      div\n        /* \"#utility.yul\":12491:12513   */\n      swap1\n      pop\n        /* \"#utility.yul\":12558:12559   */\n      0x01\n        /* \"#utility.yul\":12552:12556   */\n      dup3\n        /* \"#utility.yul\":12548:12560   */\n      and\n        /* \"#utility.yul\":12579:12597   */\n      dup1\n        /* \"#utility.yul\":12569:12650   */\n      tag_422\n      jumpi\n        /* \"#utility.yul\":12635:12639   */\n      0x7f\n        /* \"#utility.yul\":12627:12633   */\n      dup3\n        /* \"#utility.yul\":12623:12640   */\n      and\n        /* \"#utility.yul\":12613:12640   */\n      swap2\n      pop\n        /* \"#utility.yul\":12569:12650   */\n    tag_422:\n        /* \"#utility.yul\":12697:12699   */\n      0x20\n        /* \"#utility.yul\":12689:12695   */\n      dup3\n        /* \"#utility.yul\":12686:12700   */\n      lt\n        /* \"#utility.yul\":12666:12684   */\n      dup2\n        /* \"#utility.yul\":12663:12701   */\n      sub\n        /* \"#utility.yul\":12660:12744   */\n      tag_423\n      jumpi\n        /* \"#utility.yul\":12716:12734   */\n      tag_424\n      tag_248\n      jump\t// in\n    tag_424:\n        /* \"#utility.yul\":12660:12744   */\n    tag_423:\n        /* \"#utility.yul\":12481:12750   */\n      pop\n        /* \"#utility.yul\":12430:12750   */\n      swap2\n      swap1\n      pop\n      jump\t// out\n        /* \"#utility.yul\":12756:12936   */\n    tag_249:\n        /* \"#utility.yul\":12804:12881   */\n      0x4e487b7100000000000000000000000000000000000000000000000000000000\n        /* \"#utility.yul\":12801:12802   */\n      0x00\n        /* \"#utility.yul\":12794:12882   */\n      mstore\n        /* \"#utility.yul\":12901:12905   */\n      0x11\n        /* \"#utility.yul\":12898:12899   */\n      0x04\n        /* \"#utility.yul\":12891:12906   */\n      mstore\n        /* \"#utility.yul\":12925:12929   */\n      0x24\n        /* \"#utility.yul\":12922:12923   */\n      0x00\n        /* \"#utility.yul\":12915:12930   */\n      revert\n        /* \"#utility.yul\":12942:13175   */\n    tag_98:\n        /* \"#utility.yul\":12981:12984   */\n      0x00\n        /* \"#utility.yul\":13004:13028   */\n      tag_427\n        /* \"#utility.yul\":13022:13027   */\n      dup3\n        /* \"#utility.yul\":13004:13028   */\n      tag_218\n      jump\t// in\n    tag_427:\n        /* \"#utility.yul\":12995:13028   */\n      swap2\n      pop\n        /* \"#utility.yul\":13050:13116   */\n      0xffffffffffffffffffffffffffffffffffffffffffffffffffffffffffffffff\n        /* \"#utility.yul\":13043:13048   */\n      dup3\n        /* \"#utility.yul\":13040:13117   */\n      sub\n        /* \"#utility.yul\":13037:13140   */\n      tag_428\n      jumpi\n        /* \"#utility.yul\":13120:13138   */\n      tag_429\n      tag_249\n      jump\t// in\n    tag_429:\n        /* \"#utility.yul\":13037:13140   */\n    tag_428:\n        /* \"#utility.yul\":13167:13168   */\n      0x01\n        /* \"#utility.yul\":13160:13165   */\n      dup3\n        /* \"#utility.yul\":13156:13169   */\n      add\n        /* \"#utility.yul\":13149:13169   */\n      swap1\n      pop\n        /* \"#utility.yul\":12942:13175   */\n      swap2\n      swap1\n      pop\n      jump\t// out\n        /* \"#utility.yul\":13181:13358   */\n    tag_250:\n        /* \"#utility.yul\":13321:13350   */\n      0x596f752063616e206f6e6c7920637265617465206f6e65205348470000000000\n        /* \"#utility.yul\":13317:13318   */\n      0x00\n        /* \"#utility.yul\":13309:13315   */\n      dup3\n        /* \"#utility.yul\":13305:13319   */\n      add\n        /* \"#utility.yul\":13298:13351   */\n      mstore\n        /* \"#utility.yul\":13181:13358   */\n      pop\n      jump\t// out\n        /* \"#utility.yul\":13364:13730   */\n    tag_251:\n        /* \"#utility.yul\":13506:13509   */\n      0x00\n        /* \"#utility.yul\":13527:13594   */\n      tag_432\n        /* \"#utility.yul\":13591:13593   */\n      0x1b\n        /* \"#utility.yul\":13586:13589   */\n      dup4\n        /* \"#utility.yul\":13527:13594   */\n      tag_226\n      jump\t// in\n    tag_432:\n        /* \"#utility.yul\":13520:13594   */\n      swap2\n      pop\n        /* \"#utility.yul\":13603:13696   */\n      tag_433\n        /* \"#utility.yul\":13692:13695   */\n      dup3\n        /* \"#utility.yul\":13603:13696   */\n      tag_250\n      jump\t// in\n    tag_433:\n        /* \"#utility.yul\":13721:13723   */\n      0x20\n        /* \"#utility.yul\":13716:13719   */\n      dup3\n        /* \"#utility.yul\":13712:13724   */\n      add\n        /* \"#utility.yul\":13705:13724   */\n      swap1\n      pop\n        /* \"#utility.yul\":13364:13730   */\n      swap2\n      swap1\n      pop\n      jump\t// out\n        /* \"#utility.yul\":13736:14155   */\n    tag_101:\n        /* \"#utility.yul\":13902:13906   */\n      0x00\n        /* \"#utility.yul\":13940:13942   */\n      0x20\n        /* \"#utility.yul\":13929:13938   */\n      dup3\n        /* \"#utility.yul\":13925:13943   */\n      add\n        /* \"#utility.yul\":13917:13943   */\n      swap1\n      pop\n        /* \"#utility.yul\":13989:13998   */\n      dup2\n        /* \"#utility.yul\":13983:13987   */\n      dup2\n        /* \"#utility.yul\":13979:13999   */\n      sub\n        /* \"#utility.yul\":13975:13976   */\n      0x00\n        /* \"#utility.yul\":13964:13973   */\n      dup4\n        /* \"#utility.yul\":13960:13977   */\n      add\n        /* \"#utility.yul\":13953:14000   */\n      mstore\n        /* \"#utility.yul\":14017:14148   */\n      tag_435\n        /* \"#utility.yul\":14143:14147   */\n      dup2\n        /* \"#utility.yul\":14017:14148   */\n      tag_251\n      jump\t// in\n    tag_435:\n        /* \"#utility.yul\":14009:14148   */\n      swap1\n      pop\n        /* \"#utility.yul\":13736:14155   */\n      swap2\n      swap1\n      pop\n      jump\t// out\n        /* \"#utility.yul\":14161:14302   */\n    tag_252:\n        /* \"#utility.yul\":14210:14214   */\n      0x00\n        /* \"#utility.yul\":14233:14236   */\n      dup2\n        /* \"#utility.yul\":14225:14236   */\n      swap1\n      pop\n        /* \"#utility.yul\":14256:14259   */\n      dup2\n        /* \"#utility.yul\":14253:14254   */\n      0x00\n        /* \"#utility.yul\":14246:14260   */\n      mstore\n        /* \"#utility.yul\":14290:14294   */\n      0x20\n        /* \"#utility.yul\":14287:14288   */\n      0x00\n        /* \"#utility.yul\":14277:14295   */\n      keccak256\n        /* \"#utility.yul\":14269:14295   */\n      swap1\n      pop\n        /* \"#utility.yul\":14161:14302   */\n      swap2\n      swap1\n      pop\n      jump\t// out\n        /* \"#utility.yul\":14308:14401   */\n    tag_253:\n        /* \"#utility.yul\":14345:14351   */\n      0x00\n        /* \"#utility.yul\":14392:14394   */\n      0x20\n        /* \"#utility.yul\":14387:14389   */\n      0x1f\n        /* \"#utility.yul\":14380:14385   */\n      dup4\n        /* \"#utility.yul\":14376:14390   */\n      add\n        /* \"#utility.yul\":14372:14395   */\n      div\n        /* \"#utility.yul\":14362:14395   */\n      swap1\n      pop\n        /* \"#utility.yul\":14308:14401   */\n      swap2\n      swap1\n      pop\n      jump\t// out\n        /* \"#utility.yul\":14407:14514   */\n    tag_254:\n        /* \"#utility.yul\":14451:14459   */\n      0x00\n        /* \"#utility.yul\":14501:14506   */\n      dup3\n        /* \"#utility.yul\":14495:14499   */\n      dup3\n        /* \"#utility.yul\":14491:14507   */\n      shl\n        /* \"#utility.yul\":14470:14507   */\n      swap1\n      pop\n        /* \"#utility.yul\":14407:14514   */\n      swap3\n      swap2\n      pop\n      pop\n      jump\t// out\n        /* \"#utility.yul\":14520:14913   */\n    tag_255:\n        /* \"#utility.yul\":14589:14595   */\n      0x00\n        /* \"#utility.yul\":14639:14640   */\n      0x08\n        /* \"#utility.yul\":14627:14637   */\n      dup4\n        /* \"#utility.yul\":14623:14641   */\n      mul\n        /* \"#utility.yul\":14662:14759   */\n      tag_440\n        /* \"#utility.yul\":14692:14758   */\n      0xffffffffffffffffffffffffffffffffffffffffffffffffffffffffffffffff\n        /* \"#utility.yul\":14681:14690   */\n      dup3\n        /* \"#utility.yul\":14662:14759   */\n      tag_254\n      jump\t// in\n    tag_440:\n        /* \"#utility.yul\":14780:14819   */\n      tag_441\n        /* \"#utility.yul\":14810:14818   */\n      dup7\n        /* \"#utility.yul\":14799:14808   */\n      dup4\n        /* \"#utility.yul\":14780:14819   */\n      tag_254\n      jump\t// in\n    tag_441:\n        /* \"#utility.yul\":14768:14819   */\n      swap6\n      pop\n        /* \"#utility.yul\":14852:14856   */\n      dup1\n        /* \"#utility.yul\":14848:14857   */\n      not\n        /* \"#utility.yul\":14841:14846   */\n      dup5\n        /* \"#utility.yul\":14837:14858   */\n      and\n        /* \"#utility.yul\":14828:14858   */\n      swap4\n      pop\n        /* \"#utility.yul\":14901:14905   */\n      dup1\n        /* \"#utility.yul\":14891:14899   */\n      dup7\n        /* \"#utility.yul\":14887:14906   */\n      and\n        /* \"#utility.yul\":14880:14885   */\n      dup5\n        /* \"#utility.yul\":14877:14907   */\n      or\n        /* \"#utility.yul\":14867:14907   */\n      swap3\n      pop\n        /* \"#utility.yul\":14596:14913   */\n      pop\n      pop\n        /* \"#utility.yul\":14520:14913   */\n      swap4\n      swap3\n      pop\n      pop\n      pop\n      jump\t// out\n        /* \"#utility.yul\":14919:14979   */\n    tag_256:\n        /* \"#utility.yul\":14947:14950   */\n      0x00\n        /* \"#utility.yul\":14968:14973   */\n      dup2\n        /* \"#utility.yul\":14961:14973   */\n      swap1\n      pop\n        /* \"#utility.yul\":14919:14979   */\n      swap2\n      swap1\n      pop\n      jump\t// out\n        /* \"#utility.yul\":14985:15127   */\n    tag_257:\n        /* \"#utility.yul\":15035:15044   */\n      0x00\n        /* \"#utility.yul\":15068:15121   */\n      tag_444\n        /* \"#utility.yul\":15086:15120   */\n      tag_445\n        /* \"#utility.yul\":15095:15119   */\n      tag_446\n        /* \"#utility.yul\":15113:15118   */\n      dup5\n        /* \"#utility.yul\":15095:15119   */\n      tag_218\n      jump\t// in\n    tag_446:\n        /* \"#utility.yul\":15086:15120   */\n      tag_256\n      jump\t// in\n    tag_445:\n        /* \"#utility.yul\":15068:15121   */\n      tag_218\n      jump\t// in\n    tag_444:\n        /* \"#utility.yul\":15055:15121   */\n      swap1\n      pop\n        /* \"#utility.yul\":14985:15127   */\n      swap2\n      swap1\n      pop\n      jump\t// out\n        /* \"#utility.yul\":15133:15208   */\n    tag_258:\n        /* \"#utility.yul\":15176:15179   */\n      0x00\n        /* \"#utility.yul\":15197:15202   */\n      dup2\n        /* \"#utility.yul\":15190:15202   */\n      swap1\n      pop\n        /* \"#utility.yul\":15133:15208   */\n      swap2\n      swap1\n      pop\n      jump\t// out\n        /* \"#utility.yul\":15214:15483   */\n    tag_259:\n        /* \"#utility.yul\":15324:15363   */\n      tag_449\n        /* \"#utility.yul\":15355:15362   */\n      dup4\n        /* \"#utility.yul\":15324:15363   */\n      tag_257\n      jump\t// in\n    tag_449:\n        /* \"#utility.yul\":15385:15476   */\n      tag_450\n        /* \"#utility.yul\":15434:15475   */\n      tag_451\n        /* \"#utility.yul\":15458:15474   */\n      dup3\n        /* \"#utility.yul\":15434:15475   */\n      tag_258\n      jump\t// in\n    tag_451:\n        /* \"#utility.yul\":15426:15432   */\n      dup5\n        /* \"#utility.yul\":15419:15423   */\n      dup5\n        /* \"#utility.yul\":15413:15424   */\n      sload\n        /* \"#utility.yul\":15385:15476   */\n      tag_255\n      jump\t// in\n    tag_450:\n        /* \"#utility.yul\":15379:15383   */\n      dup3\n        /* \"#utility.yul\":15372:15477   */\n      sstore\n        /* \"#utility.yul\":15290:15483   */\n      pop\n        /* \"#utility.yul\":15214:15483   */\n      pop\n      pop\n      pop\n      jump\t// out\n        /* \"#utility.yul\":15489:15562   */\n    tag_260:\n        /* \"#utility.yul\":15534:15537   */\n      0x00\n        /* \"#utility.yul\":15489:15562   */\n      swap1\n      jump\t// out\n        /* \"#utility.yul\":15568:15757   */\n    tag_261:\n        /* \"#utility.yul\":15645:15677   */\n      tag_454\n      tag_260\n      jump\t// in\n    tag_454:\n        /* \"#utility.yul\":15686:15751   */\n      tag_455\n        /* \"#utility.yul\":15744:15750   */\n      dup2\n        /* \"#utility.yul\":15736:15742   */\n      dup5\n        /* \"#utility.yul\":15730:15734   */\n      dup5\n        /* \"#utility.yul\":15686:15751   */\n      tag_259\n      jump\t// in\n    tag_455:\n        /* \"#utility.yul\":15621:15757   */\n      pop\n        /* \"#utility.yul\":15568:15757   */\n      pop\n      pop\n      jump\t// out\n        /* \"#utility.yul\":15763:15949   */\n    tag_262:\n        /* \"#utility.yul\":15823:15943   */\n    tag_457:\n        /* \"#utility.yul\":15840:15843   */\n      dup2\n        /* \"#utility.yul\":15833:15838   */\n      dup2\n        /* \"#utility.yul\":15830:15844   */\n      lt\n        /* \"#utility.yul\":15823:15943   */\n      iszero\n      tag_459\n      jumpi\n        /* \"#utility.yul\":15894:15933   */\n      tag_460\n        /* \"#utility.yul\":15931:15932   */\n      0x00\n        /* \"#utility.yul\":15924:15929   */\n      dup3\n        /* \"#utility.yul\":15894:15933   */\n      tag_261\n      jump\t// in\n    tag_460:\n        /* \"#utility.yul\":15867:15868   */\n      0x01\n        /* \"#utility.yul\":15860:15865   */\n      dup2\n        /* \"#utility.yul\":15856:15869   */\n      add\n        /* \"#utility.yul\":15847:15869   */\n      swap1\n      pop\n        /* \"#utility.yul\":15823:15943   */\n      jump(tag_457)\n    tag_459:\n        /* \"#utility.yul\":15763:15949   */\n      pop\n      pop\n      jump\t// out\n        /* \"#utility.yul\":15955:16498   */\n    tag_263:\n        /* \"#utility.yul\":16056:16058   */\n      0x1f\n        /* \"#utility.yul\":16051:16054   */\n      dup3\n        /* \"#utility.yul\":16048:16059   */\n      gt\n        /* \"#utility.yul\":16045:16491   */\n      iszero\n      tag_462\n      jumpi\n        /* \"#utility.yul\":16090:16128   */\n      tag_463\n        /* \"#utility.yul\":16122:16127   */\n      dup2\n        /* \"#utility.yul\":16090:16128   */\n      tag_252\n      jump\t// in\n    tag_463:\n        /* \"#utility.yul\":16174:16203   */\n      tag_464\n        /* \"#utility.yul\":16192:16202   */\n      dup5\n        /* \"#utility.yul\":16174:16203   */\n      tag_253\n      jump\t// in\n    tag_464:\n        /* \"#utility.yul\":16164:16172   */\n      dup2\n        /* \"#utility.yul\":16160:16204   */\n      add\n        /* \"#utility.yul\":16357:16359   */\n      0x20\n        /* \"#utility.yul\":16345:16355   */\n      dup6\n        /* \"#utility.yul\":16342:16360   */\n      lt\n        /* \"#utility.yul\":16339:16388   */\n      iszero\n      tag_465\n      jumpi\n        /* \"#utility.yul\":16378:16386   */\n      dup2\n        /* \"#utility.yul\":16363:16386   */\n      swap1\n      pop\n        /* \"#utility.yul\":16339:16388   */\n    tag_465:\n        /* \"#utility.yul\":16401:16481   */\n      tag_466\n        /* \"#utility.yul\":16457:16479   */\n      tag_467\n        /* \"#utility.yul\":16475:16478   */\n      dup6\n        /* \"#utility.yul\":16457:16479   */\n      tag_253\n      jump\t// in\n    tag_467:\n        /* \"#utility.yul\":16447:16455   */\n      dup4\n        /* \"#utility.yul\":16443:16480   */\n      add\n        /* \"#utility.yul\":16430:16441   */\n      dup3\n        /* \"#utility.yul\":16401:16481   */\n      tag_262\n      jump\t// in\n    tag_466:\n        /* \"#utility.yul\":16060:16491   */\n      pop\n      pop\n        /* \"#utility.yul\":16045:16491   */\n    tag_462:\n        /* \"#utility.yul\":15955:16498   */\n      pop\n      pop\n      pop\n      jump\t// out\n        /* \"#utility.yul\":16504:16621   */\n    tag_264:\n        /* \"#utility.yul\":16558:16566   */\n      0x00\n        /* \"#utility.yul\":16608:16613   */\n      dup3\n        /* \"#utility.yul\":16602:16606   */\n      dup3\n        /* \"#utility.yul\":16598:16614   */\n      shr\n        /* \"#utility.yul\":16577:16614   */\n      swap1\n      pop\n        /* \"#utility.yul\":16504:16621   */\n      swap3\n      swap2\n      pop\n      pop\n      jump\t// out\n        /* \"#utility.yul\":16627:16796   */\n    tag_265:\n        /* \"#utility.yul\":16671:16677   */\n      0x00\n        /* \"#utility.yul\":16704:16755   */\n      tag_470\n        /* \"#utility.yul\":16752:16753   */\n      0x00\n        /* \"#utility.yul\":16748:16754   */\n      not\n        /* \"#utility.yul\":16740:16745   */\n      dup5\n        /* \"#utility.yul\":16737:16738   */\n      0x08\n        /* \"#utility.yul\":16733:16746   */\n      mul\n        /* \"#utility.yul\":16704:16755   */\n      tag_264\n      jump\t// in\n    tag_470:\n        /* \"#utility.yul\":16700:16756   */\n      not\n        /* \"#utility.yul\":16785:16789   */\n      dup1\n        /* \"#utility.yul\":16779:16783   */\n      dup4\n        /* \"#utility.yul\":16775:16790   */\n      and\n        /* \"#utility.yul\":16765:16790   */\n      swap2\n      pop\n        /* \"#utility.yul\":16678:16796   */\n      pop\n        /* \"#utility.yul\":16627:16796   */\n      swap3\n      swap2\n      pop\n      pop\n      jump\t// out\n        /* \"#utility.yul\":16801:17096   */\n    tag_266:\n        /* \"#utility.yul\":16877:16881   */\n      0x00\n        /* \"#utility.yul\":17023:17052   */\n      tag_472\n        /* \"#utility.yul\":17048:17051   */\n      dup4\n        /* \"#utility.yul\":17042:17046   */\n      dup4\n        /* \"#utility.yul\":17023:17052   */\n      tag_265\n      jump\t// in\n    tag_472:\n        /* \"#utility.yul\":17015:17052   */\n      swap2\n      pop\n        /* \"#utility.yul\":17085:17088   */\n      dup3\n        /* \"#utility.yul\":17082:17083   */\n      0x02\n        /* \"#utility.yul\":17078:17089   */\n      mul\n        /* \"#utility.yul\":17072:17076   */\n      dup3\n        /* \"#utility.yul\":17069:17090   */\n      or\n        /* \"#utility.yul\":17061:17090   */\n      swap1\n      pop\n        /* \"#utility.yul\":16801:17096   */\n      swap3\n      swap2\n      pop\n      pop\n      jump\t// out\n        /* \"#utility.yul\":17101:18496   */\n    tag_103:\n        /* \"#utility.yul\":17218:17255   */\n      tag_474\n        /* \"#utility.yul\":17251:17254   */\n      dup3\n        /* \"#utility.yul\":17218:17255   */\n      tag_225\n      jump\t// in\n    tag_474:\n        /* \"#utility.yul\":17320:17338   */\n      0xffffffffffffffff\n        /* \"#utility.yul\":17312:17318   */\n      dup2\n        /* \"#utility.yul\":17309:17339   */\n      gt\n        /* \"#utility.yul\":17306:17362   */\n      iszero\n      tag_475\n      jumpi\n        /* \"#utility.yul\":17342:17360   */\n      tag_476\n      tag_236\n      jump\t// in\n    tag_476:\n        /* \"#utility.yul\":17306:17362   */\n    tag_475:\n        /* \"#utility.yul\":17386:17424   */\n      tag_477\n        /* \"#utility.yul\":17418:17422   */\n      dup3\n        /* \"#utility.yul\":17412:17423   */\n      sload\n        /* \"#utility.yul\":17386:17424   */\n      tag_86\n      jump\t// in\n    tag_477:\n        /* \"#utility.yul\":17471:17538   */\n      tag_478\n        /* \"#utility.yul\":17531:17537   */\n      dup3\n        /* \"#utility.yul\":17523:17529   */\n      dup3\n        /* \"#utility.yul\":17517:17521   */\n      dup6\n        /* \"#utility.yul\":17471:17538   */\n      tag_263\n      jump\t// in\n    tag_478:\n        /* \"#utility.yul\":17565:17566   */\n      0x00\n        /* \"#utility.yul\":17589:17593   */\n      0x20\n        /* \"#utility.yul\":17576:17593   */\n      swap1\n      pop\n        /* \"#utility.yul\":17621:17623   */\n      0x1f\n        /* \"#utility.yul\":17613:17619   */\n      dup4\n        /* \"#utility.yul\":17610:17624   */\n      gt\n        /* \"#utility.yul\":17638:17639   */\n      0x01\n        /* \"#utility.yul\":17633:18251   */\n      dup2\n      eq\n      tag_480\n      jumpi\n        /* \"#utility.yul\":18295:18296   */\n      0x00\n        /* \"#utility.yul\":18312:18318   */\n      dup5\n        /* \"#utility.yul\":18309:18386   */\n      iszero\n      tag_481\n      jumpi\n        /* \"#utility.yul\":18361:18370   */\n      dup3\n        /* \"#utility.yul\":18356:18359   */\n      dup8\n        /* \"#utility.yul\":18352:18371   */\n      add\n        /* \"#utility.yul\":18346:18372   */\n      mload\n        /* \"#utility.yul\":18337:18372   */\n      swap1\n      pop\n        /* \"#utility.yul\":18309:18386   */\n    tag_481:\n        /* \"#utility.yul\":18412:18479   */\n      tag_482\n        /* \"#utility.yul\":18472:18478   */\n      dup6\n        /* \"#utility.yul\":18465:18470   */\n      dup3\n        /* \"#utility.yul\":18412:18479   */\n      tag_266\n      jump\t// in\n    tag_482:\n        /* \"#utility.yul\":18406:18410   */\n      dup7\n        /* \"#utility.yul\":18399:18480   */\n      sstore\n        /* \"#utility.yul\":18268:18490   */\n      pop\n        /* \"#utility.yul\":17603:18490   */\n      jump(tag_479)\n        /* \"#utility.yul\":17633:18251   */\n    tag_480:\n        /* \"#utility.yul\":17685:17689   */\n      0x1f\n        /* \"#utility.yul\":17681:17690   */\n      not\n        /* \"#utility.yul\":17673:17679   */\n      dup5\n        /* \"#utility.yul\":17669:17691   */\n      and\n        /* \"#utility.yul\":17719:17756   */\n      tag_483\n        /* \"#utility.yul\":17751:17755   */\n      dup7\n        /* \"#utility.yul\":17719:17756   */\n      tag_252\n      jump\t// in\n    tag_483:\n        /* \"#utility.yul\":17778:17779   */\n      0x00\n        /* \"#utility.yul\":17792:18000   */\n    tag_484:\n        /* \"#utility.yul\":17806:17813   */\n      dup3\n        /* \"#utility.yul\":17803:17804   */\n      dup2\n        /* \"#utility.yul\":17800:17814   */\n      lt\n        /* \"#utility.yul\":17792:18000   */\n      iszero\n      tag_486\n      jumpi\n        /* \"#utility.yul\":17885:17894   */\n      dup5\n        /* \"#utility.yul\":17880:17883   */\n      dup10\n        /* \"#utility.yul\":17876:17895   */\n      add\n        /* \"#utility.yul\":17870:17896   */\n      mload\n        /* \"#utility.yul\":17862:17868   */\n      dup3\n        /* \"#utility.yul\":17855:17897   */\n      sstore\n        /* \"#utility.yul\":17936:17937   */\n      0x01\n        /* \"#utility.yul\":17928:17934   */\n      dup3\n        /* \"#utility.yul\":17924:17938   */\n      add\n        /* \"#utility.yul\":17914:17938   */\n      swap2\n      pop\n        /* \"#utility.yul\":17983:17985   */\n      0x20\n        /* \"#utility.yul\":17972:17981   */\n      dup6\n        /* \"#utility.yul\":17968:17986   */\n      add\n        /* \"#utility.yul\":17955:17986   */\n      swap5\n      pop\n        /* \"#utility.yul\":17829:17833   */\n      0x20\n        /* \"#utility.yul\":17826:17827   */\n      dup2\n        /* \"#utility.yul\":17822:17834   */\n      add\n        /* \"#utility.yul\":17817:17834   */\n      swap1\n      pop\n        /* \"#utility.yul\":17792:18000   */\n      jump(tag_484)\n    tag_486:\n        /* \"#utility.yul\":18028:18034   */\n      dup7\n        /* \"#utility.yul\":18019:18026   */\n      dup4\n        /* \"#utility.yul\":18016:18035   */\n      lt\n        /* \"#utility.yul\":18013:18192   */\n      iszero\n      tag_487\n      jumpi\n        /* \"#utility.yul\":18086:18095   */\n      dup5\n        /* \"#utility.yul\":18081:18084   */\n      dup10\n        /* \"#utility.yul\":18077:18096   */\n      add\n        /* \"#utility.yul\":18071:18097   */\n      mload\n        /* \"#utility.yul\":18129:18177   */\n      tag_488\n        /* \"#utility.yul\":18171:18175   */\n      0x1f\n        /* \"#utility.yul\":18163:18169   */\n      dup10\n        /* \"#utility.yul\":18159:18176   */\n      and\n        /* \"#utility.yul\":18148:18157   */\n      dup3\n        /* \"#utility.yul\":18129:18177   */\n      tag_265\n      jump\t// in\n    tag_488:\n        /* \"#utility.yul\":18121:18127   */\n      dup4\n        /* \"#utility.yul\":18114:18178   */\n      sstore\n        /* \"#utility.yul\":18036:18192   */\n      pop\n        /* \"#utility.yul\":18013:18192   */\n    tag_487:\n        /* \"#utility.yul\":18238:18239   */\n      0x01\n        /* \"#utility.yul\":18234:18235   */\n      0x02\n        /* \"#utility.yul\":18226:18232   */\n      dup9\n        /* \"#utility.yul\":18222:18236   */\n      mul\n        /* \"#utility.yul\":18218:18240   */\n      add\n        /* \"#utility.yul\":18212:18216   */\n      dup9\n        /* \"#utility.yul\":18205:18241   */\n      sstore\n        /* \"#utility.yul\":17640:18251   */\n      pop\n      pop\n      pop\n        /* \"#utility.yul\":17603:18490   */\n    tag_479:\n      pop\n        /* \"#utility.yul\":17193:18496   */\n      pop\n      pop\n      pop\n        /* \"#utility.yul\":17101:18496   */\n      pop\n      pop\n      jump\t// out\n        /* \"#utility.yul\":18502:18912   */\n    tag_106:\n        /* \"#utility.yul\":18542:18549   */\n      0x00\n        /* \"#utility.yul\":18565:18585   */\n      tag_490\n        /* \"#utility.yul\":18583:18584   */\n      dup3\n        /* \"#utility.yul\":18565:18585   */\n      tag_218\n      jump\t// in\n    tag_490:\n        /* \"#utility.yul\":18560:18585   */\n      swap2\n      pop\n        /* \"#utility.yul\":18599:18619   */\n      tag_491\n        /* \"#utility.yul\":18617:18618   */\n      dup4\n        /* \"#utility.yul\":18599:18619   */\n      tag_218\n      jump\t// in\n    tag_491:\n        /* \"#utility.yul\":18594:18619   */\n      swap3\n      pop\n        /* \"#utility.yul\":18654:18655   */\n      dup3\n        /* \"#utility.yul\":18651:18652   */\n      dup3\n        /* \"#utility.yul\":18647:18656   */\n      mul\n        /* \"#utility.yul\":18676:18706   */\n      tag_492\n        /* \"#utility.yul\":18694:18705   */\n      dup2\n        /* \"#utility.yul\":18676:18706   */\n      tag_218\n      jump\t// in\n    tag_492:\n        /* \"#utility.yul\":18665:18706   */\n      swap2\n      pop\n        /* \"#utility.yul\":18855:18856   */\n      dup3\n        /* \"#utility.yul\":18846:18853   */\n      dup3\n        /* \"#utility.yul\":18842:18857   */\n      div\n        /* \"#utility.yul\":18839:18840   */\n      dup5\n        /* \"#utility.yul\":18836:18858   */\n      eq\n        /* \"#utility.yul\":18816:18817   */\n      dup4\n        /* \"#utility.yul\":18809:18818   */\n      iszero\n        /* \"#utility.yul\":18789:18872   */\n      or\n        /* \"#utility.yul\":18766:18905   */\n      tag_493\n      jumpi\n        /* \"#utility.yul\":18885:18903   */\n      tag_494\n      tag_249\n      jump\t// in\n    tag_494:\n        /* \"#utility.yul\":18766:18905   */\n    tag_493:\n        /* \"#utility.yul\":18550:18912   */\n      pop\n        /* \"#utility.yul\":18502:18912   */\n      swap3\n      swap2\n      pop\n      pop\n      jump\t// out\n        /* \"#utility.yul\":18918:19231   */\n    tag_110:\n        /* \"#utility.yul\":19031:19035   */\n      0x00\n        /* \"#utility.yul\":19069:19071   */\n      0x20\n        /* \"#utility.yul\":19058:19067   */\n      dup3\n        /* \"#utility.yul\":19054:19072   */\n      add\n        /* \"#utility.yul\":19046:19072   */\n      swap1\n      pop\n        /* \"#utility.yul\":19118:19127   */\n      dup2\n        /* \"#utility.yul\":19112:19116   */\n      dup2\n        /* \"#utility.yul\":19108:19128   */\n      sub\n        /* \"#utility.yul\":19104:19105   */\n      0x00\n        /* \"#utility.yul\":19093:19102   */\n      dup4\n        /* \"#utility.yul\":19089:19106   */\n      add\n        /* \"#utility.yul\":19082:19129   */\n      mstore\n        /* \"#utility.yul\":19146:19224   */\n      tag_496\n        /* \"#utility.yul\":19219:19223   */\n      dup2\n        /* \"#utility.yul\":19210:19216   */\n      dup5\n        /* \"#utility.yul\":19146:19224   */\n      tag_229\n      jump\t// in\n    tag_496:\n        /* \"#utility.yul\":19138:19224   */\n      swap1\n      pop\n        /* \"#utility.yul\":18918:19231   */\n      swap3\n      swap2\n      pop\n      pop\n      jump\t// out\n        /* \"#utility.yul\":19237:19428   */\n    tag_113:\n        /* \"#utility.yul\":19277:19280   */\n      0x00\n        /* \"#utility.yul\":19296:19316   */\n      tag_498\n        /* \"#utility.yul\":19314:19315   */\n      dup3\n        /* \"#utility.yul\":19296:19316   */\n      tag_218\n      jump\t// in\n    tag_498:\n        /* \"#utility.yul\":19291:19316   */\n      swap2\n      pop\n        /* \"#utility.yul\":19330:19350   */\n      tag_499\n        /* \"#utility.yul\":19348:19349   */\n      dup4\n        /* \"#utility.yul\":19330:19350   */\n      tag_218\n      jump\t// in\n    tag_499:\n        /* \"#utility.yul\":19325:19350   */\n      swap3\n      pop\n        /* \"#utility.yul\":19373:19374   */\n      dup3\n        /* \"#utility.yul\":19370:19371   */\n      dup3\n        /* \"#utility.yul\":19366:19375   */\n      add\n        /* \"#utility.yul\":19359:19375   */\n      swap1\n      pop\n        /* \"#utility.yul\":19394:19397   */\n      dup1\n        /* \"#utility.yul\":19391:19392   */\n      dup3\n        /* \"#utility.yul\":19388:19398   */\n      gt\n        /* \"#utility.yul\":19385:19421   */\n      iszero\n      tag_500\n      jumpi\n        /* \"#utility.yul\":19401:19419   */\n      tag_501\n      tag_249\n      jump\t// in\n    tag_501:\n        /* \"#utility.yul\":19385:19421   */\n    tag_500:\n        /* \"#utility.yul\":19237:19428   */\n      swap3\n      swap2\n      pop\n      pop\n      jump\t// out\n        /* \"#utility.yul\":19434:19608   */\n    tag_267:\n        /* \"#utility.yul\":19574:19600   */\n      0x566f74696e67207374696c6c20696e2070726f67726573730000000000000000\n        /* \"#utility.yul\":19570:19571   */\n      0x00\n        /* \"#utility.yul\":19562:19568   */\n      dup3\n        /* \"#utility.yul\":19558:19572   */\n      add\n        /* \"#utility.yul\":19551:19601   */\n      mstore\n        /* \"#utility.yul\":19434:19608   */\n      pop\n      jump\t// out\n        /* \"#utility.yul\":19614:19980   */\n    tag_268:\n        /* \"#utility.yul\":19756:19759   */\n      0x00\n        /* \"#utility.yul\":19777:19844   */\n      tag_504\n        /* \"#utility.yul\":19841:19843   */\n      0x18\n        /* \"#utility.yul\":19836:19839   */\n      dup4\n        /* \"#utility.yul\":19777:19844   */\n      tag_226\n      jump\t// in\n    tag_504:\n        /* \"#utility.yul\":19770:19844   */\n      swap2\n      pop\n        /* \"#utility.yul\":19853:19946   */\n      tag_505\n        /* \"#utility.yul\":19942:19945   */\n      dup3\n        /* \"#utility.yul\":19853:19946   */\n      tag_267\n      jump\t// in\n    tag_505:\n        /* \"#utility.yul\":19971:19973   */\n      0x20\n        /* \"#utility.yul\":19966:19969   */\n      dup3\n        /* \"#utility.yul\":19962:19974   */\n      add\n        /* \"#utility.yul\":19955:19974   */\n      swap1\n      pop\n        /* \"#utility.yul\":19614:19980   */\n      swap2\n      swap1\n      pop\n      jump\t// out\n        /* \"#utility.yul\":19986:20405   */\n    tag_116:\n        /* \"#utility.yul\":20152:20156   */\n      0x00\n        /* \"#utility.yul\":20190:20192   */\n      0x20\n        /* \"#utility.yul\":20179:20188   */\n      dup3\n        /* \"#utility.yul\":20175:20193   */\n      add\n        /* \"#utility.yul\":20167:20193   */\n      swap1\n      pop\n        /* \"#utility.yul\":20239:20248   */\n      dup2\n        /* \"#utility.yul\":20233:20237   */\n      dup2\n        /* \"#utility.yul\":20229:20249   */\n      sub\n        /* \"#utility.yul\":20225:20226   */\n      0x00\n        /* \"#utility.yul\":20214:20223   */\n      dup4\n        /* \"#utility.yul\":20210:20227   */\n      add\n        /* \"#utility.yul\":20203:20250   */\n      mstore\n        /* \"#utility.yul\":20267:20398   */\n      tag_507\n        /* \"#utility.yul\":20393:20397   */\n      dup2\n        /* \"#utility.yul\":20267:20398   */\n      tag_268\n      jump\t// in\n    tag_507:\n        /* \"#utility.yul\":20259:20398   */\n      swap1\n      pop\n        /* \"#utility.yul\":19986:20405   */\n      swap2\n      swap1\n      pop\n      jump\t// out\n        /* \"#utility.yul\":20411:20587   */\n    tag_269:\n        /* \"#utility.yul\":20551:20579   */\n      0x50726f706f73616c20616c72656164792066696e616c697a6564000000000000\n        /* \"#utility.yul\":20547:20548   */\n      0x00\n        /* \"#utility.yul\":20539:20545   */\n      dup3\n        /* \"#utility.yul\":20535:20549   */\n      add\n        /* \"#utility.yul\":20528:20580   */\n      mstore\n        /* \"#utility.yul\":20411:20587   */\n      pop\n      jump\t// out\n        /* \"#utility.yul\":20593:20959   */\n    tag_270:\n        /* \"#utility.yul\":20735:20738   */\n      0x00\n        /* \"#utility.yul\":20756:20823   */\n      tag_510\n        /* \"#utility.yul\":20820:20822   */\n      0x1a\n        /* \"#utility.yul\":20815:20818   */\n      dup4\n        /* \"#utility.yul\":20756:20823   */\n      tag_226\n      jump\t// in\n    tag_510:\n        /* \"#utility.yul\":20749:20823   */\n      swap2\n      pop\n        /* \"#utility.yul\":20832:20925   */\n      tag_511\n        /* \"#utility.yul\":20921:20924   */\n      dup3\n        /* \"#utility.yul\":20832:20925   */\n      tag_269\n      jump\t// in\n    tag_511:\n        /* \"#utility.yul\":20950:20952   */\n      0x20\n        /* \"#utility.yul\":20945:20948   */\n      dup3\n        /* \"#utility.yul\":20941:20953   */\n      add\n        /* \"#utility.yul\":20934:20953   */\n      swap1\n      pop\n        /* \"#utility.yul\":20593:20959   */\n      swap2\n      swap1\n      pop\n      jump\t// out\n        /* \"#utility.yul\":20965:21384   */\n    tag_124:\n        /* \"#utility.yul\":21131:21135   */\n      0x00\n        /* \"#utility.yul\":21169:21171   */\n      0x20\n        /* \"#utility.yul\":21158:21167   */\n      dup3\n        /* \"#utility.yul\":21154:21172   */\n      add\n        /* \"#utility.yul\":21146:21172   */\n      swap1\n      pop\n        /* \"#utility.yul\":21218:21227   */\n      dup2\n        /* \"#utility.yul\":21212:21216   */\n      dup2\n        /* \"#utility.yul\":21208:21228   */\n      sub\n        /* \"#utility.yul\":21204:21205   */\n      0x00\n        /* \"#utility.yul\":21193:21202   */\n      dup4\n        /* \"#utility.yul\":21189:21206   */\n      add\n        /* \"#utility.yul\":21182:21229   */\n      mstore\n        /* \"#utility.yul\":21246:21377   */\n      tag_513\n        /* \"#utility.yul\":21372:21376   */\n      dup2\n        /* \"#utility.yul\":21246:21377   */\n      tag_270\n      jump\t// in\n    tag_513:\n        /* \"#utility.yul\":21238:21377   */\n      swap1\n      pop\n        /* \"#utility.yul\":20965:21384   */\n      swap2\n      swap1\n      pop\n      jump\t// out\n        /* \"#utility.yul\":21390:21570   */\n    tag_271:\n        /* \"#utility.yul\":21438:21515   */\n      0x4e487b7100000000000000000000000000000000000000000000000000000000\n        /* \"#utility.yul\":21435:21436   */\n      0x00\n        /* \"#utility.yul\":21428:21516   */\n      mstore\n        /* \"#utility.yul\":21535:21539   */\n      0x12\n        /* \"#utility.yul\":21532:21533   */\n      0x04\n        /* \"#utility.yul\":21525:21540   */\n      mstore\n        /* \"#utility.yul\":21559:21563   */\n      0x24\n        /* \"#utility.yul\":21556:21557   */\n      0x00\n        /* \"#utility.yul\":21549:21564   */\n      revert\n        /* \"#utility.yul\":21576:21761   */\n    tag_127:\n        /* \"#utility.yul\":21616:21617   */\n      0x00\n        /* \"#utility.yul\":21633:21653   */\n      tag_516\n        /* \"#utility.yul\":21651:21652   */\n      dup3\n        /* \"#utility.yul\":21633:21653   */\n      tag_218\n      jump\t// in\n    tag_516:\n        /* \"#utility.yul\":21628:21653   */\n      swap2\n      pop\n        /* \"#utility.yul\":21667:21687   */\n      tag_517\n        /* \"#utility.yul\":21685:21686   */\n      dup4\n        /* \"#utility.yul\":21667:21687   */\n      tag_218\n      jump\t// in\n    tag_517:\n        /* \"#utility.yul\":21662:21687   */\n      swap3\n      pop\n        /* \"#utility.yul\":21706:21707   */\n      dup3\n        /* \"#utility.yul\":21696:21731   */\n      tag_518\n      jumpi\n        /* \"#utility.yul\":21711:21729   */\n      tag_519\n      tag_271\n      jump\t// in\n    tag_519:\n        /* \"#utility.yul\":21696:21731   */\n    tag_518:\n        /* \"#utility.yul\":21753:21754   */\n      dup3\n        /* \"#utility.yul\":21750:21751   */\n      dup3\n        /* \"#utility.yul\":21746:21755   */\n      div\n        /* \"#utility.yul\":21741:21755   */\n      swap1\n      pop\n        /* \"#utility.yul\":21576:21761   */\n      swap3\n      swap2\n      pop\n      pop\n      jump\t// out\n        /* \"#utility.yul\":21767:22019   */\n    tag_142:\n        /* \"#utility.yul\":21875:21879   */\n      0x00\n        /* \"#utility.yul\":21913:21915   */\n      0x20\n        /* \"#utility.yul\":21902:21911   */\n      dup3\n        /* \"#utility.yul\":21898:21916   */\n      add\n        /* \"#utility.yul\":21890:21916   */\n      swap1\n      pop\n        /* \"#utility.yul\":21926:22012   */\n      tag_521\n        /* \"#utility.yul\":22009:22010   */\n      0x00\n        /* \"#utility.yul\":21998:22007   */\n      dup4\n        /* \"#utility.yul\":21994:22011   */\n      add\n        /* \"#utility.yul\":21985:21991   */\n      dup5\n        /* \"#utility.yul\":21926:22012   */\n      tag_233\n      jump\t// in\n    tag_521:\n        /* \"#utility.yul\":21767:22019   */\n      swap3\n      swap2\n      pop\n      pop\n      jump\t// out\n        /* \"#utility.yul\":22025:22199   */\n    tag_272:\n        /* \"#utility.yul\":22165:22191   */\n      0x4e6f742061206d656d626572206f662074686973205348470000000000000000\n        /* \"#utility.yul\":22161:22162   */\n      0x00\n        /* \"#utility.yul\":22153:22159   */\n      dup3\n        /* \"#utility.yul\":22149:22163   */\n      add\n        /* \"#utility.yul\":22142:22192   */\n      mstore\n        /* \"#utility.yul\":22025:22199   */\n      pop\n      jump\t// out\n        /* \"#utility.yul\":22205:22571   */\n    tag_273:\n        /* \"#utility.yul\":22347:22350   */\n      0x00\n        /* \"#utility.yul\":22368:22435   */\n      tag_524\n        /* \"#utility.yul\":22432:22434   */\n      0x18\n        /* \"#utility.yul\":22427:22430   */\n      dup4\n        /* \"#utility.yul\":22368:22435   */\n      tag_226\n      jump\t// in\n    tag_524:\n        /* \"#utility.yul\":22361:22435   */\n      swap2\n      pop\n        /* \"#utility.yul\":22444:22537   */\n      tag_525\n        /* \"#utility.yul\":22533:22536   */\n      dup3\n        /* \"#utility.yul\":22444:22537   */\n      tag_272\n      jump\t// in\n    tag_525:\n        /* \"#utility.yul\":22562:22564   */\n      0x20\n        /* \"#utility.yul\":22557:22560   */\n      dup3\n        /* \"#utility.yul\":22553:22565   */\n      add\n        /* \"#utility.yul\":22546:22565   */\n      swap1\n      pop\n        /* \"#utility.yul\":22205:22571   */\n      swap2\n      swap1\n      pop\n      jump\t// out\n        /* \"#utility.yul\":22577:22996   */\n    tag_146:\n        /* \"#utility.yul\":22743:22747   */\n      0x00\n        /* \"#utility.yul\":22781:22783   */\n      0x20\n        /* \"#utility.yul\":22770:22779   */\n      dup3\n        /* \"#utility.yul\":22766:22784   */\n      add\n        /* \"#utility.yul\":22758:22784   */\n      swap1\n      pop\n        /* \"#utility.yul\":22830:22839   */\n      dup2\n        /* \"#utility.yul\":22824:22828   */\n      dup2\n        /* \"#utility.yul\":22820:22840   */\n      sub\n        /* \"#utility.yul\":22816:22817   */\n      0x00\n        /* \"#utility.yul\":22805:22814   */\n      dup4\n        /* \"#utility.yul\":22801:22818   */\n      add\n        /* \"#utility.yul\":22794:22841   */\n      mstore\n        /* \"#utility.yul\":22858:22989   */\n      tag_527\n        /* \"#utility.yul\":22984:22988   */\n      dup2\n        /* \"#utility.yul\":22858:22989   */\n      tag_273\n      jump\t// in\n    tag_527:\n        /* \"#utility.yul\":22850:22989   */\n      swap1\n      pop\n        /* \"#utility.yul\":22577:22996   */\n      swap2\n      swap1\n      pop\n      jump\t// out\n        /* \"#utility.yul\":23002:23176   */\n    tag_274:\n        /* \"#utility.yul\":23142:23168   */\n      0x496e73756666696369656e74205348472062616c616e63650000000000000000\n        /* \"#utility.yul\":23138:23139   */\n      0x00\n        /* \"#utility.yul\":23130:23136   */\n      dup3\n        /* \"#utility.yul\":23126:23140   */\n      add\n        /* \"#utility.yul\":23119:23169   */\n      mstore\n        /* \"#utility.yul\":23002:23176   */\n      pop\n      jump\t// out\n        /* \"#utility.yul\":23182:23548   */\n    tag_275:\n        /* \"#utility.yul\":23324:23327   */\n      0x00\n        /* \"#utility.yul\":23345:23412   */\n      tag_530\n        /* \"#utility.yul\":23409:23411   */\n      0x18\n        /* \"#utility.yul\":23404:23407   */\n      dup4\n        /* \"#utility.yul\":23345:23412   */\n      tag_226\n      jump\t// in\n    tag_530:\n        /* \"#utility.yul\":23338:23412   */\n      swap2\n      pop\n        /* \"#utility.yul\":23421:23514   */\n      tag_531\n        /* \"#utility.yul\":23510:23513   */\n      dup3\n        /* \"#utility.yul\":23421:23514   */\n      tag_274\n      jump\t// in\n    tag_531:\n        /* \"#utility.yul\":23539:23541   */\n      0x20\n        /* \"#utility.yul\":23534:23537   */\n      dup3\n        /* \"#utility.yul\":23530:23542   */\n      add\n        /* \"#utility.yul\":23523:23542   */\n      swap1\n      pop\n        /* \"#utility.yul\":23182:23548   */\n      swap2\n      swap1\n      pop\n      jump\t// out\n        /* \"#utility.yul\":23554:23973   */\n    tag_150:\n        /* \"#utility.yul\":23720:23724   */\n      0x00\n        /* \"#utility.yul\":23758:23760   */\n      0x20\n        /* \"#utility.yul\":23747:23756   */\n      dup3\n        /* \"#utility.yul\":23743:23761   */\n      add\n        /* \"#utility.yul\":23735:23761   */\n      swap1\n      pop\n        /* \"#utility.yul\":23807:23816   */\n      dup2\n        /* \"#utility.yul\":23801:23805   */\n      dup2\n        /* \"#utility.yul\":23797:23817   */\n      sub\n        /* \"#utility.yul\":23793:23794   */\n      0x00\n        /* \"#utility.yul\":23782:23791   */\n      dup4\n        /* \"#utility.yul\":23778:23795   */\n      add\n        /* \"#utility.yul\":23771:23818   */\n      mstore\n        /* \"#utility.yul\":23835:23966   */\n      tag_533\n        /* \"#utility.yul\":23961:23965   */\n      dup2\n        /* \"#utility.yul\":23835:23966   */\n      tag_275\n      jump\t// in\n    tag_533:\n        /* \"#utility.yul\":23827:23966   */\n      swap1\n      pop\n        /* \"#utility.yul\":23554:23973   */\n      swap2\n      swap1\n      pop\n      jump\t// out\n        /* \"#utility.yul\":23979:24144   */\n    tag_276:\n        /* \"#utility.yul\":24119:24136   */\n      0x4d7573742073656e642066756e64730000000000000000000000000000000000\n        /* \"#utility.yul\":24115:24116   */\n      0x00\n        /* \"#utility.yul\":24107:24113   */\n      dup3\n        /* \"#utility.yul\":24103:24117   */\n      add\n        /* \"#utility.yul\":24096:24137   */\n      mstore\n        /* \"#utility.yul\":23979:24144   */\n      pop\n      jump\t// out\n        /* \"#utility.yul\":24150:24516   */\n    tag_277:\n        /* \"#utility.yul\":24292:24295   */\n      0x00\n        /* \"#utility.yul\":24313:24380   */\n      tag_536\n        /* \"#utility.yul\":24377:24379   */\n      0x0f\n        /* \"#utility.yul\":24372:24375   */\n      dup4\n        /* \"#utility.yul\":24313:24380   */\n      tag_226\n      jump\t// in\n    tag_536:\n        /* \"#utility.yul\":24306:24380   */\n      swap2\n      pop\n        /* \"#utility.yul\":24389:24482   */\n      tag_537\n        /* \"#utility.yul\":24478:24481   */\n      dup3\n        /* \"#utility.yul\":24389:24482   */\n      tag_276\n      jump\t// in\n    tag_537:\n        /* \"#utility.yul\":24507:24509   */\n      0x20\n        /* \"#utility.yul\":24502:24505   */\n      dup3\n        /* \"#utility.yul\":24498:24510   */\n      add\n        /* \"#utility.yul\":24491:24510   */\n      swap1\n      pop\n        /* \"#utility.yul\":24150:24516   */\n      swap2\n      swap1\n      pop\n      jump\t// out\n        /* \"#utility.yul\":24522:24941   */\n    tag_175:\n        /* \"#utility.yul\":24688:24692   */\n      0x00\n        /* \"#utility.yul\":24726:24728   */\n      0x20\n        /* \"#utility.yul\":24715:24724   */\n      dup3\n        /* \"#utility.yul\":24711:24729   */\n      add\n        /* \"#utility.yul\":24703:24729   */\n      swap1\n      pop\n        /* \"#utility.yul\":24775:24784   */\n      dup2\n        /* \"#utility.yul\":24769:24773   */\n      dup2\n        /* \"#utility.yul\":24765:24785   */\n      sub\n        /* \"#utility.yul\":24761:24762   */\n      0x00\n        /* \"#utility.yul\":24750:24759   */\n      dup4\n        /* \"#utility.yul\":24746:24763   */\n      add\n        /* \"#utility.yul\":24739:24786   */\n      mstore\n        /* \"#utility.yul\":24803:24934   */\n      tag_539\n        /* \"#utility.yul\":24929:24933   */\n      dup2\n        /* \"#utility.yul\":24803:24934   */\n      tag_277\n      jump\t// in\n    tag_539:\n        /* \"#utility.yul\":24795:24934   */\n      swap1\n      pop\n        /* \"#utility.yul\":24522:24941   */\n      swap2\n      swap1\n      pop\n      jump\t// out\n        /* \"#utility.yul\":24947:25120   */\n    tag_278:\n        /* \"#utility.yul\":25087:25112   */\n      0x566f74696e6720706572696f642068617320656e646564000000000000000000\n        /* \"#utility.yul\":25083:25084   */\n      0x00\n        /* \"#utility.yul\":25075:25081   */\n      dup3\n        /* \"#utility.yul\":25071:25085   */\n      add\n        /* \"#utility.yul\":25064:25113   */\n      mstore\n        /* \"#utility.yul\":24947:25120   */\n      pop\n      jump\t// out\n        /* \"#utility.yul\":25126:25492   */\n    tag_279:\n        /* \"#utility.yul\":25268:25271   */\n      0x00\n        /* \"#utility.yul\":25289:25356   */\n      tag_542\n        /* \"#utility.yul\":25353:25355   */\n      0x17\n        /* \"#utility.yul\":25348:25351   */\n      dup4\n        /* \"#utility.yul\":25289:25356   */\n      tag_226\n      jump\t// in\n    tag_542:\n        /* \"#utility.yul\":25282:25356   */\n      swap2\n      pop\n        /* \"#utility.yul\":25365:25458   */\n      tag_543\n        /* \"#utility.yul\":25454:25457   */\n      dup3\n        /* \"#utility.yul\":25365:25458   */\n      tag_278\n      jump\t// in\n    tag_543:\n        /* \"#utility.yul\":25483:25485   */\n      0x20\n        /* \"#utility.yul\":25478:25481   */\n      dup3\n        /* \"#utility.yul\":25474:25486   */\n      add\n        /* \"#utility.yul\":25467:25486   */\n      swap1\n      pop\n        /* \"#utility.yul\":25126:25492   */\n      swap2\n      swap1\n      pop\n      jump\t// out\n        /* \"#utility.yul\":25498:25917   */\n    tag_187:\n        /* \"#utility.yul\":25664:25668   */\n      0x00\n        /* \"#utility.yul\":25702:25704   */\n      0x20\n        /* \"#utility.yul\":25691:25700   */\n      dup3\n        /* \"#utility.yul\":25687:25705   */\n      add\n        /* \"#utility.yul\":25679:25705   */\n      swap1\n      pop\n        /* \"#utility.yul\":25751:25760   */\n      dup2\n        /* \"#utility.yul\":25745:25749   */\n      dup2\n        /* \"#utility.yul\":25741:25761   */\n      sub\n        /* \"#utility.yul\":25737:25738   */\n      0x00\n        /* \"#utility.yul\":25726:25735   */\n      dup4\n        /* \"#utility.yul\":25722:25739   */\n      add\n        /* \"#utility.yul\":25715:25762   */\n      mstore\n        /* \"#utility.yul\":25779:25910   */\n      tag_545\n        /* \"#utility.yul\":25905:25909   */\n      dup2\n        /* \"#utility.yul\":25779:25910   */\n      tag_279\n      jump\t// in\n    tag_545:\n        /* \"#utility.yul\":25771:25910   */\n      swap1\n      pop\n        /* \"#utility.yul\":25498:25917   */\n      swap2\n      swap1\n      pop\n      jump\t// out\n        /* \"#utility.yul\":25923:26093   */\n    tag_280:\n        /* \"#utility.yul\":26063:26085   */\n      0x50726f706f7365722063616e6e6f7420766f7465000000000000000000000000\n        /* \"#utility.yul\":26059:26060   */\n      0x00\n        /* \"#utility.yul\":26051:26057   */\n      dup3\n        /* \"#utility.yul\":26047:26061   */\n      add\n        /* \"#utility.yul\":26040:26086   */\n      mstore\n        /* \"#utility.yul\":25923:26093   */\n      pop\n      jump\t// out\n        /* \"#utility.yul\":26099:26465   */\n    tag_281:\n        /* \"#utility.yul\":26241:26244   */\n      0x00\n        /* \"#utility.yul\":26262:26329   */\n      tag_548\n        /* \"#utility.yul\":26326:26328   */\n      0x14\n        /* \"#utility.yul\":26321:26324   */\n      dup4\n        /* \"#utility.yul\":26262:26329   */\n      tag_226\n      jump\t// in\n    tag_548:\n        /* \"#utility.yul\":26255:26329   */\n      swap2\n      pop\n        /* \"#utility.yul\":26338:26431   */\n      tag_549\n        /* \"#utility.yul\":26427:26430   */\n      dup3\n        /* \"#utility.yul\":26338:26431   */\n      tag_280\n      jump\t// in\n    tag_549:\n        /* \"#utility.yul\":26456:26458   */\n      0x20\n        /* \"#utility.yul\":26451:26454   */\n      dup3\n        /* \"#utility.yul\":26447:26459   */\n      add\n        /* \"#utility.yul\":26440:26459   */\n      swap1\n      pop\n        /* \"#utility.yul\":26099:26465   */\n      swap2\n      swap1\n      pop\n      jump\t// out\n        /* \"#utility.yul\":26471:26890   */\n    tag_190:\n        /* \"#utility.yul\":26637:26641   */\n      0x00\n        /* \"#utility.yul\":26675:26677   */\n      0x20\n        /* \"#utility.yul\":26664:26673   */\n      dup3\n        /* \"#utility.yul\":26660:26678   */\n      add\n        /* \"#utility.yul\":26652:26678   */\n      swap1\n      pop\n        /* \"#utility.yul\":26724:26733   */\n      dup2\n        /* \"#utility.yul\":26718:26722   */\n      dup2\n        /* \"#utility.yul\":26714:26734   */\n      sub\n        /* \"#utility.yul\":26710:26711   */\n      0x00\n        /* \"#utility.yul\":26699:26708   */\n      dup4\n        /* \"#utility.yul\":26695:26712   */\n      add\n        /* \"#utility.yul\":26688:26735   */\n      mstore\n        /* \"#utility.yul\":26752:26883   */\n      tag_551\n        /* \"#utility.yul\":26878:26882   */\n      dup2\n        /* \"#utility.yul\":26752:26883   */\n      tag_281\n      jump\t// in\n    tag_551:\n        /* \"#utility.yul\":26744:26883   */\n      swap1\n      pop\n        /* \"#utility.yul\":26471:26890   */\n      swap2\n      swap1\n      pop\n      jump\t// out\n        /* \"#utility.yul\":26896:27005   */\n    tag_282:\n        /* \"#utility.yul\":26977:26998   */\n      tag_553\n        /* \"#utility.yul\":26992:26997   */\n      dup2\n        /* \"#utility.yul\":26977:26998   */\n      tag_245\n      jump\t// in\n    tag_553:\n        /* \"#utility.yul\":26972:26975   */\n      dup3\n        /* \"#utility.yul\":26965:26999   */\n      mstore\n        /* \"#utility.yul\":26896:27005   */\n      pop\n      pop\n      jump\t// out\n        /* \"#utility.yul\":27011:27221   */\n    tag_196:\n        /* \"#utility.yul\":27098:27102   */\n      0x00\n        /* \"#utility.yul\":27136:27138   */\n      0x20\n        /* \"#utility.yul\":27125:27134   */\n      dup3\n        /* \"#utility.yul\":27121:27139   */\n      add\n        /* \"#utility.yul\":27113:27139   */\n      swap1\n      pop\n        /* \"#utility.yul\":27149:27214   */\n      tag_555\n        /* \"#utility.yul\":27211:27212   */\n      0x00\n        /* \"#utility.yul\":27200:27209   */\n      dup4\n        /* \"#utility.yul\":27196:27213   */\n      add\n        /* \"#utility.yul\":27187:27193   */\n      dup5\n        /* \"#utility.yul\":27149:27214   */\n      tag_282\n      jump\t// in\n    tag_555:\n        /* \"#utility.yul\":27011:27221   */\n      swap3\n      swap2\n      pop\n      pop\n      jump\t// out\n        /* \"#utility.yul\":27227:27406   */\n    tag_283:\n        /* \"#utility.yul\":27367:27398   */\n      0x4f6e6c792070726f706f7365722063616e20636c61696d2066756e6473000000\n        /* \"#utility.yul\":27363:27364   */\n      0x00\n        /* \"#utility.yul\":27355:27361   */\n      dup3\n        /* \"#utility.yul\":27351:27365   */\n      add\n        /* \"#utility.yul\":27344:27399   */\n      mstore\n        /* \"#utility.yul\":27227:27406   */\n      pop\n      jump\t// out\n        /* \"#utility.yul\":27412:27778   */\n    tag_284:\n        /* \"#utility.yul\":27554:27557   */\n      0x00\n        /* \"#utility.yul\":27575:27642   */\n      tag_558\n        /* \"#utility.yul\":27639:27641   */\n      0x1d\n        /* \"#utility.yul\":27634:27637   */\n      dup4\n        /* \"#utility.yul\":27575:27642   */\n      tag_226\n      jump\t// in\n    tag_558:\n        /* \"#utility.yul\":27568:27642   */\n      swap2\n      pop\n        /* \"#utility.yul\":27651:27744   */\n      tag_559\n        /* \"#utility.yul\":27740:27743   */\n      dup3\n        /* \"#utility.yul\":27651:27744   */\n      tag_283\n      jump\t// in\n    tag_559:\n        /* \"#utility.yul\":27769:27771   */\n      0x20\n        /* \"#utility.yul\":27764:27767   */\n      dup3\n        /* \"#utility.yul\":27760:27772   */\n      add\n        /* \"#utility.yul\":27753:27772   */\n      swap1\n      pop\n        /* \"#utility.yul\":27412:27778   */\n      swap2\n      swap1\n      pop\n      jump\t// out\n        /* \"#utility.yul\":27784:28203   */\n    tag_200:\n        /* \"#utility.yul\":27950:27954   */\n      0x00\n        /* \"#utility.yul\":27988:27990   */\n      0x20\n        /* \"#utility.yul\":27977:27986   */\n      dup3\n        /* \"#utility.yul\":27973:27991   */\n      add\n        /* \"#utility.yul\":27965:27991   */\n      swap1\n      pop\n        /* \"#utility.yul\":28037:28046   */\n      dup2\n        /* \"#utility.yul\":28031:28035   */\n      dup2\n        /* \"#utility.yul\":28027:28047   */\n      sub\n        /* \"#utility.yul\":28023:28024   */\n      0x00\n        /* \"#utility.yul\":28012:28021   */\n      dup4\n        /* \"#utility.yul\":28008:28025   */\n      add\n        /* \"#utility.yul\":28001:28048   */\n      mstore\n        /* \"#utility.yul\":28065:28196   */\n      tag_561\n        /* \"#utility.yul\":28191:28195   */\n      dup2\n        /* \"#utility.yul\":28065:28196   */\n      tag_284\n      jump\t// in\n    tag_561:\n        /* \"#utility.yul\":28057:28196   */\n      swap1\n      pop\n        /* \"#utility.yul\":27784:28203   */\n      swap2\n      swap1\n      pop\n      jump\t// out\n        /* \"#utility.yul\":28209:28380   */\n    tag_285:\n        /* \"#utility.yul\":28349:28372   */\n      0x50726f706f73616c206e6f7420617070726f7665640000000000000000000000\n        /* \"#utility.yul\":28345:28346   */\n      0x00\n        /* \"#utility.yul\":28337:28343   */\n      dup3\n        /* \"#utility.yul\":28333:28347   */\n      add\n        /* \"#utility.yul\":28326:28373   */\n      mstore\n        /* \"#utility.yul\":28209:28380   */\n      pop\n      jump\t// out\n        /* \"#utility.yul\":28386:28752   */\n    tag_286:\n        /* \"#utility.yul\":28528:28531   */\n      0x00\n        /* \"#utility.yul\":28549:28616   */\n      tag_564\n        /* \"#utility.yul\":28613:28615   */\n      0x15\n        /* \"#utility.yul\":28608:28611   */\n      dup4\n        /* \"#utility.yul\":28549:28616   */\n      tag_226\n      jump\t// in\n    tag_564:\n        /* \"#utility.yul\":28542:28616   */\n      swap2\n      pop\n        /* \"#utility.yul\":28625:28718   */\n      tag_565\n        /* \"#utility.yul\":28714:28717   */\n      dup3\n        /* \"#utility.yul\":28625:28718   */\n      tag_285\n      jump\t// in\n    tag_565:\n        /* \"#utility.yul\":28743:28745   */\n      0x20\n        /* \"#utility.yul\":28738:28741   */\n      dup3\n        /* \"#utility.yul\":28734:28746   */\n      add\n        /* \"#utility.yul\":28727:28746   */\n      swap1\n      pop\n        /* \"#utility.yul\":28386:28752   */\n      swap2\n      swap1\n      pop\n      jump\t// out\n        /* \"#utility.yul\":28758:29177   */\n    tag_207:\n        /* \"#utility.yul\":28924:28928   */\n      0x00\n        /* \"#utility.yul\":28962:28964   */\n      0x20\n        /* \"#utility.yul\":28951:28960   */\n      dup3\n        /* \"#utility.yul\":28947:28965   */\n      add\n        /* \"#utility.yul\":28939:28965   */\n      swap1\n      pop\n        /* \"#utility.yul\":29011:29020   */\n      dup2\n        /* \"#utility.yul\":29005:29009   */\n      dup2\n        /* \"#utility.yul\":29001:29021   */\n      sub\n        /* \"#utility.yul\":28997:28998   */\n      0x00\n        /* \"#utility.yul\":28986:28995   */\n      dup4\n        /* \"#utility.yul\":28982:28999   */\n      add\n        /* \"#utility.yul\":28975:29022   */\n      mstore\n        /* \"#utility.yul\":29039:29170   */\n      tag_567\n        /* \"#utility.yul\":29165:29169   */\n      dup2\n        /* \"#utility.yul\":29039:29170   */\n      tag_286\n      jump\t// in\n    tag_567:\n        /* \"#utility.yul\":29031:29170   */\n      swap1\n      pop\n        /* \"#utility.yul\":28758:29177   */\n      swap2\n      swap1\n      pop\n      jump\t// out\n        /* \"#utility.yul\":29183:29377   */\n    tag_211:\n        /* \"#utility.yul\":29223:29227   */\n      0x00\n        /* \"#utility.yul\":29243:29263   */\n      tag_569\n        /* \"#utility.yul\":29261:29262   */\n      dup3\n        /* \"#utility.yul\":29243:29263   */\n      tag_218\n      jump\t// in\n    tag_569:\n        /* \"#utility.yul\":29238:29263   */\n      swap2\n      pop\n        /* \"#utility.yul\":29277:29297   */\n      tag_570\n        /* \"#utility.yul\":29295:29296   */\n      dup4\n        /* \"#utility.yul\":29277:29297   */\n      tag_218\n      jump\t// in\n    tag_570:\n        /* \"#utility.yul\":29272:29297   */\n      swap3\n      pop\n        /* \"#utility.yul\":29321:29322   */\n      dup3\n        /* \"#utility.yul\":29318:29319   */\n      dup3\n        /* \"#utility.yul\":29314:29323   */\n      sub\n        /* \"#utility.yul\":29306:29323   */\n      swap1\n      pop\n        /* \"#utility.yul\":29345:29346   */\n      dup2\n        /* \"#utility.yul\":29339:29343   */\n      dup2\n        /* \"#utility.yul\":29336:29347   */\n      gt\n        /* \"#utility.yul\":29333:29370   */\n      iszero\n      tag_571\n      jumpi\n        /* \"#utility.yul\":29350:29368   */\n      tag_572\n      tag_249\n      jump\t// in\n    tag_572:\n        /* \"#utility.yul\":29333:29370   */\n    tag_571:\n        /* \"#utility.yul\":29183:29377   */\n      swap3\n      swap2\n      pop\n      pop\n      jump\t// out\n\n    auxdata: 0xa2646970667358221220702cc3188d93f0b093387dda8c2678d5f5e66ca3678d5a6c7268c2aaa337e2fc64736f6c634300081a0033\n}\n",
				"bytecode": {
					"linkReferences": {},
					"object": "60806040525f80555f6001553480156015575f80fd5b506123ac806100235f395ff3fe6080604052600436106100c1575f3560e01c80637641f2b81161007e578063bc35baa311610058578063bc35baa31461028e578063be999705146102ca578063c9d27afe146102e6578063f5fffc0f1461030e576100c1565b80637641f2b8146101e7578063976eb77414610223578063b979ce0614610264576100c1565b806301fc20e2146100c557806316e9eaec146101015780631cc75df4146101455780632dfca4451461016d5780635652077c146101975780635ada0a41146101bf575b5f80fd5b3480156100d0575f80fd5b506100eb60048036038101906100e691906114c7565b610336565b6040516100f89190611544565b60405180910390f35b34801561010c575f80fd5b506101276004803603810190610122919061155d565b61037e565b60405161013c9998979695949392919061167a565b60405180910390f35b348015610150575f80fd5b5061016b6004803603810190610166919061183f565b6104ff565b005b348015610178575f80fd5b50610181610761565b60405161018e91906118c7565b60405180910390f35b3480156101a2575f80fd5b506101bd60048036038101906101b8919061155d565b610767565b005b3480156101ca575f80fd5b506101e560048036038101906101e091906118e0565b6109bd565b005b3480156101f2575f80fd5b5061020d600480360381019061020891906114c7565b610c19565b60405161021a91906118c7565b60405180910390f35b34801561022e575f80fd5b506102496004803603810190610244919061155d565b610c44565b60405161025b9695949392919061197c565b60405180910390f35b34801561026f575f80fd5b50610278610da7565b60405161028591906118c7565b60405180910390f35b348015610299575f80fd5b506102b460048036038101906102af9190611a13565b610dac565b6040516102c191906118c7565b60405180910390f35b6102e460048036038101906102df919061155d565b610dd7565b005b3480156102f1575f80fd5b5061030c60048036038101906103079190611a86565b611012565b005b348015610319575f80fd5b50610334600480360381019061032f91906114c7565b611242565b005b6004602052815f5260405f20818154811061034f575f80fd5b905f5260205f20015f915091509054906101000a900473ffffffffffffffffffffffffffffffffffffffff1681565b6003602052805f5260405f205f91509050805f015490806001015f9054906101000a900473ffffffffffffffffffffffffffffffffffffffff16908060020180546103c890611af1565b80601f01602080910402602001604051908101604052809291908181526020018280546103f490611af1565b801561043f5780601f106104165761010080835404028352916020019161043f565b820191905f5260205f20905b81548152906001019060200180831161042257829003601f168201915b50505050509080600301805461045490611af1565b80601f016020809104026020016040519081016040528092919081815260200182805461048090611af1565b80156104cb5780601f106104a2576101008083540402835291602001916104cb565b820191905f5260205f20905b8154815290600101906020018083116104ae57829003601f168201915b505050505090806004015490806005015490806006015490806007015490806008015f9054906101000a900460ff16905089565b5f8081548092919061051090611b4e565b91905055505f60055f3373ffffffffffffffffffffffffffffffffffffffff1673ffffffffffffffffffffffffffffffffffffffff1681526020019081526020015f208054905014610597576040517f08c379a000000000000000000000000000000000000000000000000000000000815260040161058e90611bdf565b60405180910390fd5b5f60025f805481526020019081526020015f20905033815f015f6101000a81548173ffffffffffffffffffffffffffffffffffffffff021916908373ffffffffffffffffffffffffffffffffffffffff160217905550838160010190816105fe9190611d9a565b50828160020190816106109190611d9a565b504281600301819055505f8160040181905550610e10826106319190611e69565b816006018190555060055f3373ffffffffffffffffffffffffffffffffffffffff1673ffffffffffffffffffffffffffffffffffffffff1681526020019081526020015f205f54908060018154018082558091505060019003905f5260205f20015f909190919091505560045f805481526020019081526020015f2033908060018154018082558091505060019003905f5260205f20015f9091909190916101000a81548173ffffffffffffffffffffffffffffffffffffffff021916908373ffffffffffffffffffffffffffffffffffffffff1602179055503373ffffffffffffffffffffffffffffffffffffffff165f547fc1542960c8708fa89cc7bbc364ab9741be9373ede08d56467e106a08365bbba0866040516107539190611eaa565b60405180910390a350505050565b60015481565b5f60035f8381526020019081526020015f2090505f60025f835f015481526020019081526020015f209050806006015482600701546107a69190611eca565b42116107e7576040517f08c379a00000000000000000000000000000000000000000000000000000000081526004016107de90611f47565b60405180910390fd5b5f60038111156107fa576107f9611607565b5b826008015f9054906101000a900460ff16600381111561081d5761081c611607565b5b1461085d576040517f08c379a000000000000000000000000000000000000000000000000000000000815260040161085490611faf565b60405180910390fd5b5f60045f845f015481526020019081526020015f208054905090505f60646032836108889190611e69565b6108929190611ffa565b9050836006015484600501541180156108be575080846006015485600501546108bb9190611eca565b10155b156108f4576001846008015f6101000a81548160ff021916908360038111156108ea576108e9611607565b5b021790555061096e565b80846006015485600501546109099190611eca565b1015610940576003846008015f6101000a81548160ff0219169083600381111561093657610935611607565b5b021790555061096d565b6002846008015f6101000a81548160ff0219169083600381111561096757610966611607565b5b02179055505b5b847f34a42c4ce0a88d16ad098de6406057747139a2a3dd8dd8616ee7bbabcecb768e856008015f9054906101000a900460ff166040516109ae919061202a565b60405180910390a25050505050565b8360025f8281526020019081526020015f206005015f3373ffffffffffffffffffffffffffffffffffffffff1673ffffffffffffffffffffffffffffffffffffffff1681526020019081526020015f205f9054906101000a900460ff16610a59576040517f08c379a0000000000000000000000000000000000000000000000000000000008152600401610a509061208d565b60405180910390fd5b60025f8681526020019081526020015f2060040154821115610ab0576040517f08c379a0000000000000000000000000000000000000000000000000000000008152600401610aa7906120f5565b60405180910390fd5b60015f815480929190610ac290611b4e565b919050555060065f8681526020019081526020015f20600154908060018154018082558091505060019003905f5260205f20015f90919091909150555f60035f60015481526020019081526020015f20905085815f018190555033816001015f6101000a81548173ffffffffffffffffffffffffffffffffffffffff021916908373ffffffffffffffffffffffffffffffffffffffff16021790555084816002019081610b6f9190611d9a565b5083816003019081610b819190611d9a565b508281600401819055504281600701819055505f816008015f6101000a81548160ff02191690836003811115610bba57610bb9611607565b5b02179055503373ffffffffffffffffffffffffffffffffffffffff16866001547f6f3322e9e9bcd9739d7dcbb73278ee28b363d39f7900bd404831ee8dfb41608e88604051610c099190611eaa565b60405180910390a4505050505050565b6006602052815f5260405f208181548110610c32575f80fd5b905f5260205f20015f91509150505481565b6002602052805f5260405f205f91509050805f015f9054906101000a900473ffffffffffffffffffffffffffffffffffffffff1690806001018054610c8890611af1565b80601f0160208091040260200160405190810160405280929190818152602001828054610cb490611af1565b8015610cff5780601f10610cd657610100808354040283529160200191610cff565b820191905f5260205f20905b815481529060010190602001808311610ce257829003601f168201915b505050505090806002018054610d1490611af1565b80601f0160208091040260200160405190810160405280929190818152602001828054610d4090611af1565b8015610d8b5780601f10610d6257610100808354040283529160200191610d8b565b820191905f5260205f20905b815481529060010190602001808311610d6e57829003601f168201915b5050505050908060030154908060040154908060060154905086565b5f5481565b6005602052815f5260405f208181548110610dc5575f80fd5b905f5260205f20015f91509150505481565b5f3411610e19576040517f08c379a0000000000000000000000000000000000000000000000000000000008152600401610e109061215d565b60405180910390fd5b5f60025f8381526020019081526020015f209050806005015f3373ffffffffffffffffffffffffffffffffffffffff1673ffffffffffffffffffffffffffffffffffffffff1681526020019081526020015f205f9054906101000a900460ff16610fa5576001816005015f3373ffffffffffffffffffffffffffffffffffffffff1673ffffffffffffffffffffffffffffffffffffffff1681526020019081526020015f205f6101000a81548160ff02191690831515021790555060045f8381526020019081526020015f2033908060018154018082558091505060019003905f5260205f20015f9091909190916101000a81548173ffffffffffffffffffffffffffffffffffffffff021916908373ffffffffffffffffffffffffffffffffffffffff16021790555060055f3373ffffffffffffffffffffffffffffffffffffffff1673ffffffffffffffffffffffffffffffffffffffff1681526020019081526020015f2082908060018154018082558091505060019003905f5260205f20015f90919091909150555b34816004015f828254610fb89190611eca565b925050819055503373ffffffffffffffffffffffffffffffffffffffff16827f71237963accfab6ceb4010b83f2ad8c635a475fea605b9a1be57cab17d5f9a653460405161100691906118c7565b60405180910390a35050565b5f60035f8481526020019081526020015f2090505f60025f835f015481526020019081526020015f209050806005015f3373ffffffffffffffffffffffffffffffffffffffff1673ffffffffffffffffffffffffffffffffffffffff1681526020019081526020015f205f9054906101000a900460ff166110c8576040517f08c379a00000000000000000000000000000000000000000000000000000000081526004016110bf9061208d565b60405180910390fd5b806006015482600701546110dc9190611eca565b42111561111e576040517f08c379a0000000000000000000000000000000000000000000000000000000008152600401611115906121c5565b60405180910390fd5b816001015f9054906101000a900473ffffffffffffffffffffffffffffffffffffffff1673ffffffffffffffffffffffffffffffffffffffff163373ffffffffffffffffffffffffffffffffffffffff16036111af576040517f08c379a00000000000000000000000000000000000000000000000000000000081526004016111a69061222d565b60405180910390fd5b82156111d357816005015f8154809291906111c990611b4e565b91905055506111ed565b816006015f8154809291906111e790611b4e565b91905055505b3373ffffffffffffffffffffffffffffffffffffffff16847ff2913dbe661ee2acc4a046d8fbcdc792373bda34c41c6086484b5345e5785e5f85604051611234919061225a565b60405180910390a350505050565b5f60035f8381526020019081526020015f2090505f60025f8581526020019081526020015f209050816001015f9054906101000a900473ffffffffffffffffffffffffffffffffffffffff1673ffffffffffffffffffffffffffffffffffffffff163373ffffffffffffffffffffffffffffffffffffffff16146112fb576040517f08c379a00000000000000000000000000000000000000000000000000000000081526004016112f2906122bd565b60405180910390fd5b6001600381111561130f5761130e611607565b5b826008015f9054906101000a900460ff16600381111561133257611331611607565b5b14611372576040517f08c379a000000000000000000000000000000000000000000000000000000000815260040161136990612325565b60405180910390fd5b8060040154826004015411156113bd576040517f08c379a00000000000000000000000000000000000000000000000000000000081526004016113b4906120f5565b60405180910390fd5b5f826004015490505f836004018190555080826004015f8282546113e19190612343565b925050819055503373ffffffffffffffffffffffffffffffffffffffff166108fc8290811502906040515f60405180830381858888f1935050505015801561142b573d5f803e3d5ffd5b503373ffffffffffffffffffffffffffffffffffffffff1684867f3f53f5f381ee0b1fbf730fa56efb0a2aec8a882b2847a1ec0279982d8846e4f28460405161147491906118c7565b60405180910390a45050505050565b5f604051905090565b5f80fd5b5f80fd5b5f819050919050565b6114a681611494565b81146114b0575f80fd5b50565b5f813590506114c18161149d565b92915050565b5f80604083850312156114dd576114dc61148c565b5b5f6114ea858286016114b3565b92505060206114fb858286016114b3565b9150509250929050565b5f73ffffffffffffffffffffffffffffffffffffffff82169050919050565b5f61152e82611505565b9050919050565b61153e81611524565b82525050565b5f6020820190506115575f830184611535565b92915050565b5f602082840312156115725761157161148c565b5b5f61157f848285016114b3565b91505092915050565b61159181611494565b82525050565b5f81519050919050565b5f82825260208201905092915050565b8281835e5f83830152505050565b5f601f19601f8301169050919050565b5f6115d982611597565b6115e381856115a1565b93506115f38185602086016115b1565b6115fc816115bf565b840191505092915050565b7f4e487b71000000000000000000000000000000000000000000000000000000005f52602160045260245ffd5b6004811061164557611644611607565b5b50565b5f81905061165582611634565b919050565b5f61166482611648565b9050919050565b6116748161165a565b82525050565b5f6101208201905061168e5f83018c611588565b61169b602083018b611535565b81810360408301526116ad818a6115cf565b905081810360608301526116c181896115cf565b90506116d06080830188611588565b6116dd60a0830187611588565b6116ea60c0830186611588565b6116f760e0830185611588565b61170561010083018461166b565b9a9950505050505050505050565b5f80fd5b5f80fd5b7f4e487b71000000000000000000000000000000000000000000000000000000005f52604160045260245ffd5b611751826115bf565b810181811067ffffffffffffffff821117156117705761176f61171b565b5b80604052505050565b5f611782611483565b905061178e8282611748565b919050565b5f67ffffffffffffffff8211156117ad576117ac61171b565b5b6117b6826115bf565b9050602081019050919050565b828183375f83830152505050565b5f6117e36117de84611793565b611779565b9050828152602081018484840111156117ff576117fe611717565b5b61180a8482856117c3565b509392505050565b5f82601f83011261182657611825611713565b5b81356118368482602086016117d1565b91505092915050565b5f805f606084860312156118565761185561148c565b5b5f84013567ffffffffffffffff81111561187357611872611490565b5b61187f86828701611812565b935050602084013567ffffffffffffffff8111156118a05761189f611490565b5b6118ac86828701611812565b92505060406118bd868287016114b3565b9150509250925092565b5f6020820190506118da5f830184611588565b92915050565b5f805f80608085870312156118f8576118f761148c565b5b5f611905878288016114b3565b945050602085013567ffffffffffffffff81111561192657611925611490565b5b61193287828801611812565b935050604085013567ffffffffffffffff81111561195357611952611490565b5b61195f87828801611812565b9250506060611970878288016114b3565b91505092959194509250565b5f60c08201905061198f5f830189611535565b81810360208301526119a181886115cf565b905081810360408301526119b581876115cf565b90506119c46060830186611588565b6119d16080830185611588565b6119de60a0830184611588565b979650505050505050565b6119f281611524565b81146119fc575f80fd5b50565b5f81359050611a0d816119e9565b92915050565b5f8060408385031215611a2957611a2861148c565b5b5f611a36858286016119ff565b9250506020611a47858286016114b3565b9150509250929050565b5f8115159050919050565b611a6581611a51565b8114611a6f575f80fd5b50565b5f81359050611a8081611a5c565b92915050565b5f8060408385031215611a9c57611a9b61148c565b5b5f611aa9858286016114b3565b9250506020611aba85828601611a72565b9150509250929050565b7f4e487b71000000000000000000000000000000000000000000000000000000005f52602260045260245ffd5b5f6002820490506001821680611b0857607f821691505b602082108103611b1b57611b1a611ac4565b5b50919050565b7f4e487b71000000000000000000000000000000000000000000000000000000005f52601160045260245ffd5b5f611b5882611494565b91507fffffffffffffffffffffffffffffffffffffffffffffffffffffffffffffffff8203611b8a57611b89611b21565b5b600182019050919050565b7f596f752063616e206f6e6c7920637265617465206f6e652053484700000000005f82015250565b5f611bc9601b836115a1565b9150611bd482611b95565b602082019050919050565b5f6020820190508181035f830152611bf681611bbd565b9050919050565b5f819050815f5260205f209050919050565b5f6020601f8301049050919050565b5f82821b905092915050565b5f60088302611c597fffffffffffffffffffffffffffffffffffffffffffffffffffffffffffffffff82611c1e565b611c638683611c1e565b95508019841693508086168417925050509392505050565b5f819050919050565b5f611c9e611c99611c9484611494565b611c7b565b611494565b9050919050565b5f819050919050565b611cb783611c84565b611ccb611cc382611ca5565b848454611c2a565b825550505050565b5f90565b611cdf611cd3565b611cea818484611cae565b505050565b5b81811015611d0d57611d025f82611cd7565b600181019050611cf0565b5050565b601f821115611d5257611d2381611bfd565b611d2c84611c0f565b81016020851015611d3b578190505b611d4f611d4785611c0f565b830182611cef565b50505b505050565b5f82821c905092915050565b5f611d725f1984600802611d57565b1980831691505092915050565b5f611d8a8383611d63565b9150826002028217905092915050565b611da382611597565b67ffffffffffffffff811115611dbc57611dbb61171b565b5b611dc68254611af1565b611dd1828285611d11565b5f60209050601f831160018114611e02575f8415611df0578287015190505b611dfa8582611d7f565b865550611e61565b601f198416611e1086611bfd565b5f5b82811015611e3757848901518255600182019150602085019450602081019050611e12565b86831015611e545784890151611e50601f891682611d63565b8355505b6001600288020188555050505b505050505050565b5f611e7382611494565b9150611e7e83611494565b9250828202611e8c81611494565b91508282048414831517611ea357611ea2611b21565b5b5092915050565b5f6020820190508181035f830152611ec281846115cf565b905092915050565b5f611ed482611494565b9150611edf83611494565b9250828201905080821115611ef757611ef6611b21565b5b92915050565b7f566f74696e67207374696c6c20696e2070726f677265737300000000000000005f82015250565b5f611f316018836115a1565b9150611f3c82611efd565b602082019050919050565b5f6020820190508181035f830152611f5e81611f25565b9050919050565b7f50726f706f73616c20616c72656164792066696e616c697a65640000000000005f82015250565b5f611f99601a836115a1565b9150611fa482611f65565b602082019050919050565b5f6020820190508181035f830152611fc681611f8d565b9050919050565b7f4e487b71000000000000000000000000000000000000000000000000000000005f52601260045260245ffd5b5f61200482611494565b915061200f83611494565b92508261201f5761201e611fcd565b5b828204905092915050565b5f60208201905061203d5f83018461166b565b92915050565b7f4e6f742061206d656d626572206f6620746869732053484700000000000000005f82015250565b5f6120776018836115a1565b915061208282612043565b602082019050919050565b5f6020820190508181035f8301526120a48161206b565b9050919050565b7f496e73756666696369656e74205348472062616c616e636500000000000000005f82015250565b5f6120df6018836115a1565b91506120ea826120ab565b602082019050919050565b5f6020820190508181035f83015261210c816120d3565b9050919050565b7f4d7573742073656e642066756e647300000000000000000000000000000000005f82015250565b5f612147600f836115a1565b915061215282612113565b602082019050919050565b5f6020820190508181035f8301526121748161213b565b9050919050565b7f566f74696e6720706572696f642068617320656e6465640000000000000000005f82015250565b5f6121af6017836115a1565b91506121ba8261217b565b602082019050919050565b5f6020820190508181035f8301526121dc816121a3565b9050919050565b7f50726f706f7365722063616e6e6f7420766f74650000000000000000000000005f82015250565b5f6122176014836115a1565b9150612222826121e3565b602082019050919050565b5f6020820190508181035f8301526122448161220b565b9050919050565b61225481611a51565b82525050565b5f60208201905061226d5f83018461224b565b92915050565b7f4f6e6c792070726f706f7365722063616e20636c61696d2066756e64730000005f82015250565b5f6122a7601d836115a1565b91506122b282612273565b602082019050919050565b5f6020820190508181035f8301526122d48161229b565b9050919050565b7f50726f706f73616c206e6f7420617070726f76656400000000000000000000005f82015250565b5f61230f6015836115a1565b915061231a826122db565b602082019050919050565b5f6020820190508181035f83015261233c81612303565b9050919050565b5f61234d82611494565b915061235883611494565b92508282039050818111156123705761236f611b21565b5b9291505056fea2646970667358221220702cc3188d93f0b093387dda8c2678d5f5e66ca3678d5a6c7268c2aaa337e2fc64736f6c634300081a0033",
					"opcodes": "PUSH1 0x80 PUSH1 0x40 MSTORE PUSH0 DUP1 SSTORE PUSH0 PUSH1 0x1 SSTORE CALLVALUE DUP1 ISZERO PUSH1 0x15 JUMPI PUSH0 DUP1 REVERT JUMPDEST POP PUSH2 0x23AC DUP1 PUSH2 0x23 PUSH0 CODECOPY PUSH0 RETURN INVALID PUSH1 0x80 PUSH1 0x40 MSTORE PUSH1 0x4 CALLDATASIZE LT PUSH2 0xC1 JUMPI PUSH0 CALLDATALOAD PUSH1 0xE0 SHR DUP1 PUSH4 0x7641F2B8 GT PUSH2 0x7E JUMPI DUP1 PUSH4 0xBC35BAA3 GT PUSH2 0x58 JUMPI DUP1 PUSH4 0xBC35BAA3 EQ PUSH2 0x28E JUMPI DUP1 PUSH4 0xBE999705 EQ PUSH2 0x2CA JUMPI DUP1 PUSH4 0xC9D27AFE EQ PUSH2 0x2E6 JUMPI DUP1 PUSH4 0xF5FFFC0F EQ PUSH2 0x30E JUMPI PUSH2 0xC1 JUMP JUMPDEST DUP1 PUSH4 0x7641F2B8 EQ PUSH2 0x1E7 JUMPI DUP1 PUSH4 0x976EB774 EQ PUSH2 0x223 JUMPI DUP1 PUSH4 0xB979CE06 EQ PUSH2 0x264 JUMPI PUSH2 0xC1 JUMP JUMPDEST DUP1 PUSH4 0x1FC20E2 EQ PUSH2 0xC5 JUMPI DUP1 PUSH4 0x16E9EAEC EQ PUSH2 0x101 JUMPI DUP1 PUSH4 0x1CC75DF4 EQ PUSH2 0x145 JUMPI DUP1 PUSH4 0x2DFCA445 EQ PUSH2 0x16D JUMPI DUP1 PUSH4 0x5652077C EQ PUSH2 0x197 JUMPI DUP1 PUSH4 0x5ADA0A41 EQ PUSH2 0x1BF JUMPI JUMPDEST PUSH0 DUP1 REVERT JUMPDEST CALLVALUE DUP1 ISZERO PUSH2 0xD0 JUMPI PUSH0 DUP1 REVERT JUMPDEST POP PUSH2 0xEB PUSH1 0x4 DUP1 CALLDATASIZE SUB DUP2 ADD SWAP1 PUSH2 0xE6 SWAP2 SWAP1 PUSH2 0x14C7 JUMP JUMPDEST PUSH2 0x336 JUMP JUMPDEST PUSH1 0x40 MLOAD PUSH2 0xF8 SWAP2 SWAP1 PUSH2 0x1544 JUMP JUMPDEST PUSH1 0x40 MLOAD DUP1 SWAP2 SUB SWAP1 RETURN JUMPDEST CALLVALUE DUP1 ISZERO PUSH2 0x10C JUMPI PUSH0 DUP1 REVERT JUMPDEST POP PUSH2 0x127 PUSH1 0x4 DUP1 CALLDATASIZE SUB DUP2 ADD SWAP1 PUSH2 0x122 SWAP2 SWAP1 PUSH2 0x155D JUMP JUMPDEST PUSH2 0x37E JUMP JUMPDEST PUSH1 0x40 MLOAD PUSH2 0x13C SWAP10 SWAP9 SWAP8 SWAP7 SWAP6 SWAP5 SWAP4 SWAP3 SWAP2 SWAP1 PUSH2 0x167A JUMP JUMPDEST PUSH1 0x40 MLOAD DUP1 SWAP2 SUB SWAP1 RETURN JUMPDEST CALLVALUE DUP1 ISZERO PUSH2 0x150 JUMPI PUSH0 DUP1 REVERT JUMPDEST POP PUSH2 0x16B PUSH1 0x4 DUP1 CALLDATASIZE SUB DUP2 ADD SWAP1 PUSH2 0x166 SWAP2 SWAP1 PUSH2 0x183F JUMP JUMPDEST PUSH2 0x4FF JUMP JUMPDEST STOP JUMPDEST CALLVALUE DUP1 ISZERO PUSH2 0x178 JUMPI PUSH0 DUP1 REVERT JUMPDEST POP PUSH2 0x181 PUSH2 0x761 JUMP JUMPDEST PUSH1 0x40 MLOAD PUSH2 0x18E SWAP2 SWAP1 PUSH2 0x18C7 JUMP JUMPDEST PUSH1 0x40 MLOAD DUP1 SWAP2 SUB SWAP1 RETURN JUMPDEST CALLVALUE DUP1 ISZERO PUSH2 0x1A2 JUMPI PUSH0 DUP1 REVERT JUMPDEST POP PUSH2 0x1BD PUSH1 0x4 DUP1 CALLDATASIZE SUB DUP2 ADD SWAP1 PUSH2 0x1B8 SWAP2 SWAP1 PUSH2 0x155D JUMP JUMPDEST PUSH2 0x767 JUMP JUMPDEST STOP JUMPDEST CALLVALUE DUP1 ISZERO PUSH2 0x1CA JUMPI PUSH0 DUP1 REVERT JUMPDEST POP PUSH2 0x1E5 PUSH1 0x4 DUP1 CALLDATASIZE SUB DUP2 ADD SWAP1 PUSH2 0x1E0 SWAP2 SWAP1 PUSH2 0x18E0 JUMP JUMPDEST PUSH2 0x9BD JUMP JUMPDEST STOP JUMPDEST CALLVALUE DUP1 ISZERO PUSH2 0x1F2 JUMPI PUSH0 DUP1 REVERT JUMPDEST POP PUSH2 0x20D PUSH1 0x4 DUP1 CALLDATASIZE SUB DUP2 ADD SWAP1 PUSH2 0x208 SWAP2 SWAP1 PUSH2 0x14C7 JUMP JUMPDEST PUSH2 0xC19 JUMP JUMPDEST PUSH1 0x40 MLOAD PUSH2 0x21A SWAP2 SWAP1 PUSH2 0x18C7 JUMP JUMPDEST PUSH1 0x40 MLOAD DUP1 SWAP2 SUB SWAP1 RETURN JUMPDEST CALLVALUE DUP1 ISZERO PUSH2 0x22E JUMPI PUSH0 DUP1 REVERT JUMPDEST POP PUSH2 0x249 PUSH1 0x4 DUP1 CALLDATASIZE SUB DUP2 ADD SWAP1 PUSH2 0x244 SWAP2 SWAP1 PUSH2 0x155D JUMP JUMPDEST PUSH2 0xC44 JUMP JUMPDEST PUSH1 0x40 MLOAD PUSH2 0x25B SWAP7 SWAP6 SWAP5 SWAP4 SWAP3 SWAP2 SWAP1 PUSH2 0x197C JUMP JUMPDEST PUSH1 0x40 MLOAD DUP1 SWAP2 SUB SWAP1 RETURN JUMPDEST CALLVALUE DUP1 ISZERO PUSH2 0x26F JUMPI PUSH0 DUP1 REVERT JUMPDEST POP PUSH2 0x278 PUSH2 0xDA7 JUMP JUMPDEST PUSH1 0x40 MLOAD PUSH2 0x285 SWAP2 SWAP1 PUSH2 0x18C7 JUMP JUMPDEST PUSH1 0x40 MLOAD DUP1 SWAP2 SUB SWAP1 RETURN JUMPDEST CALLVALUE DUP1 ISZERO PUSH2 0x299 JUMPI PUSH0 DUP1 REVERT JUMPDEST POP PUSH2 0x2B4 PUSH1 0x4 DUP1 CALLDATASIZE SUB DUP2 ADD SWAP1 PUSH2 0x2AF SWAP2 SWAP1 PUSH2 0x1A13 JUMP JUMPDEST PUSH2 0xDAC JUMP JUMPDEST PUSH1 0x40 MLOAD PUSH2 0x2C1 SWAP2 SWAP1 PUSH2 0x18C7 JUMP JUMPDEST PUSH1 0x40 MLOAD DUP1 SWAP2 SUB SWAP1 RETURN JUMPDEST PUSH2 0x2E4 PUSH1 0x4 DUP1 CALLDATASIZE SUB DUP2 ADD SWAP1 PUSH2 0x2DF SWAP2 SWAP1 PUSH2 0x155D JUMP JUMPDEST PUSH2 0xDD7 JUMP JUMPDEST STOP JUMPDEST CALLVALUE DUP1 ISZERO PUSH2 0x2F1 JUMPI PUSH0 DUP1 REVERT JUMPDEST POP PUSH2 0x30C PUSH1 0x4 DUP1 CALLDATASIZE SUB DUP2 ADD SWAP1 PUSH2 0x307 SWAP2 SWAP1 PUSH2 0x1A86 JUMP JUMPDEST PUSH2 0x1012 JUMP JUMPDEST STOP JUMPDEST CALLVALUE DUP1 ISZERO PUSH2 0x319 JUMPI PUSH0 DUP1 REVERT JUMPDEST POP PUSH2 0x334 PUSH1 0x4 DUP1 CALLDATASIZE SUB DUP2 ADD SWAP1 PUSH2 0x32F SWAP2 SWAP1 PUSH2 0x14C7 JUMP JUMPDEST PUSH2 0x1242 JUMP JUMPDEST STOP JUMPDEST PUSH1 0x4 PUSH1 0x20 MSTORE DUP2 PUSH0 MSTORE PUSH1 0x40 PUSH0 KECCAK256 DUP2 DUP2 SLOAD DUP2 LT PUSH2 0x34F JUMPI PUSH0 DUP1 REVERT JUMPDEST SWAP1 PUSH0 MSTORE PUSH1 0x20 PUSH0 KECCAK256 ADD PUSH0 SWAP2 POP SWAP2 POP SWAP1 SLOAD SWAP1 PUSH2 0x100 EXP SWAP1 DIV PUSH20 0xFFFFFFFFFFFFFFFFFFFFFFFFFFFFFFFFFFFFFFFF AND DUP2 JUMP JUMPDEST PUSH1 0x3 PUSH1 0x20 MSTORE DUP1 PUSH0 MSTORE PUSH1 0x40 PUSH0 KECCAK256 PUSH0 SWAP2 POP SWAP1 POP DUP1 PUSH0 ADD SLOAD SWAP1 DUP1 PUSH1 0x1 ADD PUSH0 SWAP1 SLOAD SWAP1 PUSH2 0x100 EXP SWAP1 DIV PUSH20 0xFFFFFFFFFFFFFFFFFFFFFFFFFFFFFFFFFFFFFFFF AND SWAP1 DUP1 PUSH1 0x2 ADD DUP1 SLOAD PUSH2 0x3C8 SWAP1 PUSH2 0x1AF1 JUMP JUMPDEST DUP1 PUSH1 0x1F ADD PUSH1 0x20 DUP1 SWAP2 DIV MUL PUSH1 0x20 ADD PUSH1 0x40 MLOAD SWAP1 DUP2 ADD PUSH1 0x40 MSTORE DUP1 SWAP3 SWAP2 SWAP1 DUP2 DUP2 MSTORE PUSH1 0x20 ADD DUP3 DUP1 SLOAD PUSH2 0x3F4 SWAP1 PUSH2 0x1AF1 JUMP JUMPDEST DUP1 ISZERO PUSH2 0x43F JUMPI DUP1 PUSH1 0x1F LT PUSH2 0x416 JUMPI PUSH2 0x100 DUP1 DUP4 SLOAD DIV MUL DUP4 MSTORE SWAP2 PUSH1 0x20 ADD SWAP2 PUSH2 0x43F JUMP JUMPDEST DUP3 ADD SWAP2 SWAP1 PUSH0 MSTORE PUSH1 0x20 PUSH0 KECCAK256 SWAP1 JUMPDEST DUP2 SLOAD DUP2 MSTORE SWAP1 PUSH1 0x1 ADD SWAP1 PUSH1 0x20 ADD DUP1 DUP4 GT PUSH2 0x422 JUMPI DUP3 SWAP1 SUB PUSH1 0x1F AND DUP3 ADD SWAP2 JUMPDEST POP POP POP POP POP SWAP1 DUP1 PUSH1 0x3 ADD DUP1 SLOAD PUSH2 0x454 SWAP1 PUSH2 0x1AF1 JUMP JUMPDEST DUP1 PUSH1 0x1F ADD PUSH1 0x20 DUP1 SWAP2 DIV MUL PUSH1 0x20 ADD PUSH1 0x40 MLOAD SWAP1 DUP2 ADD PUSH1 0x40 MSTORE DUP1 SWAP3 SWAP2 SWAP1 DUP2 DUP2 MSTORE PUSH1 0x20 ADD DUP3 DUP1 SLOAD PUSH2 0x480 SWAP1 PUSH2 0x1AF1 JUMP JUMPDEST DUP1 ISZERO PUSH2 0x4CB JUMPI DUP1 PUSH1 0x1F LT PUSH2 0x4A2 JUMPI PUSH2 0x100 DUP1 DUP4 SLOAD DIV MUL DUP4 MSTORE SWAP2 PUSH1 0x20 ADD SWAP2 PUSH2 0x4CB JUMP JUMPDEST DUP3 ADD SWAP2 SWAP1 PUSH0 MSTORE PUSH1 0x20 PUSH0 KECCAK256 SWAP1 JUMPDEST DUP2 SLOAD DUP2 MSTORE SWAP1 PUSH1 0x1 ADD SWAP1 PUSH1 0x20 ADD DUP1 DUP4 GT PUSH2 0x4AE JUMPI DUP3 SWAP1 SUB PUSH1 0x1F AND DUP3 ADD SWAP2 JUMPDEST POP POP POP POP POP SWAP1 DUP1 PUSH1 0x4 ADD SLOAD SWAP1 DUP1 PUSH1 0x5 ADD SLOAD SWAP1 DUP1 PUSH1 0x6 ADD SLOAD SWAP1 DUP1 PUSH1 0x7 ADD SLOAD SWAP1 DUP1 PUSH1 0x8 ADD PUSH0 SWAP1 SLOAD SWAP1 PUSH2 0x100 EXP SWAP1 DIV PUSH1 0xFF AND SWAP1 POP DUP10 JUMP JUMPDEST PUSH0 DUP1 DUP2 SLOAD DUP1 SWAP3 SWAP2 SWAP1 PUSH2 0x510 SWAP1 PUSH2 0x1B4E JUMP JUMPDEST SWAP2 SWAP1 POP SSTORE POP PUSH0 PUSH1 0x5 PUSH0 CALLER PUSH20 0xFFFFFFFFFFFFFFFFFFFFFFFFFFFFFFFFFFFFFFFF AND PUSH20 0xFFFFFFFFFFFFFFFFFFFFFFFFFFFFFFFFFFFFFFFF AND DUP2 MSTORE PUSH1 0x20 ADD SWAP1 DUP2 MSTORE PUSH1 0x20 ADD PUSH0 KECCAK256 DUP1 SLOAD SWAP1 POP EQ PUSH2 0x597 JUMPI PUSH1 0x40 MLOAD PUSH32 0x8C379A000000000000000000000000000000000000000000000000000000000 DUP2 MSTORE PUSH1 0x4 ADD PUSH2 0x58E SWAP1 PUSH2 0x1BDF JUMP JUMPDEST PUSH1 0x40 MLOAD DUP1 SWAP2 SUB SWAP1 REVERT JUMPDEST PUSH0 PUSH1 0x2 PUSH0 DUP1 SLOAD DUP2 MSTORE PUSH1 0x20 ADD SWAP1 DUP2 MSTORE PUSH1 0x20 ADD PUSH0 KECCAK256 SWAP1 POP CALLER DUP2 PUSH0 ADD PUSH0 PUSH2 0x100 EXP DUP2 SLOAD DUP2 PUSH20 0xFFFFFFFFFFFFFFFFFFFFFFFFFFFFFFFFFFFFFFFF MUL NOT AND SWAP1 DUP4 PUSH20 0xFFFFFFFFFFFFFFFFFFFFFFFFFFFFFFFFFFFFFFFF AND MUL OR SWAP1 SSTORE POP DUP4 DUP2 PUSH1 0x1 ADD SWAP1 DUP2 PUSH2 0x5FE SWAP2 SWAP1 PUSH2 0x1D9A JUMP JUMPDEST POP DUP3 DUP2 PUSH1 0x2 ADD SWAP1 DUP2 PUSH2 0x610 SWAP2 SWAP1 PUSH2 0x1D9A JUMP JUMPDEST POP TIMESTAMP DUP2 PUSH1 0x3 ADD DUP2 SWAP1 SSTORE POP PUSH0 DUP2 PUSH1 0x4 ADD DUP2 SWAP1 SSTORE POP PUSH2 0xE10 DUP3 PUSH2 0x631 SWAP2 SWAP1 PUSH2 0x1E69 JUMP JUMPDEST DUP2 PUSH1 0x6 ADD DUP2 SWAP1 SSTORE POP PUSH1 0x5 PUSH0 CALLER PUSH20 0xFFFFFFFFFFFFFFFFFFFFFFFFFFFFFFFFFFFFFFFF AND PUSH20 0xFFFFFFFFFFFFFFFFFFFFFFFFFFFFFFFFFFFFFFFF AND DUP2 MSTORE PUSH1 0x20 ADD SWAP1 DUP2 MSTORE PUSH1 0x20 ADD PUSH0 KECCAK256 PUSH0 SLOAD SWAP1 DUP1 PUSH1 0x1 DUP2 SLOAD ADD DUP1 DUP3 SSTORE DUP1 SWAP2 POP POP PUSH1 0x1 SWAP1 SUB SWAP1 PUSH0 MSTORE PUSH1 0x20 PUSH0 KECCAK256 ADD PUSH0 SWAP1 SWAP2 SWAP1 SWAP2 SWAP1 SWAP2 POP SSTORE PUSH1 0x4 PUSH0 DUP1 SLOAD DUP2 MSTORE PUSH1 0x20 ADD SWAP1 DUP2 MSTORE PUSH1 0x20 ADD PUSH0 KECCAK256 CALLER SWAP1 DUP1 PUSH1 0x1 DUP2 SLOAD ADD DUP1 DUP3 SSTORE DUP1 SWAP2 POP POP PUSH1 0x1 SWAP1 SUB SWAP1 PUSH0 MSTORE PUSH1 0x20 PUSH0 KECCAK256 ADD PUSH0 SWAP1 SWAP2 SWAP1 SWAP2 SWAP1 SWAP2 PUSH2 0x100 EXP DUP2 SLOAD DUP2 PUSH20 0xFFFFFFFFFFFFFFFFFFFFFFFFFFFFFFFFFFFFFFFF MUL NOT AND SWAP1 DUP4 PUSH20 0xFFFFFFFFFFFFFFFFFFFFFFFFFFFFFFFFFFFFFFFF AND MUL OR SWAP1 SSTORE POP CALLER PUSH20 0xFFFFFFFFFFFFFFFFFFFFFFFFFFFFFFFFFFFFFFFF AND PUSH0 SLOAD PUSH32 0xC1542960C8708FA89CC7BBC364AB9741BE9373EDE08D56467E106A08365BBBA0 DUP7 PUSH1 0x40 MLOAD PUSH2 0x753 SWAP2 SWAP1 PUSH2 0x1EAA JUMP JUMPDEST PUSH1 0x40 MLOAD DUP1 SWAP2 SUB SWAP1 LOG3 POP POP POP POP JUMP JUMPDEST PUSH1 0x1 SLOAD DUP2 JUMP JUMPDEST PUSH0 PUSH1 0x3 PUSH0 DUP4 DUP2 MSTORE PUSH1 0x20 ADD SWAP1 DUP2 MSTORE PUSH1 0x20 ADD PUSH0 KECCAK256 SWAP1 POP PUSH0 PUSH1 0x2 PUSH0 DUP4 PUSH0 ADD SLOAD DUP2 MSTORE PUSH1 0x20 ADD SWAP1 DUP2 MSTORE PUSH1 0x20 ADD PUSH0 KECCAK256 SWAP1 POP DUP1 PUSH1 0x6 ADD SLOAD DUP3 PUSH1 0x7 ADD SLOAD PUSH2 0x7A6 SWAP2 SWAP1 PUSH2 0x1ECA JUMP JUMPDEST TIMESTAMP GT PUSH2 0x7E7 JUMPI PUSH1 0x40 MLOAD PUSH32 0x8C379A000000000000000000000000000000000000000000000000000000000 DUP2 MSTORE PUSH1 0x4 ADD PUSH2 0x7DE SWAP1 PUSH2 0x1F47 JUMP JUMPDEST PUSH1 0x40 MLOAD DUP1 SWAP2 SUB SWAP1 REVERT JUMPDEST PUSH0 PUSH1 0x3 DUP2 GT ISZERO PUSH2 0x7FA JUMPI PUSH2 0x7F9 PUSH2 0x1607 JUMP JUMPDEST JUMPDEST DUP3 PUSH1 0x8 ADD PUSH0 SWAP1 SLOAD SWAP1 PUSH2 0x100 EXP SWAP1 DIV PUSH1 0xFF AND PUSH1 0x3 DUP2 GT ISZERO PUSH2 0x81D JUMPI PUSH2 0x81C PUSH2 0x1607 JUMP JUMPDEST JUMPDEST EQ PUSH2 0x85D JUMPI PUSH1 0x40 MLOAD PUSH32 0x8C379A000000000000000000000000000000000000000000000000000000000 DUP2 MSTORE PUSH1 0x4 ADD PUSH2 0x854 SWAP1 PUSH2 0x1FAF JUMP JUMPDEST PUSH1 0x40 MLOAD DUP1 SWAP2 SUB SWAP1 REVERT JUMPDEST PUSH0 PUSH1 0x4 PUSH0 DUP5 PUSH0 ADD SLOAD DUP2 MSTORE PUSH1 0x20 ADD SWAP1 DUP2 MSTORE PUSH1 0x20 ADD PUSH0 KECCAK256 DUP1 SLOAD SWAP1 POP SWAP1 POP PUSH0 PUSH1 0x64 PUSH1 0x32 DUP4 PUSH2 0x888 SWAP2 SWAP1 PUSH2 0x1E69 JUMP JUMPDEST PUSH2 0x892 SWAP2 SWAP1 PUSH2 0x1FFA JUMP JUMPDEST SWAP1 POP DUP4 PUSH1 0x6 ADD SLOAD DUP5 PUSH1 0x5 ADD SLOAD GT DUP1 ISZERO PUSH2 0x8BE JUMPI POP DUP1 DUP5 PUSH1 0x6 ADD SLOAD DUP6 PUSH1 0x5 ADD SLOAD PUSH2 0x8BB SWAP2 SWAP1 PUSH2 0x1ECA JUMP JUMPDEST LT ISZERO JUMPDEST ISZERO PUSH2 0x8F4 JUMPI PUSH1 0x1 DUP5 PUSH1 0x8 ADD PUSH0 PUSH2 0x100 EXP DUP2 SLOAD DUP2 PUSH1 0xFF MUL NOT AND SWAP1 DUP4 PUSH1 0x3 DUP2 GT ISZERO PUSH2 0x8EA JUMPI PUSH2 0x8E9 PUSH2 0x1607 JUMP JUMPDEST JUMPDEST MUL OR SWAP1 SSTORE POP PUSH2 0x96E JUMP JUMPDEST DUP1 DUP5 PUSH1 0x6 ADD SLOAD DUP6 PUSH1 0x5 ADD SLOAD PUSH2 0x909 SWAP2 SWAP1 PUSH2 0x1ECA JUMP JUMPDEST LT ISZERO PUSH2 0x940 JUMPI PUSH1 0x3 DUP5 PUSH1 0x8 ADD PUSH0 PUSH2 0x100 EXP DUP2 SLOAD DUP2 PUSH1 0xFF MUL NOT AND SWAP1 DUP4 PUSH1 0x3 DUP2 GT ISZERO PUSH2 0x936 JUMPI PUSH2 0x935 PUSH2 0x1607 JUMP JUMPDEST JUMPDEST MUL OR SWAP1 SSTORE POP PUSH2 0x96D JUMP JUMPDEST PUSH1 0x2 DUP5 PUSH1 0x8 ADD PUSH0 PUSH2 0x100 EXP DUP2 SLOAD DUP2 PUSH1 0xFF MUL NOT AND SWAP1 DUP4 PUSH1 0x3 DUP2 GT ISZERO PUSH2 0x967 JUMPI PUSH2 0x966 PUSH2 0x1607 JUMP JUMPDEST JUMPDEST MUL OR SWAP1 SSTORE POP JUMPDEST JUMPDEST DUP5 PUSH32 0x34A42C4CE0A88D16AD098DE6406057747139A2A3DD8DD8616EE7BBABCECB768E DUP6 PUSH1 0x8 ADD PUSH0 SWAP1 SLOAD SWAP1 PUSH2 0x100 EXP SWAP1 DIV PUSH1 0xFF AND PUSH1 0x40 MLOAD PUSH2 0x9AE SWAP2 SWAP1 PUSH2 0x202A JUMP JUMPDEST PUSH1 0x40 MLOAD DUP1 SWAP2 SUB SWAP1 LOG2 POP POP POP POP POP JUMP JUMPDEST DUP4 PUSH1 0x2 PUSH0 DUP3 DUP2 MSTORE PUSH1 0x20 ADD SWAP1 DUP2 MSTORE PUSH1 0x20 ADD PUSH0 KECCAK256 PUSH1 0x5 ADD PUSH0 CALLER PUSH20 0xFFFFFFFFFFFFFFFFFFFFFFFFFFFFFFFFFFFFFFFF AND PUSH20 0xFFFFFFFFFFFFFFFFFFFFFFFFFFFFFFFFFFFFFFFF AND DUP2 MSTORE PUSH1 0x20 ADD SWAP1 DUP2 MSTORE PUSH1 0x20 ADD PUSH0 KECCAK256 PUSH0 SWAP1 SLOAD SWAP1 PUSH2 0x100 EXP SWAP1 DIV PUSH1 0xFF AND PUSH2 0xA59 JUMPI PUSH1 0x40 MLOAD PUSH32 0x8C379A000000000000000000000000000000000000000000000000000000000 DUP2 MSTORE PUSH1 0x4 ADD PUSH2 0xA50 SWAP1 PUSH2 0x208D JUMP JUMPDEST PUSH1 0x40 MLOAD DUP1 SWAP2 SUB SWAP1 REVERT JUMPDEST PUSH1 0x2 PUSH0 DUP7 DUP2 MSTORE PUSH1 0x20 ADD SWAP1 DUP2 MSTORE PUSH1 0x20 ADD PUSH0 KECCAK256 PUSH1 0x4 ADD SLOAD DUP3 GT ISZERO PUSH2 0xAB0 JUMPI PUSH1 0x40 MLOAD PUSH32 0x8C379A000000000000000000000000000000000000000000000000000000000 DUP2 MSTORE PUSH1 0x4 ADD PUSH2 0xAA7 SWAP1 PUSH2 0x20F5 JUMP JUMPDEST PUSH1 0x40 MLOAD DUP1 SWAP2 SUB SWAP1 REVERT JUMPDEST PUSH1 0x1 PUSH0 DUP2 SLOAD DUP1 SWAP3 SWAP2 SWAP1 PUSH2 0xAC2 SWAP1 PUSH2 0x1B4E JUMP JUMPDEST SWAP2 SWAP1 POP SSTORE POP PUSH1 0x6 PUSH0 DUP7 DUP2 MSTORE PUSH1 0x20 ADD SWAP1 DUP2 MSTORE PUSH1 0x20 ADD PUSH0 KECCAK256 PUSH1 0x1 SLOAD SWAP1 DUP1 PUSH1 0x1 DUP2 SLOAD ADD DUP1 DUP3 SSTORE DUP1 SWAP2 POP POP PUSH1 0x1 SWAP1 SUB SWAP1 PUSH0 MSTORE PUSH1 0x20 PUSH0 KECCAK256 ADD PUSH0 SWAP1 SWAP2 SWAP1 SWAP2 SWAP1 SWAP2 POP SSTORE PUSH0 PUSH1 0x3 PUSH0 PUSH1 0x1 SLOAD DUP2 MSTORE PUSH1 0x20 ADD SWAP1 DUP2 MSTORE PUSH1 0x20 ADD PUSH0 KECCAK256 SWAP1 POP DUP6 DUP2 PUSH0 ADD DUP2 SWAP1 SSTORE POP CALLER DUP2 PUSH1 0x1 ADD PUSH0 PUSH2 0x100 EXP DUP2 SLOAD DUP2 PUSH20 0xFFFFFFFFFFFFFFFFFFFFFFFFFFFFFFFFFFFFFFFF MUL NOT AND SWAP1 DUP4 PUSH20 0xFFFFFFFFFFFFFFFFFFFFFFFFFFFFFFFFFFFFFFFF AND MUL OR SWAP1 SSTORE POP DUP5 DUP2 PUSH1 0x2 ADD SWAP1 DUP2 PUSH2 0xB6F SWAP2 SWAP1 PUSH2 0x1D9A JUMP JUMPDEST POP DUP4 DUP2 PUSH1 0x3 ADD SWAP1 DUP2 PUSH2 0xB81 SWAP2 SWAP1 PUSH2 0x1D9A JUMP JUMPDEST POP DUP3 DUP2 PUSH1 0x4 ADD DUP2 SWAP1 SSTORE POP TIMESTAMP DUP2 PUSH1 0x7 ADD DUP2 SWAP1 SSTORE POP PUSH0 DUP2 PUSH1 0x8 ADD PUSH0 PUSH2 0x100 EXP DUP2 SLOAD DUP2 PUSH1 0xFF MUL NOT AND SWAP1 DUP4 PUSH1 0x3 DUP2 GT ISZERO PUSH2 0xBBA JUMPI PUSH2 0xBB9 PUSH2 0x1607 JUMP JUMPDEST JUMPDEST MUL OR SWAP1 SSTORE POP CALLER PUSH20 0xFFFFFFFFFFFFFFFFFFFFFFFFFFFFFFFFFFFFFFFF AND DUP7 PUSH1 0x1 SLOAD PUSH32 0x6F3322E9E9BCD9739D7DCBB73278EE28B363D39F7900BD404831EE8DFB41608E DUP9 PUSH1 0x40 MLOAD PUSH2 0xC09 SWAP2 SWAP1 PUSH2 0x1EAA JUMP JUMPDEST PUSH1 0x40 MLOAD DUP1 SWAP2 SUB SWAP1 LOG4 POP POP POP POP POP POP JUMP JUMPDEST PUSH1 0x6 PUSH1 0x20 MSTORE DUP2 PUSH0 MSTORE PUSH1 0x40 PUSH0 KECCAK256 DUP2 DUP2 SLOAD DUP2 LT PUSH2 0xC32 JUMPI PUSH0 DUP1 REVERT JUMPDEST SWAP1 PUSH0 MSTORE PUSH1 0x20 PUSH0 KECCAK256 ADD PUSH0 SWAP2 POP SWAP2 POP POP SLOAD DUP2 JUMP JUMPDEST PUSH1 0x2 PUSH1 0x20 MSTORE DUP1 PUSH0 MSTORE PUSH1 0x40 PUSH0 KECCAK256 PUSH0 SWAP2 POP SWAP1 POP DUP1 PUSH0 ADD PUSH0 SWAP1 SLOAD SWAP1 PUSH2 0x100 EXP SWAP1 DIV PUSH20 0xFFFFFFFFFFFFFFFFFFFFFFFFFFFFFFFFFFFFFFFF AND SWAP1 DUP1 PUSH1 0x1 ADD DUP1 SLOAD PUSH2 0xC88 SWAP1 PUSH2 0x1AF1 JUMP JUMPDEST DUP1 PUSH1 0x1F ADD PUSH1 0x20 DUP1 SWAP2 DIV MUL PUSH1 0x20 ADD PUSH1 0x40 MLOAD SWAP1 DUP2 ADD PUSH1 0x40 MSTORE DUP1 SWAP3 SWAP2 SWAP1 DUP2 DUP2 MSTORE PUSH1 0x20 ADD DUP3 DUP1 SLOAD PUSH2 0xCB4 SWAP1 PUSH2 0x1AF1 JUMP JUMPDEST DUP1 ISZERO PUSH2 0xCFF JUMPI DUP1 PUSH1 0x1F LT PUSH2 0xCD6 JUMPI PUSH2 0x100 DUP1 DUP4 SLOAD DIV MUL DUP4 MSTORE SWAP2 PUSH1 0x20 ADD SWAP2 PUSH2 0xCFF JUMP JUMPDEST DUP3 ADD SWAP2 SWAP1 PUSH0 MSTORE PUSH1 0x20 PUSH0 KECCAK256 SWAP1 JUMPDEST DUP2 SLOAD DUP2 MSTORE SWAP1 PUSH1 0x1 ADD SWAP1 PUSH1 0x20 ADD DUP1 DUP4 GT PUSH2 0xCE2 JUMPI DUP3 SWAP1 SUB PUSH1 0x1F AND DUP3 ADD SWAP2 JUMPDEST POP POP POP POP POP SWAP1 DUP1 PUSH1 0x2 ADD DUP1 SLOAD PUSH2 0xD14 SWAP1 PUSH2 0x1AF1 JUMP JUMPDEST DUP1 PUSH1 0x1F ADD PUSH1 0x20 DUP1 SWAP2 DIV MUL PUSH1 0x20 ADD PUSH1 0x40 MLOAD SWAP1 DUP2 ADD PUSH1 0x40 MSTORE DUP1 SWAP3 SWAP2 SWAP1 DUP2 DUP2 MSTORE PUSH1 0x20 ADD DUP3 DUP1 SLOAD PUSH2 0xD40 SWAP1 PUSH2 0x1AF1 JUMP JUMPDEST DUP1 ISZERO PUSH2 0xD8B JUMPI DUP1 PUSH1 0x1F LT PUSH2 0xD62 JUMPI PUSH2 0x100 DUP1 DUP4 SLOAD DIV MUL DUP4 MSTORE SWAP2 PUSH1 0x20 ADD SWAP2 PUSH2 0xD8B JUMP JUMPDEST DUP3 ADD SWAP2 SWAP1 PUSH0 MSTORE PUSH1 0x20 PUSH0 KECCAK256 SWAP1 JUMPDEST DUP2 SLOAD DUP2 MSTORE SWAP1 PUSH1 0x1 ADD SWAP1 PUSH1 0x20 ADD DUP1 DUP4 GT PUSH2 0xD6E JUMPI DUP3 SWAP1 SUB PUSH1 0x1F AND DUP3 ADD SWAP2 JUMPDEST POP POP POP POP POP SWAP1 DUP1 PUSH1 0x3 ADD SLOAD SWAP1 DUP1 PUSH1 0x4 ADD SLOAD SWAP1 DUP1 PUSH1 0x6 ADD SLOAD SWAP1 POP DUP7 JUMP JUMPDEST PUSH0 SLOAD DUP2 JUMP JUMPDEST PUSH1 0x5 PUSH1 0x20 MSTORE DUP2 PUSH0 MSTORE PUSH1 0x40 PUSH0 KECCAK256 DUP2 DUP2 SLOAD DUP2 LT PUSH2 0xDC5 JUMPI PUSH0 DUP1 REVERT JUMPDEST SWAP1 PUSH0 MSTORE PUSH1 0x20 PUSH0 KECCAK256 ADD PUSH0 SWAP2 POP SWAP2 POP POP SLOAD DUP2 JUMP JUMPDEST PUSH0 CALLVALUE GT PUSH2 0xE19 JUMPI PUSH1 0x40 MLOAD PUSH32 0x8C379A000000000000000000000000000000000000000000000000000000000 DUP2 MSTORE PUSH1 0x4 ADD PUSH2 0xE10 SWAP1 PUSH2 0x215D JUMP JUMPDEST PUSH1 0x40 MLOAD DUP1 SWAP2 SUB SWAP1 REVERT JUMPDEST PUSH0 PUSH1 0x2 PUSH0 DUP4 DUP2 MSTORE PUSH1 0x20 ADD SWAP1 DUP2 MSTORE PUSH1 0x20 ADD PUSH0 KECCAK256 SWAP1 POP DUP1 PUSH1 0x5 ADD PUSH0 CALLER PUSH20 0xFFFFFFFFFFFFFFFFFFFFFFFFFFFFFFFFFFFFFFFF AND PUSH20 0xFFFFFFFFFFFFFFFFFFFFFFFFFFFFFFFFFFFFFFFF AND DUP2 MSTORE PUSH1 0x20 ADD SWAP1 DUP2 MSTORE PUSH1 0x20 ADD PUSH0 KECCAK256 PUSH0 SWAP1 SLOAD SWAP1 PUSH2 0x100 EXP SWAP1 DIV PUSH1 0xFF AND PUSH2 0xFA5 JUMPI PUSH1 0x1 DUP2 PUSH1 0x5 ADD PUSH0 CALLER PUSH20 0xFFFFFFFFFFFFFFFFFFFFFFFFFFFFFFFFFFFFFFFF AND PUSH20 0xFFFFFFFFFFFFFFFFFFFFFFFFFFFFFFFFFFFFFFFF AND DUP2 MSTORE PUSH1 0x20 ADD SWAP1 DUP2 MSTORE PUSH1 0x20 ADD PUSH0 KECCAK256 PUSH0 PUSH2 0x100 EXP DUP2 SLOAD DUP2 PUSH1 0xFF MUL NOT AND SWAP1 DUP4 ISZERO ISZERO MUL OR SWAP1 SSTORE POP PUSH1 0x4 PUSH0 DUP4 DUP2 MSTORE PUSH1 0x20 ADD SWAP1 DUP2 MSTORE PUSH1 0x20 ADD PUSH0 KECCAK256 CALLER SWAP1 DUP1 PUSH1 0x1 DUP2 SLOAD ADD DUP1 DUP3 SSTORE DUP1 SWAP2 POP POP PUSH1 0x1 SWAP1 SUB SWAP1 PUSH0 MSTORE PUSH1 0x20 PUSH0 KECCAK256 ADD PUSH0 SWAP1 SWAP2 SWAP1 SWAP2 SWAP1 SWAP2 PUSH2 0x100 EXP DUP2 SLOAD DUP2 PUSH20 0xFFFFFFFFFFFFFFFFFFFFFFFFFFFFFFFFFFFFFFFF MUL NOT AND SWAP1 DUP4 PUSH20 0xFFFFFFFFFFFFFFFFFFFFFFFFFFFFFFFFFFFFFFFF AND MUL OR SWAP1 SSTORE POP PUSH1 0x5 PUSH0 CALLER PUSH20 0xFFFFFFFFFFFFFFFFFFFFFFFFFFFFFFFFFFFFFFFF AND PUSH20 0xFFFFFFFFFFFFFFFFFFFFFFFFFFFFFFFFFFFFFFFF AND DUP2 MSTORE PUSH1 0x20 ADD SWAP1 DUP2 MSTORE PUSH1 0x20 ADD PUSH0 KECCAK256 DUP3 SWAP1 DUP1 PUSH1 0x1 DUP2 SLOAD ADD DUP1 DUP3 SSTORE DUP1 SWAP2 POP POP PUSH1 0x1 SWAP1 SUB SWAP1 PUSH0 MSTORE PUSH1 0x20 PUSH0 KECCAK256 ADD PUSH0 SWAP1 SWAP2 SWAP1 SWAP2 SWAP1 SWAP2 POP SSTORE JUMPDEST CALLVALUE DUP2 PUSH1 0x4 ADD PUSH0 DUP3 DUP3 SLOAD PUSH2 0xFB8 SWAP2 SWAP1 PUSH2 0x1ECA JUMP JUMPDEST SWAP3 POP POP DUP2 SWAP1 SSTORE POP CALLER PUSH20 0xFFFFFFFFFFFFFFFFFFFFFFFFFFFFFFFFFFFFFFFF AND DUP3 PUSH32 0x71237963ACCFAB6CEB4010B83F2AD8C635A475FEA605B9A1BE57CAB17D5F9A65 CALLVALUE PUSH1 0x40 MLOAD PUSH2 0x1006 SWAP2 SWAP1 PUSH2 0x18C7 JUMP JUMPDEST PUSH1 0x40 MLOAD DUP1 SWAP2 SUB SWAP1 LOG3 POP POP JUMP JUMPDEST PUSH0 PUSH1 0x3 PUSH0 DUP5 DUP2 MSTORE PUSH1 0x20 ADD SWAP1 DUP2 MSTORE PUSH1 0x20 ADD PUSH0 KECCAK256 SWAP1 POP PUSH0 PUSH1 0x2 PUSH0 DUP4 PUSH0 ADD SLOAD DUP2 MSTORE PUSH1 0x20 ADD SWAP1 DUP2 MSTORE PUSH1 0x20 ADD PUSH0 KECCAK256 SWAP1 POP DUP1 PUSH1 0x5 ADD PUSH0 CALLER PUSH20 0xFFFFFFFFFFFFFFFFFFFFFFFFFFFFFFFFFFFFFFFF AND PUSH20 0xFFFFFFFFFFFFFFFFFFFFFFFFFFFFFFFFFFFFFFFF AND DUP2 MSTORE PUSH1 0x20 ADD SWAP1 DUP2 MSTORE PUSH1 0x20 ADD PUSH0 KECCAK256 PUSH0 SWAP1 SLOAD SWAP1 PUSH2 0x100 EXP SWAP1 DIV PUSH1 0xFF AND PUSH2 0x10C8 JUMPI PUSH1 0x40 MLOAD PUSH32 0x8C379A000000000000000000000000000000000000000000000000000000000 DUP2 MSTORE PUSH1 0x4 ADD PUSH2 0x10BF SWAP1 PUSH2 0x208D JUMP JUMPDEST PUSH1 0x40 MLOAD DUP1 SWAP2 SUB SWAP1 REVERT JUMPDEST DUP1 PUSH1 0x6 ADD SLOAD DUP3 PUSH1 0x7 ADD SLOAD PUSH2 0x10DC SWAP2 SWAP1 PUSH2 0x1ECA JUMP JUMPDEST TIMESTAMP GT ISZERO PUSH2 0x111E JUMPI PUSH1 0x40 MLOAD PUSH32 0x8C379A000000000000000000000000000000000000000000000000000000000 DUP2 MSTORE PUSH1 0x4 ADD PUSH2 0x1115 SWAP1 PUSH2 0x21C5 JUMP JUMPDEST PUSH1 0x40 MLOAD DUP1 SWAP2 SUB SWAP1 REVERT JUMPDEST DUP2 PUSH1 0x1 ADD PUSH0 SWAP1 SLOAD SWAP1 PUSH2 0x100 EXP SWAP1 DIV PUSH20 0xFFFFFFFFFFFFFFFFFFFFFFFFFFFFFFFFFFFFFFFF AND PUSH20 0xFFFFFFFFFFFFFFFFFFFFFFFFFFFFFFFFFFFFFFFF AND CALLER PUSH20 0xFFFFFFFFFFFFFFFFFFFFFFFFFFFFFFFFFFFFFFFF AND SUB PUSH2 0x11AF JUMPI PUSH1 0x40 MLOAD PUSH32 0x8C379A000000000000000000000000000000000000000000000000000000000 DUP2 MSTORE PUSH1 0x4 ADD PUSH2 0x11A6 SWAP1 PUSH2 0x222D JUMP JUMPDEST PUSH1 0x40 MLOAD DUP1 SWAP2 SUB SWAP1 REVERT JUMPDEST DUP3 ISZERO PUSH2 0x11D3 JUMPI DUP2 PUSH1 0x5 ADD PUSH0 DUP2 SLOAD DUP1 SWAP3 SWAP2 SWAP1 PUSH2 0x11C9 SWAP1 PUSH2 0x1B4E JUMP JUMPDEST SWAP2 SWAP1 POP SSTORE POP PUSH2 0x11ED JUMP JUMPDEST DUP2 PUSH1 0x6 ADD PUSH0 DUP2 SLOAD DUP1 SWAP3 SWAP2 SWAP1 PUSH2 0x11E7 SWAP1 PUSH2 0x1B4E JUMP JUMPDEST SWAP2 SWAP1 POP SSTORE POP JUMPDEST CALLER PUSH20 0xFFFFFFFFFFFFFFFFFFFFFFFFFFFFFFFFFFFFFFFF AND DUP5 PUSH32 0xF2913DBE661EE2ACC4A046D8FBCDC792373BDA34C41C6086484B5345E5785E5F DUP6 PUSH1 0x40 MLOAD PUSH2 0x1234 SWAP2 SWAP1 PUSH2 0x225A JUMP JUMPDEST PUSH1 0x40 MLOAD DUP1 SWAP2 SUB SWAP1 LOG3 POP POP POP POP JUMP JUMPDEST PUSH0 PUSH1 0x3 PUSH0 DUP4 DUP2 MSTORE PUSH1 0x20 ADD SWAP1 DUP2 MSTORE PUSH1 0x20 ADD PUSH0 KECCAK256 SWAP1 POP PUSH0 PUSH1 0x2 PUSH0 DUP6 DUP2 MSTORE PUSH1 0x20 ADD SWAP1 DUP2 MSTORE PUSH1 0x20 ADD PUSH0 KECCAK256 SWAP1 POP DUP2 PUSH1 0x1 ADD PUSH0 SWAP1 SLOAD SWAP1 PUSH2 0x100 EXP SWAP1 DIV PUSH20 0xFFFFFFFFFFFFFFFFFFFFFFFFFFFFFFFFFFFFFFFF AND PUSH20 0xFFFFFFFFFFFFFFFFFFFFFFFFFFFFFFFFFFFFFFFF AND CALLER PUSH20 0xFFFFFFFFFFFFFFFFFFFFFFFFFFFFFFFFFFFFFFFF AND EQ PUSH2 0x12FB JUMPI PUSH1 0x40 MLOAD PUSH32 0x8C379A000000000000000000000000000000000000000000000000000000000 DUP2 MSTORE PUSH1 0x4 ADD PUSH2 0x12F2 SWAP1 PUSH2 0x22BD JUMP JUMPDEST PUSH1 0x40 MLOAD DUP1 SWAP2 SUB SWAP1 REVERT JUMPDEST PUSH1 0x1 PUSH1 0x3 DUP2 GT ISZERO PUSH2 0x130F JUMPI PUSH2 0x130E PUSH2 0x1607 JUMP JUMPDEST JUMPDEST DUP3 PUSH1 0x8 ADD PUSH0 SWAP1 SLOAD SWAP1 PUSH2 0x100 EXP SWAP1 DIV PUSH1 0xFF AND PUSH1 0x3 DUP2 GT ISZERO PUSH2 0x1332 JUMPI PUSH2 0x1331 PUSH2 0x1607 JUMP JUMPDEST JUMPDEST EQ PUSH2 0x1372 JUMPI PUSH1 0x40 MLOAD PUSH32 0x8C379A000000000000000000000000000000000000000000000000000000000 DUP2 MSTORE PUSH1 0x4 ADD PUSH2 0x1369 SWAP1 PUSH2 0x2325 JUMP JUMPDEST PUSH1 0x40 MLOAD DUP1 SWAP2 SUB SWAP1 REVERT JUMPDEST DUP1 PUSH1 0x4 ADD SLOAD DUP3 PUSH1 0x4 ADD SLOAD GT ISZERO PUSH2 0x13BD JUMPI PUSH1 0x40 MLOAD PUSH32 0x8C379A000000000000000000000000000000000000000000000000000000000 DUP2 MSTORE PUSH1 0x4 ADD PUSH2 0x13B4 SWAP1 PUSH2 0x20F5 JUMP JUMPDEST PUSH1 0x40 MLOAD DUP1 SWAP2 SUB SWAP1 REVERT JUMPDEST PUSH0 DUP3 PUSH1 0x4 ADD SLOAD SWAP1 POP PUSH0 DUP4 PUSH1 0x4 ADD DUP2 SWAP1 SSTORE POP DUP1 DUP3 PUSH1 0x4 ADD PUSH0 DUP3 DUP3 SLOAD PUSH2 0x13E1 SWAP2 SWAP1 PUSH2 0x2343 JUMP JUMPDEST SWAP3 POP POP DUP2 SWAP1 SSTORE POP CALLER PUSH20 0xFFFFFFFFFFFFFFFFFFFFFFFFFFFFFFFFFFFFFFFF AND PUSH2 0x8FC DUP3 SWAP1 DUP2 ISZERO MUL SWAP1 PUSH1 0x40 MLOAD PUSH0 PUSH1 0x40 MLOAD DUP1 DUP4 SUB DUP2 DUP6 DUP9 DUP9 CALL SWAP4 POP POP POP POP ISZERO DUP1 ISZERO PUSH2 0x142B JUMPI RETURNDATASIZE PUSH0 DUP1 RETURNDATACOPY RETURNDATASIZE PUSH0 REVERT JUMPDEST POP CALLER PUSH20 0xFFFFFFFFFFFFFFFFFFFFFFFFFFFFFFFFFFFFFFFF AND DUP5 DUP7 PUSH32 0x3F53F5F381EE0B1FBF730FA56EFB0A2AEC8A882B2847A1EC0279982D8846E4F2 DUP5 PUSH1 0x40 MLOAD PUSH2 0x1474 SWAP2 SWAP1 PUSH2 0x18C7 JUMP JUMPDEST PUSH1 0x40 MLOAD DUP1 SWAP2 SUB SWAP1 LOG4 POP POP POP POP POP JUMP JUMPDEST PUSH0 PUSH1 0x40 MLOAD SWAP1 POP SWAP1 JUMP JUMPDEST PUSH0 DUP1 REVERT JUMPDEST PUSH0 DUP1 REVERT JUMPDEST PUSH0 DUP2 SWAP1 POP SWAP2 SWAP1 POP JUMP JUMPDEST PUSH2 0x14A6 DUP2 PUSH2 0x1494 JUMP JUMPDEST DUP2 EQ PUSH2 0x14B0 JUMPI PUSH0 DUP1 REVERT JUMPDEST POP JUMP JUMPDEST PUSH0 DUP2 CALLDATALOAD SWAP1 POP PUSH2 0x14C1 DUP2 PUSH2 0x149D JUMP JUMPDEST SWAP3 SWAP2 POP POP JUMP JUMPDEST PUSH0 DUP1 PUSH1 0x40 DUP4 DUP6 SUB SLT ISZERO PUSH2 0x14DD JUMPI PUSH2 0x14DC PUSH2 0x148C JUMP JUMPDEST JUMPDEST PUSH0 PUSH2 0x14EA DUP6 DUP3 DUP7 ADD PUSH2 0x14B3 JUMP JUMPDEST SWAP3 POP POP PUSH1 0x20 PUSH2 0x14FB DUP6 DUP3 DUP7 ADD PUSH2 0x14B3 JUMP JUMPDEST SWAP2 POP POP SWAP3 POP SWAP3 SWAP1 POP JUMP JUMPDEST PUSH0 PUSH20 0xFFFFFFFFFFFFFFFFFFFFFFFFFFFFFFFFFFFFFFFF DUP3 AND SWAP1 POP SWAP2 SWAP1 POP JUMP JUMPDEST PUSH0 PUSH2 0x152E DUP3 PUSH2 0x1505 JUMP JUMPDEST SWAP1 POP SWAP2 SWAP1 POP JUMP JUMPDEST PUSH2 0x153E DUP2 PUSH2 0x1524 JUMP JUMPDEST DUP3 MSTORE POP POP JUMP JUMPDEST PUSH0 PUSH1 0x20 DUP3 ADD SWAP1 POP PUSH2 0x1557 PUSH0 DUP4 ADD DUP5 PUSH2 0x1535 JUMP JUMPDEST SWAP3 SWAP2 POP POP JUMP JUMPDEST PUSH0 PUSH1 0x20 DUP3 DUP5 SUB SLT ISZERO PUSH2 0x1572 JUMPI PUSH2 0x1571 PUSH2 0x148C JUMP JUMPDEST JUMPDEST PUSH0 PUSH2 0x157F DUP5 DUP3 DUP6 ADD PUSH2 0x14B3 JUMP JUMPDEST SWAP2 POP POP SWAP3 SWAP2 POP POP JUMP JUMPDEST PUSH2 0x1591 DUP2 PUSH2 0x1494 JUMP JUMPDEST DUP3 MSTORE POP POP JUMP JUMPDEST PUSH0 DUP2 MLOAD SWAP1 POP SWAP2 SWAP1 POP JUMP JUMPDEST PUSH0 DUP3 DUP3 MSTORE PUSH1 0x20 DUP3 ADD SWAP1 POP SWAP3 SWAP2 POP POP JUMP JUMPDEST DUP3 DUP2 DUP4 MCOPY PUSH0 DUP4 DUP4 ADD MSTORE POP POP POP JUMP JUMPDEST PUSH0 PUSH1 0x1F NOT PUSH1 0x1F DUP4 ADD AND SWAP1 POP SWAP2 SWAP1 POP JUMP JUMPDEST PUSH0 PUSH2 0x15D9 DUP3 PUSH2 0x1597 JUMP JUMPDEST PUSH2 0x15E3 DUP2 DUP6 PUSH2 0x15A1 JUMP JUMPDEST SWAP4 POP PUSH2 0x15F3 DUP2 DUP6 PUSH1 0x20 DUP7 ADD PUSH2 0x15B1 JUMP JUMPDEST PUSH2 0x15FC DUP2 PUSH2 0x15BF JUMP JUMPDEST DUP5 ADD SWAP2 POP POP SWAP3 SWAP2 POP POP JUMP JUMPDEST PUSH32 0x4E487B7100000000000000000000000000000000000000000000000000000000 PUSH0 MSTORE PUSH1 0x21 PUSH1 0x4 MSTORE PUSH1 0x24 PUSH0 REVERT JUMPDEST PUSH1 0x4 DUP2 LT PUSH2 0x1645 JUMPI PUSH2 0x1644 PUSH2 0x1607 JUMP JUMPDEST JUMPDEST POP JUMP JUMPDEST PUSH0 DUP2 SWAP1 POP PUSH2 0x1655 DUP3 PUSH2 0x1634 JUMP JUMPDEST SWAP2 SWAP1 POP JUMP JUMPDEST PUSH0 PUSH2 0x1664 DUP3 PUSH2 0x1648 JUMP JUMPDEST SWAP1 POP SWAP2 SWAP1 POP JUMP JUMPDEST PUSH2 0x1674 DUP2 PUSH2 0x165A JUMP JUMPDEST DUP3 MSTORE POP POP JUMP JUMPDEST PUSH0 PUSH2 0x120 DUP3 ADD SWAP1 POP PUSH2 0x168E PUSH0 DUP4 ADD DUP13 PUSH2 0x1588 JUMP JUMPDEST PUSH2 0x169B PUSH1 0x20 DUP4 ADD DUP12 PUSH2 0x1535 JUMP JUMPDEST DUP2 DUP2 SUB PUSH1 0x40 DUP4 ADD MSTORE PUSH2 0x16AD DUP2 DUP11 PUSH2 0x15CF JUMP JUMPDEST SWAP1 POP DUP2 DUP2 SUB PUSH1 0x60 DUP4 ADD MSTORE PUSH2 0x16C1 DUP2 DUP10 PUSH2 0x15CF JUMP JUMPDEST SWAP1 POP PUSH2 0x16D0 PUSH1 0x80 DUP4 ADD DUP9 PUSH2 0x1588 JUMP JUMPDEST PUSH2 0x16DD PUSH1 0xA0 DUP4 ADD DUP8 PUSH2 0x1588 JUMP JUMPDEST PUSH2 0x16EA PUSH1 0xC0 DUP4 ADD DUP7 PUSH2 0x1588 JUMP JUMPDEST PUSH2 0x16F7 PUSH1 0xE0 DUP4 ADD DUP6 PUSH2 0x1588 JUMP JUMPDEST PUSH2 0x1705 PUSH2 0x100 DUP4 ADD DUP5 PUSH2 0x166B JUMP JUMPDEST SWAP11 SWAP10 POP POP POP POP POP POP POP POP POP POP JUMP JUMPDEST PUSH0 DUP1 REVERT JUMPDEST PUSH0 DUP1 REVERT JUMPDEST PUSH32 0x4E487B7100000000000000000000000000000000000000000000000000000000 PUSH0 MSTORE PUSH1 0x41 PUSH1 0x4 MSTORE PUSH1 0x24 PUSH0 REVERT JUMPDEST PUSH2 0x1751 DUP3 PUSH2 0x15BF JUMP JUMPDEST DUP2 ADD DUP2 DUP2 LT PUSH8 0xFFFFFFFFFFFFFFFF DUP3 GT OR ISZERO PUSH2 0x1770 JUMPI PUSH2 0x176F PUSH2 0x171B JUMP JUMPDEST JUMPDEST DUP1 PUSH1 0x40 MSTORE POP POP POP JUMP JUMPDEST PUSH0 PUSH2 0x1782 PUSH2 0x1483 JUMP JUMPDEST SWAP1 POP PUSH2 0x178E DUP3 DUP3 PUSH2 0x1748 JUMP JUMPDEST SWAP2 SWAP1 POP JUMP JUMPDEST PUSH0 PUSH8 0xFFFFFFFFFFFFFFFF DUP3 GT ISZERO PUSH2 0x17AD JUMPI PUSH2 0x17AC PUSH2 0x171B JUMP JUMPDEST JUMPDEST PUSH2 0x17B6 DUP3 PUSH2 0x15BF JUMP JUMPDEST SWAP1 POP PUSH1 0x20 DUP2 ADD SWAP1 POP SWAP2 SWAP1 POP JUMP JUMPDEST DUP3 DUP2 DUP4 CALLDATACOPY PUSH0 DUP4 DUP4 ADD MSTORE POP POP POP JUMP JUMPDEST PUSH0 PUSH2 0x17E3 PUSH2 0x17DE DUP5 PUSH2 0x1793 JUMP JUMPDEST PUSH2 0x1779 JUMP JUMPDEST SWAP1 POP DUP3 DUP2 MSTORE PUSH1 0x20 DUP2 ADD DUP5 DUP5 DUP5 ADD GT ISZERO PUSH2 0x17FF JUMPI PUSH2 0x17FE PUSH2 0x1717 JUMP JUMPDEST JUMPDEST PUSH2 0x180A DUP5 DUP3 DUP6 PUSH2 0x17C3 JUMP JUMPDEST POP SWAP4 SWAP3 POP POP POP JUMP JUMPDEST PUSH0 DUP3 PUSH1 0x1F DUP4 ADD SLT PUSH2 0x1826 JUMPI PUSH2 0x1825 PUSH2 0x1713 JUMP JUMPDEST JUMPDEST DUP2 CALLDATALOAD PUSH2 0x1836 DUP5 DUP3 PUSH1 0x20 DUP7 ADD PUSH2 0x17D1 JUMP JUMPDEST SWAP2 POP POP SWAP3 SWAP2 POP POP JUMP JUMPDEST PUSH0 DUP1 PUSH0 PUSH1 0x60 DUP5 DUP7 SUB SLT ISZERO PUSH2 0x1856 JUMPI PUSH2 0x1855 PUSH2 0x148C JUMP JUMPDEST JUMPDEST PUSH0 DUP5 ADD CALLDATALOAD PUSH8 0xFFFFFFFFFFFFFFFF DUP2 GT ISZERO PUSH2 0x1873 JUMPI PUSH2 0x1872 PUSH2 0x1490 JUMP JUMPDEST JUMPDEST PUSH2 0x187F DUP7 DUP3 DUP8 ADD PUSH2 0x1812 JUMP JUMPDEST SWAP4 POP POP PUSH1 0x20 DUP5 ADD CALLDATALOAD PUSH8 0xFFFFFFFFFFFFFFFF DUP2 GT ISZERO PUSH2 0x18A0 JUMPI PUSH2 0x189F PUSH2 0x1490 JUMP JUMPDEST JUMPDEST PUSH2 0x18AC DUP7 DUP3 DUP8 ADD PUSH2 0x1812 JUMP JUMPDEST SWAP3 POP POP PUSH1 0x40 PUSH2 0x18BD DUP7 DUP3 DUP8 ADD PUSH2 0x14B3 JUMP JUMPDEST SWAP2 POP POP SWAP3 POP SWAP3 POP SWAP3 JUMP JUMPDEST PUSH0 PUSH1 0x20 DUP3 ADD SWAP1 POP PUSH2 0x18DA PUSH0 DUP4 ADD DUP5 PUSH2 0x1588 JUMP JUMPDEST SWAP3 SWAP2 POP POP JUMP JUMPDEST PUSH0 DUP1 PUSH0 DUP1 PUSH1 0x80 DUP6 DUP8 SUB SLT ISZERO PUSH2 0x18F8 JUMPI PUSH2 0x18F7 PUSH2 0x148C JUMP JUMPDEST JUMPDEST PUSH0 PUSH2 0x1905 DUP8 DUP3 DUP9 ADD PUSH2 0x14B3 JUMP JUMPDEST SWAP5 POP POP PUSH1 0x20 DUP6 ADD CALLDATALOAD PUSH8 0xFFFFFFFFFFFFFFFF DUP2 GT ISZERO PUSH2 0x1926 JUMPI PUSH2 0x1925 PUSH2 0x1490 JUMP JUMPDEST JUMPDEST PUSH2 0x1932 DUP8 DUP3 DUP9 ADD PUSH2 0x1812 JUMP JUMPDEST SWAP4 POP POP PUSH1 0x40 DUP6 ADD CALLDATALOAD PUSH8 0xFFFFFFFFFFFFFFFF DUP2 GT ISZERO PUSH2 0x1953 JUMPI PUSH2 0x1952 PUSH2 0x1490 JUMP JUMPDEST JUMPDEST PUSH2 0x195F DUP8 DUP3 DUP9 ADD PUSH2 0x1812 JUMP JUMPDEST SWAP3 POP POP PUSH1 0x60 PUSH2 0x1970 DUP8 DUP3 DUP9 ADD PUSH2 0x14B3 JUMP JUMPDEST SWAP2 POP POP SWAP3 SWAP6 SWAP2 SWAP5 POP SWAP3 POP JUMP JUMPDEST PUSH0 PUSH1 0xC0 DUP3 ADD SWAP1 POP PUSH2 0x198F PUSH0 DUP4 ADD DUP10 PUSH2 0x1535 JUMP JUMPDEST DUP2 DUP2 SUB PUSH1 0x20 DUP4 ADD MSTORE PUSH2 0x19A1 DUP2 DUP9 PUSH2 0x15CF JUMP JUMPDEST SWAP1 POP DUP2 DUP2 SUB PUSH1 0x40 DUP4 ADD MSTORE PUSH2 0x19B5 DUP2 DUP8 PUSH2 0x15CF JUMP JUMPDEST SWAP1 POP PUSH2 0x19C4 PUSH1 0x60 DUP4 ADD DUP7 PUSH2 0x1588 JUMP JUMPDEST PUSH2 0x19D1 PUSH1 0x80 DUP4 ADD DUP6 PUSH2 0x1588 JUMP JUMPDEST PUSH2 0x19DE PUSH1 0xA0 DUP4 ADD DUP5 PUSH2 0x1588 JUMP JUMPDEST SWAP8 SWAP7 POP POP POP POP POP POP POP JUMP JUMPDEST PUSH2 0x19F2 DUP2 PUSH2 0x1524 JUMP JUMPDEST DUP2 EQ PUSH2 0x19FC JUMPI PUSH0 DUP1 REVERT JUMPDEST POP JUMP JUMPDEST PUSH0 DUP2 CALLDATALOAD SWAP1 POP PUSH2 0x1A0D DUP2 PUSH2 0x19E9 JUMP JUMPDEST SWAP3 SWAP2 POP POP JUMP JUMPDEST PUSH0 DUP1 PUSH1 0x40 DUP4 DUP6 SUB SLT ISZERO PUSH2 0x1A29 JUMPI PUSH2 0x1A28 PUSH2 0x148C JUMP JUMPDEST JUMPDEST PUSH0 PUSH2 0x1A36 DUP6 DUP3 DUP7 ADD PUSH2 0x19FF JUMP JUMPDEST SWAP3 POP POP PUSH1 0x20 PUSH2 0x1A47 DUP6 DUP3 DUP7 ADD PUSH2 0x14B3 JUMP JUMPDEST SWAP2 POP POP SWAP3 POP SWAP3 SWAP1 POP JUMP JUMPDEST PUSH0 DUP2 ISZERO ISZERO SWAP1 POP SWAP2 SWAP1 POP JUMP JUMPDEST PUSH2 0x1A65 DUP2 PUSH2 0x1A51 JUMP JUMPDEST DUP2 EQ PUSH2 0x1A6F JUMPI PUSH0 DUP1 REVERT JUMPDEST POP JUMP JUMPDEST PUSH0 DUP2 CALLDATALOAD SWAP1 POP PUSH2 0x1A80 DUP2 PUSH2 0x1A5C JUMP JUMPDEST SWAP3 SWAP2 POP POP JUMP JUMPDEST PUSH0 DUP1 PUSH1 0x40 DUP4 DUP6 SUB SLT ISZERO PUSH2 0x1A9C JUMPI PUSH2 0x1A9B PUSH2 0x148C JUMP JUMPDEST JUMPDEST PUSH0 PUSH2 0x1AA9 DUP6 DUP3 DUP7 ADD PUSH2 0x14B3 JUMP JUMPDEST SWAP3 POP POP PUSH1 0x20 PUSH2 0x1ABA DUP6 DUP3 DUP7 ADD PUSH2 0x1A72 JUMP JUMPDEST SWAP2 POP POP SWAP3 POP SWAP3 SWAP1 POP JUMP JUMPDEST PUSH32 0x4E487B7100000000000000000000000000000000000000000000000000000000 PUSH0 MSTORE PUSH1 0x22 PUSH1 0x4 MSTORE PUSH1 0x24 PUSH0 REVERT JUMPDEST PUSH0 PUSH1 0x2 DUP3 DIV SWAP1 POP PUSH1 0x1 DUP3 AND DUP1 PUSH2 0x1B08 JUMPI PUSH1 0x7F DUP3 AND SWAP2 POP JUMPDEST PUSH1 0x20 DUP3 LT DUP2 SUB PUSH2 0x1B1B JUMPI PUSH2 0x1B1A PUSH2 0x1AC4 JUMP JUMPDEST JUMPDEST POP SWAP2 SWAP1 POP JUMP JUMPDEST PUSH32 0x4E487B7100000000000000000000000000000000000000000000000000000000 PUSH0 MSTORE PUSH1 0x11 PUSH1 0x4 MSTORE PUSH1 0x24 PUSH0 REVERT JUMPDEST PUSH0 PUSH2 0x1B58 DUP3 PUSH2 0x1494 JUMP JUMPDEST SWAP2 POP PUSH32 0xFFFFFFFFFFFFFFFFFFFFFFFFFFFFFFFFFFFFFFFFFFFFFFFFFFFFFFFFFFFFFFFF DUP3 SUB PUSH2 0x1B8A JUMPI PUSH2 0x1B89 PUSH2 0x1B21 JUMP JUMPDEST JUMPDEST PUSH1 0x1 DUP3 ADD SWAP1 POP SWAP2 SWAP1 POP JUMP JUMPDEST PUSH32 0x596F752063616E206F6E6C7920637265617465206F6E65205348470000000000 PUSH0 DUP3 ADD MSTORE POP JUMP JUMPDEST PUSH0 PUSH2 0x1BC9 PUSH1 0x1B DUP4 PUSH2 0x15A1 JUMP JUMPDEST SWAP2 POP PUSH2 0x1BD4 DUP3 PUSH2 0x1B95 JUMP JUMPDEST PUSH1 0x20 DUP3 ADD SWAP1 POP SWAP2 SWAP1 POP JUMP JUMPDEST PUSH0 PUSH1 0x20 DUP3 ADD SWAP1 POP DUP2 DUP2 SUB PUSH0 DUP4 ADD MSTORE PUSH2 0x1BF6 DUP2 PUSH2 0x1BBD JUMP JUMPDEST SWAP1 POP SWAP2 SWAP1 POP JUMP JUMPDEST PUSH0 DUP2 SWAP1 POP DUP2 PUSH0 MSTORE PUSH1 0x20 PUSH0 KECCAK256 SWAP1 POP SWAP2 SWAP1 POP JUMP JUMPDEST PUSH0 PUSH1 0x20 PUSH1 0x1F DUP4 ADD DIV SWAP1 POP SWAP2 SWAP1 POP JUMP JUMPDEST PUSH0 DUP3 DUP3 SHL SWAP1 POP SWAP3 SWAP2 POP POP JUMP JUMPDEST PUSH0 PUSH1 0x8 DUP4 MUL PUSH2 0x1C59 PUSH32 0xFFFFFFFFFFFFFFFFFFFFFFFFFFFFFFFFFFFFFFFFFFFFFFFFFFFFFFFFFFFFFFFF DUP3 PUSH2 0x1C1E JUMP JUMPDEST PUSH2 0x1C63 DUP7 DUP4 PUSH2 0x1C1E JUMP JUMPDEST SWAP6 POP DUP1 NOT DUP5 AND SWAP4 POP DUP1 DUP7 AND DUP5 OR SWAP3 POP POP POP SWAP4 SWAP3 POP POP POP JUMP JUMPDEST PUSH0 DUP2 SWAP1 POP SWAP2 SWAP1 POP JUMP JUMPDEST PUSH0 PUSH2 0x1C9E PUSH2 0x1C99 PUSH2 0x1C94 DUP5 PUSH2 0x1494 JUMP JUMPDEST PUSH2 0x1C7B JUMP JUMPDEST PUSH2 0x1494 JUMP JUMPDEST SWAP1 POP SWAP2 SWAP1 POP JUMP JUMPDEST PUSH0 DUP2 SWAP1 POP SWAP2 SWAP1 POP JUMP JUMPDEST PUSH2 0x1CB7 DUP4 PUSH2 0x1C84 JUMP JUMPDEST PUSH2 0x1CCB PUSH2 0x1CC3 DUP3 PUSH2 0x1CA5 JUMP JUMPDEST DUP5 DUP5 SLOAD PUSH2 0x1C2A JUMP JUMPDEST DUP3 SSTORE POP POP POP POP JUMP JUMPDEST PUSH0 SWAP1 JUMP JUMPDEST PUSH2 0x1CDF PUSH2 0x1CD3 JUMP JUMPDEST PUSH2 0x1CEA DUP2 DUP5 DUP5 PUSH2 0x1CAE JUMP JUMPDEST POP POP POP JUMP JUMPDEST JUMPDEST DUP2 DUP2 LT ISZERO PUSH2 0x1D0D JUMPI PUSH2 0x1D02 PUSH0 DUP3 PUSH2 0x1CD7 JUMP JUMPDEST PUSH1 0x1 DUP2 ADD SWAP1 POP PUSH2 0x1CF0 JUMP JUMPDEST POP POP JUMP JUMPDEST PUSH1 0x1F DUP3 GT ISZERO PUSH2 0x1D52 JUMPI PUSH2 0x1D23 DUP2 PUSH2 0x1BFD JUMP JUMPDEST PUSH2 0x1D2C DUP5 PUSH2 0x1C0F JUMP JUMPDEST DUP2 ADD PUSH1 0x20 DUP6 LT ISZERO PUSH2 0x1D3B JUMPI DUP2 SWAP1 POP JUMPDEST PUSH2 0x1D4F PUSH2 0x1D47 DUP6 PUSH2 0x1C0F JUMP JUMPDEST DUP4 ADD DUP3 PUSH2 0x1CEF JUMP JUMPDEST POP POP JUMPDEST POP POP POP JUMP JUMPDEST PUSH0 DUP3 DUP3 SHR SWAP1 POP SWAP3 SWAP2 POP POP JUMP JUMPDEST PUSH0 PUSH2 0x1D72 PUSH0 NOT DUP5 PUSH1 0x8 MUL PUSH2 0x1D57 JUMP JUMPDEST NOT DUP1 DUP4 AND SWAP2 POP POP SWAP3 SWAP2 POP POP JUMP JUMPDEST PUSH0 PUSH2 0x1D8A DUP4 DUP4 PUSH2 0x1D63 JUMP JUMPDEST SWAP2 POP DUP3 PUSH1 0x2 MUL DUP3 OR SWAP1 POP SWAP3 SWAP2 POP POP JUMP JUMPDEST PUSH2 0x1DA3 DUP3 PUSH2 0x1597 JUMP JUMPDEST PUSH8 0xFFFFFFFFFFFFFFFF DUP2 GT ISZERO PUSH2 0x1DBC JUMPI PUSH2 0x1DBB PUSH2 0x171B JUMP JUMPDEST JUMPDEST PUSH2 0x1DC6 DUP3 SLOAD PUSH2 0x1AF1 JUMP JUMPDEST PUSH2 0x1DD1 DUP3 DUP3 DUP6 PUSH2 0x1D11 JUMP JUMPDEST PUSH0 PUSH1 0x20 SWAP1 POP PUSH1 0x1F DUP4 GT PUSH1 0x1 DUP2 EQ PUSH2 0x1E02 JUMPI PUSH0 DUP5 ISZERO PUSH2 0x1DF0 JUMPI DUP3 DUP8 ADD MLOAD SWAP1 POP JUMPDEST PUSH2 0x1DFA DUP6 DUP3 PUSH2 0x1D7F JUMP JUMPDEST DUP7 SSTORE POP PUSH2 0x1E61 JUMP JUMPDEST PUSH1 0x1F NOT DUP5 AND PUSH2 0x1E10 DUP7 PUSH2 0x1BFD JUMP JUMPDEST PUSH0 JUMPDEST DUP3 DUP2 LT ISZERO PUSH2 0x1E37 JUMPI DUP5 DUP10 ADD MLOAD DUP3 SSTORE PUSH1 0x1 DUP3 ADD SWAP2 POP PUSH1 0x20 DUP6 ADD SWAP5 POP PUSH1 0x20 DUP2 ADD SWAP1 POP PUSH2 0x1E12 JUMP JUMPDEST DUP7 DUP4 LT ISZERO PUSH2 0x1E54 JUMPI DUP5 DUP10 ADD MLOAD PUSH2 0x1E50 PUSH1 0x1F DUP10 AND DUP3 PUSH2 0x1D63 JUMP JUMPDEST DUP4 SSTORE POP JUMPDEST PUSH1 0x1 PUSH1 0x2 DUP9 MUL ADD DUP9 SSTORE POP POP POP JUMPDEST POP POP POP POP POP POP JUMP JUMPDEST PUSH0 PUSH2 0x1E73 DUP3 PUSH2 0x1494 JUMP JUMPDEST SWAP2 POP PUSH2 0x1E7E DUP4 PUSH2 0x1494 JUMP JUMPDEST SWAP3 POP DUP3 DUP3 MUL PUSH2 0x1E8C DUP2 PUSH2 0x1494 JUMP JUMPDEST SWAP2 POP DUP3 DUP3 DIV DUP5 EQ DUP4 ISZERO OR PUSH2 0x1EA3 JUMPI PUSH2 0x1EA2 PUSH2 0x1B21 JUMP JUMPDEST JUMPDEST POP SWAP3 SWAP2 POP POP JUMP JUMPDEST PUSH0 PUSH1 0x20 DUP3 ADD SWAP1 POP DUP2 DUP2 SUB PUSH0 DUP4 ADD MSTORE PUSH2 0x1EC2 DUP2 DUP5 PUSH2 0x15CF JUMP JUMPDEST SWAP1 POP SWAP3 SWAP2 POP POP JUMP JUMPDEST PUSH0 PUSH2 0x1ED4 DUP3 PUSH2 0x1494 JUMP JUMPDEST SWAP2 POP PUSH2 0x1EDF DUP4 PUSH2 0x1494 JUMP JUMPDEST SWAP3 POP DUP3 DUP3 ADD SWAP1 POP DUP1 DUP3 GT ISZERO PUSH2 0x1EF7 JUMPI PUSH2 0x1EF6 PUSH2 0x1B21 JUMP JUMPDEST JUMPDEST SWAP3 SWAP2 POP POP JUMP JUMPDEST PUSH32 0x566F74696E67207374696C6C20696E2070726F67726573730000000000000000 PUSH0 DUP3 ADD MSTORE POP JUMP JUMPDEST PUSH0 PUSH2 0x1F31 PUSH1 0x18 DUP4 PUSH2 0x15A1 JUMP JUMPDEST SWAP2 POP PUSH2 0x1F3C DUP3 PUSH2 0x1EFD JUMP JUMPDEST PUSH1 0x20 DUP3 ADD SWAP1 POP SWAP2 SWAP1 POP JUMP JUMPDEST PUSH0 PUSH1 0x20 DUP3 ADD SWAP1 POP DUP2 DUP2 SUB PUSH0 DUP4 ADD MSTORE PUSH2 0x1F5E DUP2 PUSH2 0x1F25 JUMP JUMPDEST SWAP1 POP SWAP2 SWAP1 POP JUMP JUMPDEST PUSH32 0x50726F706F73616C20616C72656164792066696E616C697A6564000000000000 PUSH0 DUP3 ADD MSTORE POP JUMP JUMPDEST PUSH0 PUSH2 0x1F99 PUSH1 0x1A DUP4 PUSH2 0x15A1 JUMP JUMPDEST SWAP2 POP PUSH2 0x1FA4 DUP3 PUSH2 0x1F65 JUMP JUMPDEST PUSH1 0x20 DUP3 ADD SWAP1 POP SWAP2 SWAP1 POP JUMP JUMPDEST PUSH0 PUSH1 0x20 DUP3 ADD SWAP1 POP DUP2 DUP2 SUB PUSH0 DUP4 ADD MSTORE PUSH2 0x1FC6 DUP2 PUSH2 0x1F8D JUMP JUMPDEST SWAP1 POP SWAP2 SWAP1 POP JUMP JUMPDEST PUSH32 0x4E487B7100000000000000000000000000000000000000000000000000000000 PUSH0 MSTORE PUSH1 0x12 PUSH1 0x4 MSTORE PUSH1 0x24 PUSH0 REVERT JUMPDEST PUSH0 PUSH2 0x2004 DUP3 PUSH2 0x1494 JUMP JUMPDEST SWAP2 POP PUSH2 0x200F DUP4 PUSH2 0x1494 JUMP JUMPDEST SWAP3 POP DUP3 PUSH2 0x201F JUMPI PUSH2 0x201E PUSH2 0x1FCD JUMP JUMPDEST JUMPDEST DUP3 DUP3 DIV SWAP1 POP SWAP3 SWAP2 POP POP JUMP JUMPDEST PUSH0 PUSH1 0x20 DUP3 ADD SWAP1 POP PUSH2 0x203D PUSH0 DUP4 ADD DUP5 PUSH2 0x166B JUMP JUMPDEST SWAP3 SWAP2 POP POP JUMP JUMPDEST PUSH32 0x4E6F742061206D656D626572206F662074686973205348470000000000000000 PUSH0 DUP3 ADD MSTORE POP JUMP JUMPDEST PUSH0 PUSH2 0x2077 PUSH1 0x18 DUP4 PUSH2 0x15A1 JUMP JUMPDEST SWAP2 POP PUSH2 0x2082 DUP3 PUSH2 0x2043 JUMP JUMPDEST PUSH1 0x20 DUP3 ADD SWAP1 POP SWAP2 SWAP1 POP JUMP JUMPDEST PUSH0 PUSH1 0x20 DUP3 ADD SWAP1 POP DUP2 DUP2 SUB PUSH0 DUP4 ADD MSTORE PUSH2 0x20A4 DUP2 PUSH2 0x206B JUMP JUMPDEST SWAP1 POP SWAP2 SWAP1 POP JUMP JUMPDEST PUSH32 0x496E73756666696369656E74205348472062616C616E63650000000000000000 PUSH0 DUP3 ADD MSTORE POP JUMP JUMPDEST PUSH0 PUSH2 0x20DF PUSH1 0x18 DUP4 PUSH2 0x15A1 JUMP JUMPDEST SWAP2 POP PUSH2 0x20EA DUP3 PUSH2 0x20AB JUMP JUMPDEST PUSH1 0x20 DUP3 ADD SWAP1 POP SWAP2 SWAP1 POP JUMP JUMPDEST PUSH0 PUSH1 0x20 DUP3 ADD SWAP1 POP DUP2 DUP2 SUB PUSH0 DUP4 ADD MSTORE PUSH2 0x210C DUP2 PUSH2 0x20D3 JUMP JUMPDEST SWAP1 POP SWAP2 SWAP1 POP JUMP JUMPDEST PUSH32 0x4D7573742073656E642066756E64730000000000000000000000000000000000 PUSH0 DUP3 ADD MSTORE POP JUMP JUMPDEST PUSH0 PUSH2 0x2147 PUSH1 0xF DUP4 PUSH2 0x15A1 JUMP JUMPDEST SWAP2 POP PUSH2 0x2152 DUP3 PUSH2 0x2113 JUMP JUMPDEST PUSH1 0x20 DUP3 ADD SWAP1 POP SWAP2 SWAP1 POP JUMP JUMPDEST PUSH0 PUSH1 0x20 DUP3 ADD SWAP1 POP DUP2 DUP2 SUB PUSH0 DUP4 ADD MSTORE PUSH2 0x2174 DUP2 PUSH2 0x213B JUMP JUMPDEST SWAP1 POP SWAP2 SWAP1 POP JUMP JUMPDEST PUSH32 0x566F74696E6720706572696F642068617320656E646564000000000000000000 PUSH0 DUP3 ADD MSTORE POP JUMP JUMPDEST PUSH0 PUSH2 0x21AF PUSH1 0x17 DUP4 PUSH2 0x15A1 JUMP JUMPDEST SWAP2 POP PUSH2 0x21BA DUP3 PUSH2 0x217B JUMP JUMPDEST PUSH1 0x20 DUP3 ADD SWAP1 POP SWAP2 SWAP1 POP JUMP JUMPDEST PUSH0 PUSH1 0x20 DUP3 ADD SWAP1 POP DUP2 DUP2 SUB PUSH0 DUP4 ADD MSTORE PUSH2 0x21DC DUP2 PUSH2 0x21A3 JUMP JUMPDEST SWAP1 POP SWAP2 SWAP1 POP JUMP JUMPDEST PUSH32 0x50726F706F7365722063616E6E6F7420766F7465000000000000000000000000 PUSH0 DUP3 ADD MSTORE POP JUMP JUMPDEST PUSH0 PUSH2 0x2217 PUSH1 0x14 DUP4 PUSH2 0x15A1 JUMP JUMPDEST SWAP2 POP PUSH2 0x2222 DUP3 PUSH2 0x21E3 JUMP JUMPDEST PUSH1 0x20 DUP3 ADD SWAP1 POP SWAP2 SWAP1 POP JUMP JUMPDEST PUSH0 PUSH1 0x20 DUP3 ADD SWAP1 POP DUP2 DUP2 SUB PUSH0 DUP4 ADD MSTORE PUSH2 0x2244 DUP2 PUSH2 0x220B JUMP JUMPDEST SWAP1 POP SWAP2 SWAP1 POP JUMP JUMPDEST PUSH2 0x2254 DUP2 PUSH2 0x1A51 JUMP JUMPDEST DUP3 MSTORE POP POP JUMP JUMPDEST PUSH0 PUSH1 0x20 DUP3 ADD SWAP1 POP PUSH2 0x226D PUSH0 DUP4 ADD DUP5 PUSH2 0x224B JUMP JUMPDEST SWAP3 SWAP2 POP POP JUMP JUMPDEST PUSH32 0x4F6E6C792070726F706F7365722063616E20636C61696D2066756E6473000000 PUSH0 DUP3 ADD MSTORE POP JUMP JUMPDEST PUSH0 PUSH2 0x22A7 PUSH1 0x1D DUP4 PUSH2 0x15A1 JUMP JUMPDEST SWAP2 POP PUSH2 0x22B2 DUP3 PUSH2 0x2273 JUMP JUMPDEST PUSH1 0x20 DUP3 ADD SWAP1 POP SWAP2 SWAP1 POP JUMP JUMPDEST PUSH0 PUSH1 0x20 DUP3 ADD SWAP1 POP DUP2 DUP2 SUB PUSH0 DUP4 ADD MSTORE PUSH2 0x22D4 DUP2 PUSH2 0x229B JUMP JUMPDEST SWAP1 POP SWAP2 SWAP1 POP JUMP JUMPDEST PUSH32 0x50726F706F73616C206E6F7420617070726F7665640000000000000000000000 PUSH0 DUP3 ADD MSTORE POP JUMP JUMPDEST PUSH0 PUSH2 0x230F PUSH1 0x15 DUP4 PUSH2 0x15A1 JUMP JUMPDEST SWAP2 POP PUSH2 0x231A DUP3 PUSH2 0x22DB JUMP JUMPDEST PUSH1 0x20 DUP3 ADD SWAP1 POP SWAP2 SWAP1 POP JUMP JUMPDEST PUSH0 PUSH1 0x20 DUP3 ADD SWAP1 POP DUP2 DUP2 SUB PUSH0 DUP4 ADD MSTORE PUSH2 0x233C DUP2 PUSH2 0x2303 JUMP JUMPDEST SWAP1 POP SWAP2 SWAP1 POP JUMP JUMPDEST PUSH0 PUSH2 0x234D DUP3 PUSH2 0x1494 JUMP JUMPDEST SWAP2 POP PUSH2 0x2358 DUP4 PUSH2 0x1494 JUMP JUMPDEST SWAP3 POP DUP3 DUP3 SUB SWAP1 POP DUP2 DUP2 GT ISZERO PUSH2 0x2370 JUMPI PUSH2 0x236F PUSH2 0x1B21 JUMP JUMPDEST JUMPDEST SWAP3 SWAP2 POP POP JUMP INVALID LOG2 PUSH5 0x6970667358 0x22 SLT KECCAK256 PUSH17 0x2CC3188D93F0B093387DDA8C2678D5F5E6 PUSH13 0xA3678D5A6C7268C2AAA337E2FC PUSH5 0x736F6C6343 STOP ADDMOD BYTE STOP CALLER "
				},
				"gasEstimates": {
					"creation": {
						"codeDepositCost": "1826400",
						"executionCost": "11934",
						"totalCost": "1838334"
					},
					"external": {
						"addFunds(uint256)": "infinite",
						"addSHG(string,string,uint256)": "infinite",
						"claimFund(uint256,uint256)": "infinite",
						"createProposal(uint256,string,string,uint256)": "infinite",
						"finalizeProposal(uint256)": "infinite",
						"memberOfShg(address,uint256)": "infinite",
						"members(uint256,uint256)": "infinite",
						"proposalDetails(uint256)": "infinite",
						"proposalId()": "2492",
						"proposalIdInShg(uint256,uint256)": "infinite",
						"shgDetails(uint256)": "infinite",
						"shgId()": "2491",
						"vote(uint256,bool)": "infinite"
					}
				},
				"methodIdentifiers": {
					"addFunds(uint256)": "be999705",
					"addSHG(string,string,uint256)": "1cc75df4",
					"claimFund(uint256,uint256)": "f5fffc0f",
					"createProposal(uint256,string,string,uint256)": "5ada0a41",
					"finalizeProposal(uint256)": "5652077c",
					"memberOfShg(address,uint256)": "bc35baa3",
					"members(uint256,uint256)": "01fc20e2",
					"proposalDetails(uint256)": "16e9eaec",
					"proposalId()": "2dfca445",
					"proposalIdInShg(uint256,uint256)": "7641f2b8",
					"shgDetails(uint256)": "976eb774",
					"shgId()": "b979ce06",
					"vote(uint256,bool)": "c9d27afe"
				}
			},
			"storageLayout": {
				"storage": [
					{
						"astId": 46,
						"contract": "contract.sol:SelfHelp",
						"label": "shgId",
						"offset": 0,
						"slot": "0",
						"type": "t_uint256"
					},
					{
						"astId": 49,
						"contract": "contract.sol:SelfHelp",
						"label": "proposalId",
						"offset": 0,
						"slot": "1",
						"type": "t_uint256"
					},
					{
						"astId": 54,
						"contract": "contract.sol:SelfHelp",
						"label": "shgDetails",
						"offset": 0,
						"slot": "2",
						"type": "t_mapping(t_uint256,t_struct(SHG)18_storage)"
					},
					{
						"astId": 59,
						"contract": "contract.sol:SelfHelp",
						"label": "proposalDetails",
						"offset": 0,
						"slot": "3",
						"type": "t_mapping(t_uint256,t_struct(Proposal)43_storage)"
					},
					{
						"astId": 64,
						"contract": "contract.sol:SelfHelp",
						"label": "members",
						"offset": 0,
						"slot": "4",
						"type": "t_mapping(t_uint256,t_array(t_address)dyn_storage)"
					},
					{
						"astId": 69,
						"contract": "contract.sol:SelfHelp",
						"label": "memberOfShg",
						"offset": 0,
						"slot": "5",
						"type": "t_mapping(t_address,t_array(t_uint256)dyn_storage)"
					},
					{
						"astId": 74,
						"contract": "contract.sol:SelfHelp",
						"label": "proposalIdInShg",
						"offset": 0,
						"slot": "6",
						"type": "t_mapping(t_uint256,t_array(t_uint256)dyn_storage)"
					}
				],
				"types": {
					"t_address": {
						"encoding": "inplace",
						"label": "address",
						"numberOfBytes": "20"
					},
					"t_array(t_address)dyn_storage": {
						"base": "t_address",
						"encoding": "dynamic_array",
						"label": "address[]",
						"numberOfBytes": "32"
					},
					"t_array(t_uint256)dyn_storage": {
						"base": "t_uint256",
						"encoding": "dynamic_array",
						"label": "uint256[]",
						"numberOfBytes": "32"
					},
					"t_bool": {
						"encoding": "inplace",
						"label": "bool",
						"numberOfBytes": "1"
					},
					"t_enum(ProposalStatus)23": {
						"encoding": "inplace",
						"label": "enum SelfHelp.ProposalStatus",
						"numberOfBytes": "1"
					},
					"t_mapping(t_address,t_array(t_uint256)dyn_storage)": {
						"encoding": "mapping",
						"key": "t_address",
						"label": "mapping(address => uint256[])",
						"numberOfBytes": "32",
						"value": "t_array(t_uint256)dyn_storage"
					},
					"t_mapping(t_address,t_bool)": {
						"encoding": "mapping",
						"key": "t_address",
						"label": "mapping(address => bool)",
						"numberOfBytes": "32",
						"value": "t_bool"
					},
					"t_mapping(t_uint256,t_array(t_address)dyn_storage)": {
						"encoding": "mapping",
						"key": "t_uint256",
						"label": "mapping(uint256 => address[])",
						"numberOfBytes": "32",
						"value": "t_array(t_address)dyn_storage"
					},
					"t_mapping(t_uint256,t_array(t_uint256)dyn_storage)": {
						"encoding": "mapping",
						"key": "t_uint256",
						"label": "mapping(uint256 => uint256[])",
						"numberOfBytes": "32",
						"value": "t_array(t_uint256)dyn_storage"
					},
					"t_mapping(t_uint256,t_struct(Proposal)43_storage)": {
						"encoding": "mapping",
						"key": "t_uint256",
						"label": "mapping(uint256 => struct SelfHelp.Proposal)",
						"numberOfBytes": "32",
						"value": "t_struct(Proposal)43_storage"
					},
					"t_mapping(t_uint256,t_struct(SHG)18_storage)": {
						"encoding": "mapping",
						"key": "t_uint256",
						"label": "mapping(uint256 => struct SelfHelp.SHG)",
						"numberOfBytes": "32",
						"value": "t_struct(SHG)18_storage"
					},
					"t_string_storage": {
						"encoding": "bytes",
						"label": "string",
						"numberOfBytes": "32"
					},
					"t_struct(Proposal)43_storage": {
						"encoding": "inplace",
						"label": "struct SelfHelp.Proposal",
						"members": [
							{
								"astId": 25,
								"contract": "contract.sol:SelfHelp",
								"label": "shgId",
								"offset": 0,
								"slot": "0",
								"type": "t_uint256"
							},
							{
								"astId": 27,
								"contract": "contract.sol:SelfHelp",
								"label": "proposer",
								"offset": 0,
								"slot": "1",
								"type": "t_address"
							},
							{
								"astId": 29,
								"contract": "contract.sol:SelfHelp",
								"label": "proposalName",
								"offset": 0,
								"slot": "2",
								"type": "t_string_storage"
							},
							{
								"astId": 31,
								"contract": "contract.sol:SelfHelp",
								"label": "proposalDescription",
								"offset": 0,
								"slot": "3",
								"type": "t_string_storage"
							},
							{
								"astId": 33,
								"contract": "contract.sol:SelfHelp",
								"label": "amount",
								"offset": 0,
								"slot": "4",
								"type": "t_uint256"
							},
							{
								"astId": 35,
								"contract": "contract.sol:SelfHelp",
								"label": "votesInFavour",
								"offset": 0,
								"slot": "5",
								"type": "t_uint256"
							},
							{
								"astId": 37,
								"contract": "contract.sol:SelfHelp",
								"label": "votesAgainst",
								"offset": 0,
								"slot": "6",
								"type": "t_uint256"
							},
							{
								"astId": 39,
								"contract": "contract.sol:SelfHelp",
								"label": "timeOfProposal",
								"offset": 0,
								"slot": "7",
								"type": "t_uint256"
							},
							{
								"astId": 42,
								"contract": "contract.sol:SelfHelp",
								"label": "status",
								"offset": 0,
								"slot": "8",
								"type": "t_enum(ProposalStatus)23"
							}
						],
						"numberOfBytes": "288"
					},
					"t_struct(SHG)18_storage": {
						"encoding": "inplace",
						"label": "struct SelfHelp.SHG",
						"members": [
							{
								"astId": 3,
								"contract": "contract.sol:SelfHelp",
								"label": "admin",
								"offset": 0,
								"slot": "0",
								"type": "t_address"
							},
							{
								"astId": 5,
								"contract": "contract.sol:SelfHelp",
								"label": "shgName",
								"offset": 0,
								"slot": "1",
								"type": "t_string_storage"
							},
							{
								"astId": 7,
								"contract": "contract.sol:SelfHelp",
								"label": "shgDescription",
								"offset": 0,
								"slot": "2",
								"type": "t_string_storage"
							},
							{
								"astId": 9,
								"contract": "contract.sol:SelfHelp",
								"label": "timeOfCreation",
								"offset": 0,
								"slot": "3",
								"type": "t_uint256"
							},
							{
								"astId": 11,
								"contract": "contract.sol:SelfHelp",
								"label": "balance",
								"offset": 0,
								"slot": "4",
								"type": "t_uint256"
							},
							{
								"astId": 15,
								"contract": "contract.sol:SelfHelp",
								"label": "funders",
								"offset": 0,
								"slot": "5",
								"type": "t_mapping(t_address,t_bool)"
							},
							{
								"astId": 17,
								"contract": "contract.sol:SelfHelp",
								"label": "votingDuration",
								"offset": 0,
								"slot": "6",
								"type": "t_uint256"
							}
						],
						"numberOfBytes": "224"
					},
					"t_uint256": {
						"encoding": "inplace",
						"label": "uint256",
						"numberOfBytes": "32"
					}
				}
			},
			"userdoc": {
				"kind": "user",
				"methods": {},
				"version": 1
			}
		}
	}
}