{
	"contract.sol": {
		"SelfHelp": {
			"abi": [
				{
					"anonymous": false,
					"inputs": [
						{
							"indexed": true,
							"internalType": "uint256",
							"name": "shgId",
							"type": "uint256"
						},
						{
							"indexed": true,
							"internalType": "address",
							"name": "funder",
							"type": "address"
						},
						{
							"indexed": false,
							"internalType": "uint256",
							"name": "amount",
							"type": "uint256"
						}
					],
					"name": "FundsAdded",
					"type": "event"
				},
				{
					"anonymous": false,
					"inputs": [
						{
							"indexed": true,
							"internalType": "uint256",
							"name": "shgId",
							"type": "uint256"
						},
						{
							"indexed": true,
							"internalType": "uint256",
							"name": "proposalId",
							"type": "uint256"
						},
						{
							"indexed": true,
							"internalType": "address",
							"name": "proposer",
							"type": "address"
						},
						{
							"indexed": false,
							"internalType": "uint256",
							"name": "amount",
							"type": "uint256"
						}
					],
					"name": "FundsClaimed",
					"type": "event"
				},
				{
					"anonymous": false,
					"inputs": [
						{
							"indexed": true,
							"internalType": "uint256",
							"name": "proposalId",
							"type": "uint256"
						},
						{
							"indexed": true,
							"internalType": "uint256",
							"name": "shgId",
							"type": "uint256"
						},
						{
							"indexed": true,
							"internalType": "address",
							"name": "proposer",
							"type": "address"
						},
						{
							"indexed": false,
							"internalType": "string",
							"name": "name",
							"type": "string"
						}
					],
					"name": "ProposalCreated",
					"type": "event"
				},
				{
					"anonymous": false,
					"inputs": [
						{
							"indexed": true,
							"internalType": "uint256",
							"name": "proposalId",
							"type": "uint256"
						},
						{
							"indexed": false,
							"internalType": "enum SelfHelp.ProposalStatus",
							"name": "status",
							"type": "uint8"
						}
					],
					"name": "ProposalFinalized",
					"type": "event"
				},
				{
					"anonymous": false,
					"inputs": [
						{
							"indexed": true,
							"internalType": "uint256",
							"name": "shgId",
							"type": "uint256"
						},
						{
							"indexed": true,
							"internalType": "address",
							"name": "admin",
							"type": "address"
						},
						{
							"indexed": false,
							"internalType": "string",
							"name": "name",
							"type": "string"
						}
					],
					"name": "SHGCreated",
					"type": "event"
				},
				{
					"anonymous": false,
					"inputs": [
						{
							"indexed": true,
							"internalType": "uint256",
							"name": "proposalId",
							"type": "uint256"
						},
						{
							"indexed": true,
							"internalType": "address",
							"name": "voter",
							"type": "address"
						},
						{
							"indexed": false,
							"internalType": "bool",
							"name": "inFavour",
							"type": "bool"
						}
					],
					"name": "Voted",
					"type": "event"
				},
				{
					"inputs": [
						{
							"internalType": "uint256",
							"name": "_shgId",
							"type": "uint256"
						}
					],
					"name": "addFunds",
					"outputs": [],
					"stateMutability": "payable",
					"type": "function"
				},
				{
					"inputs": [
						{
							"internalType": "string",
							"name": "_shgName",
							"type": "string"
						},
						{
							"internalType": "string",
							"name": "_shgDescription",
							"type": "string"
						},
						{
							"internalType": "uint256",
							"name": "_votingDuration",
							"type": "uint256"
						}
					],
					"name": "addSHG",
					"outputs": [],
					"stateMutability": "nonpayable",
					"type": "function"
				},
				{
					"inputs": [
						{
							"internalType": "uint256",
							"name": "_shgId",
							"type": "uint256"
						},
						{
							"internalType": "uint256",
							"name": "_proposalId",
							"type": "uint256"
						}
					],
					"name": "claimFund",
					"outputs": [],
					"stateMutability": "nonpayable",
					"type": "function"
				},
				{
					"inputs": [
						{
							"internalType": "uint256",
							"name": "_shgId",
							"type": "uint256"
						},
						{
							"internalType": "string",
							"name": "_proposalName",
							"type": "string"
						},
						{
							"internalType": "string",
							"name": "_proposalDescription",
							"type": "string"
						},
						{
							"internalType": "uint256",
							"name": "_amount",
							"type": "uint256"
						}
					],
					"name": "createProposal",
					"outputs": [],
					"stateMutability": "nonpayable",
					"type": "function"
				},
				{
					"inputs": [
						{
							"internalType": "uint256",
							"name": "_proposalId",
							"type": "uint256"
						}
					],
					"name": "finalizeProposal",
					"outputs": [],
					"stateMutability": "nonpayable",
					"type": "function"
				},
				{
					"inputs": [
						{
							"internalType": "uint256",
							"name": "_shgId",
							"type": "uint256"
						},
						{
							"internalType": "address",
							"name": "_funder",
							"type": "address"
						}
					],
					"name": "getFunderDetails",
					"outputs": [
						{
							"internalType": "uint256",
							"name": "",
							"type": "uint256"
						}
					],
					"stateMutability": "view",
					"type": "function"
				},
				{
					"inputs": [
						{
							"internalType": "uint256",
							"name": "_proposalId",
							"type": "uint256"
						},
						{
							"internalType": "address",
							"name": "_voter",
							"type": "address"
						}
					],
					"name": "getProposalVoterDetails",
					"outputs": [
						{
							"internalType": "bool",
							"name": "inFavour",
							"type": "bool"
						},
						{
							"internalType": "bool",
							"name": "against",
							"type": "bool"
						}
					],
					"stateMutability": "view",
					"type": "function"
				},
				{
					"inputs": [
						{
							"internalType": "address",
							"name": "",
							"type": "address"
						},
						{
							"internalType": "uint256",
							"name": "",
							"type": "uint256"
						}
					],
					"name": "memberOfShg",
					"outputs": [
						{
							"internalType": "uint256",
							"name": "",
							"type": "uint256"
						}
					],
					"stateMutability": "view",
					"type": "function"
				},
				{
					"inputs": [
						{
							"internalType": "uint256",
							"name": "",
							"type": "uint256"
						}
					],
					"name": "proposalDetails",
					"outputs": [
						{
							"internalType": "uint256",
							"name": "shgId",
							"type": "uint256"
						},
						{
							"internalType": "address",
							"name": "proposer",
							"type": "address"
						},
						{
							"internalType": "string",
							"name": "proposalName",
							"type": "string"
						},
						{
							"internalType": "string",
							"name": "proposalDescription",
							"type": "string"
						},
						{
							"internalType": "uint256",
							"name": "amount",
							"type": "uint256"
						},
						{
							"internalType": "uint256",
							"name": "votesInFavour",
							"type": "uint256"
						},
						{
							"internalType": "uint256",
							"name": "votesAgainst",
							"type": "uint256"
						},
						{
							"internalType": "uint256",
							"name": "timeOfProposal",
							"type": "uint256"
						},
						{
							"internalType": "enum SelfHelp.ProposalStatus",
							"name": "status",
							"type": "uint8"
						}
					],
					"stateMutability": "view",
					"type": "function"
				},
				{
					"inputs": [],
					"name": "proposalId",
					"outputs": [
						{
							"internalType": "uint256",
							"name": "",
							"type": "uint256"
						}
					],
					"stateMutability": "view",
					"type": "function"
				},
				{
					"inputs": [
						{
							"internalType": "uint256",
							"name": "",
							"type": "uint256"
						},
						{
							"internalType": "uint256",
							"name": "",
							"type": "uint256"
						}
					],
					"name": "proposalIdInShg",
					"outputs": [
						{
							"internalType": "uint256",
							"name": "",
							"type": "uint256"
						}
					],
					"stateMutability": "view",
					"type": "function"
				},
				{
					"inputs": [
						{
							"internalType": "uint256",
							"name": "",
							"type": "uint256"
						}
					],
					"name": "shgDetails",
					"outputs": [
						{
							"internalType": "address",
							"name": "admin",
							"type": "address"
						},
						{
							"internalType": "string",
							"name": "shgName",
							"type": "string"
						},
						{
							"internalType": "string",
							"name": "shgDescription",
							"type": "string"
						},
						{
							"internalType": "uint256",
							"name": "timeOfCreation",
							"type": "uint256"
						},
						{
							"internalType": "uint256",
							"name": "balance",
							"type": "uint256"
						},
						{
							"internalType": "uint256",
							"name": "numberOfFunders",
							"type": "uint256"
						},
						{
							"internalType": "uint256",
							"name": "votingDuration",
							"type": "uint256"
						}
					],
					"stateMutability": "view",
					"type": "function"
				},
				{
					"inputs": [],
					"name": "shgId",
					"outputs": [
						{
							"internalType": "uint256",
							"name": "",
							"type": "uint256"
						}
					],
					"stateMutability": "view",
					"type": "function"
				},
				{
					"inputs": [
						{
							"internalType": "uint256",
							"name": "_proposalId",
							"type": "uint256"
						}
					],
					"name": "voteAgainst",
					"outputs": [],
					"stateMutability": "nonpayable",
					"type": "function"
				},
				{
					"inputs": [
						{
							"internalType": "uint256",
							"name": "_proposalId",
							"type": "uint256"
						}
					],
					"name": "voteInFavour",
					"outputs": [],
					"stateMutability": "nonpayable",
					"type": "function"
				}
			],
			"devdoc": {
				"kind": "dev",
				"methods": {},
				"version": 1
			},
			"evm": {
				"assembly": "    /* \"contract.sol\":60:7318  contract SelfHelp {... */\n  mstore(0x40, 0x80)\n    /* \"contract.sol\":883:884  0 */\n  0x00\n    /* \"contract.sol\":860:884  uint256 public shgId = 0 */\n  dup1\n  sstore\n    /* \"contract.sol\":919:920  0 */\n  0x00\n    /* \"contract.sol\":891:920  uint256 public proposalId = 0 */\n  0x01\n  sstore\n    /* \"contract.sol\":60:7318  contract SelfHelp {... */\n  callvalue\n  dup1\n  iszero\n  tag_1\n  jumpi\n  0x00\n  dup1\n  revert\ntag_1:\n  pop\n  dataSize(sub_0)\n  dup1\n  dataOffset(sub_0)\n  0x00\n  codecopy\n  0x00\n  return\nstop\n\nsub_0: assembly {\n        /* \"contract.sol\":60:7318  contract SelfHelp {... */\n      mstore(0x40, 0x80)\n      jumpi(tag_1, lt(calldatasize, 0x04))\n      shr(0xe0, calldataload(0x00))\n      dup1\n      0x7641f2b8\n      gt\n      tag_17\n      jumpi\n      dup1\n      0xbe999705\n      gt\n      tag_18\n      jumpi\n      dup1\n      0xbe999705\n      eq\n      tag_13\n      jumpi\n      dup1\n      0xc0b8bb61\n      eq\n      tag_14\n      jumpi\n      dup1\n      0xf37ad2e9\n      eq\n      tag_15\n      jumpi\n      dup1\n      0xf5fffc0f\n      eq\n      tag_16\n      jumpi\n      jump(tag_1)\n    tag_18:\n      dup1\n      0x7641f2b8\n      eq\n      tag_9\n      jumpi\n      dup1\n      0x976eb774\n      eq\n      tag_10\n      jumpi\n      dup1\n      0xb979ce06\n      eq\n      tag_11\n      jumpi\n      dup1\n      0xbc35baa3\n      eq\n      tag_12\n      jumpi\n      jump(tag_1)\n    tag_17:\n      dup1\n      0x484c4c81\n      gt\n      tag_19\n      jumpi\n      dup1\n      0x484c4c81\n      eq\n      tag_5\n      jumpi\n      dup1\n      0x5652077c\n      eq\n      tag_6\n      jumpi\n      dup1\n      0x5ada0a41\n      eq\n      tag_7\n      jumpi\n      dup1\n      0x750e443a\n      eq\n      tag_8\n      jumpi\n      jump(tag_1)\n    tag_19:\n      dup1\n      0x16e9eaec\n      eq\n      tag_2\n      jumpi\n      dup1\n      0x1cc75df4\n      eq\n      tag_3\n      jumpi\n      dup1\n      0x2dfca445\n      eq\n      tag_4\n      jumpi\n    tag_1:\n      0x00\n      dup1\n      revert\n        /* \"contract.sol\":1091:1142  mapping(uint256 => Proposal) public proposalDetails */\n    tag_2:\n      callvalue\n      dup1\n      iszero\n      tag_20\n      jumpi\n      0x00\n      dup1\n      revert\n    tag_20:\n      pop\n      tag_21\n      0x04\n      dup1\n      calldatasize\n      sub\n      dup2\n      add\n      swap1\n      tag_22\n      swap2\n      swap1\n      tag_23\n      jump\t// in\n    tag_22:\n      tag_24\n      jump\t// in\n    tag_21:\n      mload(0x40)\n      tag_25\n      swap10\n      swap9\n      swap8\n      swap7\n      swap6\n      swap5\n      swap4\n      swap3\n      swap2\n      swap1\n      tag_26\n      jump\t// in\n    tag_25:\n      mload(0x40)\n      dup1\n      swap2\n      sub\n      swap1\n      return\n        /* \"contract.sol\":1885:2355  function addSHG(string memory _shgName, string memory _shgDescription, uint256 _votingDuration) public {... */\n    tag_3:\n      callvalue\n      dup1\n      iszero\n      tag_27\n      jumpi\n      0x00\n      dup1\n      revert\n    tag_27:\n      pop\n      tag_28\n      0x04\n      dup1\n      calldatasize\n      sub\n      dup2\n      add\n      swap1\n      tag_29\n      swap2\n      swap1\n      tag_30\n      jump\t// in\n    tag_29:\n      tag_31\n      jump\t// in\n    tag_28:\n      stop\n        /* \"contract.sol\":891:920  uint256 public proposalId = 0 */\n    tag_4:\n      callvalue\n      dup1\n      iszero\n      tag_32\n      jumpi\n      0x00\n      dup1\n      revert\n    tag_32:\n      pop\n      tag_33\n      tag_34\n      jump\t// in\n    tag_33:\n      mload(0x40)\n      tag_35\n      swap2\n      swap1\n      tag_36\n      jump\t// in\n    tag_35:\n      mload(0x40)\n      dup1\n      swap2\n      sub\n      swap1\n      return\n        /* \"contract.sol\":6853:7009  function getFunderDetails(uint256 _shgId, address _funder) public view returns (uint256) {... */\n    tag_5:\n      callvalue\n      dup1\n      iszero\n      tag_37\n      jumpi\n      0x00\n      dup1\n      revert\n    tag_37:\n      pop\n      tag_38\n      0x04\n      dup1\n      calldatasize\n      sub\n      dup2\n      add\n      swap1\n      tag_39\n      swap2\n      swap1\n      tag_40\n      jump\t// in\n    tag_39:\n      tag_41\n      jump\t// in\n    tag_38:\n      mload(0x40)\n      tag_42\n      swap2\n      swap1\n      tag_36\n      jump\t// in\n    tag_42:\n      mload(0x40)\n      dup1\n      swap2\n      sub\n      swap1\n      return\n        /* \"contract.sol\":5466:6086  function finalizeProposal(uint256 _proposalId) public {... */\n    tag_6:\n      callvalue\n      dup1\n      iszero\n      tag_43\n      jumpi\n      0x00\n      dup1\n      revert\n    tag_43:\n      pop\n      tag_44\n      0x04\n      dup1\n      calldatasize\n      sub\n      dup2\n      add\n      swap1\n      tag_45\n      swap2\n      swap1\n      tag_23\n      jump\t// in\n    tag_45:\n      tag_46\n      jump\t// in\n    tag_44:\n      stop\n        /* \"contract.sol\":3209:4012  function createProposal(... */\n    tag_7:\n      callvalue\n      dup1\n      iszero\n      tag_47\n      jumpi\n      0x00\n      dup1\n      revert\n    tag_47:\n      pop\n      tag_48\n      0x04\n      dup1\n      calldatasize\n      sub\n      dup2\n      add\n      swap1\n      tag_49\n      swap2\n      swap1\n      tag_50\n      jump\t// in\n    tag_49:\n      tag_51\n      jump\t// in\n    tag_48:\n      stop\n        /* \"contract.sol\":4744:5458  function voteAgainst(uint256 _proposalId) public {... */\n    tag_8:\n      callvalue\n      dup1\n      iszero\n      tag_52\n      jumpi\n      0x00\n      dup1\n      revert\n    tag_52:\n      pop\n      tag_53\n      0x04\n      dup1\n      calldatasize\n      sub\n      dup2\n      add\n      swap1\n      tag_54\n      swap2\n      swap1\n      tag_23\n      jump\t// in\n    tag_54:\n      tag_55\n      jump\t// in\n    tag_53:\n      stop\n        /* \"contract.sol\":1032:1084  mapping(uint256 => uint256[]) public proposalIdInShg */\n    tag_9:\n      callvalue\n      dup1\n      iszero\n      tag_56\n      jumpi\n      0x00\n      dup1\n      revert\n    tag_56:\n      pop\n      tag_57\n      0x04\n      dup1\n      calldatasize\n      sub\n      dup2\n      add\n      swap1\n      tag_58\n      swap2\n      swap1\n      tag_59\n      jump\t// in\n    tag_58:\n      tag_60\n      jump\t// in\n    tag_57:\n      mload(0x40)\n      tag_61\n      swap2\n      swap1\n      tag_36\n      jump\t// in\n    tag_61:\n      mload(0x40)\n      dup1\n      swap2\n      sub\n      swap1\n      return\n        /* \"contract.sol\":929:970  mapping(uint256 => SHG) public shgDetails */\n    tag_10:\n      callvalue\n      dup1\n      iszero\n      tag_62\n      jumpi\n      0x00\n      dup1\n      revert\n    tag_62:\n      pop\n      tag_63\n      0x04\n      dup1\n      calldatasize\n      sub\n      dup2\n      add\n      swap1\n      tag_64\n      swap2\n      swap1\n      tag_23\n      jump\t// in\n    tag_64:\n      tag_65\n      jump\t// in\n    tag_63:\n      mload(0x40)\n      tag_66\n      swap8\n      swap7\n      swap6\n      swap5\n      swap4\n      swap3\n      swap2\n      swap1\n      tag_67\n      jump\t// in\n    tag_66:\n      mload(0x40)\n      dup1\n      swap2\n      sub\n      swap1\n      return\n        /* \"contract.sol\":860:884  uint256 public shgId = 0 */\n    tag_11:\n      callvalue\n      dup1\n      iszero\n      tag_68\n      jumpi\n      0x00\n      dup1\n      revert\n    tag_68:\n      pop\n      tag_69\n      tag_70\n      jump\t// in\n    tag_69:\n      mload(0x40)\n      tag_71\n      swap2\n      swap1\n      tag_36\n      jump\t// in\n    tag_71:\n      mload(0x40)\n      dup1\n      swap2\n      sub\n      swap1\n      return\n        /* \"contract.sol\":977:1025  mapping(address => uint256[]) public memberOfShg */\n    tag_12:\n      callvalue\n      dup1\n      iszero\n      tag_72\n      jumpi\n      0x00\n      dup1\n      revert\n    tag_72:\n      pop\n      tag_73\n      0x04\n      dup1\n      calldatasize\n      sub\n      dup2\n      add\n      swap1\n      tag_74\n      swap2\n      swap1\n      tag_75\n      jump\t// in\n    tag_74:\n      tag_76\n      jump\t// in\n    tag_73:\n      mload(0x40)\n      tag_77\n      swap2\n      swap1\n      tag_36\n      jump\t// in\n    tag_77:\n      mload(0x40)\n      dup1\n      swap2\n      sub\n      swap1\n      return\n        /* \"contract.sol\":2363:3201  function addFunds(uint256 _shgId) public payable {... */\n    tag_13:\n      tag_78\n      0x04\n      dup1\n      calldatasize\n      sub\n      dup2\n      add\n      swap1\n      tag_79\n      swap2\n      swap1\n      tag_23\n      jump\t// in\n    tag_79:\n      tag_80\n      jump\t// in\n    tag_78:\n      stop\n        /* \"contract.sol\":7017:7315  function getProposalVoterDetails(uint256 _proposalId, address _voter)... */\n    tag_14:\n      callvalue\n      dup1\n      iszero\n      tag_81\n      jumpi\n      0x00\n      dup1\n      revert\n    tag_81:\n      pop\n      tag_82\n      0x04\n      dup1\n      calldatasize\n      sub\n      dup2\n      add\n      swap1\n      tag_83\n      swap2\n      swap1\n      tag_40\n      jump\t// in\n    tag_83:\n      tag_84\n      jump\t// in\n    tag_82:\n      mload(0x40)\n      tag_85\n      swap3\n      swap2\n      swap1\n      tag_86\n      jump\t// in\n    tag_85:\n      mload(0x40)\n      dup1\n      swap2\n      sub\n      swap1\n      return\n        /* \"contract.sol\":4020:4736  function voteInFavour(uint256 _proposalId) public {... */\n    tag_15:\n      callvalue\n      dup1\n      iszero\n      tag_87\n      jumpi\n      0x00\n      dup1\n      revert\n    tag_87:\n      pop\n      tag_88\n      0x04\n      dup1\n      calldatasize\n      sub\n      dup2\n      add\n      swap1\n      tag_89\n      swap2\n      swap1\n      tag_23\n      jump\t// in\n    tag_89:\n      tag_90\n      jump\t// in\n    tag_88:\n      stop\n        /* \"contract.sol\":6094:6845  function claimFund(uint256 _shgId, uint256 _proposalId) public {... */\n    tag_16:\n      callvalue\n      dup1\n      iszero\n      tag_91\n      jumpi\n      0x00\n      dup1\n      revert\n    tag_91:\n      pop\n      tag_92\n      0x04\n      dup1\n      calldatasize\n      sub\n      dup2\n      add\n      swap1\n      tag_93\n      swap2\n      swap1\n      tag_59\n      jump\t// in\n    tag_93:\n      tag_94\n      jump\t// in\n    tag_92:\n      stop\n        /* \"contract.sol\":1091:1142  mapping(uint256 => Proposal) public proposalDetails */\n    tag_24:\n      mstore(0x20, 0x05)\n      dup1\n      0x00\n      mstore\n      keccak256(0x00, 0x40)\n      0x00\n      swap2\n      pop\n      swap1\n      pop\n      dup1\n      0x00\n      add\n      sload\n      swap1\n      dup1\n      0x01\n      add\n      0x00\n      swap1\n      sload\n      swap1\n      0x0100\n      exp\n      swap1\n      div\n      0xffffffffffffffffffffffffffffffffffffffff\n      and\n      swap1\n      dup1\n      0x02\n      add\n      dup1\n      sload\n      tag_95\n      swap1\n      tag_96\n      jump\t// in\n    tag_95:\n      dup1\n      0x1f\n      add\n      0x20\n      dup1\n      swap2\n      div\n      mul\n      0x20\n      add\n      mload(0x40)\n      swap1\n      dup2\n      add\n      0x40\n      mstore\n      dup1\n      swap3\n      swap2\n      swap1\n      dup2\n      dup2\n      mstore\n      0x20\n      add\n      dup3\n      dup1\n      sload\n      tag_97\n      swap1\n      tag_96\n      jump\t// in\n    tag_97:\n      dup1\n      iszero\n      tag_98\n      jumpi\n      dup1\n      0x1f\n      lt\n      tag_99\n      jumpi\n      0x0100\n      dup1\n      dup4\n      sload\n      div\n      mul\n      dup4\n      mstore\n      swap2\n      0x20\n      add\n      swap2\n      jump(tag_98)\n    tag_99:\n      dup3\n      add\n      swap2\n      swap1\n      0x00\n      mstore\n      keccak256(0x00, 0x20)\n      swap1\n    tag_100:\n      dup2\n      sload\n      dup2\n      mstore\n      swap1\n      0x01\n      add\n      swap1\n      0x20\n      add\n      dup1\n      dup4\n      gt\n      tag_100\n      jumpi\n      dup3\n      swap1\n      sub\n      0x1f\n      and\n      dup3\n      add\n      swap2\n    tag_98:\n      pop\n      pop\n      pop\n      pop\n      pop\n      swap1\n      dup1\n      0x03\n      add\n      dup1\n      sload\n      tag_101\n      swap1\n      tag_96\n      jump\t// in\n    tag_101:\n      dup1\n      0x1f\n      add\n      0x20\n      dup1\n      swap2\n      div\n      mul\n      0x20\n      add\n      mload(0x40)\n      swap1\n      dup2\n      add\n      0x40\n      mstore\n      dup1\n      swap3\n      swap2\n      swap1\n      dup2\n      dup2\n      mstore\n      0x20\n      add\n      dup3\n      dup1\n      sload\n      tag_102\n      swap1\n      tag_96\n      jump\t// in\n    tag_102:\n      dup1\n      iszero\n      tag_103\n      jumpi\n      dup1\n      0x1f\n      lt\n      tag_104\n      jumpi\n      0x0100\n      dup1\n      dup4\n      sload\n      div\n      mul\n      dup4\n      mstore\n      swap2\n      0x20\n      add\n      swap2\n      jump(tag_103)\n    tag_104:\n      dup3\n      add\n      swap2\n      swap1\n      0x00\n      mstore\n      keccak256(0x00, 0x20)\n      swap1\n    tag_105:\n      dup2\n      sload\n      dup2\n      mstore\n      swap1\n      0x01\n      add\n      swap1\n      0x20\n      add\n      dup1\n      dup4\n      gt\n      tag_105\n      jumpi\n      dup3\n      swap1\n      sub\n      0x1f\n      and\n      dup3\n      add\n      swap2\n    tag_103:\n      pop\n      pop\n      pop\n      pop\n      pop\n      swap1\n      dup1\n      0x04\n      add\n      sload\n      swap1\n      dup1\n      0x05\n      add\n      sload\n      swap1\n      dup1\n      0x06\n      add\n      sload\n      swap1\n      dup1\n      0x07\n      add\n      sload\n      swap1\n      dup1\n      0x08\n      add\n      0x00\n      swap1\n      sload\n      swap1\n      0x0100\n      exp\n      swap1\n      div\n      0xff\n      and\n      swap1\n      pop\n      dup10\n      jump\t// out\n        /* \"contract.sol\":1885:2355  function addSHG(string memory _shgName, string memory _shgDescription, uint256 _votingDuration) public {... */\n    tag_31:\n        /* \"contract.sol\":1999:2004  shgId */\n      0x00\n      dup1\n        /* \"contract.sol\":1999:2006  shgId++ */\n      dup2\n      sload\n      dup1\n      swap3\n      swap2\n      swap1\n      tag_107\n      swap1\n      tag_108\n      jump\t// in\n    tag_107:\n      swap2\n      swap1\n      pop\n      sstore\n      pop\n        /* \"contract.sol\":2017:2032  SHG storage shg */\n      0x00\n        /* \"contract.sol\":2035:2045  shgDetails */\n      0x02\n        /* \"contract.sol\":2035:2052  shgDetails[shgId] */\n      0x00\n        /* \"contract.sol\":2046:2051  shgId */\n      dup1\n      sload\n        /* \"contract.sol\":2035:2052  shgDetails[shgId] */\n      dup2\n      mstore\n      0x20\n      add\n      swap1\n      dup2\n      mstore\n      0x20\n      add\n      0x00\n      keccak256\n        /* \"contract.sol\":2017:2052  SHG storage shg = shgDetails[shgId] */\n      swap1\n      pop\n        /* \"contract.sol\":2075:2085  msg.sender */\n      caller\n        /* \"contract.sol\":2063:2066  shg */\n      dup2\n        /* \"contract.sol\":2063:2072  shg.admin */\n      0x00\n      add\n      0x00\n        /* \"contract.sol\":2063:2085  shg.admin = msg.sender */\n      0x0100\n      exp\n      dup2\n      sload\n      dup2\n      0xffffffffffffffffffffffffffffffffffffffff\n      mul\n      not\n      and\n      swap1\n      dup4\n      0xffffffffffffffffffffffffffffffffffffffff\n      and\n      mul\n      or\n      swap1\n      sstore\n      pop\n        /* \"contract.sol\":2110:2118  _shgName */\n      dup4\n        /* \"contract.sol\":2096:2099  shg */\n      dup2\n        /* \"contract.sol\":2096:2107  shg.shgName */\n      0x01\n      add\n        /* \"contract.sol\":2096:2118  shg.shgName = _shgName */\n      swap1\n      dup2\n      tag_109\n      swap2\n      swap1\n      tag_110\n      jump\t// in\n    tag_109:\n      pop\n        /* \"contract.sol\":2150:2165  _shgDescription */\n      dup3\n        /* \"contract.sol\":2129:2132  shg */\n      dup2\n        /* \"contract.sol\":2129:2147  shg.shgDescription */\n      0x02\n      add\n        /* \"contract.sol\":2129:2165  shg.shgDescription = _shgDescription */\n      swap1\n      dup2\n      tag_111\n      swap2\n      swap1\n      tag_110\n      jump\t// in\n    tag_111:\n      pop\n        /* \"contract.sol\":2197:2212  block.timestamp */\n      timestamp\n        /* \"contract.sol\":2176:2179  shg */\n      dup2\n        /* \"contract.sol\":2176:2194  shg.timeOfCreation */\n      0x03\n      add\n        /* \"contract.sol\":2176:2212  shg.timeOfCreation = block.timestamp */\n      dup2\n      swap1\n      sstore\n      pop\n        /* \"contract.sol\":2237:2238  0 */\n      0x00\n        /* \"contract.sol\":2223:2226  shg */\n      dup2\n        /* \"contract.sol\":2223:2234  shg.balance */\n      0x04\n      add\n        /* \"contract.sol\":2223:2238  shg.balance = 0 */\n      dup2\n      swap1\n      sstore\n      pop\n        /* \"contract.sol\":2286:2290  3600 */\n      0x0e10\n        /* \"contract.sol\":2270:2285  _votingDuration */\n      dup3\n        /* \"contract.sol\":2270:2290  _votingDuration*3600 */\n      tag_112\n      swap2\n      swap1\n      tag_113\n      jump\t// in\n    tag_112:\n        /* \"contract.sol\":2249:2252  shg */\n      dup2\n        /* \"contract.sol\":2249:2267  shg.votingDuration */\n      0x08\n      add\n        /* \"contract.sol\":2249:2290  shg.votingDuration = _votingDuration*3600 */\n      dup2\n      swap1\n      sstore\n      pop\n        /* \"contract.sol\":2326:2336  msg.sender */\n      caller\n        /* \"contract.sol\":2308:2347  SHGCreated(shgId, msg.sender, _shgName) */\n      0xffffffffffffffffffffffffffffffffffffffff\n      and\n        /* \"contract.sol\":2319:2324  shgId */\n      sload(0x00)\n        /* \"contract.sol\":2308:2347  SHGCreated(shgId, msg.sender, _shgName) */\n      0xc1542960c8708fa89cc7bbc364ab9741be9373ede08d56467e106a08365bbba0\n        /* \"contract.sol\":2338:2346  _shgName */\n      dup7\n        /* \"contract.sol\":2308:2347  SHGCreated(shgId, msg.sender, _shgName) */\n      mload(0x40)\n      tag_114\n      swap2\n      swap1\n      tag_115\n      jump\t// in\n    tag_114:\n      mload(0x40)\n      dup1\n      swap2\n      sub\n      swap1\n      log3\n        /* \"contract.sol\":1988:2355  {... */\n      pop\n        /* \"contract.sol\":1885:2355  function addSHG(string memory _shgName, string memory _shgDescription, uint256 _votingDuration) public {... */\n      pop\n      pop\n      pop\n      jump\t// out\n        /* \"contract.sol\":891:920  uint256 public proposalId = 0 */\n    tag_34:\n      sload(0x01)\n      dup2\n      jump\t// out\n        /* \"contract.sol\":6853:7009  function getFunderDetails(uint256 _shgId, address _funder) public view returns (uint256) {... */\n    tag_41:\n        /* \"contract.sol\":6933:6940  uint256 */\n      0x00\n        /* \"contract.sol\":6960:6970  shgDetails */\n      0x02\n        /* \"contract.sol\":6960:6978  shgDetails[_shgId] */\n      0x00\n        /* \"contract.sol\":6971:6977  _shgId */\n      dup5\n        /* \"contract.sol\":6960:6978  shgDetails[_shgId] */\n      dup2\n      mstore\n      0x20\n      add\n      swap1\n      dup2\n      mstore\n      0x20\n      add\n      0x00\n      keccak256\n        /* \"contract.sol\":6960:6992  shgDetails[_shgId].funderDetails */\n      0x05\n      add\n        /* \"contract.sol\":6960:7001  shgDetails[_shgId].funderDetails[_funder] */\n      0x00\n        /* \"contract.sol\":6993:7000  _funder */\n      dup4\n        /* \"contract.sol\":6960:7001  shgDetails[_shgId].funderDetails[_funder] */\n      0xffffffffffffffffffffffffffffffffffffffff\n      and\n      0xffffffffffffffffffffffffffffffffffffffff\n      and\n      dup2\n      mstore\n      0x20\n      add\n      swap1\n      dup2\n      mstore\n      0x20\n      add\n      0x00\n      keccak256\n      sload\n        /* \"contract.sol\":6953:7001  return shgDetails[_shgId].funderDetails[_funder] */\n      swap1\n      pop\n        /* \"contract.sol\":6853:7009  function getFunderDetails(uint256 _shgId, address _funder) public view returns (uint256) {... */\n      swap3\n      swap2\n      pop\n      pop\n      jump\t// out\n        /* \"contract.sol\":5466:6086  function finalizeProposal(uint256 _proposalId) public {... */\n    tag_46:\n        /* \"contract.sol\":5531:5552  Proposal storage prop */\n      0x00\n        /* \"contract.sol\":5555:5570  proposalDetails */\n      0x05\n        /* \"contract.sol\":5555:5583  proposalDetails[_proposalId] */\n      0x00\n        /* \"contract.sol\":5571:5582  _proposalId */\n      dup4\n        /* \"contract.sol\":5555:5583  proposalDetails[_proposalId] */\n      dup2\n      mstore\n      0x20\n      add\n      swap1\n      dup2\n      mstore\n      0x20\n      add\n      0x00\n      keccak256\n        /* \"contract.sol\":5531:5583  Proposal storage prop = proposalDetails[_proposalId] */\n      swap1\n      pop\n        /* \"contract.sol\":5594:5609  SHG storage shg */\n      0x00\n        /* \"contract.sol\":5612:5622  shgDetails */\n      0x02\n        /* \"contract.sol\":5612:5634  shgDetails[prop.shgId] */\n      0x00\n        /* \"contract.sol\":5623:5627  prop */\n      dup4\n        /* \"contract.sol\":5623:5633  prop.shgId */\n      0x00\n      add\n      sload\n        /* \"contract.sol\":5612:5634  shgDetails[prop.shgId] */\n      dup2\n      mstore\n      0x20\n      add\n      swap1\n      dup2\n      mstore\n      0x20\n      add\n      0x00\n      keccak256\n        /* \"contract.sol\":5594:5634  SHG storage shg = shgDetails[prop.shgId] */\n      swap1\n      pop\n        /* \"contract.sol\":5693:5696  shg */\n      dup1\n        /* \"contract.sol\":5693:5711  shg.votingDuration */\n      0x08\n      add\n      sload\n        /* \"contract.sol\":5671:5675  prop */\n      dup3\n        /* \"contract.sol\":5671:5690  prop.timeOfProposal */\n      0x07\n      add\n      sload\n        /* \"contract.sol\":5671:5711  prop.timeOfProposal + shg.votingDuration */\n      tag_118\n      swap2\n      swap1\n      tag_119\n      jump\t// in\n    tag_118:\n        /* \"contract.sol\":5653:5668  block.timestamp */\n      timestamp\n        /* \"contract.sol\":5653:5711  block.timestamp > prop.timeOfProposal + shg.votingDuration */\n      gt\n        /* \"contract.sol\":5645:5740  require(block.timestamp > prop.timeOfProposal + shg.votingDuration, \"Voting still in progress\") */\n      tag_120\n      jumpi\n      mload(0x40)\n      0x08c379a000000000000000000000000000000000000000000000000000000000\n      dup2\n      mstore\n      0x04\n      add\n      tag_121\n      swap1\n      tag_122\n      jump\t// in\n    tag_121:\n      mload(0x40)\n      dup1\n      swap2\n      sub\n      swap1\n      revert\n    tag_120:\n        /* \"contract.sol\":5774:5796  ProposalStatus.Pending */\n      0x00\n        /* \"contract.sol\":5759:5796  prop.status == ProposalStatus.Pending */\n      0x02\n      dup2\n      gt\n      iszero\n      tag_123\n      jumpi\n      tag_124\n      tag_125\n      jump\t// in\n    tag_124:\n    tag_123:\n        /* \"contract.sol\":5759:5763  prop */\n      dup3\n        /* \"contract.sol\":5759:5770  prop.status */\n      0x08\n      add\n      0x00\n      swap1\n      sload\n      swap1\n      0x0100\n      exp\n      swap1\n      div\n      0xff\n      and\n        /* \"contract.sol\":5759:5796  prop.status == ProposalStatus.Pending */\n      0x02\n      dup2\n      gt\n      iszero\n      tag_126\n      jumpi\n      tag_127\n      tag_125\n      jump\t// in\n    tag_127:\n    tag_126:\n      eq\n        /* \"contract.sol\":5751:5827  require(prop.status == ProposalStatus.Pending, \"Proposal already finalized\") */\n      tag_128\n      jumpi\n      mload(0x40)\n      0x08c379a000000000000000000000000000000000000000000000000000000000\n      dup2\n      mstore\n      0x04\n      add\n      tag_129\n      swap1\n      tag_130\n      jump\t// in\n    tag_129:\n      mload(0x40)\n      dup1\n      swap2\n      sub\n      swap1\n      revert\n    tag_128:\n        /* \"contract.sol\":5865:5869  prop */\n      dup2\n        /* \"contract.sol\":5865:5882  prop.votesAgainst */\n      0x06\n      add\n      sload\n        /* \"contract.sol\":5844:5848  prop */\n      dup3\n        /* \"contract.sol\":5844:5862  prop.votesInFavour */\n      0x05\n      add\n      sload\n        /* \"contract.sol\":5844:5882  prop.votesInFavour > prop.votesAgainst */\n      gt\n        /* \"contract.sol\":5840:6018  if (prop.votesInFavour > prop.votesAgainst) {... */\n      iszero\n      tag_131\n      jumpi\n        /* \"contract.sol\":5913:5936  ProposalStatus.Approved */\n      0x01\n        /* \"contract.sol\":5899:5903  prop */\n      dup3\n        /* \"contract.sol\":5899:5910  prop.status */\n      0x08\n      add\n      0x00\n        /* \"contract.sol\":5899:5936  prop.status = ProposalStatus.Approved */\n      0x0100\n      exp\n      dup2\n      sload\n      dup2\n      0xff\n      mul\n      not\n      and\n      swap1\n      dup4\n      0x02\n      dup2\n      gt\n      iszero\n      tag_132\n      jumpi\n      tag_133\n      tag_125\n      jump\t// in\n    tag_133:\n    tag_132:\n      mul\n      or\n      swap1\n      sstore\n      pop\n        /* \"contract.sol\":5840:6018  if (prop.votesInFavour > prop.votesAgainst) {... */\n      jump(tag_134)\n    tag_131:\n        /* \"contract.sol\":5983:6006  ProposalStatus.Rejected */\n      0x02\n        /* \"contract.sol\":5969:5973  prop */\n      dup3\n        /* \"contract.sol\":5969:5980  prop.status */\n      0x08\n      add\n      0x00\n        /* \"contract.sol\":5969:6006  prop.status = ProposalStatus.Rejected */\n      0x0100\n      exp\n      dup2\n      sload\n      dup2\n      0xff\n      mul\n      not\n      and\n      swap1\n      dup4\n      0x02\n      dup2\n      gt\n      iszero\n      tag_135\n      jumpi\n      tag_136\n      tag_125\n      jump\t// in\n    tag_136:\n    tag_135:\n      mul\n      or\n      swap1\n      sstore\n      pop\n        /* \"contract.sol\":5840:6018  if (prop.votesInFavour > prop.votesAgainst) {... */\n    tag_134:\n        /* \"contract.sol\":6053:6064  _proposalId */\n      dup3\n        /* \"contract.sol\":6035:6078  ProposalFinalized(_proposalId, prop.status) */\n      0x34a42c4ce0a88d16ad098de6406057747139a2a3dd8dd8616ee7bbabcecb768e\n        /* \"contract.sol\":6066:6070  prop */\n      dup4\n        /* \"contract.sol\":6066:6077  prop.status */\n      0x08\n      add\n      0x00\n      swap1\n      sload\n      swap1\n      0x0100\n      exp\n      swap1\n      div\n      0xff\n      and\n        /* \"contract.sol\":6035:6078  ProposalFinalized(_proposalId, prop.status) */\n      mload(0x40)\n      tag_137\n      swap2\n      swap1\n      tag_138\n      jump\t// in\n    tag_137:\n      mload(0x40)\n      dup1\n      swap2\n      sub\n      swap1\n      log2\n        /* \"contract.sol\":5520:6086  {... */\n      pop\n      pop\n        /* \"contract.sol\":5466:6086  function finalizeProposal(uint256 _proposalId) public {... */\n      pop\n      jump\t// out\n        /* \"contract.sol\":3209:4012  function createProposal(... */\n    tag_51:\n        /* \"contract.sol\":3395:3401  _shgId */\n      dup4\n        /* \"contract.sol\":1256:1257  0 */\n      0x00\n        /* \"contract.sol\":1209:1219  shgDetails */\n      0x02\n        /* \"contract.sol\":1209:1227  shgDetails[_shgId] */\n      0x00\n        /* \"contract.sol\":1220:1226  _shgId */\n      dup4\n        /* \"contract.sol\":1209:1227  shgDetails[_shgId] */\n      dup2\n      mstore\n      0x20\n      add\n      swap1\n      dup2\n      mstore\n      0x20\n      add\n      0x00\n      keccak256\n        /* \"contract.sol\":1209:1241  shgDetails[_shgId].funderDetails */\n      0x05\n      add\n        /* \"contract.sol\":1209:1253  shgDetails[_shgId].funderDetails[msg.sender] */\n      0x00\n        /* \"contract.sol\":1242:1252  msg.sender */\n      caller\n        /* \"contract.sol\":1209:1253  shgDetails[_shgId].funderDetails[msg.sender] */\n      0xffffffffffffffffffffffffffffffffffffffff\n      and\n      0xffffffffffffffffffffffffffffffffffffffff\n      and\n      dup2\n      mstore\n      0x20\n      add\n      swap1\n      dup2\n      mstore\n      0x20\n      add\n      0x00\n      keccak256\n      sload\n        /* \"contract.sol\":1209:1257  shgDetails[_shgId].funderDetails[msg.sender] > 0 */\n      gt\n        /* \"contract.sol\":1201:1286  require(shgDetails[_shgId].funderDetails[msg.sender] > 0, \"Not a member of this SHG\") */\n      tag_140\n      jumpi\n      mload(0x40)\n      0x08c379a000000000000000000000000000000000000000000000000000000000\n      dup2\n      mstore\n      0x04\n      add\n      tag_141\n      swap1\n      tag_142\n      jump\t// in\n    tag_141:\n      mload(0x40)\n      dup1\n      swap2\n      sub\n      swap1\n      revert\n    tag_140:\n        /* \"contract.sol\":3433:3443  shgDetails */\n      0x02\n        /* \"contract.sol\":3433:3451  shgDetails[_shgId] */\n      0x00\n        /* \"contract.sol\":3444:3450  _shgId */\n      dup7\n        /* \"contract.sol\":3433:3451  shgDetails[_shgId] */\n      dup2\n      mstore\n      0x20\n      add\n      swap1\n      dup2\n      mstore\n      0x20\n      add\n      0x00\n      keccak256\n        /* \"contract.sol\":3433:3459  shgDetails[_shgId].balance */\n      0x04\n      add\n      sload\n        /* \"contract.sol\":3422:3429  _amount */\n      dup3\n        /* \"contract.sol\":3422:3459  _amount <= shgDetails[_shgId].balance */\n      gt\n      iszero\n        /* \"contract.sol\":3414:3488  require(_amount <= shgDetails[_shgId].balance, \"Insufficient SHG balance\") */\n      tag_144\n      jumpi\n      mload(0x40)\n      0x08c379a000000000000000000000000000000000000000000000000000000000\n      dup2\n      mstore\n      0x04\n      add\n      tag_145\n      swap1\n      tag_146\n      jump\t// in\n    tag_145:\n      mload(0x40)\n      dup1\n      swap2\n      sub\n      swap1\n      revert\n    tag_144:\n        /* \"contract.sol\":3501:3511  proposalId */\n      0x01\n      0x00\n        /* \"contract.sol\":3501:3513  proposalId++ */\n      dup2\n      sload\n      dup1\n      swap3\n      swap2\n      swap1\n      tag_147\n      swap1\n      tag_108\n      jump\t// in\n    tag_147:\n      swap2\n      swap1\n      pop\n      sstore\n      pop\n        /* \"contract.sol\":3524:3539  proposalIdInShg */\n      0x04\n        /* \"contract.sol\":3524:3547  proposalIdInShg[_shgId] */\n      0x00\n        /* \"contract.sol\":3540:3546  _shgId */\n      dup7\n        /* \"contract.sol\":3524:3547  proposalIdInShg[_shgId] */\n      dup2\n      mstore\n      0x20\n      add\n      swap1\n      dup2\n      mstore\n      0x20\n      add\n      0x00\n      keccak256\n        /* \"contract.sol\":3553:3563  proposalId */\n      sload(0x01)\n        /* \"contract.sol\":3524:3564  proposalIdInShg[_shgId].push(proposalId) */\n      swap1\n      dup1\n      0x01\n      dup2\n      sload\n      add\n      dup1\n      dup3\n      sstore\n      dup1\n      swap2\n      pop\n      pop\n      0x01\n      swap1\n      sub\n      swap1\n      0x00\n      mstore\n      keccak256(0x00, 0x20)\n      add\n      0x00\n      swap1\n      swap2\n      swap1\n      swap2\n      swap1\n      swap2\n      pop\n      sstore\n        /* \"contract.sol\":3577:3598  Proposal storage prop */\n      0x00\n        /* \"contract.sol\":3601:3616  proposalDetails */\n      0x05\n        /* \"contract.sol\":3601:3628  proposalDetails[proposalId] */\n      0x00\n        /* \"contract.sol\":3617:3627  proposalId */\n      sload(0x01)\n        /* \"contract.sol\":3601:3628  proposalDetails[proposalId] */\n      dup2\n      mstore\n      0x20\n      add\n      swap1\n      dup2\n      mstore\n      0x20\n      add\n      0x00\n      keccak256\n        /* \"contract.sol\":3577:3628  Proposal storage prop = proposalDetails[proposalId] */\n      swap1\n      pop\n        /* \"contract.sol\":3652:3658  _shgId */\n      dup6\n        /* \"contract.sol\":3639:3643  prop */\n      dup2\n        /* \"contract.sol\":3639:3649  prop.shgId */\n      0x00\n      add\n        /* \"contract.sol\":3639:3658  prop.shgId = _shgId */\n      dup2\n      swap1\n      sstore\n      pop\n        /* \"contract.sol\":3685:3695  msg.sender */\n      caller\n        /* \"contract.sol\":3669:3673  prop */\n      dup2\n        /* \"contract.sol\":3669:3682  prop.proposer */\n      0x01\n      add\n      0x00\n        /* \"contract.sol\":3669:3695  prop.proposer = msg.sender */\n      0x0100\n      exp\n      dup2\n      sload\n      dup2\n      0xffffffffffffffffffffffffffffffffffffffff\n      mul\n      not\n      and\n      swap1\n      dup4\n      0xffffffffffffffffffffffffffffffffffffffff\n      and\n      mul\n      or\n      swap1\n      sstore\n      pop\n        /* \"contract.sol\":3726:3739  _proposalName */\n      dup5\n        /* \"contract.sol\":3706:3710  prop */\n      dup2\n        /* \"contract.sol\":3706:3723  prop.proposalName */\n      0x02\n      add\n        /* \"contract.sol\":3706:3739  prop.proposalName = _proposalName */\n      swap1\n      dup2\n      tag_149\n      swap2\n      swap1\n      tag_110\n      jump\t// in\n    tag_149:\n      pop\n        /* \"contract.sol\":3777:3797  _proposalDescription */\n      dup4\n        /* \"contract.sol\":3750:3754  prop */\n      dup2\n        /* \"contract.sol\":3750:3774  prop.proposalDescription */\n      0x03\n      add\n        /* \"contract.sol\":3750:3797  prop.proposalDescription = _proposalDescription */\n      swap1\n      dup2\n      tag_150\n      swap2\n      swap1\n      tag_110\n      jump\t// in\n    tag_150:\n      pop\n        /* \"contract.sol\":3822:3829  _amount */\n      dup3\n        /* \"contract.sol\":3808:3812  prop */\n      dup2\n        /* \"contract.sol\":3808:3819  prop.amount */\n      0x04\n      add\n        /* \"contract.sol\":3808:3829  prop.amount = _amount */\n      dup2\n      swap1\n      sstore\n      pop\n        /* \"contract.sol\":3862:3877  block.timestamp */\n      timestamp\n        /* \"contract.sol\":3840:3844  prop */\n      dup2\n        /* \"contract.sol\":3840:3859  prop.timeOfProposal */\n      0x07\n      add\n        /* \"contract.sol\":3840:3877  prop.timeOfProposal = block.timestamp */\n      dup2\n      swap1\n      sstore\n      pop\n        /* \"contract.sol\":3902:3924  ProposalStatus.Pending */\n      0x00\n        /* \"contract.sol\":3888:3892  prop */\n      dup2\n        /* \"contract.sol\":3888:3899  prop.status */\n      0x08\n      add\n      0x00\n        /* \"contract.sol\":3888:3924  prop.status = ProposalStatus.Pending */\n      0x0100\n      exp\n      dup2\n      sload\n      dup2\n      0xff\n      mul\n      not\n      and\n      swap1\n      dup4\n      0x02\n      dup2\n      gt\n      iszero\n      tag_151\n      jumpi\n      tag_152\n      tag_125\n      jump\t// in\n    tag_152:\n    tag_151:\n      mul\n      or\n      swap1\n      sstore\n      pop\n        /* \"contract.sol\":3978:3988  msg.sender */\n      caller\n        /* \"contract.sol\":3942:4004  ProposalCreated(proposalId, _shgId, msg.sender, _proposalName) */\n      0xffffffffffffffffffffffffffffffffffffffff\n      and\n        /* \"contract.sol\":3970:3976  _shgId */\n      dup7\n        /* \"contract.sol\":3958:3968  proposalId */\n      sload(0x01)\n        /* \"contract.sol\":3942:4004  ProposalCreated(proposalId, _shgId, msg.sender, _proposalName) */\n      0x6f3322e9e9bcd9739d7dcbb73278ee28b363d39f7900bd404831ee8dfb41608e\n        /* \"contract.sol\":3990:4003  _proposalName */\n      dup9\n        /* \"contract.sol\":3942:4004  ProposalCreated(proposalId, _shgId, msg.sender, _proposalName) */\n      mload(0x40)\n      tag_153\n      swap2\n      swap1\n      tag_115\n      jump\t// in\n    tag_153:\n      mload(0x40)\n      dup1\n      swap2\n      sub\n      swap1\n      log4\n        /* \"contract.sol\":3403:4012  {... */\n      pop\n        /* \"contract.sol\":3209:4012  function createProposal(... */\n      pop\n      pop\n      pop\n      pop\n      pop\n      jump\t// out\n        /* \"contract.sol\":4744:5458  function voteAgainst(uint256 _proposalId) public {... */\n    tag_55:\n        /* \"contract.sol\":4804:4825  Proposal storage prop */\n      0x00\n        /* \"contract.sol\":4828:4843  proposalDetails */\n      0x05\n        /* \"contract.sol\":4828:4856  proposalDetails[_proposalId] */\n      0x00\n        /* \"contract.sol\":4844:4855  _proposalId */\n      dup4\n        /* \"contract.sol\":4828:4856  proposalDetails[_proposalId] */\n      dup2\n      mstore\n      0x20\n      add\n      swap1\n      dup2\n      mstore\n      0x20\n      add\n      0x00\n      keccak256\n        /* \"contract.sol\":4804:4856  Proposal storage prop = proposalDetails[_proposalId] */\n      swap1\n      pop\n        /* \"contract.sol\":4867:4882  SHG storage shg */\n      0x00\n        /* \"contract.sol\":4885:4895  shgDetails */\n      0x02\n        /* \"contract.sol\":4885:4907  shgDetails[prop.shgId] */\n      0x00\n        /* \"contract.sol\":4896:4900  prop */\n      dup4\n        /* \"contract.sol\":4896:4906  prop.shgId */\n      0x00\n      add\n      sload\n        /* \"contract.sol\":4885:4907  shgDetails[prop.shgId] */\n      dup2\n      mstore\n      0x20\n      add\n      swap1\n      dup2\n      mstore\n      0x20\n      add\n      0x00\n      keccak256\n        /* \"contract.sol\":4867:4907  SHG storage shg = shgDetails[prop.shgId] */\n      swap1\n      pop\n        /* \"contract.sol\":4958:4959  0 */\n      0x00\n        /* \"contract.sol\":4926:4929  shg */\n      dup2\n        /* \"contract.sol\":4926:4943  shg.funderDetails */\n      0x05\n      add\n        /* \"contract.sol\":4926:4955  shg.funderDetails[msg.sender] */\n      0x00\n        /* \"contract.sol\":4944:4954  msg.sender */\n      caller\n        /* \"contract.sol\":4926:4955  shg.funderDetails[msg.sender] */\n      0xffffffffffffffffffffffffffffffffffffffff\n      and\n      0xffffffffffffffffffffffffffffffffffffffff\n      and\n      dup2\n      mstore\n      0x20\n      add\n      swap1\n      dup2\n      mstore\n      0x20\n      add\n      0x00\n      keccak256\n      sload\n        /* \"contract.sol\":4926:4959  shg.funderDetails[msg.sender] > 0 */\n      gt\n        /* \"contract.sol\":4918:4988  require(shg.funderDetails[msg.sender] > 0, \"Not a member of this SHG\") */\n      tag_155\n      jumpi\n      mload(0x40)\n      0x08c379a000000000000000000000000000000000000000000000000000000000\n      dup2\n      mstore\n      0x04\n      add\n      tag_156\n      swap1\n      tag_142\n      jump\t// in\n    tag_156:\n      mload(0x40)\n      dup1\n      swap2\n      sub\n      swap1\n      revert\n    tag_155:\n        /* \"contract.sol\":5048:5051  shg */\n      dup1\n        /* \"contract.sol\":5048:5066  shg.votingDuration */\n      0x08\n      add\n      sload\n        /* \"contract.sol\":5026:5030  prop */\n      dup3\n        /* \"contract.sol\":5026:5045  prop.timeOfProposal */\n      0x07\n      add\n      sload\n        /* \"contract.sol\":5026:5066  prop.timeOfProposal + shg.votingDuration */\n      tag_157\n      swap2\n      swap1\n      tag_119\n      jump\t// in\n    tag_157:\n        /* \"contract.sol\":5007:5022  block.timestamp */\n      timestamp\n        /* \"contract.sol\":5007:5066  block.timestamp <= prop.timeOfProposal + shg.votingDuration */\n      gt\n      iszero\n        /* \"contract.sol\":4999:5094  require(block.timestamp <= prop.timeOfProposal + shg.votingDuration, \"Voting period has ended\") */\n      tag_158\n      jumpi\n      mload(0x40)\n      0x08c379a000000000000000000000000000000000000000000000000000000000\n      dup2\n      mstore\n      0x04\n      add\n      tag_159\n      swap1\n      tag_160\n      jump\t// in\n    tag_159:\n      mload(0x40)\n      dup1\n      swap2\n      sub\n      swap1\n      revert\n    tag_158:\n        /* \"contract.sol\":5127:5131  prop */\n      dup2\n        /* \"contract.sol\":5127:5140  prop.proposer */\n      0x01\n      add\n      0x00\n      swap1\n      sload\n      swap1\n      0x0100\n      exp\n      swap1\n      div\n      0xffffffffffffffffffffffffffffffffffffffff\n      and\n        /* \"contract.sol\":5113:5140  msg.sender != prop.proposer */\n      0xffffffffffffffffffffffffffffffffffffffff\n      and\n        /* \"contract.sol\":5113:5123  msg.sender */\n      caller\n        /* \"contract.sol\":5113:5140  msg.sender != prop.proposer */\n      0xffffffffffffffffffffffffffffffffffffffff\n      and\n      sub\n        /* \"contract.sol\":5105:5165  require(msg.sender != prop.proposer, \"Proposer cannot vote\") */\n      tag_161\n      jumpi\n      mload(0x40)\n      0x08c379a000000000000000000000000000000000000000000000000000000000\n      dup2\n      mstore\n      0x04\n      add\n      tag_162\n      swap1\n      tag_163\n      jump\t// in\n    tag_162:\n      mload(0x40)\n      dup1\n      swap2\n      sub\n      swap1\n      revert\n    tag_161:\n        /* \"contract.sol\":5199:5203  prop */\n      dup2\n        /* \"contract.sol\":5199:5218  prop.votersInFavour */\n      0x09\n      add\n        /* \"contract.sol\":5199:5230  prop.votersInFavour[msg.sender] */\n      0x00\n        /* \"contract.sol\":5219:5229  msg.sender */\n      caller\n        /* \"contract.sol\":5199:5230  prop.votersInFavour[msg.sender] */\n      0xffffffffffffffffffffffffffffffffffffffff\n      and\n      0xffffffffffffffffffffffffffffffffffffffff\n      and\n      dup2\n      mstore\n      0x20\n      add\n      swap1\n      dup2\n      mstore\n      0x20\n      add\n      0x00\n      keccak256\n      0x00\n      swap1\n      sload\n      swap1\n      0x0100\n      exp\n      swap1\n      div\n      0xff\n      and\n        /* \"contract.sol\":5198:5230  !prop.votersInFavour[msg.sender] */\n      iszero\n        /* \"contract.sol\":5198:5265  !prop.votersInFavour[msg.sender] && !prop.votersAgainst[msg.sender] */\n      dup1\n      iszero\n      tag_164\n      jumpi\n      pop\n        /* \"contract.sol\":5235:5239  prop */\n      dup2\n        /* \"contract.sol\":5235:5253  prop.votersAgainst */\n      0x0a\n      add\n        /* \"contract.sol\":5235:5265  prop.votersAgainst[msg.sender] */\n      0x00\n        /* \"contract.sol\":5254:5264  msg.sender */\n      caller\n        /* \"contract.sol\":5235:5265  prop.votersAgainst[msg.sender] */\n      0xffffffffffffffffffffffffffffffffffffffff\n      and\n      0xffffffffffffffffffffffffffffffffffffffff\n      and\n      dup2\n      mstore\n      0x20\n      add\n      swap1\n      dup2\n      mstore\n      0x20\n      add\n      0x00\n      keccak256\n      0x00\n      swap1\n      sload\n      swap1\n      0x0100\n      exp\n      swap1\n      div\n      0xff\n      and\n        /* \"contract.sol\":5234:5265  !prop.votersAgainst[msg.sender] */\n      iszero\n        /* \"contract.sol\":5198:5265  !prop.votersInFavour[msg.sender] && !prop.votersAgainst[msg.sender] */\n    tag_164:\n        /* \"contract.sol\":5176:5315  require(... */\n      tag_165\n      jumpi\n      mload(0x40)\n      0x08c379a000000000000000000000000000000000000000000000000000000000\n      dup2\n      mstore\n      0x04\n      add\n      tag_166\n      swap1\n      tag_167\n      jump\t// in\n    tag_166:\n      mload(0x40)\n      dup1\n      swap2\n      sub\n      swap1\n      revert\n    tag_165:\n        /* \"contract.sol\":5361:5365  true */\n      0x01\n        /* \"contract.sol\":5328:5332  prop */\n      dup3\n        /* \"contract.sol\":5328:5346  prop.votersAgainst */\n      0x0a\n      add\n        /* \"contract.sol\":5328:5358  prop.votersAgainst[msg.sender] */\n      0x00\n        /* \"contract.sol\":5347:5357  msg.sender */\n      caller\n        /* \"contract.sol\":5328:5358  prop.votersAgainst[msg.sender] */\n      0xffffffffffffffffffffffffffffffffffffffff\n      and\n      0xffffffffffffffffffffffffffffffffffffffff\n      and\n      dup2\n      mstore\n      0x20\n      add\n      swap1\n      dup2\n      mstore\n      0x20\n      add\n      0x00\n      keccak256\n      0x00\n        /* \"contract.sol\":5328:5365  prop.votersAgainst[msg.sender] = true */\n      0x0100\n      exp\n      dup2\n      sload\n      dup2\n      0xff\n      mul\n      not\n      and\n      swap1\n      dup4\n      iszero\n      iszero\n      mul\n      or\n      swap1\n      sstore\n      pop\n        /* \"contract.sol\":5376:5380  prop */\n      dup2\n        /* \"contract.sol\":5376:5393  prop.votesAgainst */\n      0x06\n      add\n      0x00\n        /* \"contract.sol\":5376:5395  prop.votesAgainst++ */\n      dup2\n      sload\n      dup1\n      swap3\n      swap2\n      swap1\n      tag_168\n      swap1\n      tag_108\n      jump\t// in\n    tag_168:\n      swap2\n      swap1\n      pop\n      sstore\n      pop\n        /* \"contract.sol\":5432:5442  msg.sender */\n      caller\n        /* \"contract.sol\":5413:5450  Voted(_proposalId, msg.sender, false) */\n      0xffffffffffffffffffffffffffffffffffffffff\n      and\n        /* \"contract.sol\":5419:5430  _proposalId */\n      dup4\n        /* \"contract.sol\":5413:5450  Voted(_proposalId, msg.sender, false) */\n      0xf2913dbe661ee2acc4a046d8fbcdc792373bda34c41c6086484b5345e5785e5f\n        /* \"contract.sol\":5444:5449  false */\n      0x00\n        /* \"contract.sol\":5413:5450  Voted(_proposalId, msg.sender, false) */\n      mload(0x40)\n      tag_169\n      swap2\n      swap1\n      tag_170\n      jump\t// in\n    tag_169:\n      mload(0x40)\n      dup1\n      swap2\n      sub\n      swap1\n      log3\n        /* \"contract.sol\":4793:5458  {... */\n      pop\n      pop\n        /* \"contract.sol\":4744:5458  function voteAgainst(uint256 _proposalId) public {... */\n      pop\n      jump\t// out\n        /* \"contract.sol\":1032:1084  mapping(uint256 => uint256[]) public proposalIdInShg */\n    tag_60:\n      mstore(0x20, 0x04)\n      dup2\n      0x00\n      mstore\n      keccak256(0x00, 0x40)\n      dup2\n      dup2\n      sload\n      dup2\n      lt\n      tag_171\n      jumpi\n      0x00\n      dup1\n      revert\n    tag_171:\n      swap1\n      0x00\n      mstore\n      keccak256(0x00, 0x20)\n      add\n      0x00\n      swap2\n      pop\n      swap2\n      pop\n      pop\n      sload\n      dup2\n      jump\t// out\n        /* \"contract.sol\":929:970  mapping(uint256 => SHG) public shgDetails */\n    tag_65:\n      mstore(0x20, 0x02)\n      dup1\n      0x00\n      mstore\n      keccak256(0x00, 0x40)\n      0x00\n      swap2\n      pop\n      swap1\n      pop\n      dup1\n      0x00\n      add\n      0x00\n      swap1\n      sload\n      swap1\n      0x0100\n      exp\n      swap1\n      div\n      0xffffffffffffffffffffffffffffffffffffffff\n      and\n      swap1\n      dup1\n      0x01\n      add\n      dup1\n      sload\n      tag_173\n      swap1\n      tag_96\n      jump\t// in\n    tag_173:\n      dup1\n      0x1f\n      add\n      0x20\n      dup1\n      swap2\n      div\n      mul\n      0x20\n      add\n      mload(0x40)\n      swap1\n      dup2\n      add\n      0x40\n      mstore\n      dup1\n      swap3\n      swap2\n      swap1\n      dup2\n      dup2\n      mstore\n      0x20\n      add\n      dup3\n      dup1\n      sload\n      tag_174\n      swap1\n      tag_96\n      jump\t// in\n    tag_174:\n      dup1\n      iszero\n      tag_175\n      jumpi\n      dup1\n      0x1f\n      lt\n      tag_176\n      jumpi\n      0x0100\n      dup1\n      dup4\n      sload\n      div\n      mul\n      dup4\n      mstore\n      swap2\n      0x20\n      add\n      swap2\n      jump(tag_175)\n    tag_176:\n      dup3\n      add\n      swap2\n      swap1\n      0x00\n      mstore\n      keccak256(0x00, 0x20)\n      swap1\n    tag_177:\n      dup2\n      sload\n      dup2\n      mstore\n      swap1\n      0x01\n      add\n      swap1\n      0x20\n      add\n      dup1\n      dup4\n      gt\n      tag_177\n      jumpi\n      dup3\n      swap1\n      sub\n      0x1f\n      and\n      dup3\n      add\n      swap2\n    tag_175:\n      pop\n      pop\n      pop\n      pop\n      pop\n      swap1\n      dup1\n      0x02\n      add\n      dup1\n      sload\n      tag_178\n      swap1\n      tag_96\n      jump\t// in\n    tag_178:\n      dup1\n      0x1f\n      add\n      0x20\n      dup1\n      swap2\n      div\n      mul\n      0x20\n      add\n      mload(0x40)\n      swap1\n      dup2\n      add\n      0x40\n      mstore\n      dup1\n      swap3\n      swap2\n      swap1\n      dup2\n      dup2\n      mstore\n      0x20\n      add\n      dup3\n      dup1\n      sload\n      tag_179\n      swap1\n      tag_96\n      jump\t// in\n    tag_179:\n      dup1\n      iszero\n      tag_180\n      jumpi\n      dup1\n      0x1f\n      lt\n      tag_181\n      jumpi\n      0x0100\n      dup1\n      dup4\n      sload\n      div\n      mul\n      dup4\n      mstore\n      swap2\n      0x20\n      add\n      swap2\n      jump(tag_180)\n    tag_181:\n      dup3\n      add\n      swap2\n      swap1\n      0x00\n      mstore\n      keccak256(0x00, 0x20)\n      swap1\n    tag_182:\n      dup2\n      sload\n      dup2\n      mstore\n      swap1\n      0x01\n      add\n      swap1\n      0x20\n      add\n      dup1\n      dup4\n      gt\n      tag_182\n      jumpi\n      dup3\n      swap1\n      sub\n      0x1f\n      and\n      dup3\n      add\n      swap2\n    tag_180:\n      pop\n      pop\n      pop\n      pop\n      pop\n      swap1\n      dup1\n      0x03\n      add\n      sload\n      swap1\n      dup1\n      0x04\n      add\n      sload\n      swap1\n      dup1\n      0x06\n      add\n      sload\n      swap1\n      dup1\n      0x08\n      add\n      sload\n      swap1\n      pop\n      dup8\n      jump\t// out\n        /* \"contract.sol\":860:884  uint256 public shgId = 0 */\n    tag_70:\n      sload(0x00)\n      dup2\n      jump\t// out\n        /* \"contract.sol\":977:1025  mapping(address => uint256[]) public memberOfShg */\n    tag_76:\n      mstore(0x20, 0x03)\n      dup2\n      0x00\n      mstore\n      keccak256(0x00, 0x40)\n      dup2\n      dup2\n      sload\n      dup2\n      lt\n      tag_183\n      jumpi\n      0x00\n      dup1\n      revert\n    tag_183:\n      swap1\n      0x00\n      mstore\n      keccak256(0x00, 0x20)\n      add\n      0x00\n      swap2\n      pop\n      swap2\n      pop\n      pop\n      sload\n      dup2\n      jump\t// out\n        /* \"contract.sol\":2363:3201  function addFunds(uint256 _shgId) public payable {... */\n    tag_80:\n        /* \"contract.sol\":2423:2438  SHG storage shg */\n      0x00\n        /* \"contract.sol\":2441:2451  shgDetails */\n      0x02\n        /* \"contract.sol\":2441:2459  shgDetails[_shgId] */\n      0x00\n        /* \"contract.sol\":2452:2458  _shgId */\n      dup4\n        /* \"contract.sol\":2441:2459  shgDetails[_shgId] */\n      dup2\n      mstore\n      0x20\n      add\n      swap1\n      dup2\n      mstore\n      0x20\n      add\n      0x00\n      keccak256\n        /* \"contract.sol\":2423:2459  SHG storage shg = shgDetails[_shgId] */\n      swap1\n      pop\n        /* \"contract.sol\":2490:2491  0 */\n      0x00\n        /* \"contract.sol\":2478:2487  msg.value */\n      callvalue\n        /* \"contract.sol\":2478:2491  msg.value > 0 */\n      gt\n        /* \"contract.sol\":2470:2511  require(msg.value > 0, \"Must send funds\") */\n      tag_186\n      jumpi\n      mload(0x40)\n      0x08c379a000000000000000000000000000000000000000000000000000000000\n      dup2\n      mstore\n      0x04\n      add\n      tag_187\n      swap1\n      tag_188\n      jump\t// in\n    tag_187:\n      mload(0x40)\n      dup1\n      swap2\n      sub\n      swap1\n      revert\n    tag_186:\n        /* \"contract.sol\":2561:2562  0 */\n      0x00\n        /* \"contract.sol\":2528:2531  shg */\n      dup2\n        /* \"contract.sol\":2528:2545  shg.funderDetails */\n      0x05\n      add\n        /* \"contract.sol\":2528:2557  shg.funderDetails[msg.sender] */\n      0x00\n        /* \"contract.sol\":2546:2556  msg.sender */\n      caller\n        /* \"contract.sol\":2528:2557  shg.funderDetails[msg.sender] */\n      0xffffffffffffffffffffffffffffffffffffffff\n      and\n      0xffffffffffffffffffffffffffffffffffffffff\n      and\n      dup2\n      mstore\n      0x20\n      add\n      swap1\n      dup2\n      mstore\n      0x20\n      add\n      0x00\n      keccak256\n      sload\n        /* \"contract.sol\":2528:2562  shg.funderDetails[msg.sender] == 0 */\n      sub\n        /* \"contract.sol\":2524:3045  if (shg.funderDetails[msg.sender] == 0) {... */\n      tag_189\n      jumpi\n        /* \"contract.sol\":2579:2582  shg */\n      dup1\n        /* \"contract.sol\":2579:2590  shg.funders */\n      0x07\n      add\n        /* \"contract.sol\":2596:2606  msg.sender */\n      caller\n        /* \"contract.sol\":2579:2607  shg.funders.push(msg.sender) */\n      swap1\n      dup1\n      0x01\n      dup2\n      sload\n      add\n      dup1\n      dup3\n      sstore\n      dup1\n      swap2\n      pop\n      pop\n      0x01\n      swap1\n      sub\n      swap1\n      0x00\n      mstore\n      keccak256(0x00, 0x20)\n      add\n      0x00\n      swap1\n      swap2\n      swap1\n      swap2\n      swap1\n      swap2\n      0x0100\n      exp\n      dup2\n      sload\n      dup2\n      0xffffffffffffffffffffffffffffffffffffffff\n      mul\n      not\n      and\n      swap1\n      dup4\n      0xffffffffffffffffffffffffffffffffffffffff\n      and\n      mul\n      or\n      swap1\n      sstore\n      pop\n        /* \"contract.sol\":2622:2625  shg */\n      dup1\n        /* \"contract.sol\":2622:2641  shg.numberOfFunders */\n      0x06\n      add\n      0x00\n        /* \"contract.sol\":2622:2643  shg.numberOfFunders++ */\n      dup2\n      sload\n      dup1\n      swap3\n      swap2\n      swap1\n      tag_191\n      swap1\n      tag_108\n      jump\t// in\n    tag_191:\n      swap2\n      swap1\n      pop\n      sstore\n      pop\n        /* \"contract.sol\":2660:2678  bool alreadyMember */\n      0x00\n        /* \"contract.sol\":2706:2715  uint256 i */\n      dup1\n        /* \"contract.sol\":2701:2929  for (uint256 i = 0; i < memberOfShg[msg.sender].length; i++) {... */\n    tag_192:\n        /* \"contract.sol\":2725:2736  memberOfShg */\n      0x03\n        /* \"contract.sol\":2725:2748  memberOfShg[msg.sender] */\n      0x00\n        /* \"contract.sol\":2737:2747  msg.sender */\n      caller\n        /* \"contract.sol\":2725:2748  memberOfShg[msg.sender] */\n      0xffffffffffffffffffffffffffffffffffffffff\n      and\n      0xffffffffffffffffffffffffffffffffffffffff\n      and\n      dup2\n      mstore\n      0x20\n      add\n      swap1\n      dup2\n      mstore\n      0x20\n      add\n      0x00\n      keccak256\n        /* \"contract.sol\":2725:2755  memberOfShg[msg.sender].length */\n      dup1\n      sload\n      swap1\n      pop\n        /* \"contract.sol\":2721:2722  i */\n      dup2\n        /* \"contract.sol\":2721:2755  i < memberOfShg[msg.sender].length */\n      lt\n        /* \"contract.sol\":2701:2929  for (uint256 i = 0; i < memberOfShg[msg.sender].length; i++) {... */\n      iszero\n      tag_193\n      jumpi\n        /* \"contract.sol\":2815:2821  _shgId */\n      dup4\n        /* \"contract.sol\":2785:2796  memberOfShg */\n      0x03\n        /* \"contract.sol\":2785:2808  memberOfShg[msg.sender] */\n      0x00\n        /* \"contract.sol\":2797:2807  msg.sender */\n      caller\n        /* \"contract.sol\":2785:2808  memberOfShg[msg.sender] */\n      0xffffffffffffffffffffffffffffffffffffffff\n      and\n      0xffffffffffffffffffffffffffffffffffffffff\n      and\n      dup2\n      mstore\n      0x20\n      add\n      swap1\n      dup2\n      mstore\n      0x20\n      add\n      0x00\n      keccak256\n        /* \"contract.sol\":2809:2810  i */\n      dup3\n        /* \"contract.sol\":2785:2811  memberOfShg[msg.sender][i] */\n      dup2\n      sload\n      dup2\n      lt\n      tag_195\n      jumpi\n      tag_196\n      tag_197\n      jump\t// in\n    tag_196:\n    tag_195:\n      swap1\n      0x00\n      mstore\n      keccak256(0x00, 0x20)\n      add\n      sload\n        /* \"contract.sol\":2785:2821  memberOfShg[msg.sender][i] == _shgId */\n      sub\n        /* \"contract.sol\":2781:2914  if (memberOfShg[msg.sender][i] == _shgId) {... */\n      tag_199\n      jumpi\n        /* \"contract.sol\":2862:2866  true */\n      0x01\n        /* \"contract.sol\":2846:2866  alreadyMember = true */\n      swap2\n      pop\n        /* \"contract.sol\":2889:2894  break */\n      jump(tag_193)\n        /* \"contract.sol\":2781:2914  if (memberOfShg[msg.sender][i] == _shgId) {... */\n    tag_199:\n        /* \"contract.sol\":2757:2760  i++ */\n      dup1\n      dup1\n      0x01\n      add\n      swap2\n      pop\n      pop\n        /* \"contract.sol\":2701:2929  for (uint256 i = 0; i < memberOfShg[msg.sender].length; i++) {... */\n      jump(tag_192)\n    tag_193:\n      pop\n        /* \"contract.sol\":2948:2961  alreadyMember */\n      dup1\n        /* \"contract.sol\":2943:3034  if (!alreadyMember) {... */\n      tag_200\n      jumpi\n        /* \"contract.sol\":2982:2993  memberOfShg */\n      0x03\n        /* \"contract.sol\":2982:3005  memberOfShg[msg.sender] */\n      0x00\n        /* \"contract.sol\":2994:3004  msg.sender */\n      caller\n        /* \"contract.sol\":2982:3005  memberOfShg[msg.sender] */\n      0xffffffffffffffffffffffffffffffffffffffff\n      and\n      0xffffffffffffffffffffffffffffffffffffffff\n      and\n      dup2\n      mstore\n      0x20\n      add\n      swap1\n      dup2\n      mstore\n      0x20\n      add\n      0x00\n      keccak256\n        /* \"contract.sol\":3011:3017  _shgId */\n      dup4\n        /* \"contract.sol\":2982:3018  memberOfShg[msg.sender].push(_shgId) */\n      swap1\n      dup1\n      0x01\n      dup2\n      sload\n      add\n      dup1\n      dup3\n      sstore\n      dup1\n      swap2\n      pop\n      pop\n      0x01\n      swap1\n      sub\n      swap1\n      0x00\n      mstore\n      keccak256(0x00, 0x20)\n      add\n      0x00\n      swap1\n      swap2\n      swap1\n      swap2\n      swap1\n      swap2\n      pop\n      sstore\n        /* \"contract.sol\":2943:3034  if (!alreadyMember) {... */\n    tag_200:\n        /* \"contract.sol\":2564:3045  {... */\n      pop\n        /* \"contract.sol\":2524:3045  if (shg.funderDetails[msg.sender] == 0) {... */\n    tag_189:\n        /* \"contract.sol\":3090:3099  msg.value */\n      callvalue\n        /* \"contract.sol\":3057:3060  shg */\n      dup2\n        /* \"contract.sol\":3057:3074  shg.funderDetails */\n      0x05\n      add\n        /* \"contract.sol\":3057:3086  shg.funderDetails[msg.sender] */\n      0x00\n        /* \"contract.sol\":3075:3085  msg.sender */\n      caller\n        /* \"contract.sol\":3057:3086  shg.funderDetails[msg.sender] */\n      0xffffffffffffffffffffffffffffffffffffffff\n      and\n      0xffffffffffffffffffffffffffffffffffffffff\n      and\n      dup2\n      mstore\n      0x20\n      add\n      swap1\n      dup2\n      mstore\n      0x20\n      add\n      0x00\n      keccak256\n      0x00\n        /* \"contract.sol\":3057:3099  shg.funderDetails[msg.sender] += msg.value */\n      dup3\n      dup3\n      sload\n      tag_202\n      swap2\n      swap1\n      tag_119\n      jump\t// in\n    tag_202:\n      swap3\n      pop\n      pop\n      dup2\n      swap1\n      sstore\n      pop\n        /* \"contract.sol\":3125:3134  msg.value */\n      callvalue\n        /* \"contract.sol\":3110:3113  shg */\n      dup2\n        /* \"contract.sol\":3110:3121  shg.balance */\n      0x04\n      add\n      0x00\n        /* \"contract.sol\":3110:3134  shg.balance += msg.value */\n      dup3\n      dup3\n      sload\n      tag_203\n      swap2\n      swap1\n      tag_119\n      jump\t// in\n    tag_203:\n      swap3\n      pop\n      pop\n      dup2\n      swap1\n      sstore\n      pop\n        /* \"contract.sol\":3171:3181  msg.sender */\n      caller\n        /* \"contract.sol\":3152:3193  FundsAdded(_shgId, msg.sender, msg.value) */\n      0xffffffffffffffffffffffffffffffffffffffff\n      and\n        /* \"contract.sol\":3163:3169  _shgId */\n      dup3\n        /* \"contract.sol\":3152:3193  FundsAdded(_shgId, msg.sender, msg.value) */\n      0x71237963accfab6ceb4010b83f2ad8c635a475fea605b9a1be57cab17d5f9a65\n        /* \"contract.sol\":3183:3192  msg.value */\n      callvalue\n        /* \"contract.sol\":3152:3193  FundsAdded(_shgId, msg.sender, msg.value) */\n      mload(0x40)\n      tag_204\n      swap2\n      swap1\n      tag_36\n      jump\t// in\n    tag_204:\n      mload(0x40)\n      dup1\n      swap2\n      sub\n      swap1\n      log3\n        /* \"contract.sol\":2412:3201  {... */\n      pop\n        /* \"contract.sol\":2363:3201  function addFunds(uint256 _shgId) public payable {... */\n      pop\n      jump\t// out\n        /* \"contract.sol\":7017:7315  function getProposalVoterDetails(uint256 _proposalId, address _voter)... */\n    tag_84:\n        /* \"contract.sol\":7135:7148  bool inFavour */\n      0x00\n        /* \"contract.sol\":7150:7162  bool against */\n      dup1\n        /* \"contract.sol\":7180:7201  Proposal storage prop */\n      0x00\n        /* \"contract.sol\":7204:7219  proposalDetails */\n      0x05\n        /* \"contract.sol\":7204:7232  proposalDetails[_proposalId] */\n      0x00\n        /* \"contract.sol\":7220:7231  _proposalId */\n      dup7\n        /* \"contract.sol\":7204:7232  proposalDetails[_proposalId] */\n      dup2\n      mstore\n      0x20\n      add\n      swap1\n      dup2\n      mstore\n      0x20\n      add\n      0x00\n      keccak256\n        /* \"contract.sol\":7180:7232  Proposal storage prop = proposalDetails[_proposalId] */\n      swap1\n      pop\n        /* \"contract.sol\":7251:7255  prop */\n      dup1\n        /* \"contract.sol\":7251:7270  prop.votersInFavour */\n      0x09\n      add\n        /* \"contract.sol\":7251:7278  prop.votersInFavour[_voter] */\n      0x00\n        /* \"contract.sol\":7271:7277  _voter */\n      dup6\n        /* \"contract.sol\":7251:7278  prop.votersInFavour[_voter] */\n      0xffffffffffffffffffffffffffffffffffffffff\n      and\n      0xffffffffffffffffffffffffffffffffffffffff\n      and\n      dup2\n      mstore\n      0x20\n      add\n      swap1\n      dup2\n      mstore\n      0x20\n      add\n      0x00\n      keccak256\n      0x00\n      swap1\n      sload\n      swap1\n      0x0100\n      exp\n      swap1\n      div\n      0xff\n      and\n        /* \"contract.sol\":7280:7284  prop */\n      dup2\n        /* \"contract.sol\":7280:7298  prop.votersAgainst */\n      0x0a\n      add\n        /* \"contract.sol\":7280:7306  prop.votersAgainst[_voter] */\n      0x00\n        /* \"contract.sol\":7299:7305  _voter */\n      dup7\n        /* \"contract.sol\":7280:7306  prop.votersAgainst[_voter] */\n      0xffffffffffffffffffffffffffffffffffffffff\n      and\n      0xffffffffffffffffffffffffffffffffffffffff\n      and\n      dup2\n      mstore\n      0x20\n      add\n      swap1\n      dup2\n      mstore\n      0x20\n      add\n      0x00\n      keccak256\n      0x00\n      swap1\n      sload\n      swap1\n      0x0100\n      exp\n      swap1\n      div\n      0xff\n      and\n        /* \"contract.sol\":7243:7307  return (prop.votersInFavour[_voter], prop.votersAgainst[_voter]) */\n      swap3\n      pop\n      swap3\n      pop\n      pop\n        /* \"contract.sol\":7017:7315  function getProposalVoterDetails(uint256 _proposalId, address _voter)... */\n      swap3\n      pop\n      swap3\n      swap1\n      pop\n      jump\t// out\n        /* \"contract.sol\":4020:4736  function voteInFavour(uint256 _proposalId) public {... */\n    tag_90:\n        /* \"contract.sol\":4081:4102  Proposal storage prop */\n      0x00\n        /* \"contract.sol\":4105:4120  proposalDetails */\n      0x05\n        /* \"contract.sol\":4105:4133  proposalDetails[_proposalId] */\n      0x00\n        /* \"contract.sol\":4121:4132  _proposalId */\n      dup4\n        /* \"contract.sol\":4105:4133  proposalDetails[_proposalId] */\n      dup2\n      mstore\n      0x20\n      add\n      swap1\n      dup2\n      mstore\n      0x20\n      add\n      0x00\n      keccak256\n        /* \"contract.sol\":4081:4133  Proposal storage prop = proposalDetails[_proposalId] */\n      swap1\n      pop\n        /* \"contract.sol\":4144:4159  SHG storage shg */\n      0x00\n        /* \"contract.sol\":4162:4172  shgDetails */\n      0x02\n        /* \"contract.sol\":4162:4184  shgDetails[prop.shgId] */\n      0x00\n        /* \"contract.sol\":4173:4177  prop */\n      dup4\n        /* \"contract.sol\":4173:4183  prop.shgId */\n      0x00\n      add\n      sload\n        /* \"contract.sol\":4162:4184  shgDetails[prop.shgId] */\n      dup2\n      mstore\n      0x20\n      add\n      swap1\n      dup2\n      mstore\n      0x20\n      add\n      0x00\n      keccak256\n        /* \"contract.sol\":4144:4184  SHG storage shg = shgDetails[prop.shgId] */\n      swap1\n      pop\n        /* \"contract.sol\":4235:4236  0 */\n      0x00\n        /* \"contract.sol\":4203:4206  shg */\n      dup2\n        /* \"contract.sol\":4203:4220  shg.funderDetails */\n      0x05\n      add\n        /* \"contract.sol\":4203:4232  shg.funderDetails[msg.sender] */\n      0x00\n        /* \"contract.sol\":4221:4231  msg.sender */\n      caller\n        /* \"contract.sol\":4203:4232  shg.funderDetails[msg.sender] */\n      0xffffffffffffffffffffffffffffffffffffffff\n      and\n      0xffffffffffffffffffffffffffffffffffffffff\n      and\n      dup2\n      mstore\n      0x20\n      add\n      swap1\n      dup2\n      mstore\n      0x20\n      add\n      0x00\n      keccak256\n      sload\n        /* \"contract.sol\":4203:4236  shg.funderDetails[msg.sender] > 0 */\n      gt\n        /* \"contract.sol\":4195:4265  require(shg.funderDetails[msg.sender] > 0, \"Not a member of this SHG\") */\n      tag_207\n      jumpi\n      mload(0x40)\n      0x08c379a000000000000000000000000000000000000000000000000000000000\n      dup2\n      mstore\n      0x04\n      add\n      tag_208\n      swap1\n      tag_142\n      jump\t// in\n    tag_208:\n      mload(0x40)\n      dup1\n      swap2\n      sub\n      swap1\n      revert\n    tag_207:\n        /* \"contract.sol\":4325:4328  shg */\n      dup1\n        /* \"contract.sol\":4325:4343  shg.votingDuration */\n      0x08\n      add\n      sload\n        /* \"contract.sol\":4303:4307  prop */\n      dup3\n        /* \"contract.sol\":4303:4322  prop.timeOfProposal */\n      0x07\n      add\n      sload\n        /* \"contract.sol\":4303:4343  prop.timeOfProposal + shg.votingDuration */\n      tag_209\n      swap2\n      swap1\n      tag_119\n      jump\t// in\n    tag_209:\n        /* \"contract.sol\":4284:4299  block.timestamp */\n      timestamp\n        /* \"contract.sol\":4284:4343  block.timestamp <= prop.timeOfProposal + shg.votingDuration */\n      gt\n      iszero\n        /* \"contract.sol\":4276:4371  require(block.timestamp <= prop.timeOfProposal + shg.votingDuration, \"Voting period has ended\") */\n      tag_210\n      jumpi\n      mload(0x40)\n      0x08c379a000000000000000000000000000000000000000000000000000000000\n      dup2\n      mstore\n      0x04\n      add\n      tag_211\n      swap1\n      tag_160\n      jump\t// in\n    tag_211:\n      mload(0x40)\n      dup1\n      swap2\n      sub\n      swap1\n      revert\n    tag_210:\n        /* \"contract.sol\":4404:4408  prop */\n      dup2\n        /* \"contract.sol\":4404:4417  prop.proposer */\n      0x01\n      add\n      0x00\n      swap1\n      sload\n      swap1\n      0x0100\n      exp\n      swap1\n      div\n      0xffffffffffffffffffffffffffffffffffffffff\n      and\n        /* \"contract.sol\":4390:4417  msg.sender != prop.proposer */\n      0xffffffffffffffffffffffffffffffffffffffff\n      and\n        /* \"contract.sol\":4390:4400  msg.sender */\n      caller\n        /* \"contract.sol\":4390:4417  msg.sender != prop.proposer */\n      0xffffffffffffffffffffffffffffffffffffffff\n      and\n      sub\n        /* \"contract.sol\":4382:4442  require(msg.sender != prop.proposer, \"Proposer cannot vote\") */\n      tag_212\n      jumpi\n      mload(0x40)\n      0x08c379a000000000000000000000000000000000000000000000000000000000\n      dup2\n      mstore\n      0x04\n      add\n      tag_213\n      swap1\n      tag_163\n      jump\t// in\n    tag_213:\n      mload(0x40)\n      dup1\n      swap2\n      sub\n      swap1\n      revert\n    tag_212:\n        /* \"contract.sol\":4476:4480  prop */\n      dup2\n        /* \"contract.sol\":4476:4495  prop.votersInFavour */\n      0x09\n      add\n        /* \"contract.sol\":4476:4507  prop.votersInFavour[msg.sender] */\n      0x00\n        /* \"contract.sol\":4496:4506  msg.sender */\n      caller\n        /* \"contract.sol\":4476:4507  prop.votersInFavour[msg.sender] */\n      0xffffffffffffffffffffffffffffffffffffffff\n      and\n      0xffffffffffffffffffffffffffffffffffffffff\n      and\n      dup2\n      mstore\n      0x20\n      add\n      swap1\n      dup2\n      mstore\n      0x20\n      add\n      0x00\n      keccak256\n      0x00\n      swap1\n      sload\n      swap1\n      0x0100\n      exp\n      swap1\n      div\n      0xff\n      and\n        /* \"contract.sol\":4475:4507  !prop.votersInFavour[msg.sender] */\n      iszero\n        /* \"contract.sol\":4475:4542  !prop.votersInFavour[msg.sender] && !prop.votersAgainst[msg.sender] */\n      dup1\n      iszero\n      tag_214\n      jumpi\n      pop\n        /* \"contract.sol\":4512:4516  prop */\n      dup2\n        /* \"contract.sol\":4512:4530  prop.votersAgainst */\n      0x0a\n      add\n        /* \"contract.sol\":4512:4542  prop.votersAgainst[msg.sender] */\n      0x00\n        /* \"contract.sol\":4531:4541  msg.sender */\n      caller\n        /* \"contract.sol\":4512:4542  prop.votersAgainst[msg.sender] */\n      0xffffffffffffffffffffffffffffffffffffffff\n      and\n      0xffffffffffffffffffffffffffffffffffffffff\n      and\n      dup2\n      mstore\n      0x20\n      add\n      swap1\n      dup2\n      mstore\n      0x20\n      add\n      0x00\n      keccak256\n      0x00\n      swap1\n      sload\n      swap1\n      0x0100\n      exp\n      swap1\n      div\n      0xff\n      and\n        /* \"contract.sol\":4511:4542  !prop.votersAgainst[msg.sender] */\n      iszero\n        /* \"contract.sol\":4475:4542  !prop.votersInFavour[msg.sender] && !prop.votersAgainst[msg.sender] */\n    tag_214:\n        /* \"contract.sol\":4453:4592  require(... */\n      tag_215\n      jumpi\n      mload(0x40)\n      0x08c379a000000000000000000000000000000000000000000000000000000000\n      dup2\n      mstore\n      0x04\n      add\n      tag_216\n      swap1\n      tag_167\n      jump\t// in\n    tag_216:\n      mload(0x40)\n      dup1\n      swap2\n      sub\n      swap1\n      revert\n    tag_215:\n        /* \"contract.sol\":4639:4643  true */\n      0x01\n        /* \"contract.sol\":4605:4609  prop */\n      dup3\n        /* \"contract.sol\":4605:4624  prop.votersInFavour */\n      0x09\n      add\n        /* \"contract.sol\":4605:4636  prop.votersInFavour[msg.sender] */\n      0x00\n        /* \"contract.sol\":4625:4635  msg.sender */\n      caller\n        /* \"contract.sol\":4605:4636  prop.votersInFavour[msg.sender] */\n      0xffffffffffffffffffffffffffffffffffffffff\n      and\n      0xffffffffffffffffffffffffffffffffffffffff\n      and\n      dup2\n      mstore\n      0x20\n      add\n      swap1\n      dup2\n      mstore\n      0x20\n      add\n      0x00\n      keccak256\n      0x00\n        /* \"contract.sol\":4605:4643  prop.votersInFavour[msg.sender] = true */\n      0x0100\n      exp\n      dup2\n      sload\n      dup2\n      0xff\n      mul\n      not\n      and\n      swap1\n      dup4\n      iszero\n      iszero\n      mul\n      or\n      swap1\n      sstore\n      pop\n        /* \"contract.sol\":4654:4658  prop */\n      dup2\n        /* \"contract.sol\":4654:4672  prop.votesInFavour */\n      0x05\n      add\n      0x00\n        /* \"contract.sol\":4654:4674  prop.votesInFavour++ */\n      dup2\n      sload\n      dup1\n      swap3\n      swap2\n      swap1\n      tag_217\n      swap1\n      tag_108\n      jump\t// in\n    tag_217:\n      swap2\n      swap1\n      pop\n      sstore\n      pop\n        /* \"contract.sol\":4711:4721  msg.sender */\n      caller\n        /* \"contract.sol\":4692:4728  Voted(_proposalId, msg.sender, true) */\n      0xffffffffffffffffffffffffffffffffffffffff\n      and\n        /* \"contract.sol\":4698:4709  _proposalId */\n      dup4\n        /* \"contract.sol\":4692:4728  Voted(_proposalId, msg.sender, true) */\n      0xf2913dbe661ee2acc4a046d8fbcdc792373bda34c41c6086484b5345e5785e5f\n        /* \"contract.sol\":4723:4727  true */\n      0x01\n        /* \"contract.sol\":4692:4728  Voted(_proposalId, msg.sender, true) */\n      mload(0x40)\n      tag_218\n      swap2\n      swap1\n      tag_170\n      jump\t// in\n    tag_218:\n      mload(0x40)\n      dup1\n      swap2\n      sub\n      swap1\n      log3\n        /* \"contract.sol\":4070:4736  {... */\n      pop\n      pop\n        /* \"contract.sol\":4020:4736  function voteInFavour(uint256 _proposalId) public {... */\n      pop\n      jump\t// out\n        /* \"contract.sol\":6094:6845  function claimFund(uint256 _shgId, uint256 _proposalId) public {... */\n    tag_94:\n        /* \"contract.sol\":6168:6189  Proposal storage prop */\n      0x00\n        /* \"contract.sol\":6192:6207  proposalDetails */\n      0x05\n        /* \"contract.sol\":6192:6220  proposalDetails[_proposalId] */\n      0x00\n        /* \"contract.sol\":6208:6219  _proposalId */\n      dup4\n        /* \"contract.sol\":6192:6220  proposalDetails[_proposalId] */\n      dup2\n      mstore\n      0x20\n      add\n      swap1\n      dup2\n      mstore\n      0x20\n      add\n      0x00\n      keccak256\n        /* \"contract.sol\":6168:6220  Proposal storage prop = proposalDetails[_proposalId] */\n      swap1\n      pop\n        /* \"contract.sol\":6231:6246  SHG storage shg */\n      0x00\n        /* \"contract.sol\":6249:6259  shgDetails */\n      0x02\n        /* \"contract.sol\":6249:6267  shgDetails[_shgId] */\n      0x00\n        /* \"contract.sol\":6260:6266  _shgId */\n      dup6\n        /* \"contract.sol\":6249:6267  shgDetails[_shgId] */\n      dup2\n      mstore\n      0x20\n      add\n      swap1\n      dup2\n      mstore\n      0x20\n      add\n      0x00\n      keccak256\n        /* \"contract.sol\":6231:6267  SHG storage shg = shgDetails[_shgId] */\n      swap1\n      pop\n        /* \"contract.sol\":6302:6306  prop */\n      dup2\n        /* \"contract.sol\":6302:6315  prop.proposer */\n      0x01\n      add\n      0x00\n      swap1\n      sload\n      swap1\n      0x0100\n      exp\n      swap1\n      div\n      0xffffffffffffffffffffffffffffffffffffffff\n      and\n        /* \"contract.sol\":6288:6315  msg.sender == prop.proposer */\n      0xffffffffffffffffffffffffffffffffffffffff\n      and\n        /* \"contract.sol\":6288:6298  msg.sender */\n      caller\n        /* \"contract.sol\":6288:6315  msg.sender == prop.proposer */\n      0xffffffffffffffffffffffffffffffffffffffff\n      and\n      eq\n        /* \"contract.sol\":6280:6349  require(msg.sender == prop.proposer, \"Only proposer can claim funds\") */\n      tag_220\n      jumpi\n      mload(0x40)\n      0x08c379a000000000000000000000000000000000000000000000000000000000\n      dup2\n      mstore\n      0x04\n      add\n      tag_221\n      swap1\n      tag_222\n      jump\t// in\n    tag_221:\n      mload(0x40)\n      dup1\n      swap2\n      sub\n      swap1\n      revert\n    tag_220:\n        /* \"contract.sol\":6383:6406  ProposalStatus.Approved */\n      0x01\n        /* \"contract.sol\":6368:6406  prop.status == ProposalStatus.Approved */\n      0x02\n      dup2\n      gt\n      iszero\n      tag_223\n      jumpi\n      tag_224\n      tag_125\n      jump\t// in\n    tag_224:\n    tag_223:\n        /* \"contract.sol\":6368:6372  prop */\n      dup3\n        /* \"contract.sol\":6368:6379  prop.status */\n      0x08\n      add\n      0x00\n      swap1\n      sload\n      swap1\n      0x0100\n      exp\n      swap1\n      div\n      0xff\n      and\n        /* \"contract.sol\":6368:6406  prop.status == ProposalStatus.Approved */\n      0x02\n      dup2\n      gt\n      iszero\n      tag_225\n      jumpi\n      tag_226\n      tag_125\n      jump\t// in\n    tag_226:\n    tag_225:\n      eq\n        /* \"contract.sol\":6360:6432  require(prop.status == ProposalStatus.Approved, \"Proposal not approved\") */\n      tag_227\n      jumpi\n      mload(0x40)\n      0x08c379a000000000000000000000000000000000000000000000000000000000\n      dup2\n      mstore\n      0x04\n      add\n      tag_228\n      swap1\n      tag_229\n      jump\t// in\n    tag_228:\n      mload(0x40)\n      dup1\n      swap2\n      sub\n      swap1\n      revert\n    tag_227:\n        /* \"contract.sol\":6466:6469  shg */\n      dup1\n        /* \"contract.sol\":6466:6477  shg.balance */\n      0x04\n      add\n      sload\n        /* \"contract.sol\":6451:6455  prop */\n      dup3\n        /* \"contract.sol\":6451:6462  prop.amount */\n      0x04\n      add\n      sload\n        /* \"contract.sol\":6451:6477  prop.amount <= shg.balance */\n      gt\n      iszero\n        /* \"contract.sol\":6443:6506  require(prop.amount <= shg.balance, \"Insufficient SHG balance\") */\n      tag_230\n      jumpi\n      mload(0x40)\n      0x08c379a000000000000000000000000000000000000000000000000000000000\n      dup2\n      mstore\n      0x04\n      add\n      tag_231\n      swap1\n      tag_146\n      jump\t// in\n    tag_231:\n      mload(0x40)\n      dup1\n      swap2\n      sub\n      swap1\n      revert\n    tag_230:\n        /* \"contract.sol\":6519:6543  uint256 amountToTransfer */\n      0x00\n        /* \"contract.sol\":6546:6550  prop */\n      dup3\n        /* \"contract.sol\":6546:6557  prop.amount */\n      0x04\n      add\n      sload\n        /* \"contract.sol\":6519:6557  uint256 amountToTransfer = prop.amount */\n      swap1\n      pop\n        /* \"contract.sol\":6582:6583  0 */\n      0x00\n        /* \"contract.sol\":6568:6572  prop */\n      dup4\n        /* \"contract.sol\":6568:6579  prop.amount */\n      0x04\n      add\n        /* \"contract.sol\":6568:6583  prop.amount = 0 */\n      dup2\n      swap1\n      sstore\n      pop\n        /* \"contract.sol\":6609:6625  amountToTransfer */\n      dup1\n        /* \"contract.sol\":6594:6597  shg */\n      dup3\n        /* \"contract.sol\":6594:6605  shg.balance */\n      0x04\n      add\n      0x00\n        /* \"contract.sol\":6594:6625  shg.balance -= amountToTransfer */\n      dup3\n      dup3\n      sload\n      tag_232\n      swap2\n      swap1\n      tag_233\n      jump\t// in\n    tag_232:\n      swap3\n      pop\n      pop\n      dup2\n      swap1\n      sstore\n      pop\n        /* \"contract.sol\":6639:6651  bool success */\n      0x00\n        /* \"contract.sol\":6665:6675  msg.sender */\n      caller\n        /* \"contract.sol\":6657:6681  payable(msg.sender).call */\n      0xffffffffffffffffffffffffffffffffffffffff\n      and\n        /* \"contract.sol\":6689:6705  amountToTransfer */\n      dup3\n        /* \"contract.sol\":6657:6710  payable(msg.sender).call{value: amountToTransfer}(\"\") */\n      mload(0x40)\n      tag_234\n      swap1\n      tag_235\n      jump\t// in\n    tag_234:\n      0x00\n      mload(0x40)\n      dup1\n      dup4\n      sub\n      dup2\n      dup6\n      dup8\n      gas\n      call\n      swap3\n      pop\n      pop\n      pop\n      returndatasize\n      dup1\n      0x00\n      dup2\n      eq\n      tag_238\n      jumpi\n      mload(0x40)\n      swap2\n      pop\n      and(add(returndatasize, 0x3f), not(0x1f))\n      dup3\n      add\n      0x40\n      mstore\n      returndatasize\n      dup3\n      mstore\n      returndatasize\n      0x00\n      0x20\n      dup5\n      add\n      returndatacopy\n      jump(tag_237)\n    tag_238:\n      0x60\n      swap2\n      pop\n    tag_237:\n      pop\n        /* \"contract.sol\":6638:6710  (bool success, ) = payable(msg.sender).call{value: amountToTransfer}(\"\") */\n      pop\n      swap1\n      pop\n        /* \"contract.sol\":6729:6736  success */\n      dup1\n        /* \"contract.sol\":6721:6756  require(success, \"Transfer failed\") */\n      tag_239\n      jumpi\n      mload(0x40)\n      0x08c379a000000000000000000000000000000000000000000000000000000000\n      dup2\n      mstore\n      0x04\n      add\n      tag_240\n      swap1\n      tag_241\n      jump\t// in\n    tag_240:\n      mload(0x40)\n      dup1\n      swap2\n      sub\n      swap1\n      revert\n    tag_239:\n        /* \"contract.sol\":6808:6818  msg.sender */\n      caller\n        /* \"contract.sol\":6774:6837  FundsClaimed(_shgId, _proposalId, msg.sender, amountToTransfer) */\n      0xffffffffffffffffffffffffffffffffffffffff\n      and\n        /* \"contract.sol\":6795:6806  _proposalId */\n      dup6\n        /* \"contract.sol\":6787:6793  _shgId */\n      dup8\n        /* \"contract.sol\":6774:6837  FundsClaimed(_shgId, _proposalId, msg.sender, amountToTransfer) */\n      0x3f53f5f381ee0b1fbf730fa56efb0a2aec8a882b2847a1ec0279982d8846e4f2\n        /* \"contract.sol\":6820:6836  amountToTransfer */\n      dup6\n        /* \"contract.sol\":6774:6837  FundsClaimed(_shgId, _proposalId, msg.sender, amountToTransfer) */\n      mload(0x40)\n      tag_242\n      swap2\n      swap1\n      tag_36\n      jump\t// in\n    tag_242:\n      mload(0x40)\n      dup1\n      swap2\n      sub\n      swap1\n      log4\n        /* \"contract.sol\":6157:6845  {... */\n      pop\n      pop\n      pop\n      pop\n        /* \"contract.sol\":6094:6845  function claimFund(uint256 _shgId, uint256 _proposalId) public {... */\n      pop\n      pop\n      jump\t// out\n        /* \"#utility.yul\":7:82   */\n    tag_243:\n        /* \"#utility.yul\":40:46   */\n      0x00\n        /* \"#utility.yul\":73:75   */\n      0x40\n        /* \"#utility.yul\":67:76   */\n      mload\n        /* \"#utility.yul\":57:76   */\n      swap1\n      pop\n        /* \"#utility.yul\":7:82   */\n      swap1\n      jump\t// out\n        /* \"#utility.yul\":88:205   */\n    tag_244:\n        /* \"#utility.yul\":197:198   */\n      0x00\n        /* \"#utility.yul\":194:195   */\n      dup1\n        /* \"#utility.yul\":187:199   */\n      revert\n        /* \"#utility.yul\":211:328   */\n    tag_245:\n        /* \"#utility.yul\":320:321   */\n      0x00\n        /* \"#utility.yul\":317:318   */\n      dup1\n        /* \"#utility.yul\":310:322   */\n      revert\n        /* \"#utility.yul\":334:411   */\n    tag_246:\n        /* \"#utility.yul\":371:378   */\n      0x00\n        /* \"#utility.yul\":400:405   */\n      dup2\n        /* \"#utility.yul\":389:405   */\n      swap1\n      pop\n        /* \"#utility.yul\":334:411   */\n      swap2\n      swap1\n      pop\n      jump\t// out\n        /* \"#utility.yul\":417:539   */\n    tag_247:\n        /* \"#utility.yul\":490:514   */\n      tag_323\n        /* \"#utility.yul\":508:513   */\n      dup2\n        /* \"#utility.yul\":490:514   */\n      tag_246\n      jump\t// in\n    tag_323:\n        /* \"#utility.yul\":483:488   */\n      dup2\n        /* \"#utility.yul\":480:515   */\n      eq\n        /* \"#utility.yul\":470:533   */\n      tag_324\n      jumpi\n        /* \"#utility.yul\":529:530   */\n      0x00\n        /* \"#utility.yul\":526:527   */\n      dup1\n        /* \"#utility.yul\":519:531   */\n      revert\n        /* \"#utility.yul\":470:533   */\n    tag_324:\n        /* \"#utility.yul\":417:539   */\n      pop\n      jump\t// out\n        /* \"#utility.yul\":545:684   */\n    tag_248:\n        /* \"#utility.yul\":591:596   */\n      0x00\n        /* \"#utility.yul\":629:635   */\n      dup2\n        /* \"#utility.yul\":616:636   */\n      calldataload\n        /* \"#utility.yul\":607:636   */\n      swap1\n      pop\n        /* \"#utility.yul\":645:678   */\n      tag_326\n        /* \"#utility.yul\":672:677   */\n      dup2\n        /* \"#utility.yul\":645:678   */\n      tag_247\n      jump\t// in\n    tag_326:\n        /* \"#utility.yul\":545:684   */\n      swap3\n      swap2\n      pop\n      pop\n      jump\t// out\n        /* \"#utility.yul\":690:1019   */\n    tag_23:\n        /* \"#utility.yul\":749:755   */\n      0x00\n        /* \"#utility.yul\":798:800   */\n      0x20\n        /* \"#utility.yul\":786:795   */\n      dup3\n        /* \"#utility.yul\":777:784   */\n      dup5\n        /* \"#utility.yul\":773:796   */\n      sub\n        /* \"#utility.yul\":769:801   */\n      slt\n        /* \"#utility.yul\":766:885   */\n      iszero\n      tag_328\n      jumpi\n        /* \"#utility.yul\":804:883   */\n      tag_329\n      tag_244\n      jump\t// in\n    tag_329:\n        /* \"#utility.yul\":766:885   */\n    tag_328:\n        /* \"#utility.yul\":924:925   */\n      0x00\n        /* \"#utility.yul\":949:1002   */\n      tag_330\n        /* \"#utility.yul\":994:1001   */\n      dup5\n        /* \"#utility.yul\":985:991   */\n      dup3\n        /* \"#utility.yul\":974:983   */\n      dup6\n        /* \"#utility.yul\":970:992   */\n      add\n        /* \"#utility.yul\":949:1002   */\n      tag_248\n      jump\t// in\n    tag_330:\n        /* \"#utility.yul\":939:1002   */\n      swap2\n      pop\n        /* \"#utility.yul\":895:1012   */\n      pop\n        /* \"#utility.yul\":690:1019   */\n      swap3\n      swap2\n      pop\n      pop\n      jump\t// out\n        /* \"#utility.yul\":1025:1143   */\n    tag_249:\n        /* \"#utility.yul\":1112:1136   */\n      tag_332\n        /* \"#utility.yul\":1130:1135   */\n      dup2\n        /* \"#utility.yul\":1112:1136   */\n      tag_246\n      jump\t// in\n    tag_332:\n        /* \"#utility.yul\":1107:1110   */\n      dup3\n        /* \"#utility.yul\":1100:1137   */\n      mstore\n        /* \"#utility.yul\":1025:1143   */\n      pop\n      pop\n      jump\t// out\n        /* \"#utility.yul\":1149:1275   */\n    tag_250:\n        /* \"#utility.yul\":1186:1193   */\n      0x00\n        /* \"#utility.yul\":1226:1268   */\n      0xffffffffffffffffffffffffffffffffffffffff\n        /* \"#utility.yul\":1219:1224   */\n      dup3\n        /* \"#utility.yul\":1215:1269   */\n      and\n        /* \"#utility.yul\":1204:1269   */\n      swap1\n      pop\n        /* \"#utility.yul\":1149:1275   */\n      swap2\n      swap1\n      pop\n      jump\t// out\n        /* \"#utility.yul\":1281:1377   */\n    tag_251:\n        /* \"#utility.yul\":1318:1325   */\n      0x00\n        /* \"#utility.yul\":1347:1371   */\n      tag_335\n        /* \"#utility.yul\":1365:1370   */\n      dup3\n        /* \"#utility.yul\":1347:1371   */\n      tag_250\n      jump\t// in\n    tag_335:\n        /* \"#utility.yul\":1336:1371   */\n      swap1\n      pop\n        /* \"#utility.yul\":1281:1377   */\n      swap2\n      swap1\n      pop\n      jump\t// out\n        /* \"#utility.yul\":1383:1501   */\n    tag_252:\n        /* \"#utility.yul\":1470:1494   */\n      tag_337\n        /* \"#utility.yul\":1488:1493   */\n      dup2\n        /* \"#utility.yul\":1470:1494   */\n      tag_251\n      jump\t// in\n    tag_337:\n        /* \"#utility.yul\":1465:1468   */\n      dup3\n        /* \"#utility.yul\":1458:1495   */\n      mstore\n        /* \"#utility.yul\":1383:1501   */\n      pop\n      pop\n      jump\t// out\n        /* \"#utility.yul\":1507:1606   */\n    tag_253:\n        /* \"#utility.yul\":1559:1565   */\n      0x00\n        /* \"#utility.yul\":1593:1598   */\n      dup2\n        /* \"#utility.yul\":1587:1599   */\n      mload\n        /* \"#utility.yul\":1577:1599   */\n      swap1\n      pop\n        /* \"#utility.yul\":1507:1606   */\n      swap2\n      swap1\n      pop\n      jump\t// out\n        /* \"#utility.yul\":1612:1781   */\n    tag_254:\n        /* \"#utility.yul\":1696:1707   */\n      0x00\n        /* \"#utility.yul\":1730:1736   */\n      dup3\n        /* \"#utility.yul\":1725:1728   */\n      dup3\n        /* \"#utility.yul\":1718:1737   */\n      mstore\n        /* \"#utility.yul\":1770:1774   */\n      0x20\n        /* \"#utility.yul\":1765:1768   */\n      dup3\n        /* \"#utility.yul\":1761:1775   */\n      add\n        /* \"#utility.yul\":1746:1775   */\n      swap1\n      pop\n        /* \"#utility.yul\":1612:1781   */\n      swap3\n      swap2\n      pop\n      pop\n      jump\t// out\n        /* \"#utility.yul\":1787:1926   */\n    tag_255:\n        /* \"#utility.yul\":1876:1882   */\n      dup3\n        /* \"#utility.yul\":1871:1874   */\n      dup2\n        /* \"#utility.yul\":1866:1869   */\n      dup4\n        /* \"#utility.yul\":1860:1883   */\n      mcopy\n        /* \"#utility.yul\":1917:1918   */\n      0x00\n        /* \"#utility.yul\":1908:1914   */\n      dup4\n        /* \"#utility.yul\":1903:1906   */\n      dup4\n        /* \"#utility.yul\":1899:1915   */\n      add\n        /* \"#utility.yul\":1892:1919   */\n      mstore\n        /* \"#utility.yul\":1787:1926   */\n      pop\n      pop\n      pop\n      jump\t// out\n        /* \"#utility.yul\":1932:2034   */\n    tag_256:\n        /* \"#utility.yul\":1973:1979   */\n      0x00\n        /* \"#utility.yul\":2024:2026   */\n      0x1f\n        /* \"#utility.yul\":2020:2027   */\n      not\n        /* \"#utility.yul\":2015:2017   */\n      0x1f\n        /* \"#utility.yul\":2008:2013   */\n      dup4\n        /* \"#utility.yul\":2004:2018   */\n      add\n        /* \"#utility.yul\":2000:2028   */\n      and\n        /* \"#utility.yul\":1990:2028   */\n      swap1\n      pop\n        /* \"#utility.yul\":1932:2034   */\n      swap2\n      swap1\n      pop\n      jump\t// out\n        /* \"#utility.yul\":2040:2417   */\n    tag_257:\n        /* \"#utility.yul\":2128:2131   */\n      0x00\n        /* \"#utility.yul\":2156:2195   */\n      tag_343\n        /* \"#utility.yul\":2189:2194   */\n      dup3\n        /* \"#utility.yul\":2156:2195   */\n      tag_253\n      jump\t// in\n    tag_343:\n        /* \"#utility.yul\":2211:2282   */\n      tag_344\n        /* \"#utility.yul\":2275:2281   */\n      dup2\n        /* \"#utility.yul\":2270:2273   */\n      dup6\n        /* \"#utility.yul\":2211:2282   */\n      tag_254\n      jump\t// in\n    tag_344:\n        /* \"#utility.yul\":2204:2282   */\n      swap4\n      pop\n        /* \"#utility.yul\":2291:2356   */\n      tag_345\n        /* \"#utility.yul\":2349:2355   */\n      dup2\n        /* \"#utility.yul\":2344:2347   */\n      dup6\n        /* \"#utility.yul\":2337:2341   */\n      0x20\n        /* \"#utility.yul\":2330:2335   */\n      dup7\n        /* \"#utility.yul\":2326:2342   */\n      add\n        /* \"#utility.yul\":2291:2356   */\n      tag_255\n      jump\t// in\n    tag_345:\n        /* \"#utility.yul\":2381:2410   */\n      tag_346\n        /* \"#utility.yul\":2403:2409   */\n      dup2\n        /* \"#utility.yul\":2381:2410   */\n      tag_256\n      jump\t// in\n    tag_346:\n        /* \"#utility.yul\":2376:2379   */\n      dup5\n        /* \"#utility.yul\":2372:2411   */\n      add\n        /* \"#utility.yul\":2365:2411   */\n      swap2\n      pop\n        /* \"#utility.yul\":2132:2417   */\n      pop\n        /* \"#utility.yul\":2040:2417   */\n      swap3\n      swap2\n      pop\n      pop\n      jump\t// out\n        /* \"#utility.yul\":2423:2603   */\n    tag_125:\n        /* \"#utility.yul\":2471:2548   */\n      0x4e487b7100000000000000000000000000000000000000000000000000000000\n        /* \"#utility.yul\":2468:2469   */\n      0x00\n        /* \"#utility.yul\":2461:2549   */\n      mstore\n        /* \"#utility.yul\":2568:2572   */\n      0x21\n        /* \"#utility.yul\":2565:2566   */\n      0x04\n        /* \"#utility.yul\":2558:2573   */\n      mstore\n        /* \"#utility.yul\":2592:2596   */\n      0x24\n        /* \"#utility.yul\":2589:2590   */\n      0x00\n        /* \"#utility.yul\":2582:2597   */\n      revert\n        /* \"#utility.yul\":2609:2731   */\n    tag_258:\n        /* \"#utility.yul\":2699:2700   */\n      0x03\n        /* \"#utility.yul\":2692:2697   */\n      dup2\n        /* \"#utility.yul\":2689:2701   */\n      lt\n        /* \"#utility.yul\":2679:2725   */\n      tag_349\n      jumpi\n        /* \"#utility.yul\":2705:2723   */\n      tag_350\n      tag_125\n      jump\t// in\n    tag_350:\n        /* \"#utility.yul\":2679:2725   */\n    tag_349:\n        /* \"#utility.yul\":2609:2731   */\n      pop\n      jump\t// out\n        /* \"#utility.yul\":2737:2882   */\n    tag_259:\n        /* \"#utility.yul\":2791:2798   */\n      0x00\n        /* \"#utility.yul\":2820:2825   */\n      dup2\n        /* \"#utility.yul\":2809:2825   */\n      swap1\n      pop\n        /* \"#utility.yul\":2826:2876   */\n      tag_352\n        /* \"#utility.yul\":2870:2875   */\n      dup3\n        /* \"#utility.yul\":2826:2876   */\n      tag_258\n      jump\t// in\n    tag_352:\n        /* \"#utility.yul\":2737:2882   */\n      swap2\n      swap1\n      pop\n      jump\t// out\n        /* \"#utility.yul\":2888:3033   */\n    tag_260:\n        /* \"#utility.yul\":2953:2962   */\n      0x00\n        /* \"#utility.yul\":2986:3027   */\n      tag_354\n        /* \"#utility.yul\":3021:3026   */\n      dup3\n        /* \"#utility.yul\":2986:3027   */\n      tag_259\n      jump\t// in\n    tag_354:\n        /* \"#utility.yul\":2973:3027   */\n      swap1\n      pop\n        /* \"#utility.yul\":2888:3033   */\n      swap2\n      swap1\n      pop\n      jump\t// out\n        /* \"#utility.yul\":3039:3200   */\n    tag_261:\n        /* \"#utility.yul\":3141:3193   */\n      tag_356\n        /* \"#utility.yul\":3187:3192   */\n      dup2\n        /* \"#utility.yul\":3141:3193   */\n      tag_260\n      jump\t// in\n    tag_356:\n        /* \"#utility.yul\":3136:3139   */\n      dup3\n        /* \"#utility.yul\":3129:3194   */\n      mstore\n        /* \"#utility.yul\":3039:3200   */\n      pop\n      pop\n      jump\t// out\n        /* \"#utility.yul\":3206:4526   */\n    tag_26:\n        /* \"#utility.yul\":3578:3582   */\n      0x00\n        /* \"#utility.yul\":3616:3619   */\n      0x0120\n        /* \"#utility.yul\":3605:3614   */\n      dup3\n        /* \"#utility.yul\":3601:3620   */\n      add\n        /* \"#utility.yul\":3593:3620   */\n      swap1\n      pop\n        /* \"#utility.yul\":3630:3701   */\n      tag_358\n        /* \"#utility.yul\":3698:3699   */\n      0x00\n        /* \"#utility.yul\":3687:3696   */\n      dup4\n        /* \"#utility.yul\":3683:3700   */\n      add\n        /* \"#utility.yul\":3674:3680   */\n      dup13\n        /* \"#utility.yul\":3630:3701   */\n      tag_249\n      jump\t// in\n    tag_358:\n        /* \"#utility.yul\":3711:3783   */\n      tag_359\n        /* \"#utility.yul\":3779:3781   */\n      0x20\n        /* \"#utility.yul\":3768:3777   */\n      dup4\n        /* \"#utility.yul\":3764:3782   */\n      add\n        /* \"#utility.yul\":3755:3761   */\n      dup12\n        /* \"#utility.yul\":3711:3783   */\n      tag_252\n      jump\t// in\n    tag_359:\n        /* \"#utility.yul\":3830:3839   */\n      dup2\n        /* \"#utility.yul\":3824:3828   */\n      dup2\n        /* \"#utility.yul\":3820:3840   */\n      sub\n        /* \"#utility.yul\":3815:3817   */\n      0x40\n        /* \"#utility.yul\":3804:3813   */\n      dup4\n        /* \"#utility.yul\":3800:3818   */\n      add\n        /* \"#utility.yul\":3793:3841   */\n      mstore\n        /* \"#utility.yul\":3858:3936   */\n      tag_360\n        /* \"#utility.yul\":3931:3935   */\n      dup2\n        /* \"#utility.yul\":3922:3928   */\n      dup11\n        /* \"#utility.yul\":3858:3936   */\n      tag_257\n      jump\t// in\n    tag_360:\n        /* \"#utility.yul\":3850:3936   */\n      swap1\n      pop\n        /* \"#utility.yul\":3983:3992   */\n      dup2\n        /* \"#utility.yul\":3977:3981   */\n      dup2\n        /* \"#utility.yul\":3973:3993   */\n      sub\n        /* \"#utility.yul\":3968:3970   */\n      0x60\n        /* \"#utility.yul\":3957:3966   */\n      dup4\n        /* \"#utility.yul\":3953:3971   */\n      add\n        /* \"#utility.yul\":3946:3994   */\n      mstore\n        /* \"#utility.yul\":4011:4089   */\n      tag_361\n        /* \"#utility.yul\":4084:4088   */\n      dup2\n        /* \"#utility.yul\":4075:4081   */\n      dup10\n        /* \"#utility.yul\":4011:4089   */\n      tag_257\n      jump\t// in\n    tag_361:\n        /* \"#utility.yul\":4003:4089   */\n      swap1\n      pop\n        /* \"#utility.yul\":4099:4172   */\n      tag_362\n        /* \"#utility.yul\":4167:4170   */\n      0x80\n        /* \"#utility.yul\":4156:4165   */\n      dup4\n        /* \"#utility.yul\":4152:4171   */\n      add\n        /* \"#utility.yul\":4143:4149   */\n      dup9\n        /* \"#utility.yul\":4099:4172   */\n      tag_249\n      jump\t// in\n    tag_362:\n        /* \"#utility.yul\":4182:4255   */\n      tag_363\n        /* \"#utility.yul\":4250:4253   */\n      0xa0\n        /* \"#utility.yul\":4239:4248   */\n      dup4\n        /* \"#utility.yul\":4235:4254   */\n      add\n        /* \"#utility.yul\":4226:4232   */\n      dup8\n        /* \"#utility.yul\":4182:4255   */\n      tag_249\n      jump\t// in\n    tag_363:\n        /* \"#utility.yul\":4265:4338   */\n      tag_364\n        /* \"#utility.yul\":4333:4336   */\n      0xc0\n        /* \"#utility.yul\":4322:4331   */\n      dup4\n        /* \"#utility.yul\":4318:4337   */\n      add\n        /* \"#utility.yul\":4309:4315   */\n      dup7\n        /* \"#utility.yul\":4265:4338   */\n      tag_249\n      jump\t// in\n    tag_364:\n        /* \"#utility.yul\":4348:4421   */\n      tag_365\n        /* \"#utility.yul\":4416:4419   */\n      0xe0\n        /* \"#utility.yul\":4405:4414   */\n      dup4\n        /* \"#utility.yul\":4401:4420   */\n      add\n        /* \"#utility.yul\":4392:4398   */\n      dup6\n        /* \"#utility.yul\":4348:4421   */\n      tag_249\n      jump\t// in\n    tag_365:\n        /* \"#utility.yul\":4431:4519   */\n      tag_366\n        /* \"#utility.yul\":4514:4517   */\n      0x0100\n        /* \"#utility.yul\":4503:4512   */\n      dup4\n        /* \"#utility.yul\":4499:4518   */\n      add\n        /* \"#utility.yul\":4490:4496   */\n      dup5\n        /* \"#utility.yul\":4431:4519   */\n      tag_261\n      jump\t// in\n    tag_366:\n        /* \"#utility.yul\":3206:4526   */\n      swap11\n      swap10\n      pop\n      pop\n      pop\n      pop\n      pop\n      pop\n      pop\n      pop\n      pop\n      pop\n      jump\t// out\n        /* \"#utility.yul\":4532:4649   */\n    tag_262:\n        /* \"#utility.yul\":4641:4642   */\n      0x00\n        /* \"#utility.yul\":4638:4639   */\n      dup1\n        /* \"#utility.yul\":4631:4643   */\n      revert\n        /* \"#utility.yul\":4655:4772   */\n    tag_263:\n        /* \"#utility.yul\":4764:4765   */\n      0x00\n        /* \"#utility.yul\":4761:4762   */\n      dup1\n        /* \"#utility.yul\":4754:4766   */\n      revert\n        /* \"#utility.yul\":4778:4958   */\n    tag_264:\n        /* \"#utility.yul\":4826:4903   */\n      0x4e487b7100000000000000000000000000000000000000000000000000000000\n        /* \"#utility.yul\":4823:4824   */\n      0x00\n        /* \"#utility.yul\":4816:4904   */\n      mstore\n        /* \"#utility.yul\":4923:4927   */\n      0x41\n        /* \"#utility.yul\":4920:4921   */\n      0x04\n        /* \"#utility.yul\":4913:4928   */\n      mstore\n        /* \"#utility.yul\":4947:4951   */\n      0x24\n        /* \"#utility.yul\":4944:4945   */\n      0x00\n        /* \"#utility.yul\":4937:4952   */\n      revert\n        /* \"#utility.yul\":4964:5245   */\n    tag_265:\n        /* \"#utility.yul\":5047:5074   */\n      tag_371\n        /* \"#utility.yul\":5069:5073   */\n      dup3\n        /* \"#utility.yul\":5047:5074   */\n      tag_256\n      jump\t// in\n    tag_371:\n        /* \"#utility.yul\":5039:5045   */\n      dup2\n        /* \"#utility.yul\":5035:5075   */\n      add\n        /* \"#utility.yul\":5177:5183   */\n      dup2\n        /* \"#utility.yul\":5165:5175   */\n      dup2\n        /* \"#utility.yul\":5162:5184   */\n      lt\n        /* \"#utility.yul\":5141:5159   */\n      0xffffffffffffffff\n        /* \"#utility.yul\":5129:5139   */\n      dup3\n        /* \"#utility.yul\":5126:5160   */\n      gt\n        /* \"#utility.yul\":5123:5185   */\n      or\n        /* \"#utility.yul\":5120:5208   */\n      iszero\n      tag_372\n      jumpi\n        /* \"#utility.yul\":5188:5206   */\n      tag_373\n      tag_264\n      jump\t// in\n    tag_373:\n        /* \"#utility.yul\":5120:5208   */\n    tag_372:\n        /* \"#utility.yul\":5228:5238   */\n      dup1\n        /* \"#utility.yul\":5224:5226   */\n      0x40\n        /* \"#utility.yul\":5217:5239   */\n      mstore\n        /* \"#utility.yul\":5007:5245   */\n      pop\n        /* \"#utility.yul\":4964:5245   */\n      pop\n      pop\n      jump\t// out\n        /* \"#utility.yul\":5251:5380   */\n    tag_266:\n        /* \"#utility.yul\":5285:5291   */\n      0x00\n        /* \"#utility.yul\":5312:5332   */\n      tag_375\n      tag_243\n      jump\t// in\n    tag_375:\n        /* \"#utility.yul\":5302:5332   */\n      swap1\n      pop\n        /* \"#utility.yul\":5341:5374   */\n      tag_376\n        /* \"#utility.yul\":5369:5373   */\n      dup3\n        /* \"#utility.yul\":5361:5367   */\n      dup3\n        /* \"#utility.yul\":5341:5374   */\n      tag_265\n      jump\t// in\n    tag_376:\n        /* \"#utility.yul\":5251:5380   */\n      swap2\n      swap1\n      pop\n      jump\t// out\n        /* \"#utility.yul\":5386:5694   */\n    tag_267:\n        /* \"#utility.yul\":5448:5452   */\n      0x00\n        /* \"#utility.yul\":5538:5556   */\n      0xffffffffffffffff\n        /* \"#utility.yul\":5530:5536   */\n      dup3\n        /* \"#utility.yul\":5527:5557   */\n      gt\n        /* \"#utility.yul\":5524:5580   */\n      iszero\n      tag_378\n      jumpi\n        /* \"#utility.yul\":5560:5578   */\n      tag_379\n      tag_264\n      jump\t// in\n    tag_379:\n        /* \"#utility.yul\":5524:5580   */\n    tag_378:\n        /* \"#utility.yul\":5598:5627   */\n      tag_380\n        /* \"#utility.yul\":5620:5626   */\n      dup3\n        /* \"#utility.yul\":5598:5627   */\n      tag_256\n      jump\t// in\n    tag_380:\n        /* \"#utility.yul\":5590:5627   */\n      swap1\n      pop\n        /* \"#utility.yul\":5682:5686   */\n      0x20\n        /* \"#utility.yul\":5676:5680   */\n      dup2\n        /* \"#utility.yul\":5672:5687   */\n      add\n        /* \"#utility.yul\":5664:5687   */\n      swap1\n      pop\n        /* \"#utility.yul\":5386:5694   */\n      swap2\n      swap1\n      pop\n      jump\t// out\n        /* \"#utility.yul\":5700:5848   */\n    tag_268:\n        /* \"#utility.yul\":5798:5804   */\n      dup3\n        /* \"#utility.yul\":5793:5796   */\n      dup2\n        /* \"#utility.yul\":5788:5791   */\n      dup4\n        /* \"#utility.yul\":5775:5805   */\n      calldatacopy\n        /* \"#utility.yul\":5839:5840   */\n      0x00\n        /* \"#utility.yul\":5830:5836   */\n      dup4\n        /* \"#utility.yul\":5825:5828   */\n      dup4\n        /* \"#utility.yul\":5821:5837   */\n      add\n        /* \"#utility.yul\":5814:5841   */\n      mstore\n        /* \"#utility.yul\":5700:5848   */\n      pop\n      pop\n      pop\n      jump\t// out\n        /* \"#utility.yul\":5854:6279   */\n    tag_269:\n        /* \"#utility.yul\":5932:5937   */\n      0x00\n        /* \"#utility.yul\":5957:6023   */\n      tag_383\n        /* \"#utility.yul\":5973:6022   */\n      tag_384\n        /* \"#utility.yul\":6015:6021   */\n      dup5\n        /* \"#utility.yul\":5973:6022   */\n      tag_267\n      jump\t// in\n    tag_384:\n        /* \"#utility.yul\":5957:6023   */\n      tag_266\n      jump\t// in\n    tag_383:\n        /* \"#utility.yul\":5948:6023   */\n      swap1\n      pop\n        /* \"#utility.yul\":6046:6052   */\n      dup3\n        /* \"#utility.yul\":6039:6044   */\n      dup2\n        /* \"#utility.yul\":6032:6053   */\n      mstore\n        /* \"#utility.yul\":6084:6088   */\n      0x20\n        /* \"#utility.yul\":6077:6082   */\n      dup2\n        /* \"#utility.yul\":6073:6089   */\n      add\n        /* \"#utility.yul\":6122:6125   */\n      dup5\n        /* \"#utility.yul\":6113:6119   */\n      dup5\n        /* \"#utility.yul\":6108:6111   */\n      dup5\n        /* \"#utility.yul\":6104:6120   */\n      add\n        /* \"#utility.yul\":6101:6126   */\n      gt\n        /* \"#utility.yul\":6098:6210   */\n      iszero\n      tag_385\n      jumpi\n        /* \"#utility.yul\":6129:6208   */\n      tag_386\n      tag_263\n      jump\t// in\n    tag_386:\n        /* \"#utility.yul\":6098:6210   */\n    tag_385:\n        /* \"#utility.yul\":6219:6273   */\n      tag_387\n        /* \"#utility.yul\":6266:6272   */\n      dup5\n        /* \"#utility.yul\":6261:6264   */\n      dup3\n        /* \"#utility.yul\":6256:6259   */\n      dup6\n        /* \"#utility.yul\":6219:6273   */\n      tag_268\n      jump\t// in\n    tag_387:\n        /* \"#utility.yul\":5938:6279   */\n      pop\n        /* \"#utility.yul\":5854:6279   */\n      swap4\n      swap3\n      pop\n      pop\n      pop\n      jump\t// out\n        /* \"#utility.yul\":6299:6639   */\n    tag_270:\n        /* \"#utility.yul\":6355:6360   */\n      0x00\n        /* \"#utility.yul\":6404:6407   */\n      dup3\n        /* \"#utility.yul\":6397:6401   */\n      0x1f\n        /* \"#utility.yul\":6389:6395   */\n      dup4\n        /* \"#utility.yul\":6385:6402   */\n      add\n        /* \"#utility.yul\":6381:6408   */\n      slt\n        /* \"#utility.yul\":6371:6493   */\n      tag_389\n      jumpi\n        /* \"#utility.yul\":6412:6491   */\n      tag_390\n      tag_262\n      jump\t// in\n    tag_390:\n        /* \"#utility.yul\":6371:6493   */\n    tag_389:\n        /* \"#utility.yul\":6529:6535   */\n      dup2\n        /* \"#utility.yul\":6516:6536   */\n      calldataload\n        /* \"#utility.yul\":6554:6633   */\n      tag_391\n        /* \"#utility.yul\":6629:6632   */\n      dup5\n        /* \"#utility.yul\":6621:6627   */\n      dup3\n        /* \"#utility.yul\":6614:6618   */\n      0x20\n        /* \"#utility.yul\":6606:6612   */\n      dup7\n        /* \"#utility.yul\":6602:6619   */\n      add\n        /* \"#utility.yul\":6554:6633   */\n      tag_269\n      jump\t// in\n    tag_391:\n        /* \"#utility.yul\":6545:6633   */\n      swap2\n      pop\n        /* \"#utility.yul\":6361:6639   */\n      pop\n        /* \"#utility.yul\":6299:6639   */\n      swap3\n      swap2\n      pop\n      pop\n      jump\t// out\n        /* \"#utility.yul\":6645:7624   */\n    tag_30:\n        /* \"#utility.yul\":6742:6748   */\n      0x00\n        /* \"#utility.yul\":6750:6756   */\n      dup1\n        /* \"#utility.yul\":6758:6764   */\n      0x00\n        /* \"#utility.yul\":6807:6809   */\n      0x60\n        /* \"#utility.yul\":6795:6804   */\n      dup5\n        /* \"#utility.yul\":6786:6793   */\n      dup7\n        /* \"#utility.yul\":6782:6805   */\n      sub\n        /* \"#utility.yul\":6778:6810   */\n      slt\n        /* \"#utility.yul\":6775:6894   */\n      iszero\n      tag_393\n      jumpi\n        /* \"#utility.yul\":6813:6892   */\n      tag_394\n      tag_244\n      jump\t// in\n    tag_394:\n        /* \"#utility.yul\":6775:6894   */\n    tag_393:\n        /* \"#utility.yul\":6961:6962   */\n      0x00\n        /* \"#utility.yul\":6950:6959   */\n      dup5\n        /* \"#utility.yul\":6946:6963   */\n      add\n        /* \"#utility.yul\":6933:6964   */\n      calldataload\n        /* \"#utility.yul\":6991:7009   */\n      0xffffffffffffffff\n        /* \"#utility.yul\":6983:6989   */\n      dup2\n        /* \"#utility.yul\":6980:7010   */\n      gt\n        /* \"#utility.yul\":6977:7094   */\n      iszero\n      tag_395\n      jumpi\n        /* \"#utility.yul\":7013:7092   */\n      tag_396\n      tag_245\n      jump\t// in\n    tag_396:\n        /* \"#utility.yul\":6977:7094   */\n    tag_395:\n        /* \"#utility.yul\":7118:7181   */\n      tag_397\n        /* \"#utility.yul\":7173:7180   */\n      dup7\n        /* \"#utility.yul\":7164:7170   */\n      dup3\n        /* \"#utility.yul\":7153:7162   */\n      dup8\n        /* \"#utility.yul\":7149:7171   */\n      add\n        /* \"#utility.yul\":7118:7181   */\n      tag_270\n      jump\t// in\n    tag_397:\n        /* \"#utility.yul\":7108:7181   */\n      swap4\n      pop\n        /* \"#utility.yul\":6904:7191   */\n      pop\n        /* \"#utility.yul\":7258:7260   */\n      0x20\n        /* \"#utility.yul\":7247:7256   */\n      dup5\n        /* \"#utility.yul\":7243:7261   */\n      add\n        /* \"#utility.yul\":7230:7262   */\n      calldataload\n        /* \"#utility.yul\":7289:7307   */\n      0xffffffffffffffff\n        /* \"#utility.yul\":7281:7287   */\n      dup2\n        /* \"#utility.yul\":7278:7308   */\n      gt\n        /* \"#utility.yul\":7275:7392   */\n      iszero\n      tag_398\n      jumpi\n        /* \"#utility.yul\":7311:7390   */\n      tag_399\n      tag_245\n      jump\t// in\n    tag_399:\n        /* \"#utility.yul\":7275:7392   */\n    tag_398:\n        /* \"#utility.yul\":7416:7479   */\n      tag_400\n        /* \"#utility.yul\":7471:7478   */\n      dup7\n        /* \"#utility.yul\":7462:7468   */\n      dup3\n        /* \"#utility.yul\":7451:7460   */\n      dup8\n        /* \"#utility.yul\":7447:7469   */\n      add\n        /* \"#utility.yul\":7416:7479   */\n      tag_270\n      jump\t// in\n    tag_400:\n        /* \"#utility.yul\":7406:7479   */\n      swap3\n      pop\n        /* \"#utility.yul\":7201:7489   */\n      pop\n        /* \"#utility.yul\":7528:7530   */\n      0x40\n        /* \"#utility.yul\":7554:7607   */\n      tag_401\n        /* \"#utility.yul\":7599:7606   */\n      dup7\n        /* \"#utility.yul\":7590:7596   */\n      dup3\n        /* \"#utility.yul\":7579:7588   */\n      dup8\n        /* \"#utility.yul\":7575:7597   */\n      add\n        /* \"#utility.yul\":7554:7607   */\n      tag_248\n      jump\t// in\n    tag_401:\n        /* \"#utility.yul\":7544:7607   */\n      swap2\n      pop\n        /* \"#utility.yul\":7499:7617   */\n      pop\n        /* \"#utility.yul\":6645:7624   */\n      swap3\n      pop\n      swap3\n      pop\n      swap3\n      jump\t// out\n        /* \"#utility.yul\":7630:7852   */\n    tag_36:\n        /* \"#utility.yul\":7723:7727   */\n      0x00\n        /* \"#utility.yul\":7761:7763   */\n      0x20\n        /* \"#utility.yul\":7750:7759   */\n      dup3\n        /* \"#utility.yul\":7746:7764   */\n      add\n        /* \"#utility.yul\":7738:7764   */\n      swap1\n      pop\n        /* \"#utility.yul\":7774:7845   */\n      tag_403\n        /* \"#utility.yul\":7842:7843   */\n      0x00\n        /* \"#utility.yul\":7831:7840   */\n      dup4\n        /* \"#utility.yul\":7827:7844   */\n      add\n        /* \"#utility.yul\":7818:7824   */\n      dup5\n        /* \"#utility.yul\":7774:7845   */\n      tag_249\n      jump\t// in\n    tag_403:\n        /* \"#utility.yul\":7630:7852   */\n      swap3\n      swap2\n      pop\n      pop\n      jump\t// out\n        /* \"#utility.yul\":7858:7980   */\n    tag_271:\n        /* \"#utility.yul\":7931:7955   */\n      tag_405\n        /* \"#utility.yul\":7949:7954   */\n      dup2\n        /* \"#utility.yul\":7931:7955   */\n      tag_251\n      jump\t// in\n    tag_405:\n        /* \"#utility.yul\":7924:7929   */\n      dup2\n        /* \"#utility.yul\":7921:7956   */\n      eq\n        /* \"#utility.yul\":7911:7974   */\n      tag_406\n      jumpi\n        /* \"#utility.yul\":7970:7971   */\n      0x00\n        /* \"#utility.yul\":7967:7968   */\n      dup1\n        /* \"#utility.yul\":7960:7972   */\n      revert\n        /* \"#utility.yul\":7911:7974   */\n    tag_406:\n        /* \"#utility.yul\":7858:7980   */\n      pop\n      jump\t// out\n        /* \"#utility.yul\":7986:8125   */\n    tag_272:\n        /* \"#utility.yul\":8032:8037   */\n      0x00\n        /* \"#utility.yul\":8070:8076   */\n      dup2\n        /* \"#utility.yul\":8057:8077   */\n      calldataload\n        /* \"#utility.yul\":8048:8077   */\n      swap1\n      pop\n        /* \"#utility.yul\":8086:8119   */\n      tag_408\n        /* \"#utility.yul\":8113:8118   */\n      dup2\n        /* \"#utility.yul\":8086:8119   */\n      tag_271\n      jump\t// in\n    tag_408:\n        /* \"#utility.yul\":7986:8125   */\n      swap3\n      swap2\n      pop\n      pop\n      jump\t// out\n        /* \"#utility.yul\":8131:8605   */\n    tag_40:\n        /* \"#utility.yul\":8199:8205   */\n      0x00\n        /* \"#utility.yul\":8207:8213   */\n      dup1\n        /* \"#utility.yul\":8256:8258   */\n      0x40\n        /* \"#utility.yul\":8244:8253   */\n      dup4\n        /* \"#utility.yul\":8235:8242   */\n      dup6\n        /* \"#utility.yul\":8231:8254   */\n      sub\n        /* \"#utility.yul\":8227:8259   */\n      slt\n        /* \"#utility.yul\":8224:8343   */\n      iszero\n      tag_410\n      jumpi\n        /* \"#utility.yul\":8262:8341   */\n      tag_411\n      tag_244\n      jump\t// in\n    tag_411:\n        /* \"#utility.yul\":8224:8343   */\n    tag_410:\n        /* \"#utility.yul\":8382:8383   */\n      0x00\n        /* \"#utility.yul\":8407:8460   */\n      tag_412\n        /* \"#utility.yul\":8452:8459   */\n      dup6\n        /* \"#utility.yul\":8443:8449   */\n      dup3\n        /* \"#utility.yul\":8432:8441   */\n      dup7\n        /* \"#utility.yul\":8428:8450   */\n      add\n        /* \"#utility.yul\":8407:8460   */\n      tag_248\n      jump\t// in\n    tag_412:\n        /* \"#utility.yul\":8397:8460   */\n      swap3\n      pop\n        /* \"#utility.yul\":8353:8470   */\n      pop\n        /* \"#utility.yul\":8509:8511   */\n      0x20\n        /* \"#utility.yul\":8535:8588   */\n      tag_413\n        /* \"#utility.yul\":8580:8587   */\n      dup6\n        /* \"#utility.yul\":8571:8577   */\n      dup3\n        /* \"#utility.yul\":8560:8569   */\n      dup7\n        /* \"#utility.yul\":8556:8578   */\n      add\n        /* \"#utility.yul\":8535:8588   */\n      tag_272\n      jump\t// in\n    tag_413:\n        /* \"#utility.yul\":8525:8588   */\n      swap2\n      pop\n        /* \"#utility.yul\":8480:8598   */\n      pop\n        /* \"#utility.yul\":8131:8605   */\n      swap3\n      pop\n      swap3\n      swap1\n      pop\n      jump\t// out\n        /* \"#utility.yul\":8611:9736   */\n    tag_50:\n        /* \"#utility.yul\":8717:8723   */\n      0x00\n        /* \"#utility.yul\":8725:8731   */\n      dup1\n        /* \"#utility.yul\":8733:8739   */\n      0x00\n        /* \"#utility.yul\":8741:8747   */\n      dup1\n        /* \"#utility.yul\":8790:8793   */\n      0x80\n        /* \"#utility.yul\":8778:8787   */\n      dup6\n        /* \"#utility.yul\":8769:8776   */\n      dup8\n        /* \"#utility.yul\":8765:8788   */\n      sub\n        /* \"#utility.yul\":8761:8794   */\n      slt\n        /* \"#utility.yul\":8758:8878   */\n      iszero\n      tag_415\n      jumpi\n        /* \"#utility.yul\":8797:8876   */\n      tag_416\n      tag_244\n      jump\t// in\n    tag_416:\n        /* \"#utility.yul\":8758:8878   */\n    tag_415:\n        /* \"#utility.yul\":8917:8918   */\n      0x00\n        /* \"#utility.yul\":8942:8995   */\n      tag_417\n        /* \"#utility.yul\":8987:8994   */\n      dup8\n        /* \"#utility.yul\":8978:8984   */\n      dup3\n        /* \"#utility.yul\":8967:8976   */\n      dup9\n        /* \"#utility.yul\":8963:8985   */\n      add\n        /* \"#utility.yul\":8942:8995   */\n      tag_248\n      jump\t// in\n    tag_417:\n        /* \"#utility.yul\":8932:8995   */\n      swap5\n      pop\n        /* \"#utility.yul\":8888:9005   */\n      pop\n        /* \"#utility.yul\":9072:9074   */\n      0x20\n        /* \"#utility.yul\":9061:9070   */\n      dup6\n        /* \"#utility.yul\":9057:9075   */\n      add\n        /* \"#utility.yul\":9044:9076   */\n      calldataload\n        /* \"#utility.yul\":9103:9121   */\n      0xffffffffffffffff\n        /* \"#utility.yul\":9095:9101   */\n      dup2\n        /* \"#utility.yul\":9092:9122   */\n      gt\n        /* \"#utility.yul\":9089:9206   */\n      iszero\n      tag_418\n      jumpi\n        /* \"#utility.yul\":9125:9204   */\n      tag_419\n      tag_245\n      jump\t// in\n    tag_419:\n        /* \"#utility.yul\":9089:9206   */\n    tag_418:\n        /* \"#utility.yul\":9230:9293   */\n      tag_420\n        /* \"#utility.yul\":9285:9292   */\n      dup8\n        /* \"#utility.yul\":9276:9282   */\n      dup3\n        /* \"#utility.yul\":9265:9274   */\n      dup9\n        /* \"#utility.yul\":9261:9283   */\n      add\n        /* \"#utility.yul\":9230:9293   */\n      tag_270\n      jump\t// in\n    tag_420:\n        /* \"#utility.yul\":9220:9293   */\n      swap4\n      pop\n        /* \"#utility.yul\":9015:9303   */\n      pop\n        /* \"#utility.yul\":9370:9372   */\n      0x40\n        /* \"#utility.yul\":9359:9368   */\n      dup6\n        /* \"#utility.yul\":9355:9373   */\n      add\n        /* \"#utility.yul\":9342:9374   */\n      calldataload\n        /* \"#utility.yul\":9401:9419   */\n      0xffffffffffffffff\n        /* \"#utility.yul\":9393:9399   */\n      dup2\n        /* \"#utility.yul\":9390:9420   */\n      gt\n        /* \"#utility.yul\":9387:9504   */\n      iszero\n      tag_421\n      jumpi\n        /* \"#utility.yul\":9423:9502   */\n      tag_422\n      tag_245\n      jump\t// in\n    tag_422:\n        /* \"#utility.yul\":9387:9504   */\n    tag_421:\n        /* \"#utility.yul\":9528:9591   */\n      tag_423\n        /* \"#utility.yul\":9583:9590   */\n      dup8\n        /* \"#utility.yul\":9574:9580   */\n      dup3\n        /* \"#utility.yul\":9563:9572   */\n      dup9\n        /* \"#utility.yul\":9559:9581   */\n      add\n        /* \"#utility.yul\":9528:9591   */\n      tag_270\n      jump\t// in\n    tag_423:\n        /* \"#utility.yul\":9518:9591   */\n      swap3\n      pop\n        /* \"#utility.yul\":9313:9601   */\n      pop\n        /* \"#utility.yul\":9640:9642   */\n      0x60\n        /* \"#utility.yul\":9666:9719   */\n      tag_424\n        /* \"#utility.yul\":9711:9718   */\n      dup8\n        /* \"#utility.yul\":9702:9708   */\n      dup3\n        /* \"#utility.yul\":9691:9700   */\n      dup9\n        /* \"#utility.yul\":9687:9709   */\n      add\n        /* \"#utility.yul\":9666:9719   */\n      tag_248\n      jump\t// in\n    tag_424:\n        /* \"#utility.yul\":9656:9719   */\n      swap2\n      pop\n        /* \"#utility.yul\":9611:9729   */\n      pop\n        /* \"#utility.yul\":8611:9736   */\n      swap3\n      swap6\n      swap2\n      swap5\n      pop\n      swap3\n      pop\n      jump\t// out\n        /* \"#utility.yul\":9742:10216   */\n    tag_59:\n        /* \"#utility.yul\":9810:9816   */\n      0x00\n        /* \"#utility.yul\":9818:9824   */\n      dup1\n        /* \"#utility.yul\":9867:9869   */\n      0x40\n        /* \"#utility.yul\":9855:9864   */\n      dup4\n        /* \"#utility.yul\":9846:9853   */\n      dup6\n        /* \"#utility.yul\":9842:9865   */\n      sub\n        /* \"#utility.yul\":9838:9870   */\n      slt\n        /* \"#utility.yul\":9835:9954   */\n      iszero\n      tag_426\n      jumpi\n        /* \"#utility.yul\":9873:9952   */\n      tag_427\n      tag_244\n      jump\t// in\n    tag_427:\n        /* \"#utility.yul\":9835:9954   */\n    tag_426:\n        /* \"#utility.yul\":9993:9994   */\n      0x00\n        /* \"#utility.yul\":10018:10071   */\n      tag_428\n        /* \"#utility.yul\":10063:10070   */\n      dup6\n        /* \"#utility.yul\":10054:10060   */\n      dup3\n        /* \"#utility.yul\":10043:10052   */\n      dup7\n        /* \"#utility.yul\":10039:10061   */\n      add\n        /* \"#utility.yul\":10018:10071   */\n      tag_248\n      jump\t// in\n    tag_428:\n        /* \"#utility.yul\":10008:10071   */\n      swap3\n      pop\n        /* \"#utility.yul\":9964:10081   */\n      pop\n        /* \"#utility.yul\":10120:10122   */\n      0x20\n        /* \"#utility.yul\":10146:10199   */\n      tag_429\n        /* \"#utility.yul\":10191:10198   */\n      dup6\n        /* \"#utility.yul\":10182:10188   */\n      dup3\n        /* \"#utility.yul\":10171:10180   */\n      dup7\n        /* \"#utility.yul\":10167:10189   */\n      add\n        /* \"#utility.yul\":10146:10199   */\n      tag_248\n      jump\t// in\n    tag_429:\n        /* \"#utility.yul\":10136:10199   */\n      swap2\n      pop\n        /* \"#utility.yul\":10091:10209   */\n      pop\n        /* \"#utility.yul\":9742:10216   */\n      swap3\n      pop\n      swap3\n      swap1\n      pop\n      jump\t// out\n        /* \"#utility.yul\":10222:11290   */\n    tag_67:\n        /* \"#utility.yul\":10523:10527   */\n      0x00\n        /* \"#utility.yul\":10561:10564   */\n      0xe0\n        /* \"#utility.yul\":10550:10559   */\n      dup3\n        /* \"#utility.yul\":10546:10565   */\n      add\n        /* \"#utility.yul\":10538:10565   */\n      swap1\n      pop\n        /* \"#utility.yul\":10575:10646   */\n      tag_431\n        /* \"#utility.yul\":10643:10644   */\n      0x00\n        /* \"#utility.yul\":10632:10641   */\n      dup4\n        /* \"#utility.yul\":10628:10645   */\n      add\n        /* \"#utility.yul\":10619:10625   */\n      dup11\n        /* \"#utility.yul\":10575:10646   */\n      tag_252\n      jump\t// in\n    tag_431:\n        /* \"#utility.yul\":10693:10702   */\n      dup2\n        /* \"#utility.yul\":10687:10691   */\n      dup2\n        /* \"#utility.yul\":10683:10703   */\n      sub\n        /* \"#utility.yul\":10678:10680   */\n      0x20\n        /* \"#utility.yul\":10667:10676   */\n      dup4\n        /* \"#utility.yul\":10663:10681   */\n      add\n        /* \"#utility.yul\":10656:10704   */\n      mstore\n        /* \"#utility.yul\":10721:10799   */\n      tag_432\n        /* \"#utility.yul\":10794:10798   */\n      dup2\n        /* \"#utility.yul\":10785:10791   */\n      dup10\n        /* \"#utility.yul\":10721:10799   */\n      tag_257\n      jump\t// in\n    tag_432:\n        /* \"#utility.yul\":10713:10799   */\n      swap1\n      pop\n        /* \"#utility.yul\":10846:10855   */\n      dup2\n        /* \"#utility.yul\":10840:10844   */\n      dup2\n        /* \"#utility.yul\":10836:10856   */\n      sub\n        /* \"#utility.yul\":10831:10833   */\n      0x40\n        /* \"#utility.yul\":10820:10829   */\n      dup4\n        /* \"#utility.yul\":10816:10834   */\n      add\n        /* \"#utility.yul\":10809:10857   */\n      mstore\n        /* \"#utility.yul\":10874:10952   */\n      tag_433\n        /* \"#utility.yul\":10947:10951   */\n      dup2\n        /* \"#utility.yul\":10938:10944   */\n      dup9\n        /* \"#utility.yul\":10874:10952   */\n      tag_257\n      jump\t// in\n    tag_433:\n        /* \"#utility.yul\":10866:10952   */\n      swap1\n      pop\n        /* \"#utility.yul\":10962:11034   */\n      tag_434\n        /* \"#utility.yul\":11030:11032   */\n      0x60\n        /* \"#utility.yul\":11019:11028   */\n      dup4\n        /* \"#utility.yul\":11015:11033   */\n      add\n        /* \"#utility.yul\":11006:11012   */\n      dup8\n        /* \"#utility.yul\":10962:11034   */\n      tag_249\n      jump\t// in\n    tag_434:\n        /* \"#utility.yul\":11044:11117   */\n      tag_435\n        /* \"#utility.yul\":11112:11115   */\n      0x80\n        /* \"#utility.yul\":11101:11110   */\n      dup4\n        /* \"#utility.yul\":11097:11116   */\n      add\n        /* \"#utility.yul\":11088:11094   */\n      dup7\n        /* \"#utility.yul\":11044:11117   */\n      tag_249\n      jump\t// in\n    tag_435:\n        /* \"#utility.yul\":11127:11200   */\n      tag_436\n        /* \"#utility.yul\":11195:11198   */\n      0xa0\n        /* \"#utility.yul\":11184:11193   */\n      dup4\n        /* \"#utility.yul\":11180:11199   */\n      add\n        /* \"#utility.yul\":11171:11177   */\n      dup6\n        /* \"#utility.yul\":11127:11200   */\n      tag_249\n      jump\t// in\n    tag_436:\n        /* \"#utility.yul\":11210:11283   */\n      tag_437\n        /* \"#utility.yul\":11278:11281   */\n      0xc0\n        /* \"#utility.yul\":11267:11276   */\n      dup4\n        /* \"#utility.yul\":11263:11282   */\n      add\n        /* \"#utility.yul\":11254:11260   */\n      dup5\n        /* \"#utility.yul\":11210:11283   */\n      tag_249\n      jump\t// in\n    tag_437:\n        /* \"#utility.yul\":10222:11290   */\n      swap9\n      swap8\n      pop\n      pop\n      pop\n      pop\n      pop\n      pop\n      pop\n      pop\n      jump\t// out\n        /* \"#utility.yul\":11296:11770   */\n    tag_75:\n        /* \"#utility.yul\":11364:11370   */\n      0x00\n        /* \"#utility.yul\":11372:11378   */\n      dup1\n        /* \"#utility.yul\":11421:11423   */\n      0x40\n        /* \"#utility.yul\":11409:11418   */\n      dup4\n        /* \"#utility.yul\":11400:11407   */\n      dup6\n        /* \"#utility.yul\":11396:11419   */\n      sub\n        /* \"#utility.yul\":11392:11424   */\n      slt\n        /* \"#utility.yul\":11389:11508   */\n      iszero\n      tag_439\n      jumpi\n        /* \"#utility.yul\":11427:11506   */\n      tag_440\n      tag_244\n      jump\t// in\n    tag_440:\n        /* \"#utility.yul\":11389:11508   */\n    tag_439:\n        /* \"#utility.yul\":11547:11548   */\n      0x00\n        /* \"#utility.yul\":11572:11625   */\n      tag_441\n        /* \"#utility.yul\":11617:11624   */\n      dup6\n        /* \"#utility.yul\":11608:11614   */\n      dup3\n        /* \"#utility.yul\":11597:11606   */\n      dup7\n        /* \"#utility.yul\":11593:11615   */\n      add\n        /* \"#utility.yul\":11572:11625   */\n      tag_272\n      jump\t// in\n    tag_441:\n        /* \"#utility.yul\":11562:11625   */\n      swap3\n      pop\n        /* \"#utility.yul\":11518:11635   */\n      pop\n        /* \"#utility.yul\":11674:11676   */\n      0x20\n        /* \"#utility.yul\":11700:11753   */\n      tag_442\n        /* \"#utility.yul\":11745:11752   */\n      dup6\n        /* \"#utility.yul\":11736:11742   */\n      dup3\n        /* \"#utility.yul\":11725:11734   */\n      dup7\n        /* \"#utility.yul\":11721:11743   */\n      add\n        /* \"#utility.yul\":11700:11753   */\n      tag_248\n      jump\t// in\n    tag_442:\n        /* \"#utility.yul\":11690:11753   */\n      swap2\n      pop\n        /* \"#utility.yul\":11645:11763   */\n      pop\n        /* \"#utility.yul\":11296:11770   */\n      swap3\n      pop\n      swap3\n      swap1\n      pop\n      jump\t// out\n        /* \"#utility.yul\":11776:11866   */\n    tag_273:\n        /* \"#utility.yul\":11810:11817   */\n      0x00\n        /* \"#utility.yul\":11853:11858   */\n      dup2\n        /* \"#utility.yul\":11846:11859   */\n      iszero\n        /* \"#utility.yul\":11839:11860   */\n      iszero\n        /* \"#utility.yul\":11828:11860   */\n      swap1\n      pop\n        /* \"#utility.yul\":11776:11866   */\n      swap2\n      swap1\n      pop\n      jump\t// out\n        /* \"#utility.yul\":11872:11981   */\n    tag_274:\n        /* \"#utility.yul\":11953:11974   */\n      tag_445\n        /* \"#utility.yul\":11968:11973   */\n      dup2\n        /* \"#utility.yul\":11953:11974   */\n      tag_273\n      jump\t// in\n    tag_445:\n        /* \"#utility.yul\":11948:11951   */\n      dup3\n        /* \"#utility.yul\":11941:11975   */\n      mstore\n        /* \"#utility.yul\":11872:11981   */\n      pop\n      pop\n      jump\t// out\n        /* \"#utility.yul\":11987:12295   */\n    tag_86:\n        /* \"#utility.yul\":12096:12100   */\n      0x00\n        /* \"#utility.yul\":12134:12136   */\n      0x40\n        /* \"#utility.yul\":12123:12132   */\n      dup3\n        /* \"#utility.yul\":12119:12137   */\n      add\n        /* \"#utility.yul\":12111:12137   */\n      swap1\n      pop\n        /* \"#utility.yul\":12147:12212   */\n      tag_447\n        /* \"#utility.yul\":12209:12210   */\n      0x00\n        /* \"#utility.yul\":12198:12207   */\n      dup4\n        /* \"#utility.yul\":12194:12211   */\n      add\n        /* \"#utility.yul\":12185:12191   */\n      dup6\n        /* \"#utility.yul\":12147:12212   */\n      tag_274\n      jump\t// in\n    tag_447:\n        /* \"#utility.yul\":12222:12288   */\n      tag_448\n        /* \"#utility.yul\":12284:12286   */\n      0x20\n        /* \"#utility.yul\":12273:12282   */\n      dup4\n        /* \"#utility.yul\":12269:12287   */\n      add\n        /* \"#utility.yul\":12260:12266   */\n      dup5\n        /* \"#utility.yul\":12222:12288   */\n      tag_274\n      jump\t// in\n    tag_448:\n        /* \"#utility.yul\":11987:12295   */\n      swap4\n      swap3\n      pop\n      pop\n      pop\n      jump\t// out\n        /* \"#utility.yul\":12301:12481   */\n    tag_275:\n        /* \"#utility.yul\":12349:12426   */\n      0x4e487b7100000000000000000000000000000000000000000000000000000000\n        /* \"#utility.yul\":12346:12347   */\n      0x00\n        /* \"#utility.yul\":12339:12427   */\n      mstore\n        /* \"#utility.yul\":12446:12450   */\n      0x22\n        /* \"#utility.yul\":12443:12444   */\n      0x04\n        /* \"#utility.yul\":12436:12451   */\n      mstore\n        /* \"#utility.yul\":12470:12474   */\n      0x24\n        /* \"#utility.yul\":12467:12468   */\n      0x00\n        /* \"#utility.yul\":12460:12475   */\n      revert\n        /* \"#utility.yul\":12487:12807   */\n    tag_96:\n        /* \"#utility.yul\":12531:12537   */\n      0x00\n        /* \"#utility.yul\":12568:12569   */\n      0x02\n        /* \"#utility.yul\":12562:12566   */\n      dup3\n        /* \"#utility.yul\":12558:12570   */\n      div\n        /* \"#utility.yul\":12548:12570   */\n      swap1\n      pop\n        /* \"#utility.yul\":12615:12616   */\n      0x01\n        /* \"#utility.yul\":12609:12613   */\n      dup3\n        /* \"#utility.yul\":12605:12617   */\n      and\n        /* \"#utility.yul\":12636:12654   */\n      dup1\n        /* \"#utility.yul\":12626:12707   */\n      tag_451\n      jumpi\n        /* \"#utility.yul\":12692:12696   */\n      0x7f\n        /* \"#utility.yul\":12684:12690   */\n      dup3\n        /* \"#utility.yul\":12680:12697   */\n      and\n        /* \"#utility.yul\":12670:12697   */\n      swap2\n      pop\n        /* \"#utility.yul\":12626:12707   */\n    tag_451:\n        /* \"#utility.yul\":12754:12756   */\n      0x20\n        /* \"#utility.yul\":12746:12752   */\n      dup3\n        /* \"#utility.yul\":12743:12757   */\n      lt\n        /* \"#utility.yul\":12723:12741   */\n      dup2\n        /* \"#utility.yul\":12720:12758   */\n      sub\n        /* \"#utility.yul\":12717:12801   */\n      tag_452\n      jumpi\n        /* \"#utility.yul\":12773:12791   */\n      tag_453\n      tag_275\n      jump\t// in\n    tag_453:\n        /* \"#utility.yul\":12717:12801   */\n    tag_452:\n        /* \"#utility.yul\":12538:12807   */\n      pop\n        /* \"#utility.yul\":12487:12807   */\n      swap2\n      swap1\n      pop\n      jump\t// out\n        /* \"#utility.yul\":12813:12993   */\n    tag_276:\n        /* \"#utility.yul\":12861:12938   */\n      0x4e487b7100000000000000000000000000000000000000000000000000000000\n        /* \"#utility.yul\":12858:12859   */\n      0x00\n        /* \"#utility.yul\":12851:12939   */\n      mstore\n        /* \"#utility.yul\":12958:12962   */\n      0x11\n        /* \"#utility.yul\":12955:12956   */\n      0x04\n        /* \"#utility.yul\":12948:12963   */\n      mstore\n        /* \"#utility.yul\":12982:12986   */\n      0x24\n        /* \"#utility.yul\":12979:12980   */\n      0x00\n        /* \"#utility.yul\":12972:12987   */\n      revert\n        /* \"#utility.yul\":12999:13232   */\n    tag_108:\n        /* \"#utility.yul\":13038:13041   */\n      0x00\n        /* \"#utility.yul\":13061:13085   */\n      tag_456\n        /* \"#utility.yul\":13079:13084   */\n      dup3\n        /* \"#utility.yul\":13061:13085   */\n      tag_246\n      jump\t// in\n    tag_456:\n        /* \"#utility.yul\":13052:13085   */\n      swap2\n      pop\n        /* \"#utility.yul\":13107:13173   */\n      0xffffffffffffffffffffffffffffffffffffffffffffffffffffffffffffffff\n        /* \"#utility.yul\":13100:13105   */\n      dup3\n        /* \"#utility.yul\":13097:13174   */\n      sub\n        /* \"#utility.yul\":13094:13197   */\n      tag_457\n      jumpi\n        /* \"#utility.yul\":13177:13195   */\n      tag_458\n      tag_276\n      jump\t// in\n    tag_458:\n        /* \"#utility.yul\":13094:13197   */\n    tag_457:\n        /* \"#utility.yul\":13224:13225   */\n      0x01\n        /* \"#utility.yul\":13217:13222   */\n      dup3\n        /* \"#utility.yul\":13213:13226   */\n      add\n        /* \"#utility.yul\":13206:13226   */\n      swap1\n      pop\n        /* \"#utility.yul\":12999:13232   */\n      swap2\n      swap1\n      pop\n      jump\t// out\n        /* \"#utility.yul\":13238:13379   */\n    tag_277:\n        /* \"#utility.yul\":13287:13291   */\n      0x00\n        /* \"#utility.yul\":13310:13313   */\n      dup2\n        /* \"#utility.yul\":13302:13313   */\n      swap1\n      pop\n        /* \"#utility.yul\":13333:13336   */\n      dup2\n        /* \"#utility.yul\":13330:13331   */\n      0x00\n        /* \"#utility.yul\":13323:13337   */\n      mstore\n        /* \"#utility.yul\":13367:13371   */\n      0x20\n        /* \"#utility.yul\":13364:13365   */\n      0x00\n        /* \"#utility.yul\":13354:13372   */\n      keccak256\n        /* \"#utility.yul\":13346:13372   */\n      swap1\n      pop\n        /* \"#utility.yul\":13238:13379   */\n      swap2\n      swap1\n      pop\n      jump\t// out\n        /* \"#utility.yul\":13385:13478   */\n    tag_278:\n        /* \"#utility.yul\":13422:13428   */\n      0x00\n        /* \"#utility.yul\":13469:13471   */\n      0x20\n        /* \"#utility.yul\":13464:13466   */\n      0x1f\n        /* \"#utility.yul\":13457:13462   */\n      dup4\n        /* \"#utility.yul\":13453:13467   */\n      add\n        /* \"#utility.yul\":13449:13472   */\n      div\n        /* \"#utility.yul\":13439:13472   */\n      swap1\n      pop\n        /* \"#utility.yul\":13385:13478   */\n      swap2\n      swap1\n      pop\n      jump\t// out\n        /* \"#utility.yul\":13484:13591   */\n    tag_279:\n        /* \"#utility.yul\":13528:13536   */\n      0x00\n        /* \"#utility.yul\":13578:13583   */\n      dup3\n        /* \"#utility.yul\":13572:13576   */\n      dup3\n        /* \"#utility.yul\":13568:13584   */\n      shl\n        /* \"#utility.yul\":13547:13584   */\n      swap1\n      pop\n        /* \"#utility.yul\":13484:13591   */\n      swap3\n      swap2\n      pop\n      pop\n      jump\t// out\n        /* \"#utility.yul\":13597:13990   */\n    tag_280:\n        /* \"#utility.yul\":13666:13672   */\n      0x00\n        /* \"#utility.yul\":13716:13717   */\n      0x08\n        /* \"#utility.yul\":13704:13714   */\n      dup4\n        /* \"#utility.yul\":13700:13718   */\n      mul\n        /* \"#utility.yul\":13739:13836   */\n      tag_463\n        /* \"#utility.yul\":13769:13835   */\n      0xffffffffffffffffffffffffffffffffffffffffffffffffffffffffffffffff\n        /* \"#utility.yul\":13758:13767   */\n      dup3\n        /* \"#utility.yul\":13739:13836   */\n      tag_279\n      jump\t// in\n    tag_463:\n        /* \"#utility.yul\":13857:13896   */\n      tag_464\n        /* \"#utility.yul\":13887:13895   */\n      dup7\n        /* \"#utility.yul\":13876:13885   */\n      dup4\n        /* \"#utility.yul\":13857:13896   */\n      tag_279\n      jump\t// in\n    tag_464:\n        /* \"#utility.yul\":13845:13896   */\n      swap6\n      pop\n        /* \"#utility.yul\":13929:13933   */\n      dup1\n        /* \"#utility.yul\":13925:13934   */\n      not\n        /* \"#utility.yul\":13918:13923   */\n      dup5\n        /* \"#utility.yul\":13914:13935   */\n      and\n        /* \"#utility.yul\":13905:13935   */\n      swap4\n      pop\n        /* \"#utility.yul\":13978:13982   */\n      dup1\n        /* \"#utility.yul\":13968:13976   */\n      dup7\n        /* \"#utility.yul\":13964:13983   */\n      and\n        /* \"#utility.yul\":13957:13962   */\n      dup5\n        /* \"#utility.yul\":13954:13984   */\n      or\n        /* \"#utility.yul\":13944:13984   */\n      swap3\n      pop\n        /* \"#utility.yul\":13673:13990   */\n      pop\n      pop\n        /* \"#utility.yul\":13597:13990   */\n      swap4\n      swap3\n      pop\n      pop\n      pop\n      jump\t// out\n        /* \"#utility.yul\":13996:14056   */\n    tag_281:\n        /* \"#utility.yul\":14024:14027   */\n      0x00\n        /* \"#utility.yul\":14045:14050   */\n      dup2\n        /* \"#utility.yul\":14038:14050   */\n      swap1\n      pop\n        /* \"#utility.yul\":13996:14056   */\n      swap2\n      swap1\n      pop\n      jump\t// out\n        /* \"#utility.yul\":14062:14204   */\n    tag_282:\n        /* \"#utility.yul\":14112:14121   */\n      0x00\n        /* \"#utility.yul\":14145:14198   */\n      tag_467\n        /* \"#utility.yul\":14163:14197   */\n      tag_468\n        /* \"#utility.yul\":14172:14196   */\n      tag_469\n        /* \"#utility.yul\":14190:14195   */\n      dup5\n        /* \"#utility.yul\":14172:14196   */\n      tag_246\n      jump\t// in\n    tag_469:\n        /* \"#utility.yul\":14163:14197   */\n      tag_281\n      jump\t// in\n    tag_468:\n        /* \"#utility.yul\":14145:14198   */\n      tag_246\n      jump\t// in\n    tag_467:\n        /* \"#utility.yul\":14132:14198   */\n      swap1\n      pop\n        /* \"#utility.yul\":14062:14204   */\n      swap2\n      swap1\n      pop\n      jump\t// out\n        /* \"#utility.yul\":14210:14285   */\n    tag_283:\n        /* \"#utility.yul\":14253:14256   */\n      0x00\n        /* \"#utility.yul\":14274:14279   */\n      dup2\n        /* \"#utility.yul\":14267:14279   */\n      swap1\n      pop\n        /* \"#utility.yul\":14210:14285   */\n      swap2\n      swap1\n      pop\n      jump\t// out\n        /* \"#utility.yul\":14291:14560   */\n    tag_284:\n        /* \"#utility.yul\":14401:14440   */\n      tag_472\n        /* \"#utility.yul\":14432:14439   */\n      dup4\n        /* \"#utility.yul\":14401:14440   */\n      tag_282\n      jump\t// in\n    tag_472:\n        /* \"#utility.yul\":14462:14553   */\n      tag_473\n        /* \"#utility.yul\":14511:14552   */\n      tag_474\n        /* \"#utility.yul\":14535:14551   */\n      dup3\n        /* \"#utility.yul\":14511:14552   */\n      tag_283\n      jump\t// in\n    tag_474:\n        /* \"#utility.yul\":14503:14509   */\n      dup5\n        /* \"#utility.yul\":14496:14500   */\n      dup5\n        /* \"#utility.yul\":14490:14501   */\n      sload\n        /* \"#utility.yul\":14462:14553   */\n      tag_280\n      jump\t// in\n    tag_473:\n        /* \"#utility.yul\":14456:14460   */\n      dup3\n        /* \"#utility.yul\":14449:14554   */\n      sstore\n        /* \"#utility.yul\":14367:14560   */\n      pop\n        /* \"#utility.yul\":14291:14560   */\n      pop\n      pop\n      pop\n      jump\t// out\n        /* \"#utility.yul\":14566:14639   */\n    tag_285:\n        /* \"#utility.yul\":14611:14614   */\n      0x00\n        /* \"#utility.yul\":14566:14639   */\n      swap1\n      jump\t// out\n        /* \"#utility.yul\":14645:14834   */\n    tag_286:\n        /* \"#utility.yul\":14722:14754   */\n      tag_477\n      tag_285\n      jump\t// in\n    tag_477:\n        /* \"#utility.yul\":14763:14828   */\n      tag_478\n        /* \"#utility.yul\":14821:14827   */\n      dup2\n        /* \"#utility.yul\":14813:14819   */\n      dup5\n        /* \"#utility.yul\":14807:14811   */\n      dup5\n        /* \"#utility.yul\":14763:14828   */\n      tag_284\n      jump\t// in\n    tag_478:\n        /* \"#utility.yul\":14698:14834   */\n      pop\n        /* \"#utility.yul\":14645:14834   */\n      pop\n      pop\n      jump\t// out\n        /* \"#utility.yul\":14840:15026   */\n    tag_287:\n        /* \"#utility.yul\":14900:15020   */\n    tag_480:\n        /* \"#utility.yul\":14917:14920   */\n      dup2\n        /* \"#utility.yul\":14910:14915   */\n      dup2\n        /* \"#utility.yul\":14907:14921   */\n      lt\n        /* \"#utility.yul\":14900:15020   */\n      iszero\n      tag_482\n      jumpi\n        /* \"#utility.yul\":14971:15010   */\n      tag_483\n        /* \"#utility.yul\":15008:15009   */\n      0x00\n        /* \"#utility.yul\":15001:15006   */\n      dup3\n        /* \"#utility.yul\":14971:15010   */\n      tag_286\n      jump\t// in\n    tag_483:\n        /* \"#utility.yul\":14944:14945   */\n      0x01\n        /* \"#utility.yul\":14937:14942   */\n      dup2\n        /* \"#utility.yul\":14933:14946   */\n      add\n        /* \"#utility.yul\":14924:14946   */\n      swap1\n      pop\n        /* \"#utility.yul\":14900:15020   */\n      jump(tag_480)\n    tag_482:\n        /* \"#utility.yul\":14840:15026   */\n      pop\n      pop\n      jump\t// out\n        /* \"#utility.yul\":15032:15575   */\n    tag_288:\n        /* \"#utility.yul\":15133:15135   */\n      0x1f\n        /* \"#utility.yul\":15128:15131   */\n      dup3\n        /* \"#utility.yul\":15125:15136   */\n      gt\n        /* \"#utility.yul\":15122:15568   */\n      iszero\n      tag_485\n      jumpi\n        /* \"#utility.yul\":15167:15205   */\n      tag_486\n        /* \"#utility.yul\":15199:15204   */\n      dup2\n        /* \"#utility.yul\":15167:15205   */\n      tag_277\n      jump\t// in\n    tag_486:\n        /* \"#utility.yul\":15251:15280   */\n      tag_487\n        /* \"#utility.yul\":15269:15279   */\n      dup5\n        /* \"#utility.yul\":15251:15280   */\n      tag_278\n      jump\t// in\n    tag_487:\n        /* \"#utility.yul\":15241:15249   */\n      dup2\n        /* \"#utility.yul\":15237:15281   */\n      add\n        /* \"#utility.yul\":15434:15436   */\n      0x20\n        /* \"#utility.yul\":15422:15432   */\n      dup6\n        /* \"#utility.yul\":15419:15437   */\n      lt\n        /* \"#utility.yul\":15416:15465   */\n      iszero\n      tag_488\n      jumpi\n        /* \"#utility.yul\":15455:15463   */\n      dup2\n        /* \"#utility.yul\":15440:15463   */\n      swap1\n      pop\n        /* \"#utility.yul\":15416:15465   */\n    tag_488:\n        /* \"#utility.yul\":15478:15558   */\n      tag_489\n        /* \"#utility.yul\":15534:15556   */\n      tag_490\n        /* \"#utility.yul\":15552:15555   */\n      dup6\n        /* \"#utility.yul\":15534:15556   */\n      tag_278\n      jump\t// in\n    tag_490:\n        /* \"#utility.yul\":15524:15532   */\n      dup4\n        /* \"#utility.yul\":15520:15557   */\n      add\n        /* \"#utility.yul\":15507:15518   */\n      dup3\n        /* \"#utility.yul\":15478:15558   */\n      tag_287\n      jump\t// in\n    tag_489:\n        /* \"#utility.yul\":15137:15568   */\n      pop\n      pop\n        /* \"#utility.yul\":15122:15568   */\n    tag_485:\n        /* \"#utility.yul\":15032:15575   */\n      pop\n      pop\n      pop\n      jump\t// out\n        /* \"#utility.yul\":15581:15698   */\n    tag_289:\n        /* \"#utility.yul\":15635:15643   */\n      0x00\n        /* \"#utility.yul\":15685:15690   */\n      dup3\n        /* \"#utility.yul\":15679:15683   */\n      dup3\n        /* \"#utility.yul\":15675:15691   */\n      shr\n        /* \"#utility.yul\":15654:15691   */\n      swap1\n      pop\n        /* \"#utility.yul\":15581:15698   */\n      swap3\n      swap2\n      pop\n      pop\n      jump\t// out\n        /* \"#utility.yul\":15704:15873   */\n    tag_290:\n        /* \"#utility.yul\":15748:15754   */\n      0x00\n        /* \"#utility.yul\":15781:15832   */\n      tag_493\n        /* \"#utility.yul\":15829:15830   */\n      0x00\n        /* \"#utility.yul\":15825:15831   */\n      not\n        /* \"#utility.yul\":15817:15822   */\n      dup5\n        /* \"#utility.yul\":15814:15815   */\n      0x08\n        /* \"#utility.yul\":15810:15823   */\n      mul\n        /* \"#utility.yul\":15781:15832   */\n      tag_289\n      jump\t// in\n    tag_493:\n        /* \"#utility.yul\":15777:15833   */\n      not\n        /* \"#utility.yul\":15862:15866   */\n      dup1\n        /* \"#utility.yul\":15856:15860   */\n      dup4\n        /* \"#utility.yul\":15852:15867   */\n      and\n        /* \"#utility.yul\":15842:15867   */\n      swap2\n      pop\n        /* \"#utility.yul\":15755:15873   */\n      pop\n        /* \"#utility.yul\":15704:15873   */\n      swap3\n      swap2\n      pop\n      pop\n      jump\t// out\n        /* \"#utility.yul\":15878:16173   */\n    tag_291:\n        /* \"#utility.yul\":15954:15958   */\n      0x00\n        /* \"#utility.yul\":16100:16129   */\n      tag_495\n        /* \"#utility.yul\":16125:16128   */\n      dup4\n        /* \"#utility.yul\":16119:16123   */\n      dup4\n        /* \"#utility.yul\":16100:16129   */\n      tag_290\n      jump\t// in\n    tag_495:\n        /* \"#utility.yul\":16092:16129   */\n      swap2\n      pop\n        /* \"#utility.yul\":16162:16165   */\n      dup3\n        /* \"#utility.yul\":16159:16160   */\n      0x02\n        /* \"#utility.yul\":16155:16166   */\n      mul\n        /* \"#utility.yul\":16149:16153   */\n      dup3\n        /* \"#utility.yul\":16146:16167   */\n      or\n        /* \"#utility.yul\":16138:16167   */\n      swap1\n      pop\n        /* \"#utility.yul\":15878:16173   */\n      swap3\n      swap2\n      pop\n      pop\n      jump\t// out\n        /* \"#utility.yul\":16178:17573   */\n    tag_110:\n        /* \"#utility.yul\":16295:16332   */\n      tag_497\n        /* \"#utility.yul\":16328:16331   */\n      dup3\n        /* \"#utility.yul\":16295:16332   */\n      tag_253\n      jump\t// in\n    tag_497:\n        /* \"#utility.yul\":16397:16415   */\n      0xffffffffffffffff\n        /* \"#utility.yul\":16389:16395   */\n      dup2\n        /* \"#utility.yul\":16386:16416   */\n      gt\n        /* \"#utility.yul\":16383:16439   */\n      iszero\n      tag_498\n      jumpi\n        /* \"#utility.yul\":16419:16437   */\n      tag_499\n      tag_264\n      jump\t// in\n    tag_499:\n        /* \"#utility.yul\":16383:16439   */\n    tag_498:\n        /* \"#utility.yul\":16463:16501   */\n      tag_500\n        /* \"#utility.yul\":16495:16499   */\n      dup3\n        /* \"#utility.yul\":16489:16500   */\n      sload\n        /* \"#utility.yul\":16463:16501   */\n      tag_96\n      jump\t// in\n    tag_500:\n        /* \"#utility.yul\":16548:16615   */\n      tag_501\n        /* \"#utility.yul\":16608:16614   */\n      dup3\n        /* \"#utility.yul\":16600:16606   */\n      dup3\n        /* \"#utility.yul\":16594:16598   */\n      dup6\n        /* \"#utility.yul\":16548:16615   */\n      tag_288\n      jump\t// in\n    tag_501:\n        /* \"#utility.yul\":16642:16643   */\n      0x00\n        /* \"#utility.yul\":16666:16670   */\n      0x20\n        /* \"#utility.yul\":16653:16670   */\n      swap1\n      pop\n        /* \"#utility.yul\":16698:16700   */\n      0x1f\n        /* \"#utility.yul\":16690:16696   */\n      dup4\n        /* \"#utility.yul\":16687:16701   */\n      gt\n        /* \"#utility.yul\":16715:16716   */\n      0x01\n        /* \"#utility.yul\":16710:17328   */\n      dup2\n      eq\n      tag_503\n      jumpi\n        /* \"#utility.yul\":17372:17373   */\n      0x00\n        /* \"#utility.yul\":17389:17395   */\n      dup5\n        /* \"#utility.yul\":17386:17463   */\n      iszero\n      tag_504\n      jumpi\n        /* \"#utility.yul\":17438:17447   */\n      dup3\n        /* \"#utility.yul\":17433:17436   */\n      dup8\n        /* \"#utility.yul\":17429:17448   */\n      add\n        /* \"#utility.yul\":17423:17449   */\n      mload\n        /* \"#utility.yul\":17414:17449   */\n      swap1\n      pop\n        /* \"#utility.yul\":17386:17463   */\n    tag_504:\n        /* \"#utility.yul\":17489:17556   */\n      tag_505\n        /* \"#utility.yul\":17549:17555   */\n      dup6\n        /* \"#utility.yul\":17542:17547   */\n      dup3\n        /* \"#utility.yul\":17489:17556   */\n      tag_291\n      jump\t// in\n    tag_505:\n        /* \"#utility.yul\":17483:17487   */\n      dup7\n        /* \"#utility.yul\":17476:17557   */\n      sstore\n        /* \"#utility.yul\":17345:17567   */\n      pop\n        /* \"#utility.yul\":16680:17567   */\n      jump(tag_502)\n        /* \"#utility.yul\":16710:17328   */\n    tag_503:\n        /* \"#utility.yul\":16762:16766   */\n      0x1f\n        /* \"#utility.yul\":16758:16767   */\n      not\n        /* \"#utility.yul\":16750:16756   */\n      dup5\n        /* \"#utility.yul\":16746:16768   */\n      and\n        /* \"#utility.yul\":16796:16833   */\n      tag_506\n        /* \"#utility.yul\":16828:16832   */\n      dup7\n        /* \"#utility.yul\":16796:16833   */\n      tag_277\n      jump\t// in\n    tag_506:\n        /* \"#utility.yul\":16855:16856   */\n      0x00\n        /* \"#utility.yul\":16869:17077   */\n    tag_507:\n        /* \"#utility.yul\":16883:16890   */\n      dup3\n        /* \"#utility.yul\":16880:16881   */\n      dup2\n        /* \"#utility.yul\":16877:16891   */\n      lt\n        /* \"#utility.yul\":16869:17077   */\n      iszero\n      tag_509\n      jumpi\n        /* \"#utility.yul\":16962:16971   */\n      dup5\n        /* \"#utility.yul\":16957:16960   */\n      dup10\n        /* \"#utility.yul\":16953:16972   */\n      add\n        /* \"#utility.yul\":16947:16973   */\n      mload\n        /* \"#utility.yul\":16939:16945   */\n      dup3\n        /* \"#utility.yul\":16932:16974   */\n      sstore\n        /* \"#utility.yul\":17013:17014   */\n      0x01\n        /* \"#utility.yul\":17005:17011   */\n      dup3\n        /* \"#utility.yul\":17001:17015   */\n      add\n        /* \"#utility.yul\":16991:17015   */\n      swap2\n      pop\n        /* \"#utility.yul\":17060:17062   */\n      0x20\n        /* \"#utility.yul\":17049:17058   */\n      dup6\n        /* \"#utility.yul\":17045:17063   */\n      add\n        /* \"#utility.yul\":17032:17063   */\n      swap5\n      pop\n        /* \"#utility.yul\":16906:16910   */\n      0x20\n        /* \"#utility.yul\":16903:16904   */\n      dup2\n        /* \"#utility.yul\":16899:16911   */\n      add\n        /* \"#utility.yul\":16894:16911   */\n      swap1\n      pop\n        /* \"#utility.yul\":16869:17077   */\n      jump(tag_507)\n    tag_509:\n        /* \"#utility.yul\":17105:17111   */\n      dup7\n        /* \"#utility.yul\":17096:17103   */\n      dup4\n        /* \"#utility.yul\":17093:17112   */\n      lt\n        /* \"#utility.yul\":17090:17269   */\n      iszero\n      tag_510\n      jumpi\n        /* \"#utility.yul\":17163:17172   */\n      dup5\n        /* \"#utility.yul\":17158:17161   */\n      dup10\n        /* \"#utility.yul\":17154:17173   */\n      add\n        /* \"#utility.yul\":17148:17174   */\n      mload\n        /* \"#utility.yul\":17206:17254   */\n      tag_511\n        /* \"#utility.yul\":17248:17252   */\n      0x1f\n        /* \"#utility.yul\":17240:17246   */\n      dup10\n        /* \"#utility.yul\":17236:17253   */\n      and\n        /* \"#utility.yul\":17225:17234   */\n      dup3\n        /* \"#utility.yul\":17206:17254   */\n      tag_290\n      jump\t// in\n    tag_511:\n        /* \"#utility.yul\":17198:17204   */\n      dup4\n        /* \"#utility.yul\":17191:17255   */\n      sstore\n        /* \"#utility.yul\":17113:17269   */\n      pop\n        /* \"#utility.yul\":17090:17269   */\n    tag_510:\n        /* \"#utility.yul\":17315:17316   */\n      0x01\n        /* \"#utility.yul\":17311:17312   */\n      0x02\n        /* \"#utility.yul\":17303:17309   */\n      dup9\n        /* \"#utility.yul\":17299:17313   */\n      mul\n        /* \"#utility.yul\":17295:17317   */\n      add\n        /* \"#utility.yul\":17289:17293   */\n      dup9\n        /* \"#utility.yul\":17282:17318   */\n      sstore\n        /* \"#utility.yul\":16717:17328   */\n      pop\n      pop\n      pop\n        /* \"#utility.yul\":16680:17567   */\n    tag_502:\n      pop\n        /* \"#utility.yul\":16270:17573   */\n      pop\n      pop\n      pop\n        /* \"#utility.yul\":16178:17573   */\n      pop\n      pop\n      jump\t// out\n        /* \"#utility.yul\":17579:17989   */\n    tag_113:\n        /* \"#utility.yul\":17619:17626   */\n      0x00\n        /* \"#utility.yul\":17642:17662   */\n      tag_513\n        /* \"#utility.yul\":17660:17661   */\n      dup3\n        /* \"#utility.yul\":17642:17662   */\n      tag_246\n      jump\t// in\n    tag_513:\n        /* \"#utility.yul\":17637:17662   */\n      swap2\n      pop\n        /* \"#utility.yul\":17676:17696   */\n      tag_514\n        /* \"#utility.yul\":17694:17695   */\n      dup4\n        /* \"#utility.yul\":17676:17696   */\n      tag_246\n      jump\t// in\n    tag_514:\n        /* \"#utility.yul\":17671:17696   */\n      swap3\n      pop\n        /* \"#utility.yul\":17731:17732   */\n      dup3\n        /* \"#utility.yul\":17728:17729   */\n      dup3\n        /* \"#utility.yul\":17724:17733   */\n      mul\n        /* \"#utility.yul\":17753:17783   */\n      tag_515\n        /* \"#utility.yul\":17771:17782   */\n      dup2\n        /* \"#utility.yul\":17753:17783   */\n      tag_246\n      jump\t// in\n    tag_515:\n        /* \"#utility.yul\":17742:17783   */\n      swap2\n      pop\n        /* \"#utility.yul\":17932:17933   */\n      dup3\n        /* \"#utility.yul\":17923:17930   */\n      dup3\n        /* \"#utility.yul\":17919:17934   */\n      div\n        /* \"#utility.yul\":17916:17917   */\n      dup5\n        /* \"#utility.yul\":17913:17935   */\n      eq\n        /* \"#utility.yul\":17893:17894   */\n      dup4\n        /* \"#utility.yul\":17886:17895   */\n      iszero\n        /* \"#utility.yul\":17866:17949   */\n      or\n        /* \"#utility.yul\":17843:17982   */\n      tag_516\n      jumpi\n        /* \"#utility.yul\":17962:17980   */\n      tag_517\n      tag_276\n      jump\t// in\n    tag_517:\n        /* \"#utility.yul\":17843:17982   */\n    tag_516:\n        /* \"#utility.yul\":17627:17989   */\n      pop\n        /* \"#utility.yul\":17579:17989   */\n      swap3\n      swap2\n      pop\n      pop\n      jump\t// out\n        /* \"#utility.yul\":17995:18308   */\n    tag_115:\n        /* \"#utility.yul\":18108:18112   */\n      0x00\n        /* \"#utility.yul\":18146:18148   */\n      0x20\n        /* \"#utility.yul\":18135:18144   */\n      dup3\n        /* \"#utility.yul\":18131:18149   */\n      add\n        /* \"#utility.yul\":18123:18149   */\n      swap1\n      pop\n        /* \"#utility.yul\":18195:18204   */\n      dup2\n        /* \"#utility.yul\":18189:18193   */\n      dup2\n        /* \"#utility.yul\":18185:18205   */\n      sub\n        /* \"#utility.yul\":18181:18182   */\n      0x00\n        /* \"#utility.yul\":18170:18179   */\n      dup4\n        /* \"#utility.yul\":18166:18183   */\n      add\n        /* \"#utility.yul\":18159:18206   */\n      mstore\n        /* \"#utility.yul\":18223:18301   */\n      tag_519\n        /* \"#utility.yul\":18296:18300   */\n      dup2\n        /* \"#utility.yul\":18287:18293   */\n      dup5\n        /* \"#utility.yul\":18223:18301   */\n      tag_257\n      jump\t// in\n    tag_519:\n        /* \"#utility.yul\":18215:18301   */\n      swap1\n      pop\n        /* \"#utility.yul\":17995:18308   */\n      swap3\n      swap2\n      pop\n      pop\n      jump\t// out\n        /* \"#utility.yul\":18314:18505   */\n    tag_119:\n        /* \"#utility.yul\":18354:18357   */\n      0x00\n        /* \"#utility.yul\":18373:18393   */\n      tag_521\n        /* \"#utility.yul\":18391:18392   */\n      dup3\n        /* \"#utility.yul\":18373:18393   */\n      tag_246\n      jump\t// in\n    tag_521:\n        /* \"#utility.yul\":18368:18393   */\n      swap2\n      pop\n        /* \"#utility.yul\":18407:18427   */\n      tag_522\n        /* \"#utility.yul\":18425:18426   */\n      dup4\n        /* \"#utility.yul\":18407:18427   */\n      tag_246\n      jump\t// in\n    tag_522:\n        /* \"#utility.yul\":18402:18427   */\n      swap3\n      pop\n        /* \"#utility.yul\":18450:18451   */\n      dup3\n        /* \"#utility.yul\":18447:18448   */\n      dup3\n        /* \"#utility.yul\":18443:18452   */\n      add\n        /* \"#utility.yul\":18436:18452   */\n      swap1\n      pop\n        /* \"#utility.yul\":18471:18474   */\n      dup1\n        /* \"#utility.yul\":18468:18469   */\n      dup3\n        /* \"#utility.yul\":18465:18475   */\n      gt\n        /* \"#utility.yul\":18462:18498   */\n      iszero\n      tag_523\n      jumpi\n        /* \"#utility.yul\":18478:18496   */\n      tag_524\n      tag_276\n      jump\t// in\n    tag_524:\n        /* \"#utility.yul\":18462:18498   */\n    tag_523:\n        /* \"#utility.yul\":18314:18505   */\n      swap3\n      swap2\n      pop\n      pop\n      jump\t// out\n        /* \"#utility.yul\":18511:18685   */\n    tag_292:\n        /* \"#utility.yul\":18651:18677   */\n      0x566f74696e67207374696c6c20696e2070726f67726573730000000000000000\n        /* \"#utility.yul\":18647:18648   */\n      0x00\n        /* \"#utility.yul\":18639:18645   */\n      dup3\n        /* \"#utility.yul\":18635:18649   */\n      add\n        /* \"#utility.yul\":18628:18678   */\n      mstore\n        /* \"#utility.yul\":18511:18685   */\n      pop\n      jump\t// out\n        /* \"#utility.yul\":18691:19057   */\n    tag_293:\n        /* \"#utility.yul\":18833:18836   */\n      0x00\n        /* \"#utility.yul\":18854:18921   */\n      tag_527\n        /* \"#utility.yul\":18918:18920   */\n      0x18\n        /* \"#utility.yul\":18913:18916   */\n      dup4\n        /* \"#utility.yul\":18854:18921   */\n      tag_254\n      jump\t// in\n    tag_527:\n        /* \"#utility.yul\":18847:18921   */\n      swap2\n      pop\n        /* \"#utility.yul\":18930:19023   */\n      tag_528\n        /* \"#utility.yul\":19019:19022   */\n      dup3\n        /* \"#utility.yul\":18930:19023   */\n      tag_292\n      jump\t// in\n    tag_528:\n        /* \"#utility.yul\":19048:19050   */\n      0x20\n        /* \"#utility.yul\":19043:19046   */\n      dup3\n        /* \"#utility.yul\":19039:19051   */\n      add\n        /* \"#utility.yul\":19032:19051   */\n      swap1\n      pop\n        /* \"#utility.yul\":18691:19057   */\n      swap2\n      swap1\n      pop\n      jump\t// out\n        /* \"#utility.yul\":19063:19482   */\n    tag_122:\n        /* \"#utility.yul\":19229:19233   */\n      0x00\n        /* \"#utility.yul\":19267:19269   */\n      0x20\n        /* \"#utility.yul\":19256:19265   */\n      dup3\n        /* \"#utility.yul\":19252:19270   */\n      add\n        /* \"#utility.yul\":19244:19270   */\n      swap1\n      pop\n        /* \"#utility.yul\":19316:19325   */\n      dup2\n        /* \"#utility.yul\":19310:19314   */\n      dup2\n        /* \"#utility.yul\":19306:19326   */\n      sub\n        /* \"#utility.yul\":19302:19303   */\n      0x00\n        /* \"#utility.yul\":19291:19300   */\n      dup4\n        /* \"#utility.yul\":19287:19304   */\n      add\n        /* \"#utility.yul\":19280:19327   */\n      mstore\n        /* \"#utility.yul\":19344:19475   */\n      tag_530\n        /* \"#utility.yul\":19470:19474   */\n      dup2\n        /* \"#utility.yul\":19344:19475   */\n      tag_293\n      jump\t// in\n    tag_530:\n        /* \"#utility.yul\":19336:19475   */\n      swap1\n      pop\n        /* \"#utility.yul\":19063:19482   */\n      swap2\n      swap1\n      pop\n      jump\t// out\n        /* \"#utility.yul\":19488:19664   */\n    tag_294:\n        /* \"#utility.yul\":19628:19656   */\n      0x50726f706f73616c20616c72656164792066696e616c697a6564000000000000\n        /* \"#utility.yul\":19624:19625   */\n      0x00\n        /* \"#utility.yul\":19616:19622   */\n      dup3\n        /* \"#utility.yul\":19612:19626   */\n      add\n        /* \"#utility.yul\":19605:19657   */\n      mstore\n        /* \"#utility.yul\":19488:19664   */\n      pop\n      jump\t// out\n        /* \"#utility.yul\":19670:20036   */\n    tag_295:\n        /* \"#utility.yul\":19812:19815   */\n      0x00\n        /* \"#utility.yul\":19833:19900   */\n      tag_533\n        /* \"#utility.yul\":19897:19899   */\n      0x1a\n        /* \"#utility.yul\":19892:19895   */\n      dup4\n        /* \"#utility.yul\":19833:19900   */\n      tag_254\n      jump\t// in\n    tag_533:\n        /* \"#utility.yul\":19826:19900   */\n      swap2\n      pop\n        /* \"#utility.yul\":19909:20002   */\n      tag_534\n        /* \"#utility.yul\":19998:20001   */\n      dup3\n        /* \"#utility.yul\":19909:20002   */\n      tag_294\n      jump\t// in\n    tag_534:\n        /* \"#utility.yul\":20027:20029   */\n      0x20\n        /* \"#utility.yul\":20022:20025   */\n      dup3\n        /* \"#utility.yul\":20018:20030   */\n      add\n        /* \"#utility.yul\":20011:20030   */\n      swap1\n      pop\n        /* \"#utility.yul\":19670:20036   */\n      swap2\n      swap1\n      pop\n      jump\t// out\n        /* \"#utility.yul\":20042:20461   */\n    tag_130:\n        /* \"#utility.yul\":20208:20212   */\n      0x00\n        /* \"#utility.yul\":20246:20248   */\n      0x20\n        /* \"#utility.yul\":20235:20244   */\n      dup3\n        /* \"#utility.yul\":20231:20249   */\n      add\n        /* \"#utility.yul\":20223:20249   */\n      swap1\n      pop\n        /* \"#utility.yul\":20295:20304   */\n      dup2\n        /* \"#utility.yul\":20289:20293   */\n      dup2\n        /* \"#utility.yul\":20285:20305   */\n      sub\n        /* \"#utility.yul\":20281:20282   */\n      0x00\n        /* \"#utility.yul\":20270:20279   */\n      dup4\n        /* \"#utility.yul\":20266:20283   */\n      add\n        /* \"#utility.yul\":20259:20306   */\n      mstore\n        /* \"#utility.yul\":20323:20454   */\n      tag_536\n        /* \"#utility.yul\":20449:20453   */\n      dup2\n        /* \"#utility.yul\":20323:20454   */\n      tag_295\n      jump\t// in\n    tag_536:\n        /* \"#utility.yul\":20315:20454   */\n      swap1\n      pop\n        /* \"#utility.yul\":20042:20461   */\n      swap2\n      swap1\n      pop\n      jump\t// out\n        /* \"#utility.yul\":20467:20719   */\n    tag_138:\n        /* \"#utility.yul\":20575:20579   */\n      0x00\n        /* \"#utility.yul\":20613:20615   */\n      0x20\n        /* \"#utility.yul\":20602:20611   */\n      dup3\n        /* \"#utility.yul\":20598:20616   */\n      add\n        /* \"#utility.yul\":20590:20616   */\n      swap1\n      pop\n        /* \"#utility.yul\":20626:20712   */\n      tag_538\n        /* \"#utility.yul\":20709:20710   */\n      0x00\n        /* \"#utility.yul\":20698:20707   */\n      dup4\n        /* \"#utility.yul\":20694:20711   */\n      add\n        /* \"#utility.yul\":20685:20691   */\n      dup5\n        /* \"#utility.yul\":20626:20712   */\n      tag_261\n      jump\t// in\n    tag_538:\n        /* \"#utility.yul\":20467:20719   */\n      swap3\n      swap2\n      pop\n      pop\n      jump\t// out\n        /* \"#utility.yul\":20725:20899   */\n    tag_296:\n        /* \"#utility.yul\":20865:20891   */\n      0x4e6f742061206d656d626572206f662074686973205348470000000000000000\n        /* \"#utility.yul\":20861:20862   */\n      0x00\n        /* \"#utility.yul\":20853:20859   */\n      dup3\n        /* \"#utility.yul\":20849:20863   */\n      add\n        /* \"#utility.yul\":20842:20892   */\n      mstore\n        /* \"#utility.yul\":20725:20899   */\n      pop\n      jump\t// out\n        /* \"#utility.yul\":20905:21271   */\n    tag_297:\n        /* \"#utility.yul\":21047:21050   */\n      0x00\n        /* \"#utility.yul\":21068:21135   */\n      tag_541\n        /* \"#utility.yul\":21132:21134   */\n      0x18\n        /* \"#utility.yul\":21127:21130   */\n      dup4\n        /* \"#utility.yul\":21068:21135   */\n      tag_254\n      jump\t// in\n    tag_541:\n        /* \"#utility.yul\":21061:21135   */\n      swap2\n      pop\n        /* \"#utility.yul\":21144:21237   */\n      tag_542\n        /* \"#utility.yul\":21233:21236   */\n      dup3\n        /* \"#utility.yul\":21144:21237   */\n      tag_296\n      jump\t// in\n    tag_542:\n        /* \"#utility.yul\":21262:21264   */\n      0x20\n        /* \"#utility.yul\":21257:21260   */\n      dup3\n        /* \"#utility.yul\":21253:21265   */\n      add\n        /* \"#utility.yul\":21246:21265   */\n      swap1\n      pop\n        /* \"#utility.yul\":20905:21271   */\n      swap2\n      swap1\n      pop\n      jump\t// out\n        /* \"#utility.yul\":21277:21696   */\n    tag_142:\n        /* \"#utility.yul\":21443:21447   */\n      0x00\n        /* \"#utility.yul\":21481:21483   */\n      0x20\n        /* \"#utility.yul\":21470:21479   */\n      dup3\n        /* \"#utility.yul\":21466:21484   */\n      add\n        /* \"#utility.yul\":21458:21484   */\n      swap1\n      pop\n        /* \"#utility.yul\":21530:21539   */\n      dup2\n        /* \"#utility.yul\":21524:21528   */\n      dup2\n        /* \"#utility.yul\":21520:21540   */\n      sub\n        /* \"#utility.yul\":21516:21517   */\n      0x00\n        /* \"#utility.yul\":21505:21514   */\n      dup4\n        /* \"#utility.yul\":21501:21518   */\n      add\n        /* \"#utility.yul\":21494:21541   */\n      mstore\n        /* \"#utility.yul\":21558:21689   */\n      tag_544\n        /* \"#utility.yul\":21684:21688   */\n      dup2\n        /* \"#utility.yul\":21558:21689   */\n      tag_297\n      jump\t// in\n    tag_544:\n        /* \"#utility.yul\":21550:21689   */\n      swap1\n      pop\n        /* \"#utility.yul\":21277:21696   */\n      swap2\n      swap1\n      pop\n      jump\t// out\n        /* \"#utility.yul\":21702:21876   */\n    tag_298:\n        /* \"#utility.yul\":21842:21868   */\n      0x496e73756666696369656e74205348472062616c616e63650000000000000000\n        /* \"#utility.yul\":21838:21839   */\n      0x00\n        /* \"#utility.yul\":21830:21836   */\n      dup3\n        /* \"#utility.yul\":21826:21840   */\n      add\n        /* \"#utility.yul\":21819:21869   */\n      mstore\n        /* \"#utility.yul\":21702:21876   */\n      pop\n      jump\t// out\n        /* \"#utility.yul\":21882:22248   */\n    tag_299:\n        /* \"#utility.yul\":22024:22027   */\n      0x00\n        /* \"#utility.yul\":22045:22112   */\n      tag_547\n        /* \"#utility.yul\":22109:22111   */\n      0x18\n        /* \"#utility.yul\":22104:22107   */\n      dup4\n        /* \"#utility.yul\":22045:22112   */\n      tag_254\n      jump\t// in\n    tag_547:\n        /* \"#utility.yul\":22038:22112   */\n      swap2\n      pop\n        /* \"#utility.yul\":22121:22214   */\n      tag_548\n        /* \"#utility.yul\":22210:22213   */\n      dup3\n        /* \"#utility.yul\":22121:22214   */\n      tag_298\n      jump\t// in\n    tag_548:\n        /* \"#utility.yul\":22239:22241   */\n      0x20\n        /* \"#utility.yul\":22234:22237   */\n      dup3\n        /* \"#utility.yul\":22230:22242   */\n      add\n        /* \"#utility.yul\":22223:22242   */\n      swap1\n      pop\n        /* \"#utility.yul\":21882:22248   */\n      swap2\n      swap1\n      pop\n      jump\t// out\n        /* \"#utility.yul\":22254:22673   */\n    tag_146:\n        /* \"#utility.yul\":22420:22424   */\n      0x00\n        /* \"#utility.yul\":22458:22460   */\n      0x20\n        /* \"#utility.yul\":22447:22456   */\n      dup3\n        /* \"#utility.yul\":22443:22461   */\n      add\n        /* \"#utility.yul\":22435:22461   */\n      swap1\n      pop\n        /* \"#utility.yul\":22507:22516   */\n      dup2\n        /* \"#utility.yul\":22501:22505   */\n      dup2\n        /* \"#utility.yul\":22497:22517   */\n      sub\n        /* \"#utility.yul\":22493:22494   */\n      0x00\n        /* \"#utility.yul\":22482:22491   */\n      dup4\n        /* \"#utility.yul\":22478:22495   */\n      add\n        /* \"#utility.yul\":22471:22518   */\n      mstore\n        /* \"#utility.yul\":22535:22666   */\n      tag_550\n        /* \"#utility.yul\":22661:22665   */\n      dup2\n        /* \"#utility.yul\":22535:22666   */\n      tag_299\n      jump\t// in\n    tag_550:\n        /* \"#utility.yul\":22527:22666   */\n      swap1\n      pop\n        /* \"#utility.yul\":22254:22673   */\n      swap2\n      swap1\n      pop\n      jump\t// out\n        /* \"#utility.yul\":22679:22852   */\n    tag_300:\n        /* \"#utility.yul\":22819:22844   */\n      0x566f74696e6720706572696f642068617320656e646564000000000000000000\n        /* \"#utility.yul\":22815:22816   */\n      0x00\n        /* \"#utility.yul\":22807:22813   */\n      dup3\n        /* \"#utility.yul\":22803:22817   */\n      add\n        /* \"#utility.yul\":22796:22845   */\n      mstore\n        /* \"#utility.yul\":22679:22852   */\n      pop\n      jump\t// out\n        /* \"#utility.yul\":22858:23224   */\n    tag_301:\n        /* \"#utility.yul\":23000:23003   */\n      0x00\n        /* \"#utility.yul\":23021:23088   */\n      tag_553\n        /* \"#utility.yul\":23085:23087   */\n      0x17\n        /* \"#utility.yul\":23080:23083   */\n      dup4\n        /* \"#utility.yul\":23021:23088   */\n      tag_254\n      jump\t// in\n    tag_553:\n        /* \"#utility.yul\":23014:23088   */\n      swap2\n      pop\n        /* \"#utility.yul\":23097:23190   */\n      tag_554\n        /* \"#utility.yul\":23186:23189   */\n      dup3\n        /* \"#utility.yul\":23097:23190   */\n      tag_300\n      jump\t// in\n    tag_554:\n        /* \"#utility.yul\":23215:23217   */\n      0x20\n        /* \"#utility.yul\":23210:23213   */\n      dup3\n        /* \"#utility.yul\":23206:23218   */\n      add\n        /* \"#utility.yul\":23199:23218   */\n      swap1\n      pop\n        /* \"#utility.yul\":22858:23224   */\n      swap2\n      swap1\n      pop\n      jump\t// out\n        /* \"#utility.yul\":23230:23649   */\n    tag_160:\n        /* \"#utility.yul\":23396:23400   */\n      0x00\n        /* \"#utility.yul\":23434:23436   */\n      0x20\n        /* \"#utility.yul\":23423:23432   */\n      dup3\n        /* \"#utility.yul\":23419:23437   */\n      add\n        /* \"#utility.yul\":23411:23437   */\n      swap1\n      pop\n        /* \"#utility.yul\":23483:23492   */\n      dup2\n        /* \"#utility.yul\":23477:23481   */\n      dup2\n        /* \"#utility.yul\":23473:23493   */\n      sub\n        /* \"#utility.yul\":23469:23470   */\n      0x00\n        /* \"#utility.yul\":23458:23467   */\n      dup4\n        /* \"#utility.yul\":23454:23471   */\n      add\n        /* \"#utility.yul\":23447:23494   */\n      mstore\n        /* \"#utility.yul\":23511:23642   */\n      tag_556\n        /* \"#utility.yul\":23637:23641   */\n      dup2\n        /* \"#utility.yul\":23511:23642   */\n      tag_301\n      jump\t// in\n    tag_556:\n        /* \"#utility.yul\":23503:23642   */\n      swap1\n      pop\n        /* \"#utility.yul\":23230:23649   */\n      swap2\n      swap1\n      pop\n      jump\t// out\n        /* \"#utility.yul\":23655:23825   */\n    tag_302:\n        /* \"#utility.yul\":23795:23817   */\n      0x50726f706f7365722063616e6e6f7420766f7465000000000000000000000000\n        /* \"#utility.yul\":23791:23792   */\n      0x00\n        /* \"#utility.yul\":23783:23789   */\n      dup3\n        /* \"#utility.yul\":23779:23793   */\n      add\n        /* \"#utility.yul\":23772:23818   */\n      mstore\n        /* \"#utility.yul\":23655:23825   */\n      pop\n      jump\t// out\n        /* \"#utility.yul\":23831:24197   */\n    tag_303:\n        /* \"#utility.yul\":23973:23976   */\n      0x00\n        /* \"#utility.yul\":23994:24061   */\n      tag_559\n        /* \"#utility.yul\":24058:24060   */\n      0x14\n        /* \"#utility.yul\":24053:24056   */\n      dup4\n        /* \"#utility.yul\":23994:24061   */\n      tag_254\n      jump\t// in\n    tag_559:\n        /* \"#utility.yul\":23987:24061   */\n      swap2\n      pop\n        /* \"#utility.yul\":24070:24163   */\n      tag_560\n        /* \"#utility.yul\":24159:24162   */\n      dup3\n        /* \"#utility.yul\":24070:24163   */\n      tag_302\n      jump\t// in\n    tag_560:\n        /* \"#utility.yul\":24188:24190   */\n      0x20\n        /* \"#utility.yul\":24183:24186   */\n      dup3\n        /* \"#utility.yul\":24179:24191   */\n      add\n        /* \"#utility.yul\":24172:24191   */\n      swap1\n      pop\n        /* \"#utility.yul\":23831:24197   */\n      swap2\n      swap1\n      pop\n      jump\t// out\n        /* \"#utility.yul\":24203:24622   */\n    tag_163:\n        /* \"#utility.yul\":24369:24373   */\n      0x00\n        /* \"#utility.yul\":24407:24409   */\n      0x20\n        /* \"#utility.yul\":24396:24405   */\n      dup3\n        /* \"#utility.yul\":24392:24410   */\n      add\n        /* \"#utility.yul\":24384:24410   */\n      swap1\n      pop\n        /* \"#utility.yul\":24456:24465   */\n      dup2\n        /* \"#utility.yul\":24450:24454   */\n      dup2\n        /* \"#utility.yul\":24446:24466   */\n      sub\n        /* \"#utility.yul\":24442:24443   */\n      0x00\n        /* \"#utility.yul\":24431:24440   */\n      dup4\n        /* \"#utility.yul\":24427:24444   */\n      add\n        /* \"#utility.yul\":24420:24467   */\n      mstore\n        /* \"#utility.yul\":24484:24615   */\n      tag_562\n        /* \"#utility.yul\":24610:24614   */\n      dup2\n        /* \"#utility.yul\":24484:24615   */\n      tag_303\n      jump\t// in\n    tag_562:\n        /* \"#utility.yul\":24476:24615   */\n      swap1\n      pop\n        /* \"#utility.yul\":24203:24622   */\n      swap2\n      swap1\n      pop\n      jump\t// out\n        /* \"#utility.yul\":24628:24800   */\n    tag_304:\n        /* \"#utility.yul\":24768:24792   */\n      0x596f75206861766520616c726561647920766f74656400000000000000000000\n        /* \"#utility.yul\":24764:24765   */\n      0x00\n        /* \"#utility.yul\":24756:24762   */\n      dup3\n        /* \"#utility.yul\":24752:24766   */\n      add\n        /* \"#utility.yul\":24745:24793   */\n      mstore\n        /* \"#utility.yul\":24628:24800   */\n      pop\n      jump\t// out\n        /* \"#utility.yul\":24806:25172   */\n    tag_305:\n        /* \"#utility.yul\":24948:24951   */\n      0x00\n        /* \"#utility.yul\":24969:25036   */\n      tag_565\n        /* \"#utility.yul\":25033:25035   */\n      0x16\n        /* \"#utility.yul\":25028:25031   */\n      dup4\n        /* \"#utility.yul\":24969:25036   */\n      tag_254\n      jump\t// in\n    tag_565:\n        /* \"#utility.yul\":24962:25036   */\n      swap2\n      pop\n        /* \"#utility.yul\":25045:25138   */\n      tag_566\n        /* \"#utility.yul\":25134:25137   */\n      dup3\n        /* \"#utility.yul\":25045:25138   */\n      tag_304\n      jump\t// in\n    tag_566:\n        /* \"#utility.yul\":25163:25165   */\n      0x20\n        /* \"#utility.yul\":25158:25161   */\n      dup3\n        /* \"#utility.yul\":25154:25166   */\n      add\n        /* \"#utility.yul\":25147:25166   */\n      swap1\n      pop\n        /* \"#utility.yul\":24806:25172   */\n      swap2\n      swap1\n      pop\n      jump\t// out\n        /* \"#utility.yul\":25178:25597   */\n    tag_167:\n        /* \"#utility.yul\":25344:25348   */\n      0x00\n        /* \"#utility.yul\":25382:25384   */\n      0x20\n        /* \"#utility.yul\":25371:25380   */\n      dup3\n        /* \"#utility.yul\":25367:25385   */\n      add\n        /* \"#utility.yul\":25359:25385   */\n      swap1\n      pop\n        /* \"#utility.yul\":25431:25440   */\n      dup2\n        /* \"#utility.yul\":25425:25429   */\n      dup2\n        /* \"#utility.yul\":25421:25441   */\n      sub\n        /* \"#utility.yul\":25417:25418   */\n      0x00\n        /* \"#utility.yul\":25406:25415   */\n      dup4\n        /* \"#utility.yul\":25402:25419   */\n      add\n        /* \"#utility.yul\":25395:25442   */\n      mstore\n        /* \"#utility.yul\":25459:25590   */\n      tag_568\n        /* \"#utility.yul\":25585:25589   */\n      dup2\n        /* \"#utility.yul\":25459:25590   */\n      tag_305\n      jump\t// in\n    tag_568:\n        /* \"#utility.yul\":25451:25590   */\n      swap1\n      pop\n        /* \"#utility.yul\":25178:25597   */\n      swap2\n      swap1\n      pop\n      jump\t// out\n        /* \"#utility.yul\":25603:25813   */\n    tag_170:\n        /* \"#utility.yul\":25690:25694   */\n      0x00\n        /* \"#utility.yul\":25728:25730   */\n      0x20\n        /* \"#utility.yul\":25717:25726   */\n      dup3\n        /* \"#utility.yul\":25713:25731   */\n      add\n        /* \"#utility.yul\":25705:25731   */\n      swap1\n      pop\n        /* \"#utility.yul\":25741:25806   */\n      tag_570\n        /* \"#utility.yul\":25803:25804   */\n      0x00\n        /* \"#utility.yul\":25792:25801   */\n      dup4\n        /* \"#utility.yul\":25788:25805   */\n      add\n        /* \"#utility.yul\":25779:25785   */\n      dup5\n        /* \"#utility.yul\":25741:25806   */\n      tag_274\n      jump\t// in\n    tag_570:\n        /* \"#utility.yul\":25603:25813   */\n      swap3\n      swap2\n      pop\n      pop\n      jump\t// out\n        /* \"#utility.yul\":25819:25984   */\n    tag_306:\n        /* \"#utility.yul\":25959:25976   */\n      0x4d7573742073656e642066756e64730000000000000000000000000000000000\n        /* \"#utility.yul\":25955:25956   */\n      0x00\n        /* \"#utility.yul\":25947:25953   */\n      dup3\n        /* \"#utility.yul\":25943:25957   */\n      add\n        /* \"#utility.yul\":25936:25977   */\n      mstore\n        /* \"#utility.yul\":25819:25984   */\n      pop\n      jump\t// out\n        /* \"#utility.yul\":25990:26356   */\n    tag_307:\n        /* \"#utility.yul\":26132:26135   */\n      0x00\n        /* \"#utility.yul\":26153:26220   */\n      tag_573\n        /* \"#utility.yul\":26217:26219   */\n      0x0f\n        /* \"#utility.yul\":26212:26215   */\n      dup4\n        /* \"#utility.yul\":26153:26220   */\n      tag_254\n      jump\t// in\n    tag_573:\n        /* \"#utility.yul\":26146:26220   */\n      swap2\n      pop\n        /* \"#utility.yul\":26229:26322   */\n      tag_574\n        /* \"#utility.yul\":26318:26321   */\n      dup3\n        /* \"#utility.yul\":26229:26322   */\n      tag_306\n      jump\t// in\n    tag_574:\n        /* \"#utility.yul\":26347:26349   */\n      0x20\n        /* \"#utility.yul\":26342:26345   */\n      dup3\n        /* \"#utility.yul\":26338:26350   */\n      add\n        /* \"#utility.yul\":26331:26350   */\n      swap1\n      pop\n        /* \"#utility.yul\":25990:26356   */\n      swap2\n      swap1\n      pop\n      jump\t// out\n        /* \"#utility.yul\":26362:26781   */\n    tag_188:\n        /* \"#utility.yul\":26528:26532   */\n      0x00\n        /* \"#utility.yul\":26566:26568   */\n      0x20\n        /* \"#utility.yul\":26555:26564   */\n      dup3\n        /* \"#utility.yul\":26551:26569   */\n      add\n        /* \"#utility.yul\":26543:26569   */\n      swap1\n      pop\n        /* \"#utility.yul\":26615:26624   */\n      dup2\n        /* \"#utility.yul\":26609:26613   */\n      dup2\n        /* \"#utility.yul\":26605:26625   */\n      sub\n        /* \"#utility.yul\":26601:26602   */\n      0x00\n        /* \"#utility.yul\":26590:26599   */\n      dup4\n        /* \"#utility.yul\":26586:26603   */\n      add\n        /* \"#utility.yul\":26579:26626   */\n      mstore\n        /* \"#utility.yul\":26643:26774   */\n      tag_576\n        /* \"#utility.yul\":26769:26773   */\n      dup2\n        /* \"#utility.yul\":26643:26774   */\n      tag_307\n      jump\t// in\n    tag_576:\n        /* \"#utility.yul\":26635:26774   */\n      swap1\n      pop\n        /* \"#utility.yul\":26362:26781   */\n      swap2\n      swap1\n      pop\n      jump\t// out\n        /* \"#utility.yul\":26787:26967   */\n    tag_197:\n        /* \"#utility.yul\":26835:26912   */\n      0x4e487b7100000000000000000000000000000000000000000000000000000000\n        /* \"#utility.yul\":26832:26833   */\n      0x00\n        /* \"#utility.yul\":26825:26913   */\n      mstore\n        /* \"#utility.yul\":26932:26936   */\n      0x32\n        /* \"#utility.yul\":26929:26930   */\n      0x04\n        /* \"#utility.yul\":26922:26937   */\n      mstore\n        /* \"#utility.yul\":26956:26960   */\n      0x24\n        /* \"#utility.yul\":26953:26954   */\n      0x00\n        /* \"#utility.yul\":26946:26961   */\n      revert\n        /* \"#utility.yul\":26973:27152   */\n    tag_308:\n        /* \"#utility.yul\":27113:27144   */\n      0x4f6e6c792070726f706f7365722063616e20636c61696d2066756e6473000000\n        /* \"#utility.yul\":27109:27110   */\n      0x00\n        /* \"#utility.yul\":27101:27107   */\n      dup3\n        /* \"#utility.yul\":27097:27111   */\n      add\n        /* \"#utility.yul\":27090:27145   */\n      mstore\n        /* \"#utility.yul\":26973:27152   */\n      pop\n      jump\t// out\n        /* \"#utility.yul\":27158:27524   */\n    tag_309:\n        /* \"#utility.yul\":27300:27303   */\n      0x00\n        /* \"#utility.yul\":27321:27388   */\n      tag_580\n        /* \"#utility.yul\":27385:27387   */\n      0x1d\n        /* \"#utility.yul\":27380:27383   */\n      dup4\n        /* \"#utility.yul\":27321:27388   */\n      tag_254\n      jump\t// in\n    tag_580:\n        /* \"#utility.yul\":27314:27388   */\n      swap2\n      pop\n        /* \"#utility.yul\":27397:27490   */\n      tag_581\n        /* \"#utility.yul\":27486:27489   */\n      dup3\n        /* \"#utility.yul\":27397:27490   */\n      tag_308\n      jump\t// in\n    tag_581:\n        /* \"#utility.yul\":27515:27517   */\n      0x20\n        /* \"#utility.yul\":27510:27513   */\n      dup3\n        /* \"#utility.yul\":27506:27518   */\n      add\n        /* \"#utility.yul\":27499:27518   */\n      swap1\n      pop\n        /* \"#utility.yul\":27158:27524   */\n      swap2\n      swap1\n      pop\n      jump\t// out\n        /* \"#utility.yul\":27530:27949   */\n    tag_222:\n        /* \"#utility.yul\":27696:27700   */\n      0x00\n        /* \"#utility.yul\":27734:27736   */\n      0x20\n        /* \"#utility.yul\":27723:27732   */\n      dup3\n        /* \"#utility.yul\":27719:27737   */\n      add\n        /* \"#utility.yul\":27711:27737   */\n      swap1\n      pop\n        /* \"#utility.yul\":27783:27792   */\n      dup2\n        /* \"#utility.yul\":27777:27781   */\n      dup2\n        /* \"#utility.yul\":27773:27793   */\n      sub\n        /* \"#utility.yul\":27769:27770   */\n      0x00\n        /* \"#utility.yul\":27758:27767   */\n      dup4\n        /* \"#utility.yul\":27754:27771   */\n      add\n        /* \"#utility.yul\":27747:27794   */\n      mstore\n        /* \"#utility.yul\":27811:27942   */\n      tag_583\n        /* \"#utility.yul\":27937:27941   */\n      dup2\n        /* \"#utility.yul\":27811:27942   */\n      tag_309\n      jump\t// in\n    tag_583:\n        /* \"#utility.yul\":27803:27942   */\n      swap1\n      pop\n        /* \"#utility.yul\":27530:27949   */\n      swap2\n      swap1\n      pop\n      jump\t// out\n        /* \"#utility.yul\":27955:28126   */\n    tag_310:\n        /* \"#utility.yul\":28095:28118   */\n      0x50726f706f73616c206e6f7420617070726f7665640000000000000000000000\n        /* \"#utility.yul\":28091:28092   */\n      0x00\n        /* \"#utility.yul\":28083:28089   */\n      dup3\n        /* \"#utility.yul\":28079:28093   */\n      add\n        /* \"#utility.yul\":28072:28119   */\n      mstore\n        /* \"#utility.yul\":27955:28126   */\n      pop\n      jump\t// out\n        /* \"#utility.yul\":28132:28498   */\n    tag_311:\n        /* \"#utility.yul\":28274:28277   */\n      0x00\n        /* \"#utility.yul\":28295:28362   */\n      tag_586\n        /* \"#utility.yul\":28359:28361   */\n      0x15\n        /* \"#utility.yul\":28354:28357   */\n      dup4\n        /* \"#utility.yul\":28295:28362   */\n      tag_254\n      jump\t// in\n    tag_586:\n        /* \"#utility.yul\":28288:28362   */\n      swap2\n      pop\n        /* \"#utility.yul\":28371:28464   */\n      tag_587\n        /* \"#utility.yul\":28460:28463   */\n      dup3\n        /* \"#utility.yul\":28371:28464   */\n      tag_310\n      jump\t// in\n    tag_587:\n        /* \"#utility.yul\":28489:28491   */\n      0x20\n        /* \"#utility.yul\":28484:28487   */\n      dup3\n        /* \"#utility.yul\":28480:28492   */\n      add\n        /* \"#utility.yul\":28473:28492   */\n      swap1\n      pop\n        /* \"#utility.yul\":28132:28498   */\n      swap2\n      swap1\n      pop\n      jump\t// out\n        /* \"#utility.yul\":28504:28923   */\n    tag_229:\n        /* \"#utility.yul\":28670:28674   */\n      0x00\n        /* \"#utility.yul\":28708:28710   */\n      0x20\n        /* \"#utility.yul\":28697:28706   */\n      dup3\n        /* \"#utility.yul\":28693:28711   */\n      add\n        /* \"#utility.yul\":28685:28711   */\n      swap1\n      pop\n        /* \"#utility.yul\":28757:28766   */\n      dup2\n        /* \"#utility.yul\":28751:28755   */\n      dup2\n        /* \"#utility.yul\":28747:28767   */\n      sub\n        /* \"#utility.yul\":28743:28744   */\n      0x00\n        /* \"#utility.yul\":28732:28741   */\n      dup4\n        /* \"#utility.yul\":28728:28745   */\n      add\n        /* \"#utility.yul\":28721:28768   */\n      mstore\n        /* \"#utility.yul\":28785:28916   */\n      tag_589\n        /* \"#utility.yul\":28911:28915   */\n      dup2\n        /* \"#utility.yul\":28785:28916   */\n      tag_311\n      jump\t// in\n    tag_589:\n        /* \"#utility.yul\":28777:28916   */\n      swap1\n      pop\n        /* \"#utility.yul\":28504:28923   */\n      swap2\n      swap1\n      pop\n      jump\t// out\n        /* \"#utility.yul\":28929:29123   */\n    tag_233:\n        /* \"#utility.yul\":28969:28973   */\n      0x00\n        /* \"#utility.yul\":28989:29009   */\n      tag_591\n        /* \"#utility.yul\":29007:29008   */\n      dup3\n        /* \"#utility.yul\":28989:29009   */\n      tag_246\n      jump\t// in\n    tag_591:\n        /* \"#utility.yul\":28984:29009   */\n      swap2\n      pop\n        /* \"#utility.yul\":29023:29043   */\n      tag_592\n        /* \"#utility.yul\":29041:29042   */\n      dup4\n        /* \"#utility.yul\":29023:29043   */\n      tag_246\n      jump\t// in\n    tag_592:\n        /* \"#utility.yul\":29018:29043   */\n      swap3\n      pop\n        /* \"#utility.yul\":29067:29068   */\n      dup3\n        /* \"#utility.yul\":29064:29065   */\n      dup3\n        /* \"#utility.yul\":29060:29069   */\n      sub\n        /* \"#utility.yul\":29052:29069   */\n      swap1\n      pop\n        /* \"#utility.yul\":29091:29092   */\n      dup2\n        /* \"#utility.yul\":29085:29089   */\n      dup2\n        /* \"#utility.yul\":29082:29093   */\n      gt\n        /* \"#utility.yul\":29079:29116   */\n      iszero\n      tag_593\n      jumpi\n        /* \"#utility.yul\":29096:29114   */\n      tag_594\n      tag_276\n      jump\t// in\n    tag_594:\n        /* \"#utility.yul\":29079:29116   */\n    tag_593:\n        /* \"#utility.yul\":28929:29123   */\n      swap3\n      swap2\n      pop\n      pop\n      jump\t// out\n        /* \"#utility.yul\":29129:29276   */\n    tag_312:\n        /* \"#utility.yul\":29230:29241   */\n      0x00\n        /* \"#utility.yul\":29267:29270   */\n      dup2\n        /* \"#utility.yul\":29252:29270   */\n      swap1\n      pop\n        /* \"#utility.yul\":29129:29276   */\n      swap3\n      swap2\n      pop\n      pop\n      jump\t// out\n        /* \"#utility.yul\":29282:29396   */\n    tag_313:\n      pop\n      jump\t// out\n        /* \"#utility.yul\":29402:29800   */\n    tag_314:\n        /* \"#utility.yul\":29561:29564   */\n      0x00\n        /* \"#utility.yul\":29582:29665   */\n      tag_598\n        /* \"#utility.yul\":29663:29664   */\n      0x00\n        /* \"#utility.yul\":29658:29661   */\n      dup4\n        /* \"#utility.yul\":29582:29665   */\n      tag_312\n      jump\t// in\n    tag_598:\n        /* \"#utility.yul\":29575:29665   */\n      swap2\n      pop\n        /* \"#utility.yul\":29674:29767   */\n      tag_599\n        /* \"#utility.yul\":29763:29766   */\n      dup3\n        /* \"#utility.yul\":29674:29767   */\n      tag_313\n      jump\t// in\n    tag_599:\n        /* \"#utility.yul\":29792:29793   */\n      0x00\n        /* \"#utility.yul\":29787:29790   */\n      dup3\n        /* \"#utility.yul\":29783:29794   */\n      add\n        /* \"#utility.yul\":29776:29794   */\n      swap1\n      pop\n        /* \"#utility.yul\":29402:29800   */\n      swap2\n      swap1\n      pop\n      jump\t// out\n        /* \"#utility.yul\":29806:30185   */\n    tag_235:\n        /* \"#utility.yul\":29990:29993   */\n      0x00\n        /* \"#utility.yul\":30012:30159   */\n      tag_601\n        /* \"#utility.yul\":30155:30158   */\n      dup3\n        /* \"#utility.yul\":30012:30159   */\n      tag_314\n      jump\t// in\n    tag_601:\n        /* \"#utility.yul\":30005:30159   */\n      swap2\n      pop\n        /* \"#utility.yul\":30176:30179   */\n      dup2\n        /* \"#utility.yul\":30169:30179   */\n      swap1\n      pop\n        /* \"#utility.yul\":29806:30185   */\n      swap2\n      swap1\n      pop\n      jump\t// out\n        /* \"#utility.yul\":30191:30356   */\n    tag_315:\n        /* \"#utility.yul\":30331:30348   */\n      0x5472616e73666572206661696c65640000000000000000000000000000000000\n        /* \"#utility.yul\":30327:30328   */\n      0x00\n        /* \"#utility.yul\":30319:30325   */\n      dup3\n        /* \"#utility.yul\":30315:30329   */\n      add\n        /* \"#utility.yul\":30308:30349   */\n      mstore\n        /* \"#utility.yul\":30191:30356   */\n      pop\n      jump\t// out\n        /* \"#utility.yul\":30362:30728   */\n    tag_316:\n        /* \"#utility.yul\":30504:30507   */\n      0x00\n        /* \"#utility.yul\":30525:30592   */\n      tag_604\n        /* \"#utility.yul\":30589:30591   */\n      0x0f\n        /* \"#utility.yul\":30584:30587   */\n      dup4\n        /* \"#utility.yul\":30525:30592   */\n      tag_254\n      jump\t// in\n    tag_604:\n        /* \"#utility.yul\":30518:30592   */\n      swap2\n      pop\n        /* \"#utility.yul\":30601:30694   */\n      tag_605\n        /* \"#utility.yul\":30690:30693   */\n      dup3\n        /* \"#utility.yul\":30601:30694   */\n      tag_315\n      jump\t// in\n    tag_605:\n        /* \"#utility.yul\":30719:30721   */\n      0x20\n        /* \"#utility.yul\":30714:30717   */\n      dup3\n        /* \"#utility.yul\":30710:30722   */\n      add\n        /* \"#utility.yul\":30703:30722   */\n      swap1\n      pop\n        /* \"#utility.yul\":30362:30728   */\n      swap2\n      swap1\n      pop\n      jump\t// out\n        /* \"#utility.yul\":30734:31153   */\n    tag_241:\n        /* \"#utility.yul\":30900:30904   */\n      0x00\n        /* \"#utility.yul\":30938:30940   */\n      0x20\n        /* \"#utility.yul\":30927:30936   */\n      dup3\n        /* \"#utility.yul\":30923:30941   */\n      add\n        /* \"#utility.yul\":30915:30941   */\n      swap1\n      pop\n        /* \"#utility.yul\":30987:30996   */\n      dup2\n        /* \"#utility.yul\":30981:30985   */\n      dup2\n        /* \"#utility.yul\":30977:30997   */\n      sub\n        /* \"#utility.yul\":30973:30974   */\n      0x00\n        /* \"#utility.yul\":30962:30971   */\n      dup4\n        /* \"#utility.yul\":30958:30975   */\n      add\n        /* \"#utility.yul\":30951:30998   */\n      mstore\n        /* \"#utility.yul\":31015:31146   */\n      tag_607\n        /* \"#utility.yul\":31141:31145   */\n      dup2\n        /* \"#utility.yul\":31015:31146   */\n      tag_316\n      jump\t// in\n    tag_607:\n        /* \"#utility.yul\":31007:31146   */\n      swap1\n      pop\n        /* \"#utility.yul\":30734:31153   */\n      swap2\n      swap1\n      pop\n      jump\t// out\n\n    auxdata: 0xa26469706673582212209856352d08019752f8e46f0fec2e3be03e873f707d248bf5c290bf2a1294ccb964736f6c634300081a0033\n}\n",
				"bytecode": {
					"linkReferences": {},
					"object": "60806040525f80555f6001553480156015575f80fd5b506128de806100235f395ff3fe6080604052600436106100e7575f3560e01c80637641f2b811610089578063be99970511610058578063be99970514610319578063c0b8bb6114610335578063f37ad2e914610372578063f5fffc0f1461039a576100e7565b80637641f2b814610235578063976eb77414610271578063b979ce06146102b3578063bc35baa3146102dd576100e7565b8063484c4c81116100c5578063484c4c81146101815780635652077c146101bd5780635ada0a41146101e5578063750e443a1461020d576100e7565b806316e9eaec146100eb5780631cc75df41461012f5780632dfca44514610157575b5f80fd5b3480156100f6575f80fd5b50610111600480360381019061010c919061198e565b6103c2565b60405161012699989796959493929190611aea565b60405180910390f35b34801561013a575f80fd5b5061015560048036038101906101509190611caf565b610543565b005b348015610162575f80fd5b5061016b610651565b6040516101789190611d37565b60405180910390f35b34801561018c575f80fd5b506101a760048036038101906101a29190611d7a565b610657565b6040516101b49190611d37565b60405180910390f35b3480156101c8575f80fd5b506101e360048036038101906101de919061198e565b6106b0565b005b3480156101f0575f80fd5b5061020b60048036038101906102069190611db8565b610861565b005b348015610218575f80fd5b50610233600480360381019061022e919061198e565b610ab3565b005b348015610240575f80fd5b5061025b60048036038101906102569190611e54565b610deb565b6040516102689190611d37565b60405180910390f35b34801561027c575f80fd5b506102976004803603810190610292919061198e565b610e16565b6040516102aa9796959493929190611e92565b60405180910390f35b3480156102be575f80fd5b506102c7610f7f565b6040516102d49190611d37565b60405180910390f35b3480156102e8575f80fd5b5061030360048036038101906102fe9190611f0d565b610f84565b6040516103109190611d37565b60405180910390f35b610333600480360381019061032e919061198e565b610faf565b005b348015610340575f80fd5b5061035b60048036038101906103569190611d7a565b6112b1565b604051610369929190611f65565b60405180910390f35b34801561037d575f80fd5b506103986004803603810190610393919061198e565b61136b565b005b3480156103a5575f80fd5b506103c060048036038101906103bb9190611e54565b6116a4565b005b6005602052805f5260405f205f91509050805f015490806001015f9054906101000a900473ffffffffffffffffffffffffffffffffffffffff169080600201805461040c90611fb9565b80601f016020809104026020016040519081016040528092919081815260200182805461043890611fb9565b80156104835780601f1061045a57610100808354040283529160200191610483565b820191905f5260205f20905b81548152906001019060200180831161046657829003601f168201915b50505050509080600301805461049890611fb9565b80601f01602080910402602001604051908101604052809291908181526020018280546104c490611fb9565b801561050f5780601f106104e65761010080835404028352916020019161050f565b820191905f5260205f20905b8154815290600101906020018083116104f257829003601f168201915b505050505090806004015490806005015490806006015490806007015490806008015f9054906101000a900460ff16905089565b5f8081548092919061055490612016565b91905055505f60025f805481526020019081526020015f20905033815f015f6101000a81548173ffffffffffffffffffffffffffffffffffffffff021916908373ffffffffffffffffffffffffffffffffffffffff160217905550838160010190816105c091906121fa565b50828160020190816105d291906121fa565b504281600301819055505f8160040181905550610e10826105f391906122c9565b81600801819055503373ffffffffffffffffffffffffffffffffffffffff165f547fc1542960c8708fa89cc7bbc364ab9741be9373ede08d56467e106a08365bbba086604051610643919061230a565b60405180910390a350505050565b60015481565b5f60025f8481526020019081526020015f206005015f8373ffffffffffffffffffffffffffffffffffffffff1673ffffffffffffffffffffffffffffffffffffffff1681526020019081526020015f2054905092915050565b5f60055f8381526020019081526020015f2090505f60025f835f015481526020019081526020015f209050806008015482600701546106ef919061232a565b4211610730576040517f08c379a0000000000000000000000000000000000000000000000000000000008152600401610727906123a7565b60405180910390fd5b5f600281111561074357610742611a77565b5b826008015f9054906101000a900460ff16600281111561076657610765611a77565b5b146107a6576040517f08c379a000000000000000000000000000000000000000000000000000000000815260040161079d9061240f565b60405180910390fd5b8160060154826005015411156107e7576001826008015f6101000a81548160ff021916908360028111156107dd576107dc611a77565b5b0217905550610814565b6002826008015f6101000a81548160ff0219169083600281111561080e5761080d611a77565b5b02179055505b827f34a42c4ce0a88d16ad098de6406057747139a2a3dd8dd8616ee7bbabcecb768e836008015f9054906101000a900460ff16604051610854919061242d565b60405180910390a2505050565b835f60025f8381526020019081526020015f206005015f3373ffffffffffffffffffffffffffffffffffffffff1673ffffffffffffffffffffffffffffffffffffffff1681526020019081526020015f2054116108f3576040517f08c379a00000000000000000000000000000000000000000000000000000000081526004016108ea90612490565b60405180910390fd5b60025f8681526020019081526020015f206004015482111561094a576040517f08c379a0000000000000000000000000000000000000000000000000000000008152600401610941906124f8565b60405180910390fd5b60015f81548092919061095c90612016565b919050555060045f8681526020019081526020015f20600154908060018154018082558091505060019003905f5260205f20015f90919091909150555f60055f60015481526020019081526020015f20905085815f018190555033816001015f6101000a81548173ffffffffffffffffffffffffffffffffffffffff021916908373ffffffffffffffffffffffffffffffffffffffff16021790555084816002019081610a0991906121fa565b5083816003019081610a1b91906121fa565b508281600401819055504281600701819055505f816008015f6101000a81548160ff02191690836002811115610a5457610a53611a77565b5b02179055503373ffffffffffffffffffffffffffffffffffffffff16866001547f6f3322e9e9bcd9739d7dcbb73278ee28b363d39f7900bd404831ee8dfb41608e88604051610aa3919061230a565b60405180910390a4505050505050565b5f60055f8381526020019081526020015f2090505f60025f835f015481526020019081526020015f2090505f816005015f3373ffffffffffffffffffffffffffffffffffffffff1673ffffffffffffffffffffffffffffffffffffffff1681526020019081526020015f205411610b5f576040517f08c379a0000000000000000000000000000000000000000000000000000000008152600401610b5690612490565b60405180910390fd5b80600801548260070154610b73919061232a565b421115610bb5576040517f08c379a0000000000000000000000000000000000000000000000000000000008152600401610bac90612560565b60405180910390fd5b816001015f9054906101000a900473ffffffffffffffffffffffffffffffffffffffff1673ffffffffffffffffffffffffffffffffffffffff163373ffffffffffffffffffffffffffffffffffffffff1603610c46576040517f08c379a0000000000000000000000000000000000000000000000000000000008152600401610c3d906125c8565b60405180910390fd5b816009015f3373ffffffffffffffffffffffffffffffffffffffff1673ffffffffffffffffffffffffffffffffffffffff1681526020019081526020015f205f9054906101000a900460ff16158015610ce8575081600a015f3373ffffffffffffffffffffffffffffffffffffffff1673ffffffffffffffffffffffffffffffffffffffff1681526020019081526020015f205f9054906101000a900460ff16155b610d27576040517f08c379a0000000000000000000000000000000000000000000000000000000008152600401610d1e90612630565b60405180910390fd5b600182600a015f3373ffffffffffffffffffffffffffffffffffffffff1673ffffffffffffffffffffffffffffffffffffffff1681526020019081526020015f205f6101000a81548160ff021916908315150217905550816006015f815480929190610d9290612016565b91905055503373ffffffffffffffffffffffffffffffffffffffff16837ff2913dbe661ee2acc4a046d8fbcdc792373bda34c41c6086484b5345e5785e5f5f604051610dde919061264e565b60405180910390a3505050565b6004602052815f5260405f208181548110610e04575f80fd5b905f5260205f20015f91509150505481565b6002602052805f5260405f205f91509050805f015f9054906101000a900473ffffffffffffffffffffffffffffffffffffffff1690806001018054610e5a90611fb9565b80601f0160208091040260200160405190810160405280929190818152602001828054610e8690611fb9565b8015610ed15780601f10610ea857610100808354040283529160200191610ed1565b820191905f5260205f20905b815481529060010190602001808311610eb457829003601f168201915b505050505090806002018054610ee690611fb9565b80601f0160208091040260200160405190810160405280929190818152602001828054610f1290611fb9565b8015610f5d5780601f10610f3457610100808354040283529160200191610f5d565b820191905f5260205f20905b815481529060010190602001808311610f4057829003601f168201915b5050505050908060030154908060040154908060060154908060080154905087565b5f5481565b6003602052815f5260405f208181548110610f9d575f80fd5b905f5260205f20015f91509150505481565b5f60025f8381526020019081526020015f2090505f3411611005576040517f08c379a0000000000000000000000000000000000000000000000000000000008152600401610ffc906126b1565b60405180910390fd5b5f816005015f3373ffffffffffffffffffffffffffffffffffffffff1673ffffffffffffffffffffffffffffffffffffffff1681526020019081526020015f2054036111ef578060070133908060018154018082558091505060019003905f5260205f20015f9091909190916101000a81548173ffffffffffffffffffffffffffffffffffffffff021916908373ffffffffffffffffffffffffffffffffffffffff160217905550806006015f8154809291906110c190612016565b91905055505f805b60035f3373ffffffffffffffffffffffffffffffffffffffff1673ffffffffffffffffffffffffffffffffffffffff1681526020019081526020015f2080549050811015611185578360035f3373ffffffffffffffffffffffffffffffffffffffff1673ffffffffffffffffffffffffffffffffffffffff1681526020019081526020015f208281548110611161576111606126cf565b5b905f5260205f200154036111785760019150611185565b80806001019150506110c9565b50806111ed5760035f3373ffffffffffffffffffffffffffffffffffffffff1673ffffffffffffffffffffffffffffffffffffffff1681526020019081526020015f2083908060018154018082558091505060019003905f5260205f20015f90919091909150555b505b34816005015f3373ffffffffffffffffffffffffffffffffffffffff1673ffffffffffffffffffffffffffffffffffffffff1681526020019081526020015f205f82825461123d919061232a565b9250508190555034816004015f828254611257919061232a565b925050819055503373ffffffffffffffffffffffffffffffffffffffff16827f71237963accfab6ceb4010b83f2ad8c635a475fea605b9a1be57cab17d5f9a65346040516112a59190611d37565b60405180910390a35050565b5f805f60055f8681526020019081526020015f209050806009015f8573ffffffffffffffffffffffffffffffffffffffff1673ffffffffffffffffffffffffffffffffffffffff1681526020019081526020015f205f9054906101000a900460ff1681600a015f8673ffffffffffffffffffffffffffffffffffffffff1673ffffffffffffffffffffffffffffffffffffffff1681526020019081526020015f205f9054906101000a900460ff1692509250509250929050565b5f60055f8381526020019081526020015f2090505f60025f835f015481526020019081526020015f2090505f816005015f3373ffffffffffffffffffffffffffffffffffffffff1673ffffffffffffffffffffffffffffffffffffffff1681526020019081526020015f205411611417576040517f08c379a000000000000000000000000000000000000000000000000000000000815260040161140e90612490565b60405180910390fd5b8060080154826007015461142b919061232a565b42111561146d576040517f08c379a000000000000000000000000000000000000000000000000000000000815260040161146490612560565b60405180910390fd5b816001015f9054906101000a900473ffffffffffffffffffffffffffffffffffffffff1673ffffffffffffffffffffffffffffffffffffffff163373ffffffffffffffffffffffffffffffffffffffff16036114fe576040517f08c379a00000000000000000000000000000000000000000000000000000000081526004016114f5906125c8565b60405180910390fd5b816009015f3373ffffffffffffffffffffffffffffffffffffffff1673ffffffffffffffffffffffffffffffffffffffff1681526020019081526020015f205f9054906101000a900460ff161580156115a0575081600a015f3373ffffffffffffffffffffffffffffffffffffffff1673ffffffffffffffffffffffffffffffffffffffff1681526020019081526020015f205f9054906101000a900460ff16155b6115df576040517f08c379a00000000000000000000000000000000000000000000000000000000081526004016115d690612630565b60405180910390fd5b6001826009015f3373ffffffffffffffffffffffffffffffffffffffff1673ffffffffffffffffffffffffffffffffffffffff1681526020019081526020015f205f6101000a81548160ff021916908315150217905550816005015f81548092919061164a90612016565b91905055503373ffffffffffffffffffffffffffffffffffffffff16837ff2913dbe661ee2acc4a046d8fbcdc792373bda34c41c6086484b5345e5785e5f6001604051611697919061264e565b60405180910390a3505050565b5f60055f8381526020019081526020015f2090505f60025f8581526020019081526020015f209050816001015f9054906101000a900473ffffffffffffffffffffffffffffffffffffffff1673ffffffffffffffffffffffffffffffffffffffff163373ffffffffffffffffffffffffffffffffffffffff161461175d576040517f08c379a000000000000000000000000000000000000000000000000000000000815260040161175490612746565b60405180910390fd5b6001600281111561177157611770611a77565b5b826008015f9054906101000a900460ff16600281111561179457611793611a77565b5b146117d4576040517f08c379a00000000000000000000000000000000000000000000000000000000081526004016117cb906127ae565b60405180910390fd5b80600401548260040154111561181f576040517f08c379a0000000000000000000000000000000000000000000000000000000008152600401611816906124f8565b60405180910390fd5b5f826004015490505f836004018190555080826004015f82825461184391906127cc565b925050819055505f3373ffffffffffffffffffffffffffffffffffffffff168260405161186f9061282c565b5f6040518083038185875af1925050503d805f81146118a9576040519150601f19603f3d011682016040523d82523d5f602084013e6118ae565b606091505b50509050806118f2576040517f08c379a00000000000000000000000000000000000000000000000000000000081526004016118e99061288a565b60405180910390fd5b3373ffffffffffffffffffffffffffffffffffffffff1685877f3f53f5f381ee0b1fbf730fa56efb0a2aec8a882b2847a1ec0279982d8846e4f28560405161193a9190611d37565b60405180910390a4505050505050565b5f604051905090565b5f80fd5b5f80fd5b5f819050919050565b61196d8161195b565b8114611977575f80fd5b50565b5f8135905061198881611964565b92915050565b5f602082840312156119a3576119a2611953565b5b5f6119b08482850161197a565b91505092915050565b6119c28161195b565b82525050565b5f73ffffffffffffffffffffffffffffffffffffffff82169050919050565b5f6119f1826119c8565b9050919050565b611a01816119e7565b82525050565b5f81519050919050565b5f82825260208201905092915050565b8281835e5f83830152505050565b5f601f19601f8301169050919050565b5f611a4982611a07565b611a538185611a11565b9350611a63818560208601611a21565b611a6c81611a2f565b840191505092915050565b7f4e487b71000000000000000000000000000000000000000000000000000000005f52602160045260245ffd5b60038110611ab557611ab4611a77565b5b50565b5f819050611ac582611aa4565b919050565b5f611ad482611ab8565b9050919050565b611ae481611aca565b82525050565b5f61012082019050611afe5f83018c6119b9565b611b0b602083018b6119f8565b8181036040830152611b1d818a611a3f565b90508181036060830152611b318189611a3f565b9050611b4060808301886119b9565b611b4d60a08301876119b9565b611b5a60c08301866119b9565b611b6760e08301856119b9565b611b75610100830184611adb565b9a9950505050505050505050565b5f80fd5b5f80fd5b7f4e487b71000000000000000000000000000000000000000000000000000000005f52604160045260245ffd5b611bc182611a2f565b810181811067ffffffffffffffff82111715611be057611bdf611b8b565b5b80604052505050565b5f611bf261194a565b9050611bfe8282611bb8565b919050565b5f67ffffffffffffffff821115611c1d57611c1c611b8b565b5b611c2682611a2f565b9050602081019050919050565b828183375f83830152505050565b5f611c53611c4e84611c03565b611be9565b905082815260208101848484011115611c6f57611c6e611b87565b5b611c7a848285611c33565b509392505050565b5f82601f830112611c9657611c95611b83565b5b8135611ca6848260208601611c41565b91505092915050565b5f805f60608486031215611cc657611cc5611953565b5b5f84013567ffffffffffffffff811115611ce357611ce2611957565b5b611cef86828701611c82565b935050602084013567ffffffffffffffff811115611d1057611d0f611957565b5b611d1c86828701611c82565b9250506040611d2d8682870161197a565b9150509250925092565b5f602082019050611d4a5f8301846119b9565b92915050565b611d59816119e7565b8114611d63575f80fd5b50565b5f81359050611d7481611d50565b92915050565b5f8060408385031215611d9057611d8f611953565b5b5f611d9d8582860161197a565b9250506020611dae85828601611d66565b9150509250929050565b5f805f8060808587031215611dd057611dcf611953565b5b5f611ddd8782880161197a565b945050602085013567ffffffffffffffff811115611dfe57611dfd611957565b5b611e0a87828801611c82565b935050604085013567ffffffffffffffff811115611e2b57611e2a611957565b5b611e3787828801611c82565b9250506060611e488782880161197a565b91505092959194509250565b5f8060408385031215611e6a57611e69611953565b5b5f611e778582860161197a565b9250506020611e888582860161197a565b9150509250929050565b5f60e082019050611ea55f83018a6119f8565b8181036020830152611eb78189611a3f565b90508181036040830152611ecb8188611a3f565b9050611eda60608301876119b9565b611ee760808301866119b9565b611ef460a08301856119b9565b611f0160c08301846119b9565b98975050505050505050565b5f8060408385031215611f2357611f22611953565b5b5f611f3085828601611d66565b9250506020611f418582860161197a565b9150509250929050565b5f8115159050919050565b611f5f81611f4b565b82525050565b5f604082019050611f785f830185611f56565b611f856020830184611f56565b9392505050565b7f4e487b71000000000000000000000000000000000000000000000000000000005f52602260045260245ffd5b5f6002820490506001821680611fd057607f821691505b602082108103611fe357611fe2611f8c565b5b50919050565b7f4e487b71000000000000000000000000000000000000000000000000000000005f52601160045260245ffd5b5f6120208261195b565b91507fffffffffffffffffffffffffffffffffffffffffffffffffffffffffffffffff820361205257612051611fe9565b5b600182019050919050565b5f819050815f5260205f209050919050565b5f6020601f8301049050919050565b5f82821b905092915050565b5f600883026120b97fffffffffffffffffffffffffffffffffffffffffffffffffffffffffffffffff8261207e565b6120c3868361207e565b95508019841693508086168417925050509392505050565b5f819050919050565b5f6120fe6120f96120f48461195b565b6120db565b61195b565b9050919050565b5f819050919050565b612117836120e4565b61212b61212382612105565b84845461208a565b825550505050565b5f90565b61213f612133565b61214a81848461210e565b505050565b5b8181101561216d576121625f82612137565b600181019050612150565b5050565b601f8211156121b2576121838161205d565b61218c8461206f565b8101602085101561219b578190505b6121af6121a78561206f565b83018261214f565b50505b505050565b5f82821c905092915050565b5f6121d25f19846008026121b7565b1980831691505092915050565b5f6121ea83836121c3565b9150826002028217905092915050565b61220382611a07565b67ffffffffffffffff81111561221c5761221b611b8b565b5b6122268254611fb9565b612231828285612171565b5f60209050601f831160018114612262575f8415612250578287015190505b61225a85826121df565b8655506122c1565b601f1984166122708661205d565b5f5b8281101561229757848901518255600182019150602085019450602081019050612272565b868310156122b457848901516122b0601f8916826121c3565b8355505b6001600288020188555050505b505050505050565b5f6122d38261195b565b91506122de8361195b565b92508282026122ec8161195b565b9150828204841483151761230357612302611fe9565b5b5092915050565b5f6020820190508181035f8301526123228184611a3f565b905092915050565b5f6123348261195b565b915061233f8361195b565b925082820190508082111561235757612356611fe9565b5b92915050565b7f566f74696e67207374696c6c20696e2070726f677265737300000000000000005f82015250565b5f612391601883611a11565b915061239c8261235d565b602082019050919050565b5f6020820190508181035f8301526123be81612385565b9050919050565b7f50726f706f73616c20616c72656164792066696e616c697a65640000000000005f82015250565b5f6123f9601a83611a11565b9150612404826123c5565b602082019050919050565b5f6020820190508181035f830152612426816123ed565b9050919050565b5f6020820190506124405f830184611adb565b92915050565b7f4e6f742061206d656d626572206f6620746869732053484700000000000000005f82015250565b5f61247a601883611a11565b915061248582612446565b602082019050919050565b5f6020820190508181035f8301526124a78161246e565b9050919050565b7f496e73756666696369656e74205348472062616c616e636500000000000000005f82015250565b5f6124e2601883611a11565b91506124ed826124ae565b602082019050919050565b5f6020820190508181035f83015261250f816124d6565b9050919050565b7f566f74696e6720706572696f642068617320656e6465640000000000000000005f82015250565b5f61254a601783611a11565b915061255582612516565b602082019050919050565b5f6020820190508181035f8301526125778161253e565b9050919050565b7f50726f706f7365722063616e6e6f7420766f74650000000000000000000000005f82015250565b5f6125b2601483611a11565b91506125bd8261257e565b602082019050919050565b5f6020820190508181035f8301526125df816125a6565b9050919050565b7f596f75206861766520616c726561647920766f746564000000000000000000005f82015250565b5f61261a601683611a11565b9150612625826125e6565b602082019050919050565b5f6020820190508181035f8301526126478161260e565b9050919050565b5f6020820190506126615f830184611f56565b92915050565b7f4d7573742073656e642066756e647300000000000000000000000000000000005f82015250565b5f61269b600f83611a11565b91506126a682612667565b602082019050919050565b5f6020820190508181035f8301526126c88161268f565b9050919050565b7f4e487b71000000000000000000000000000000000000000000000000000000005f52603260045260245ffd5b7f4f6e6c792070726f706f7365722063616e20636c61696d2066756e64730000005f82015250565b5f612730601d83611a11565b915061273b826126fc565b602082019050919050565b5f6020820190508181035f83015261275d81612724565b9050919050565b7f50726f706f73616c206e6f7420617070726f76656400000000000000000000005f82015250565b5f612798601583611a11565b91506127a382612764565b602082019050919050565b5f6020820190508181035f8301526127c58161278c565b9050919050565b5f6127d68261195b565b91506127e18361195b565b92508282039050818111156127f9576127f8611fe9565b5b92915050565b5f81905092915050565b50565b5f6128175f836127ff565b915061282282612809565b5f82019050919050565b5f6128368261280c565b9150819050919050565b7f5472616e73666572206661696c656400000000000000000000000000000000005f82015250565b5f612874600f83611a11565b915061287f82612840565b602082019050919050565b5f6020820190508181035f8301526128a181612868565b905091905056fea26469706673582212209856352d08019752f8e46f0fec2e3be03e873f707d248bf5c290bf2a1294ccb964736f6c634300081a0033",
					"opcodes": "PUSH1 0x80 PUSH1 0x40 MSTORE PUSH0 DUP1 SSTORE PUSH0 PUSH1 0x1 SSTORE CALLVALUE DUP1 ISZERO PUSH1 0x15 JUMPI PUSH0 DUP1 REVERT JUMPDEST POP PUSH2 0x28DE DUP1 PUSH2 0x23 PUSH0 CODECOPY PUSH0 RETURN INVALID PUSH1 0x80 PUSH1 0x40 MSTORE PUSH1 0x4 CALLDATASIZE LT PUSH2 0xE7 JUMPI PUSH0 CALLDATALOAD PUSH1 0xE0 SHR DUP1 PUSH4 0x7641F2B8 GT PUSH2 0x89 JUMPI DUP1 PUSH4 0xBE999705 GT PUSH2 0x58 JUMPI DUP1 PUSH4 0xBE999705 EQ PUSH2 0x319 JUMPI DUP1 PUSH4 0xC0B8BB61 EQ PUSH2 0x335 JUMPI DUP1 PUSH4 0xF37AD2E9 EQ PUSH2 0x372 JUMPI DUP1 PUSH4 0xF5FFFC0F EQ PUSH2 0x39A JUMPI PUSH2 0xE7 JUMP JUMPDEST DUP1 PUSH4 0x7641F2B8 EQ PUSH2 0x235 JUMPI DUP1 PUSH4 0x976EB774 EQ PUSH2 0x271 JUMPI DUP1 PUSH4 0xB979CE06 EQ PUSH2 0x2B3 JUMPI DUP1 PUSH4 0xBC35BAA3 EQ PUSH2 0x2DD JUMPI PUSH2 0xE7 JUMP JUMPDEST DUP1 PUSH4 0x484C4C81 GT PUSH2 0xC5 JUMPI DUP1 PUSH4 0x484C4C81 EQ PUSH2 0x181 JUMPI DUP1 PUSH4 0x5652077C EQ PUSH2 0x1BD JUMPI DUP1 PUSH4 0x5ADA0A41 EQ PUSH2 0x1E5 JUMPI DUP1 PUSH4 0x750E443A EQ PUSH2 0x20D JUMPI PUSH2 0xE7 JUMP JUMPDEST DUP1 PUSH4 0x16E9EAEC EQ PUSH2 0xEB JUMPI DUP1 PUSH4 0x1CC75DF4 EQ PUSH2 0x12F JUMPI DUP1 PUSH4 0x2DFCA445 EQ PUSH2 0x157 JUMPI JUMPDEST PUSH0 DUP1 REVERT JUMPDEST CALLVALUE DUP1 ISZERO PUSH2 0xF6 JUMPI PUSH0 DUP1 REVERT JUMPDEST POP PUSH2 0x111 PUSH1 0x4 DUP1 CALLDATASIZE SUB DUP2 ADD SWAP1 PUSH2 0x10C SWAP2 SWAP1 PUSH2 0x198E JUMP JUMPDEST PUSH2 0x3C2 JUMP JUMPDEST PUSH1 0x40 MLOAD PUSH2 0x126 SWAP10 SWAP9 SWAP8 SWAP7 SWAP6 SWAP5 SWAP4 SWAP3 SWAP2 SWAP1 PUSH2 0x1AEA JUMP JUMPDEST PUSH1 0x40 MLOAD DUP1 SWAP2 SUB SWAP1 RETURN JUMPDEST CALLVALUE DUP1 ISZERO PUSH2 0x13A JUMPI PUSH0 DUP1 REVERT JUMPDEST POP PUSH2 0x155 PUSH1 0x4 DUP1 CALLDATASIZE SUB DUP2 ADD SWAP1 PUSH2 0x150 SWAP2 SWAP1 PUSH2 0x1CAF JUMP JUMPDEST PUSH2 0x543 JUMP JUMPDEST STOP JUMPDEST CALLVALUE DUP1 ISZERO PUSH2 0x162 JUMPI PUSH0 DUP1 REVERT JUMPDEST POP PUSH2 0x16B PUSH2 0x651 JUMP JUMPDEST PUSH1 0x40 MLOAD PUSH2 0x178 SWAP2 SWAP1 PUSH2 0x1D37 JUMP JUMPDEST PUSH1 0x40 MLOAD DUP1 SWAP2 SUB SWAP1 RETURN JUMPDEST CALLVALUE DUP1 ISZERO PUSH2 0x18C JUMPI PUSH0 DUP1 REVERT JUMPDEST POP PUSH2 0x1A7 PUSH1 0x4 DUP1 CALLDATASIZE SUB DUP2 ADD SWAP1 PUSH2 0x1A2 SWAP2 SWAP1 PUSH2 0x1D7A JUMP JUMPDEST PUSH2 0x657 JUMP JUMPDEST PUSH1 0x40 MLOAD PUSH2 0x1B4 SWAP2 SWAP1 PUSH2 0x1D37 JUMP JUMPDEST PUSH1 0x40 MLOAD DUP1 SWAP2 SUB SWAP1 RETURN JUMPDEST CALLVALUE DUP1 ISZERO PUSH2 0x1C8 JUMPI PUSH0 DUP1 REVERT JUMPDEST POP PUSH2 0x1E3 PUSH1 0x4 DUP1 CALLDATASIZE SUB DUP2 ADD SWAP1 PUSH2 0x1DE SWAP2 SWAP1 PUSH2 0x198E JUMP JUMPDEST PUSH2 0x6B0 JUMP JUMPDEST STOP JUMPDEST CALLVALUE DUP1 ISZERO PUSH2 0x1F0 JUMPI PUSH0 DUP1 REVERT JUMPDEST POP PUSH2 0x20B PUSH1 0x4 DUP1 CALLDATASIZE SUB DUP2 ADD SWAP1 PUSH2 0x206 SWAP2 SWAP1 PUSH2 0x1DB8 JUMP JUMPDEST PUSH2 0x861 JUMP JUMPDEST STOP JUMPDEST CALLVALUE DUP1 ISZERO PUSH2 0x218 JUMPI PUSH0 DUP1 REVERT JUMPDEST POP PUSH2 0x233 PUSH1 0x4 DUP1 CALLDATASIZE SUB DUP2 ADD SWAP1 PUSH2 0x22E SWAP2 SWAP1 PUSH2 0x198E JUMP JUMPDEST PUSH2 0xAB3 JUMP JUMPDEST STOP JUMPDEST CALLVALUE DUP1 ISZERO PUSH2 0x240 JUMPI PUSH0 DUP1 REVERT JUMPDEST POP PUSH2 0x25B PUSH1 0x4 DUP1 CALLDATASIZE SUB DUP2 ADD SWAP1 PUSH2 0x256 SWAP2 SWAP1 PUSH2 0x1E54 JUMP JUMPDEST PUSH2 0xDEB JUMP JUMPDEST PUSH1 0x40 MLOAD PUSH2 0x268 SWAP2 SWAP1 PUSH2 0x1D37 JUMP JUMPDEST PUSH1 0x40 MLOAD DUP1 SWAP2 SUB SWAP1 RETURN JUMPDEST CALLVALUE DUP1 ISZERO PUSH2 0x27C JUMPI PUSH0 DUP1 REVERT JUMPDEST POP PUSH2 0x297 PUSH1 0x4 DUP1 CALLDATASIZE SUB DUP2 ADD SWAP1 PUSH2 0x292 SWAP2 SWAP1 PUSH2 0x198E JUMP JUMPDEST PUSH2 0xE16 JUMP JUMPDEST PUSH1 0x40 MLOAD PUSH2 0x2AA SWAP8 SWAP7 SWAP6 SWAP5 SWAP4 SWAP3 SWAP2 SWAP1 PUSH2 0x1E92 JUMP JUMPDEST PUSH1 0x40 MLOAD DUP1 SWAP2 SUB SWAP1 RETURN JUMPDEST CALLVALUE DUP1 ISZERO PUSH2 0x2BE JUMPI PUSH0 DUP1 REVERT JUMPDEST POP PUSH2 0x2C7 PUSH2 0xF7F JUMP JUMPDEST PUSH1 0x40 MLOAD PUSH2 0x2D4 SWAP2 SWAP1 PUSH2 0x1D37 JUMP JUMPDEST PUSH1 0x40 MLOAD DUP1 SWAP2 SUB SWAP1 RETURN JUMPDEST CALLVALUE DUP1 ISZERO PUSH2 0x2E8 JUMPI PUSH0 DUP1 REVERT JUMPDEST POP PUSH2 0x303 PUSH1 0x4 DUP1 CALLDATASIZE SUB DUP2 ADD SWAP1 PUSH2 0x2FE SWAP2 SWAP1 PUSH2 0x1F0D JUMP JUMPDEST PUSH2 0xF84 JUMP JUMPDEST PUSH1 0x40 MLOAD PUSH2 0x310 SWAP2 SWAP1 PUSH2 0x1D37 JUMP JUMPDEST PUSH1 0x40 MLOAD DUP1 SWAP2 SUB SWAP1 RETURN JUMPDEST PUSH2 0x333 PUSH1 0x4 DUP1 CALLDATASIZE SUB DUP2 ADD SWAP1 PUSH2 0x32E SWAP2 SWAP1 PUSH2 0x198E JUMP JUMPDEST PUSH2 0xFAF JUMP JUMPDEST STOP JUMPDEST CALLVALUE DUP1 ISZERO PUSH2 0x340 JUMPI PUSH0 DUP1 REVERT JUMPDEST POP PUSH2 0x35B PUSH1 0x4 DUP1 CALLDATASIZE SUB DUP2 ADD SWAP1 PUSH2 0x356 SWAP2 SWAP1 PUSH2 0x1D7A JUMP JUMPDEST PUSH2 0x12B1 JUMP JUMPDEST PUSH1 0x40 MLOAD PUSH2 0x369 SWAP3 SWAP2 SWAP1 PUSH2 0x1F65 JUMP JUMPDEST PUSH1 0x40 MLOAD DUP1 SWAP2 SUB SWAP1 RETURN JUMPDEST CALLVALUE DUP1 ISZERO PUSH2 0x37D JUMPI PUSH0 DUP1 REVERT JUMPDEST POP PUSH2 0x398 PUSH1 0x4 DUP1 CALLDATASIZE SUB DUP2 ADD SWAP1 PUSH2 0x393 SWAP2 SWAP1 PUSH2 0x198E JUMP JUMPDEST PUSH2 0x136B JUMP JUMPDEST STOP JUMPDEST CALLVALUE DUP1 ISZERO PUSH2 0x3A5 JUMPI PUSH0 DUP1 REVERT JUMPDEST POP PUSH2 0x3C0 PUSH1 0x4 DUP1 CALLDATASIZE SUB DUP2 ADD SWAP1 PUSH2 0x3BB SWAP2 SWAP1 PUSH2 0x1E54 JUMP JUMPDEST PUSH2 0x16A4 JUMP JUMPDEST STOP JUMPDEST PUSH1 0x5 PUSH1 0x20 MSTORE DUP1 PUSH0 MSTORE PUSH1 0x40 PUSH0 KECCAK256 PUSH0 SWAP2 POP SWAP1 POP DUP1 PUSH0 ADD SLOAD SWAP1 DUP1 PUSH1 0x1 ADD PUSH0 SWAP1 SLOAD SWAP1 PUSH2 0x100 EXP SWAP1 DIV PUSH20 0xFFFFFFFFFFFFFFFFFFFFFFFFFFFFFFFFFFFFFFFF AND SWAP1 DUP1 PUSH1 0x2 ADD DUP1 SLOAD PUSH2 0x40C SWAP1 PUSH2 0x1FB9 JUMP JUMPDEST DUP1 PUSH1 0x1F ADD PUSH1 0x20 DUP1 SWAP2 DIV MUL PUSH1 0x20 ADD PUSH1 0x40 MLOAD SWAP1 DUP2 ADD PUSH1 0x40 MSTORE DUP1 SWAP3 SWAP2 SWAP1 DUP2 DUP2 MSTORE PUSH1 0x20 ADD DUP3 DUP1 SLOAD PUSH2 0x438 SWAP1 PUSH2 0x1FB9 JUMP JUMPDEST DUP1 ISZERO PUSH2 0x483 JUMPI DUP1 PUSH1 0x1F LT PUSH2 0x45A JUMPI PUSH2 0x100 DUP1 DUP4 SLOAD DIV MUL DUP4 MSTORE SWAP2 PUSH1 0x20 ADD SWAP2 PUSH2 0x483 JUMP JUMPDEST DUP3 ADD SWAP2 SWAP1 PUSH0 MSTORE PUSH1 0x20 PUSH0 KECCAK256 SWAP1 JUMPDEST DUP2 SLOAD DUP2 MSTORE SWAP1 PUSH1 0x1 ADD SWAP1 PUSH1 0x20 ADD DUP1 DUP4 GT PUSH2 0x466 JUMPI DUP3 SWAP1 SUB PUSH1 0x1F AND DUP3 ADD SWAP2 JUMPDEST POP POP POP POP POP SWAP1 DUP1 PUSH1 0x3 ADD DUP1 SLOAD PUSH2 0x498 SWAP1 PUSH2 0x1FB9 JUMP JUMPDEST DUP1 PUSH1 0x1F ADD PUSH1 0x20 DUP1 SWAP2 DIV MUL PUSH1 0x20 ADD PUSH1 0x40 MLOAD SWAP1 DUP2 ADD PUSH1 0x40 MSTORE DUP1 SWAP3 SWAP2 SWAP1 DUP2 DUP2 MSTORE PUSH1 0x20 ADD DUP3 DUP1 SLOAD PUSH2 0x4C4 SWAP1 PUSH2 0x1FB9 JUMP JUMPDEST DUP1 ISZERO PUSH2 0x50F JUMPI DUP1 PUSH1 0x1F LT PUSH2 0x4E6 JUMPI PUSH2 0x100 DUP1 DUP4 SLOAD DIV MUL DUP4 MSTORE SWAP2 PUSH1 0x20 ADD SWAP2 PUSH2 0x50F JUMP JUMPDEST DUP3 ADD SWAP2 SWAP1 PUSH0 MSTORE PUSH1 0x20 PUSH0 KECCAK256 SWAP1 JUMPDEST DUP2 SLOAD DUP2 MSTORE SWAP1 PUSH1 0x1 ADD SWAP1 PUSH1 0x20 ADD DUP1 DUP4 GT PUSH2 0x4F2 JUMPI DUP3 SWAP1 SUB PUSH1 0x1F AND DUP3 ADD SWAP2 JUMPDEST POP POP POP POP POP SWAP1 DUP1 PUSH1 0x4 ADD SLOAD SWAP1 DUP1 PUSH1 0x5 ADD SLOAD SWAP1 DUP1 PUSH1 0x6 ADD SLOAD SWAP1 DUP1 PUSH1 0x7 ADD SLOAD SWAP1 DUP1 PUSH1 0x8 ADD PUSH0 SWAP1 SLOAD SWAP1 PUSH2 0x100 EXP SWAP1 DIV PUSH1 0xFF AND SWAP1 POP DUP10 JUMP JUMPDEST PUSH0 DUP1 DUP2 SLOAD DUP1 SWAP3 SWAP2 SWAP1 PUSH2 0x554 SWAP1 PUSH2 0x2016 JUMP JUMPDEST SWAP2 SWAP1 POP SSTORE POP PUSH0 PUSH1 0x2 PUSH0 DUP1 SLOAD DUP2 MSTORE PUSH1 0x20 ADD SWAP1 DUP2 MSTORE PUSH1 0x20 ADD PUSH0 KECCAK256 SWAP1 POP CALLER DUP2 PUSH0 ADD PUSH0 PUSH2 0x100 EXP DUP2 SLOAD DUP2 PUSH20 0xFFFFFFFFFFFFFFFFFFFFFFFFFFFFFFFFFFFFFFFF MUL NOT AND SWAP1 DUP4 PUSH20 0xFFFFFFFFFFFFFFFFFFFFFFFFFFFFFFFFFFFFFFFF AND MUL OR SWAP1 SSTORE POP DUP4 DUP2 PUSH1 0x1 ADD SWAP1 DUP2 PUSH2 0x5C0 SWAP2 SWAP1 PUSH2 0x21FA JUMP JUMPDEST POP DUP3 DUP2 PUSH1 0x2 ADD SWAP1 DUP2 PUSH2 0x5D2 SWAP2 SWAP1 PUSH2 0x21FA JUMP JUMPDEST POP TIMESTAMP DUP2 PUSH1 0x3 ADD DUP2 SWAP1 SSTORE POP PUSH0 DUP2 PUSH1 0x4 ADD DUP2 SWAP1 SSTORE POP PUSH2 0xE10 DUP3 PUSH2 0x5F3 SWAP2 SWAP1 PUSH2 0x22C9 JUMP JUMPDEST DUP2 PUSH1 0x8 ADD DUP2 SWAP1 SSTORE POP CALLER PUSH20 0xFFFFFFFFFFFFFFFFFFFFFFFFFFFFFFFFFFFFFFFF AND PUSH0 SLOAD PUSH32 0xC1542960C8708FA89CC7BBC364AB9741BE9373EDE08D56467E106A08365BBBA0 DUP7 PUSH1 0x40 MLOAD PUSH2 0x643 SWAP2 SWAP1 PUSH2 0x230A JUMP JUMPDEST PUSH1 0x40 MLOAD DUP1 SWAP2 SUB SWAP1 LOG3 POP POP POP POP JUMP JUMPDEST PUSH1 0x1 SLOAD DUP2 JUMP JUMPDEST PUSH0 PUSH1 0x2 PUSH0 DUP5 DUP2 MSTORE PUSH1 0x20 ADD SWAP1 DUP2 MSTORE PUSH1 0x20 ADD PUSH0 KECCAK256 PUSH1 0x5 ADD PUSH0 DUP4 PUSH20 0xFFFFFFFFFFFFFFFFFFFFFFFFFFFFFFFFFFFFFFFF AND PUSH20 0xFFFFFFFFFFFFFFFFFFFFFFFFFFFFFFFFFFFFFFFF AND DUP2 MSTORE PUSH1 0x20 ADD SWAP1 DUP2 MSTORE PUSH1 0x20 ADD PUSH0 KECCAK256 SLOAD SWAP1 POP SWAP3 SWAP2 POP POP JUMP JUMPDEST PUSH0 PUSH1 0x5 PUSH0 DUP4 DUP2 MSTORE PUSH1 0x20 ADD SWAP1 DUP2 MSTORE PUSH1 0x20 ADD PUSH0 KECCAK256 SWAP1 POP PUSH0 PUSH1 0x2 PUSH0 DUP4 PUSH0 ADD SLOAD DUP2 MSTORE PUSH1 0x20 ADD SWAP1 DUP2 MSTORE PUSH1 0x20 ADD PUSH0 KECCAK256 SWAP1 POP DUP1 PUSH1 0x8 ADD SLOAD DUP3 PUSH1 0x7 ADD SLOAD PUSH2 0x6EF SWAP2 SWAP1 PUSH2 0x232A JUMP JUMPDEST TIMESTAMP GT PUSH2 0x730 JUMPI PUSH1 0x40 MLOAD PUSH32 0x8C379A000000000000000000000000000000000000000000000000000000000 DUP2 MSTORE PUSH1 0x4 ADD PUSH2 0x727 SWAP1 PUSH2 0x23A7 JUMP JUMPDEST PUSH1 0x40 MLOAD DUP1 SWAP2 SUB SWAP1 REVERT JUMPDEST PUSH0 PUSH1 0x2 DUP2 GT ISZERO PUSH2 0x743 JUMPI PUSH2 0x742 PUSH2 0x1A77 JUMP JUMPDEST JUMPDEST DUP3 PUSH1 0x8 ADD PUSH0 SWAP1 SLOAD SWAP1 PUSH2 0x100 EXP SWAP1 DIV PUSH1 0xFF AND PUSH1 0x2 DUP2 GT ISZERO PUSH2 0x766 JUMPI PUSH2 0x765 PUSH2 0x1A77 JUMP JUMPDEST JUMPDEST EQ PUSH2 0x7A6 JUMPI PUSH1 0x40 MLOAD PUSH32 0x8C379A000000000000000000000000000000000000000000000000000000000 DUP2 MSTORE PUSH1 0x4 ADD PUSH2 0x79D SWAP1 PUSH2 0x240F JUMP JUMPDEST PUSH1 0x40 MLOAD DUP1 SWAP2 SUB SWAP1 REVERT JUMPDEST DUP2 PUSH1 0x6 ADD SLOAD DUP3 PUSH1 0x5 ADD SLOAD GT ISZERO PUSH2 0x7E7 JUMPI PUSH1 0x1 DUP3 PUSH1 0x8 ADD PUSH0 PUSH2 0x100 EXP DUP2 SLOAD DUP2 PUSH1 0xFF MUL NOT AND SWAP1 DUP4 PUSH1 0x2 DUP2 GT ISZERO PUSH2 0x7DD JUMPI PUSH2 0x7DC PUSH2 0x1A77 JUMP JUMPDEST JUMPDEST MUL OR SWAP1 SSTORE POP PUSH2 0x814 JUMP JUMPDEST PUSH1 0x2 DUP3 PUSH1 0x8 ADD PUSH0 PUSH2 0x100 EXP DUP2 SLOAD DUP2 PUSH1 0xFF MUL NOT AND SWAP1 DUP4 PUSH1 0x2 DUP2 GT ISZERO PUSH2 0x80E JUMPI PUSH2 0x80D PUSH2 0x1A77 JUMP JUMPDEST JUMPDEST MUL OR SWAP1 SSTORE POP JUMPDEST DUP3 PUSH32 0x34A42C4CE0A88D16AD098DE6406057747139A2A3DD8DD8616EE7BBABCECB768E DUP4 PUSH1 0x8 ADD PUSH0 SWAP1 SLOAD SWAP1 PUSH2 0x100 EXP SWAP1 DIV PUSH1 0xFF AND PUSH1 0x40 MLOAD PUSH2 0x854 SWAP2 SWAP1 PUSH2 0x242D JUMP JUMPDEST PUSH1 0x40 MLOAD DUP1 SWAP2 SUB SWAP1 LOG2 POP POP POP JUMP JUMPDEST DUP4 PUSH0 PUSH1 0x2 PUSH0 DUP4 DUP2 MSTORE PUSH1 0x20 ADD SWAP1 DUP2 MSTORE PUSH1 0x20 ADD PUSH0 KECCAK256 PUSH1 0x5 ADD PUSH0 CALLER PUSH20 0xFFFFFFFFFFFFFFFFFFFFFFFFFFFFFFFFFFFFFFFF AND PUSH20 0xFFFFFFFFFFFFFFFFFFFFFFFFFFFFFFFFFFFFFFFF AND DUP2 MSTORE PUSH1 0x20 ADD SWAP1 DUP2 MSTORE PUSH1 0x20 ADD PUSH0 KECCAK256 SLOAD GT PUSH2 0x8F3 JUMPI PUSH1 0x40 MLOAD PUSH32 0x8C379A000000000000000000000000000000000000000000000000000000000 DUP2 MSTORE PUSH1 0x4 ADD PUSH2 0x8EA SWAP1 PUSH2 0x2490 JUMP JUMPDEST PUSH1 0x40 MLOAD DUP1 SWAP2 SUB SWAP1 REVERT JUMPDEST PUSH1 0x2 PUSH0 DUP7 DUP2 MSTORE PUSH1 0x20 ADD SWAP1 DUP2 MSTORE PUSH1 0x20 ADD PUSH0 KECCAK256 PUSH1 0x4 ADD SLOAD DUP3 GT ISZERO PUSH2 0x94A JUMPI PUSH1 0x40 MLOAD PUSH32 0x8C379A000000000000000000000000000000000000000000000000000000000 DUP2 MSTORE PUSH1 0x4 ADD PUSH2 0x941 SWAP1 PUSH2 0x24F8 JUMP JUMPDEST PUSH1 0x40 MLOAD DUP1 SWAP2 SUB SWAP1 REVERT JUMPDEST PUSH1 0x1 PUSH0 DUP2 SLOAD DUP1 SWAP3 SWAP2 SWAP1 PUSH2 0x95C SWAP1 PUSH2 0x2016 JUMP JUMPDEST SWAP2 SWAP1 POP SSTORE POP PUSH1 0x4 PUSH0 DUP7 DUP2 MSTORE PUSH1 0x20 ADD SWAP1 DUP2 MSTORE PUSH1 0x20 ADD PUSH0 KECCAK256 PUSH1 0x1 SLOAD SWAP1 DUP1 PUSH1 0x1 DUP2 SLOAD ADD DUP1 DUP3 SSTORE DUP1 SWAP2 POP POP PUSH1 0x1 SWAP1 SUB SWAP1 PUSH0 MSTORE PUSH1 0x20 PUSH0 KECCAK256 ADD PUSH0 SWAP1 SWAP2 SWAP1 SWAP2 SWAP1 SWAP2 POP SSTORE PUSH0 PUSH1 0x5 PUSH0 PUSH1 0x1 SLOAD DUP2 MSTORE PUSH1 0x20 ADD SWAP1 DUP2 MSTORE PUSH1 0x20 ADD PUSH0 KECCAK256 SWAP1 POP DUP6 DUP2 PUSH0 ADD DUP2 SWAP1 SSTORE POP CALLER DUP2 PUSH1 0x1 ADD PUSH0 PUSH2 0x100 EXP DUP2 SLOAD DUP2 PUSH20 0xFFFFFFFFFFFFFFFFFFFFFFFFFFFFFFFFFFFFFFFF MUL NOT AND SWAP1 DUP4 PUSH20 0xFFFFFFFFFFFFFFFFFFFFFFFFFFFFFFFFFFFFFFFF AND MUL OR SWAP1 SSTORE POP DUP5 DUP2 PUSH1 0x2 ADD SWAP1 DUP2 PUSH2 0xA09 SWAP2 SWAP1 PUSH2 0x21FA JUMP JUMPDEST POP DUP4 DUP2 PUSH1 0x3 ADD SWAP1 DUP2 PUSH2 0xA1B SWAP2 SWAP1 PUSH2 0x21FA JUMP JUMPDEST POP DUP3 DUP2 PUSH1 0x4 ADD DUP2 SWAP1 SSTORE POP TIMESTAMP DUP2 PUSH1 0x7 ADD DUP2 SWAP1 SSTORE POP PUSH0 DUP2 PUSH1 0x8 ADD PUSH0 PUSH2 0x100 EXP DUP2 SLOAD DUP2 PUSH1 0xFF MUL NOT AND SWAP1 DUP4 PUSH1 0x2 DUP2 GT ISZERO PUSH2 0xA54 JUMPI PUSH2 0xA53 PUSH2 0x1A77 JUMP JUMPDEST JUMPDEST MUL OR SWAP1 SSTORE POP CALLER PUSH20 0xFFFFFFFFFFFFFFFFFFFFFFFFFFFFFFFFFFFFFFFF AND DUP7 PUSH1 0x1 SLOAD PUSH32 0x6F3322E9E9BCD9739D7DCBB73278EE28B363D39F7900BD404831EE8DFB41608E DUP9 PUSH1 0x40 MLOAD PUSH2 0xAA3 SWAP2 SWAP1 PUSH2 0x230A JUMP JUMPDEST PUSH1 0x40 MLOAD DUP1 SWAP2 SUB SWAP1 LOG4 POP POP POP POP POP POP JUMP JUMPDEST PUSH0 PUSH1 0x5 PUSH0 DUP4 DUP2 MSTORE PUSH1 0x20 ADD SWAP1 DUP2 MSTORE PUSH1 0x20 ADD PUSH0 KECCAK256 SWAP1 POP PUSH0 PUSH1 0x2 PUSH0 DUP4 PUSH0 ADD SLOAD DUP2 MSTORE PUSH1 0x20 ADD SWAP1 DUP2 MSTORE PUSH1 0x20 ADD PUSH0 KECCAK256 SWAP1 POP PUSH0 DUP2 PUSH1 0x5 ADD PUSH0 CALLER PUSH20 0xFFFFFFFFFFFFFFFFFFFFFFFFFFFFFFFFFFFFFFFF AND PUSH20 0xFFFFFFFFFFFFFFFFFFFFFFFFFFFFFFFFFFFFFFFF AND DUP2 MSTORE PUSH1 0x20 ADD SWAP1 DUP2 MSTORE PUSH1 0x20 ADD PUSH0 KECCAK256 SLOAD GT PUSH2 0xB5F JUMPI PUSH1 0x40 MLOAD PUSH32 0x8C379A000000000000000000000000000000000000000000000000000000000 DUP2 MSTORE PUSH1 0x4 ADD PUSH2 0xB56 SWAP1 PUSH2 0x2490 JUMP JUMPDEST PUSH1 0x40 MLOAD DUP1 SWAP2 SUB SWAP1 REVERT JUMPDEST DUP1 PUSH1 0x8 ADD SLOAD DUP3 PUSH1 0x7 ADD SLOAD PUSH2 0xB73 SWAP2 SWAP1 PUSH2 0x232A JUMP JUMPDEST TIMESTAMP GT ISZERO PUSH2 0xBB5 JUMPI PUSH1 0x40 MLOAD PUSH32 0x8C379A000000000000000000000000000000000000000000000000000000000 DUP2 MSTORE PUSH1 0x4 ADD PUSH2 0xBAC SWAP1 PUSH2 0x2560 JUMP JUMPDEST PUSH1 0x40 MLOAD DUP1 SWAP2 SUB SWAP1 REVERT JUMPDEST DUP2 PUSH1 0x1 ADD PUSH0 SWAP1 SLOAD SWAP1 PUSH2 0x100 EXP SWAP1 DIV PUSH20 0xFFFFFFFFFFFFFFFFFFFFFFFFFFFFFFFFFFFFFFFF AND PUSH20 0xFFFFFFFFFFFFFFFFFFFFFFFFFFFFFFFFFFFFFFFF AND CALLER PUSH20 0xFFFFFFFFFFFFFFFFFFFFFFFFFFFFFFFFFFFFFFFF AND SUB PUSH2 0xC46 JUMPI PUSH1 0x40 MLOAD PUSH32 0x8C379A000000000000000000000000000000000000000000000000000000000 DUP2 MSTORE PUSH1 0x4 ADD PUSH2 0xC3D SWAP1 PUSH2 0x25C8 JUMP JUMPDEST PUSH1 0x40 MLOAD DUP1 SWAP2 SUB SWAP1 REVERT JUMPDEST DUP2 PUSH1 0x9 ADD PUSH0 CALLER PUSH20 0xFFFFFFFFFFFFFFFFFFFFFFFFFFFFFFFFFFFFFFFF AND PUSH20 0xFFFFFFFFFFFFFFFFFFFFFFFFFFFFFFFFFFFFFFFF AND DUP2 MSTORE PUSH1 0x20 ADD SWAP1 DUP2 MSTORE PUSH1 0x20 ADD PUSH0 KECCAK256 PUSH0 SWAP1 SLOAD SWAP1 PUSH2 0x100 EXP SWAP1 DIV PUSH1 0xFF AND ISZERO DUP1 ISZERO PUSH2 0xCE8 JUMPI POP DUP2 PUSH1 0xA ADD PUSH0 CALLER PUSH20 0xFFFFFFFFFFFFFFFFFFFFFFFFFFFFFFFFFFFFFFFF AND PUSH20 0xFFFFFFFFFFFFFFFFFFFFFFFFFFFFFFFFFFFFFFFF AND DUP2 MSTORE PUSH1 0x20 ADD SWAP1 DUP2 MSTORE PUSH1 0x20 ADD PUSH0 KECCAK256 PUSH0 SWAP1 SLOAD SWAP1 PUSH2 0x100 EXP SWAP1 DIV PUSH1 0xFF AND ISZERO JUMPDEST PUSH2 0xD27 JUMPI PUSH1 0x40 MLOAD PUSH32 0x8C379A000000000000000000000000000000000000000000000000000000000 DUP2 MSTORE PUSH1 0x4 ADD PUSH2 0xD1E SWAP1 PUSH2 0x2630 JUMP JUMPDEST PUSH1 0x40 MLOAD DUP1 SWAP2 SUB SWAP1 REVERT JUMPDEST PUSH1 0x1 DUP3 PUSH1 0xA ADD PUSH0 CALLER PUSH20 0xFFFFFFFFFFFFFFFFFFFFFFFFFFFFFFFFFFFFFFFF AND PUSH20 0xFFFFFFFFFFFFFFFFFFFFFFFFFFFFFFFFFFFFFFFF AND DUP2 MSTORE PUSH1 0x20 ADD SWAP1 DUP2 MSTORE PUSH1 0x20 ADD PUSH0 KECCAK256 PUSH0 PUSH2 0x100 EXP DUP2 SLOAD DUP2 PUSH1 0xFF MUL NOT AND SWAP1 DUP4 ISZERO ISZERO MUL OR SWAP1 SSTORE POP DUP2 PUSH1 0x6 ADD PUSH0 DUP2 SLOAD DUP1 SWAP3 SWAP2 SWAP1 PUSH2 0xD92 SWAP1 PUSH2 0x2016 JUMP JUMPDEST SWAP2 SWAP1 POP SSTORE POP CALLER PUSH20 0xFFFFFFFFFFFFFFFFFFFFFFFFFFFFFFFFFFFFFFFF AND DUP4 PUSH32 0xF2913DBE661EE2ACC4A046D8FBCDC792373BDA34C41C6086484B5345E5785E5F PUSH0 PUSH1 0x40 MLOAD PUSH2 0xDDE SWAP2 SWAP1 PUSH2 0x264E JUMP JUMPDEST PUSH1 0x40 MLOAD DUP1 SWAP2 SUB SWAP1 LOG3 POP POP POP JUMP JUMPDEST PUSH1 0x4 PUSH1 0x20 MSTORE DUP2 PUSH0 MSTORE PUSH1 0x40 PUSH0 KECCAK256 DUP2 DUP2 SLOAD DUP2 LT PUSH2 0xE04 JUMPI PUSH0 DUP1 REVERT JUMPDEST SWAP1 PUSH0 MSTORE PUSH1 0x20 PUSH0 KECCAK256 ADD PUSH0 SWAP2 POP SWAP2 POP POP SLOAD DUP2 JUMP JUMPDEST PUSH1 0x2 PUSH1 0x20 MSTORE DUP1 PUSH0 MSTORE PUSH1 0x40 PUSH0 KECCAK256 PUSH0 SWAP2 POP SWAP1 POP DUP1 PUSH0 ADD PUSH0 SWAP1 SLOAD SWAP1 PUSH2 0x100 EXP SWAP1 DIV PUSH20 0xFFFFFFFFFFFFFFFFFFFFFFFFFFFFFFFFFFFFFFFF AND SWAP1 DUP1 PUSH1 0x1 ADD DUP1 SLOAD PUSH2 0xE5A SWAP1 PUSH2 0x1FB9 JUMP JUMPDEST DUP1 PUSH1 0x1F ADD PUSH1 0x20 DUP1 SWAP2 DIV MUL PUSH1 0x20 ADD PUSH1 0x40 MLOAD SWAP1 DUP2 ADD PUSH1 0x40 MSTORE DUP1 SWAP3 SWAP2 SWAP1 DUP2 DUP2 MSTORE PUSH1 0x20 ADD DUP3 DUP1 SLOAD PUSH2 0xE86 SWAP1 PUSH2 0x1FB9 JUMP JUMPDEST DUP1 ISZERO PUSH2 0xED1 JUMPI DUP1 PUSH1 0x1F LT PUSH2 0xEA8 JUMPI PUSH2 0x100 DUP1 DUP4 SLOAD DIV MUL DUP4 MSTORE SWAP2 PUSH1 0x20 ADD SWAP2 PUSH2 0xED1 JUMP JUMPDEST DUP3 ADD SWAP2 SWAP1 PUSH0 MSTORE PUSH1 0x20 PUSH0 KECCAK256 SWAP1 JUMPDEST DUP2 SLOAD DUP2 MSTORE SWAP1 PUSH1 0x1 ADD SWAP1 PUSH1 0x20 ADD DUP1 DUP4 GT PUSH2 0xEB4 JUMPI DUP3 SWAP1 SUB PUSH1 0x1F AND DUP3 ADD SWAP2 JUMPDEST POP POP POP POP POP SWAP1 DUP1 PUSH1 0x2 ADD DUP1 SLOAD PUSH2 0xEE6 SWAP1 PUSH2 0x1FB9 JUMP JUMPDEST DUP1 PUSH1 0x1F ADD PUSH1 0x20 DUP1 SWAP2 DIV MUL PUSH1 0x20 ADD PUSH1 0x40 MLOAD SWAP1 DUP2 ADD PUSH1 0x40 MSTORE DUP1 SWAP3 SWAP2 SWAP1 DUP2 DUP2 MSTORE PUSH1 0x20 ADD DUP3 DUP1 SLOAD PUSH2 0xF12 SWAP1 PUSH2 0x1FB9 JUMP JUMPDEST DUP1 ISZERO PUSH2 0xF5D JUMPI DUP1 PUSH1 0x1F LT PUSH2 0xF34 JUMPI PUSH2 0x100 DUP1 DUP4 SLOAD DIV MUL DUP4 MSTORE SWAP2 PUSH1 0x20 ADD SWAP2 PUSH2 0xF5D JUMP JUMPDEST DUP3 ADD SWAP2 SWAP1 PUSH0 MSTORE PUSH1 0x20 PUSH0 KECCAK256 SWAP1 JUMPDEST DUP2 SLOAD DUP2 MSTORE SWAP1 PUSH1 0x1 ADD SWAP1 PUSH1 0x20 ADD DUP1 DUP4 GT PUSH2 0xF40 JUMPI DUP3 SWAP1 SUB PUSH1 0x1F AND DUP3 ADD SWAP2 JUMPDEST POP POP POP POP POP SWAP1 DUP1 PUSH1 0x3 ADD SLOAD SWAP1 DUP1 PUSH1 0x4 ADD SLOAD SWAP1 DUP1 PUSH1 0x6 ADD SLOAD SWAP1 DUP1 PUSH1 0x8 ADD SLOAD SWAP1 POP DUP8 JUMP JUMPDEST PUSH0 SLOAD DUP2 JUMP JUMPDEST PUSH1 0x3 PUSH1 0x20 MSTORE DUP2 PUSH0 MSTORE PUSH1 0x40 PUSH0 KECCAK256 DUP2 DUP2 SLOAD DUP2 LT PUSH2 0xF9D JUMPI PUSH0 DUP1 REVERT JUMPDEST SWAP1 PUSH0 MSTORE PUSH1 0x20 PUSH0 KECCAK256 ADD PUSH0 SWAP2 POP SWAP2 POP POP SLOAD DUP2 JUMP JUMPDEST PUSH0 PUSH1 0x2 PUSH0 DUP4 DUP2 MSTORE PUSH1 0x20 ADD SWAP1 DUP2 MSTORE PUSH1 0x20 ADD PUSH0 KECCAK256 SWAP1 POP PUSH0 CALLVALUE GT PUSH2 0x1005 JUMPI PUSH1 0x40 MLOAD PUSH32 0x8C379A000000000000000000000000000000000000000000000000000000000 DUP2 MSTORE PUSH1 0x4 ADD PUSH2 0xFFC SWAP1 PUSH2 0x26B1 JUMP JUMPDEST PUSH1 0x40 MLOAD DUP1 SWAP2 SUB SWAP1 REVERT JUMPDEST PUSH0 DUP2 PUSH1 0x5 ADD PUSH0 CALLER PUSH20 0xFFFFFFFFFFFFFFFFFFFFFFFFFFFFFFFFFFFFFFFF AND PUSH20 0xFFFFFFFFFFFFFFFFFFFFFFFFFFFFFFFFFFFFFFFF AND DUP2 MSTORE PUSH1 0x20 ADD SWAP1 DUP2 MSTORE PUSH1 0x20 ADD PUSH0 KECCAK256 SLOAD SUB PUSH2 0x11EF JUMPI DUP1 PUSH1 0x7 ADD CALLER SWAP1 DUP1 PUSH1 0x1 DUP2 SLOAD ADD DUP1 DUP3 SSTORE DUP1 SWAP2 POP POP PUSH1 0x1 SWAP1 SUB SWAP1 PUSH0 MSTORE PUSH1 0x20 PUSH0 KECCAK256 ADD PUSH0 SWAP1 SWAP2 SWAP1 SWAP2 SWAP1 SWAP2 PUSH2 0x100 EXP DUP2 SLOAD DUP2 PUSH20 0xFFFFFFFFFFFFFFFFFFFFFFFFFFFFFFFFFFFFFFFF MUL NOT AND SWAP1 DUP4 PUSH20 0xFFFFFFFFFFFFFFFFFFFFFFFFFFFFFFFFFFFFFFFF AND MUL OR SWAP1 SSTORE POP DUP1 PUSH1 0x6 ADD PUSH0 DUP2 SLOAD DUP1 SWAP3 SWAP2 SWAP1 PUSH2 0x10C1 SWAP1 PUSH2 0x2016 JUMP JUMPDEST SWAP2 SWAP1 POP SSTORE POP PUSH0 DUP1 JUMPDEST PUSH1 0x3 PUSH0 CALLER PUSH20 0xFFFFFFFFFFFFFFFFFFFFFFFFFFFFFFFFFFFFFFFF AND PUSH20 0xFFFFFFFFFFFFFFFFFFFFFFFFFFFFFFFFFFFFFFFF AND DUP2 MSTORE PUSH1 0x20 ADD SWAP1 DUP2 MSTORE PUSH1 0x20 ADD PUSH0 KECCAK256 DUP1 SLOAD SWAP1 POP DUP2 LT ISZERO PUSH2 0x1185 JUMPI DUP4 PUSH1 0x3 PUSH0 CALLER PUSH20 0xFFFFFFFFFFFFFFFFFFFFFFFFFFFFFFFFFFFFFFFF AND PUSH20 0xFFFFFFFFFFFFFFFFFFFFFFFFFFFFFFFFFFFFFFFF AND DUP2 MSTORE PUSH1 0x20 ADD SWAP1 DUP2 MSTORE PUSH1 0x20 ADD PUSH0 KECCAK256 DUP3 DUP2 SLOAD DUP2 LT PUSH2 0x1161 JUMPI PUSH2 0x1160 PUSH2 0x26CF JUMP JUMPDEST JUMPDEST SWAP1 PUSH0 MSTORE PUSH1 0x20 PUSH0 KECCAK256 ADD SLOAD SUB PUSH2 0x1178 JUMPI PUSH1 0x1 SWAP2 POP PUSH2 0x1185 JUMP JUMPDEST DUP1 DUP1 PUSH1 0x1 ADD SWAP2 POP POP PUSH2 0x10C9 JUMP JUMPDEST POP DUP1 PUSH2 0x11ED JUMPI PUSH1 0x3 PUSH0 CALLER PUSH20 0xFFFFFFFFFFFFFFFFFFFFFFFFFFFFFFFFFFFFFFFF AND PUSH20 0xFFFFFFFFFFFFFFFFFFFFFFFFFFFFFFFFFFFFFFFF AND DUP2 MSTORE PUSH1 0x20 ADD SWAP1 DUP2 MSTORE PUSH1 0x20 ADD PUSH0 KECCAK256 DUP4 SWAP1 DUP1 PUSH1 0x1 DUP2 SLOAD ADD DUP1 DUP3 SSTORE DUP1 SWAP2 POP POP PUSH1 0x1 SWAP1 SUB SWAP1 PUSH0 MSTORE PUSH1 0x20 PUSH0 KECCAK256 ADD PUSH0 SWAP1 SWAP2 SWAP1 SWAP2 SWAP1 SWAP2 POP SSTORE JUMPDEST POP JUMPDEST CALLVALUE DUP2 PUSH1 0x5 ADD PUSH0 CALLER PUSH20 0xFFFFFFFFFFFFFFFFFFFFFFFFFFFFFFFFFFFFFFFF AND PUSH20 0xFFFFFFFFFFFFFFFFFFFFFFFFFFFFFFFFFFFFFFFF AND DUP2 MSTORE PUSH1 0x20 ADD SWAP1 DUP2 MSTORE PUSH1 0x20 ADD PUSH0 KECCAK256 PUSH0 DUP3 DUP3 SLOAD PUSH2 0x123D SWAP2 SWAP1 PUSH2 0x232A JUMP JUMPDEST SWAP3 POP POP DUP2 SWAP1 SSTORE POP CALLVALUE DUP2 PUSH1 0x4 ADD PUSH0 DUP3 DUP3 SLOAD PUSH2 0x1257 SWAP2 SWAP1 PUSH2 0x232A JUMP JUMPDEST SWAP3 POP POP DUP2 SWAP1 SSTORE POP CALLER PUSH20 0xFFFFFFFFFFFFFFFFFFFFFFFFFFFFFFFFFFFFFFFF AND DUP3 PUSH32 0x71237963ACCFAB6CEB4010B83F2AD8C635A475FEA605B9A1BE57CAB17D5F9A65 CALLVALUE PUSH1 0x40 MLOAD PUSH2 0x12A5 SWAP2 SWAP1 PUSH2 0x1D37 JUMP JUMPDEST PUSH1 0x40 MLOAD DUP1 SWAP2 SUB SWAP1 LOG3 POP POP JUMP JUMPDEST PUSH0 DUP1 PUSH0 PUSH1 0x5 PUSH0 DUP7 DUP2 MSTORE PUSH1 0x20 ADD SWAP1 DUP2 MSTORE PUSH1 0x20 ADD PUSH0 KECCAK256 SWAP1 POP DUP1 PUSH1 0x9 ADD PUSH0 DUP6 PUSH20 0xFFFFFFFFFFFFFFFFFFFFFFFFFFFFFFFFFFFFFFFF AND PUSH20 0xFFFFFFFFFFFFFFFFFFFFFFFFFFFFFFFFFFFFFFFF AND DUP2 MSTORE PUSH1 0x20 ADD SWAP1 DUP2 MSTORE PUSH1 0x20 ADD PUSH0 KECCAK256 PUSH0 SWAP1 SLOAD SWAP1 PUSH2 0x100 EXP SWAP1 DIV PUSH1 0xFF AND DUP2 PUSH1 0xA ADD PUSH0 DUP7 PUSH20 0xFFFFFFFFFFFFFFFFFFFFFFFFFFFFFFFFFFFFFFFF AND PUSH20 0xFFFFFFFFFFFFFFFFFFFFFFFFFFFFFFFFFFFFFFFF AND DUP2 MSTORE PUSH1 0x20 ADD SWAP1 DUP2 MSTORE PUSH1 0x20 ADD PUSH0 KECCAK256 PUSH0 SWAP1 SLOAD SWAP1 PUSH2 0x100 EXP SWAP1 DIV PUSH1 0xFF AND SWAP3 POP SWAP3 POP POP SWAP3 POP SWAP3 SWAP1 POP JUMP JUMPDEST PUSH0 PUSH1 0x5 PUSH0 DUP4 DUP2 MSTORE PUSH1 0x20 ADD SWAP1 DUP2 MSTORE PUSH1 0x20 ADD PUSH0 KECCAK256 SWAP1 POP PUSH0 PUSH1 0x2 PUSH0 DUP4 PUSH0 ADD SLOAD DUP2 MSTORE PUSH1 0x20 ADD SWAP1 DUP2 MSTORE PUSH1 0x20 ADD PUSH0 KECCAK256 SWAP1 POP PUSH0 DUP2 PUSH1 0x5 ADD PUSH0 CALLER PUSH20 0xFFFFFFFFFFFFFFFFFFFFFFFFFFFFFFFFFFFFFFFF AND PUSH20 0xFFFFFFFFFFFFFFFFFFFFFFFFFFFFFFFFFFFFFFFF AND DUP2 MSTORE PUSH1 0x20 ADD SWAP1 DUP2 MSTORE PUSH1 0x20 ADD PUSH0 KECCAK256 SLOAD GT PUSH2 0x1417 JUMPI PUSH1 0x40 MLOAD PUSH32 0x8C379A000000000000000000000000000000000000000000000000000000000 DUP2 MSTORE PUSH1 0x4 ADD PUSH2 0x140E SWAP1 PUSH2 0x2490 JUMP JUMPDEST PUSH1 0x40 MLOAD DUP1 SWAP2 SUB SWAP1 REVERT JUMPDEST DUP1 PUSH1 0x8 ADD SLOAD DUP3 PUSH1 0x7 ADD SLOAD PUSH2 0x142B SWAP2 SWAP1 PUSH2 0x232A JUMP JUMPDEST TIMESTAMP GT ISZERO PUSH2 0x146D JUMPI PUSH1 0x40 MLOAD PUSH32 0x8C379A000000000000000000000000000000000000000000000000000000000 DUP2 MSTORE PUSH1 0x4 ADD PUSH2 0x1464 SWAP1 PUSH2 0x2560 JUMP JUMPDEST PUSH1 0x40 MLOAD DUP1 SWAP2 SUB SWAP1 REVERT JUMPDEST DUP2 PUSH1 0x1 ADD PUSH0 SWAP1 SLOAD SWAP1 PUSH2 0x100 EXP SWAP1 DIV PUSH20 0xFFFFFFFFFFFFFFFFFFFFFFFFFFFFFFFFFFFFFFFF AND PUSH20 0xFFFFFFFFFFFFFFFFFFFFFFFFFFFFFFFFFFFFFFFF AND CALLER PUSH20 0xFFFFFFFFFFFFFFFFFFFFFFFFFFFFFFFFFFFFFFFF AND SUB PUSH2 0x14FE JUMPI PUSH1 0x40 MLOAD PUSH32 0x8C379A000000000000000000000000000000000000000000000000000000000 DUP2 MSTORE PUSH1 0x4 ADD PUSH2 0x14F5 SWAP1 PUSH2 0x25C8 JUMP JUMPDEST PUSH1 0x40 MLOAD DUP1 SWAP2 SUB SWAP1 REVERT JUMPDEST DUP2 PUSH1 0x9 ADD PUSH0 CALLER PUSH20 0xFFFFFFFFFFFFFFFFFFFFFFFFFFFFFFFFFFFFFFFF AND PUSH20 0xFFFFFFFFFFFFFFFFFFFFFFFFFFFFFFFFFFFFFFFF AND DUP2 MSTORE PUSH1 0x20 ADD SWAP1 DUP2 MSTORE PUSH1 0x20 ADD PUSH0 KECCAK256 PUSH0 SWAP1 SLOAD SWAP1 PUSH2 0x100 EXP SWAP1 DIV PUSH1 0xFF AND ISZERO DUP1 ISZERO PUSH2 0x15A0 JUMPI POP DUP2 PUSH1 0xA ADD PUSH0 CALLER PUSH20 0xFFFFFFFFFFFFFFFFFFFFFFFFFFFFFFFFFFFFFFFF AND PUSH20 0xFFFFFFFFFFFFFFFFFFFFFFFFFFFFFFFFFFFFFFFF AND DUP2 MSTORE PUSH1 0x20 ADD SWAP1 DUP2 MSTORE PUSH1 0x20 ADD PUSH0 KECCAK256 PUSH0 SWAP1 SLOAD SWAP1 PUSH2 0x100 EXP SWAP1 DIV PUSH1 0xFF AND ISZERO JUMPDEST PUSH2 0x15DF JUMPI PUSH1 0x40 MLOAD PUSH32 0x8C379A000000000000000000000000000000000000000000000000000000000 DUP2 MSTORE PUSH1 0x4 ADD PUSH2 0x15D6 SWAP1 PUSH2 0x2630 JUMP JUMPDEST PUSH1 0x40 MLOAD DUP1 SWAP2 SUB SWAP1 REVERT JUMPDEST PUSH1 0x1 DUP3 PUSH1 0x9 ADD PUSH0 CALLER PUSH20 0xFFFFFFFFFFFFFFFFFFFFFFFFFFFFFFFFFFFFFFFF AND PUSH20 0xFFFFFFFFFFFFFFFFFFFFFFFFFFFFFFFFFFFFFFFF AND DUP2 MSTORE PUSH1 0x20 ADD SWAP1 DUP2 MSTORE PUSH1 0x20 ADD PUSH0 KECCAK256 PUSH0 PUSH2 0x100 EXP DUP2 SLOAD DUP2 PUSH1 0xFF MUL NOT AND SWAP1 DUP4 ISZERO ISZERO MUL OR SWAP1 SSTORE POP DUP2 PUSH1 0x5 ADD PUSH0 DUP2 SLOAD DUP1 SWAP3 SWAP2 SWAP1 PUSH2 0x164A SWAP1 PUSH2 0x2016 JUMP JUMPDEST SWAP2 SWAP1 POP SSTORE POP CALLER PUSH20 0xFFFFFFFFFFFFFFFFFFFFFFFFFFFFFFFFFFFFFFFF AND DUP4 PUSH32 0xF2913DBE661EE2ACC4A046D8FBCDC792373BDA34C41C6086484B5345E5785E5F PUSH1 0x1 PUSH1 0x40 MLOAD PUSH2 0x1697 SWAP2 SWAP1 PUSH2 0x264E JUMP JUMPDEST PUSH1 0x40 MLOAD DUP1 SWAP2 SUB SWAP1 LOG3 POP POP POP JUMP JUMPDEST PUSH0 PUSH1 0x5 PUSH0 DUP4 DUP2 MSTORE PUSH1 0x20 ADD SWAP1 DUP2 MSTORE PUSH1 0x20 ADD PUSH0 KECCAK256 SWAP1 POP PUSH0 PUSH1 0x2 PUSH0 DUP6 DUP2 MSTORE PUSH1 0x20 ADD SWAP1 DUP2 MSTORE PUSH1 0x20 ADD PUSH0 KECCAK256 SWAP1 POP DUP2 PUSH1 0x1 ADD PUSH0 SWAP1 SLOAD SWAP1 PUSH2 0x100 EXP SWAP1 DIV PUSH20 0xFFFFFFFFFFFFFFFFFFFFFFFFFFFFFFFFFFFFFFFF AND PUSH20 0xFFFFFFFFFFFFFFFFFFFFFFFFFFFFFFFFFFFFFFFF AND CALLER PUSH20 0xFFFFFFFFFFFFFFFFFFFFFFFFFFFFFFFFFFFFFFFF AND EQ PUSH2 0x175D JUMPI PUSH1 0x40 MLOAD PUSH32 0x8C379A000000000000000000000000000000000000000000000000000000000 DUP2 MSTORE PUSH1 0x4 ADD PUSH2 0x1754 SWAP1 PUSH2 0x2746 JUMP JUMPDEST PUSH1 0x40 MLOAD DUP1 SWAP2 SUB SWAP1 REVERT JUMPDEST PUSH1 0x1 PUSH1 0x2 DUP2 GT ISZERO PUSH2 0x1771 JUMPI PUSH2 0x1770 PUSH2 0x1A77 JUMP JUMPDEST JUMPDEST DUP3 PUSH1 0x8 ADD PUSH0 SWAP1 SLOAD SWAP1 PUSH2 0x100 EXP SWAP1 DIV PUSH1 0xFF AND PUSH1 0x2 DUP2 GT ISZERO PUSH2 0x1794 JUMPI PUSH2 0x1793 PUSH2 0x1A77 JUMP JUMPDEST JUMPDEST EQ PUSH2 0x17D4 JUMPI PUSH1 0x40 MLOAD PUSH32 0x8C379A000000000000000000000000000000000000000000000000000000000 DUP2 MSTORE PUSH1 0x4 ADD PUSH2 0x17CB SWAP1 PUSH2 0x27AE JUMP JUMPDEST PUSH1 0x40 MLOAD DUP1 SWAP2 SUB SWAP1 REVERT JUMPDEST DUP1 PUSH1 0x4 ADD SLOAD DUP3 PUSH1 0x4 ADD SLOAD GT ISZERO PUSH2 0x181F JUMPI PUSH1 0x40 MLOAD PUSH32 0x8C379A000000000000000000000000000000000000000000000000000000000 DUP2 MSTORE PUSH1 0x4 ADD PUSH2 0x1816 SWAP1 PUSH2 0x24F8 JUMP JUMPDEST PUSH1 0x40 MLOAD DUP1 SWAP2 SUB SWAP1 REVERT JUMPDEST PUSH0 DUP3 PUSH1 0x4 ADD SLOAD SWAP1 POP PUSH0 DUP4 PUSH1 0x4 ADD DUP2 SWAP1 SSTORE POP DUP1 DUP3 PUSH1 0x4 ADD PUSH0 DUP3 DUP3 SLOAD PUSH2 0x1843 SWAP2 SWAP1 PUSH2 0x27CC JUMP JUMPDEST SWAP3 POP POP DUP2 SWAP1 SSTORE POP PUSH0 CALLER PUSH20 0xFFFFFFFFFFFFFFFFFFFFFFFFFFFFFFFFFFFFFFFF AND DUP3 PUSH1 0x40 MLOAD PUSH2 0x186F SWAP1 PUSH2 0x282C JUMP JUMPDEST PUSH0 PUSH1 0x40 MLOAD DUP1 DUP4 SUB DUP2 DUP6 DUP8 GAS CALL SWAP3 POP POP POP RETURNDATASIZE DUP1 PUSH0 DUP2 EQ PUSH2 0x18A9 JUMPI PUSH1 0x40 MLOAD SWAP2 POP PUSH1 0x1F NOT PUSH1 0x3F RETURNDATASIZE ADD AND DUP3 ADD PUSH1 0x40 MSTORE RETURNDATASIZE DUP3 MSTORE RETURNDATASIZE PUSH0 PUSH1 0x20 DUP5 ADD RETURNDATACOPY PUSH2 0x18AE JUMP JUMPDEST PUSH1 0x60 SWAP2 POP JUMPDEST POP POP SWAP1 POP DUP1 PUSH2 0x18F2 JUMPI PUSH1 0x40 MLOAD PUSH32 0x8C379A000000000000000000000000000000000000000000000000000000000 DUP2 MSTORE PUSH1 0x4 ADD PUSH2 0x18E9 SWAP1 PUSH2 0x288A JUMP JUMPDEST PUSH1 0x40 MLOAD DUP1 SWAP2 SUB SWAP1 REVERT JUMPDEST CALLER PUSH20 0xFFFFFFFFFFFFFFFFFFFFFFFFFFFFFFFFFFFFFFFF AND DUP6 DUP8 PUSH32 0x3F53F5F381EE0B1FBF730FA56EFB0A2AEC8A882B2847A1EC0279982D8846E4F2 DUP6 PUSH1 0x40 MLOAD PUSH2 0x193A SWAP2 SWAP1 PUSH2 0x1D37 JUMP JUMPDEST PUSH1 0x40 MLOAD DUP1 SWAP2 SUB SWAP1 LOG4 POP POP POP POP POP POP JUMP JUMPDEST PUSH0 PUSH1 0x40 MLOAD SWAP1 POP SWAP1 JUMP JUMPDEST PUSH0 DUP1 REVERT JUMPDEST PUSH0 DUP1 REVERT JUMPDEST PUSH0 DUP2 SWAP1 POP SWAP2 SWAP1 POP JUMP JUMPDEST PUSH2 0x196D DUP2 PUSH2 0x195B JUMP JUMPDEST DUP2 EQ PUSH2 0x1977 JUMPI PUSH0 DUP1 REVERT JUMPDEST POP JUMP JUMPDEST PUSH0 DUP2 CALLDATALOAD SWAP1 POP PUSH2 0x1988 DUP2 PUSH2 0x1964 JUMP JUMPDEST SWAP3 SWAP2 POP POP JUMP JUMPDEST PUSH0 PUSH1 0x20 DUP3 DUP5 SUB SLT ISZERO PUSH2 0x19A3 JUMPI PUSH2 0x19A2 PUSH2 0x1953 JUMP JUMPDEST JUMPDEST PUSH0 PUSH2 0x19B0 DUP5 DUP3 DUP6 ADD PUSH2 0x197A JUMP JUMPDEST SWAP2 POP POP SWAP3 SWAP2 POP POP JUMP JUMPDEST PUSH2 0x19C2 DUP2 PUSH2 0x195B JUMP JUMPDEST DUP3 MSTORE POP POP JUMP JUMPDEST PUSH0 PUSH20 0xFFFFFFFFFFFFFFFFFFFFFFFFFFFFFFFFFFFFFFFF DUP3 AND SWAP1 POP SWAP2 SWAP1 POP JUMP JUMPDEST PUSH0 PUSH2 0x19F1 DUP3 PUSH2 0x19C8 JUMP JUMPDEST SWAP1 POP SWAP2 SWAP1 POP JUMP JUMPDEST PUSH2 0x1A01 DUP2 PUSH2 0x19E7 JUMP JUMPDEST DUP3 MSTORE POP POP JUMP JUMPDEST PUSH0 DUP2 MLOAD SWAP1 POP SWAP2 SWAP1 POP JUMP JUMPDEST PUSH0 DUP3 DUP3 MSTORE PUSH1 0x20 DUP3 ADD SWAP1 POP SWAP3 SWAP2 POP POP JUMP JUMPDEST DUP3 DUP2 DUP4 MCOPY PUSH0 DUP4 DUP4 ADD MSTORE POP POP POP JUMP JUMPDEST PUSH0 PUSH1 0x1F NOT PUSH1 0x1F DUP4 ADD AND SWAP1 POP SWAP2 SWAP1 POP JUMP JUMPDEST PUSH0 PUSH2 0x1A49 DUP3 PUSH2 0x1A07 JUMP JUMPDEST PUSH2 0x1A53 DUP2 DUP6 PUSH2 0x1A11 JUMP JUMPDEST SWAP4 POP PUSH2 0x1A63 DUP2 DUP6 PUSH1 0x20 DUP7 ADD PUSH2 0x1A21 JUMP JUMPDEST PUSH2 0x1A6C DUP2 PUSH2 0x1A2F JUMP JUMPDEST DUP5 ADD SWAP2 POP POP SWAP3 SWAP2 POP POP JUMP JUMPDEST PUSH32 0x4E487B7100000000000000000000000000000000000000000000000000000000 PUSH0 MSTORE PUSH1 0x21 PUSH1 0x4 MSTORE PUSH1 0x24 PUSH0 REVERT JUMPDEST PUSH1 0x3 DUP2 LT PUSH2 0x1AB5 JUMPI PUSH2 0x1AB4 PUSH2 0x1A77 JUMP JUMPDEST JUMPDEST POP JUMP JUMPDEST PUSH0 DUP2 SWAP1 POP PUSH2 0x1AC5 DUP3 PUSH2 0x1AA4 JUMP JUMPDEST SWAP2 SWAP1 POP JUMP JUMPDEST PUSH0 PUSH2 0x1AD4 DUP3 PUSH2 0x1AB8 JUMP JUMPDEST SWAP1 POP SWAP2 SWAP1 POP JUMP JUMPDEST PUSH2 0x1AE4 DUP2 PUSH2 0x1ACA JUMP JUMPDEST DUP3 MSTORE POP POP JUMP JUMPDEST PUSH0 PUSH2 0x120 DUP3 ADD SWAP1 POP PUSH2 0x1AFE PUSH0 DUP4 ADD DUP13 PUSH2 0x19B9 JUMP JUMPDEST PUSH2 0x1B0B PUSH1 0x20 DUP4 ADD DUP12 PUSH2 0x19F8 JUMP JUMPDEST DUP2 DUP2 SUB PUSH1 0x40 DUP4 ADD MSTORE PUSH2 0x1B1D DUP2 DUP11 PUSH2 0x1A3F JUMP JUMPDEST SWAP1 POP DUP2 DUP2 SUB PUSH1 0x60 DUP4 ADD MSTORE PUSH2 0x1B31 DUP2 DUP10 PUSH2 0x1A3F JUMP JUMPDEST SWAP1 POP PUSH2 0x1B40 PUSH1 0x80 DUP4 ADD DUP9 PUSH2 0x19B9 JUMP JUMPDEST PUSH2 0x1B4D PUSH1 0xA0 DUP4 ADD DUP8 PUSH2 0x19B9 JUMP JUMPDEST PUSH2 0x1B5A PUSH1 0xC0 DUP4 ADD DUP7 PUSH2 0x19B9 JUMP JUMPDEST PUSH2 0x1B67 PUSH1 0xE0 DUP4 ADD DUP6 PUSH2 0x19B9 JUMP JUMPDEST PUSH2 0x1B75 PUSH2 0x100 DUP4 ADD DUP5 PUSH2 0x1ADB JUMP JUMPDEST SWAP11 SWAP10 POP POP POP POP POP POP POP POP POP POP JUMP JUMPDEST PUSH0 DUP1 REVERT JUMPDEST PUSH0 DUP1 REVERT JUMPDEST PUSH32 0x4E487B7100000000000000000000000000000000000000000000000000000000 PUSH0 MSTORE PUSH1 0x41 PUSH1 0x4 MSTORE PUSH1 0x24 PUSH0 REVERT JUMPDEST PUSH2 0x1BC1 DUP3 PUSH2 0x1A2F JUMP JUMPDEST DUP2 ADD DUP2 DUP2 LT PUSH8 0xFFFFFFFFFFFFFFFF DUP3 GT OR ISZERO PUSH2 0x1BE0 JUMPI PUSH2 0x1BDF PUSH2 0x1B8B JUMP JUMPDEST JUMPDEST DUP1 PUSH1 0x40 MSTORE POP POP POP JUMP JUMPDEST PUSH0 PUSH2 0x1BF2 PUSH2 0x194A JUMP JUMPDEST SWAP1 POP PUSH2 0x1BFE DUP3 DUP3 PUSH2 0x1BB8 JUMP JUMPDEST SWAP2 SWAP1 POP JUMP JUMPDEST PUSH0 PUSH8 0xFFFFFFFFFFFFFFFF DUP3 GT ISZERO PUSH2 0x1C1D JUMPI PUSH2 0x1C1C PUSH2 0x1B8B JUMP JUMPDEST JUMPDEST PUSH2 0x1C26 DUP3 PUSH2 0x1A2F JUMP JUMPDEST SWAP1 POP PUSH1 0x20 DUP2 ADD SWAP1 POP SWAP2 SWAP1 POP JUMP JUMPDEST DUP3 DUP2 DUP4 CALLDATACOPY PUSH0 DUP4 DUP4 ADD MSTORE POP POP POP JUMP JUMPDEST PUSH0 PUSH2 0x1C53 PUSH2 0x1C4E DUP5 PUSH2 0x1C03 JUMP JUMPDEST PUSH2 0x1BE9 JUMP JUMPDEST SWAP1 POP DUP3 DUP2 MSTORE PUSH1 0x20 DUP2 ADD DUP5 DUP5 DUP5 ADD GT ISZERO PUSH2 0x1C6F JUMPI PUSH2 0x1C6E PUSH2 0x1B87 JUMP JUMPDEST JUMPDEST PUSH2 0x1C7A DUP5 DUP3 DUP6 PUSH2 0x1C33 JUMP JUMPDEST POP SWAP4 SWAP3 POP POP POP JUMP JUMPDEST PUSH0 DUP3 PUSH1 0x1F DUP4 ADD SLT PUSH2 0x1C96 JUMPI PUSH2 0x1C95 PUSH2 0x1B83 JUMP JUMPDEST JUMPDEST DUP2 CALLDATALOAD PUSH2 0x1CA6 DUP5 DUP3 PUSH1 0x20 DUP7 ADD PUSH2 0x1C41 JUMP JUMPDEST SWAP2 POP POP SWAP3 SWAP2 POP POP JUMP JUMPDEST PUSH0 DUP1 PUSH0 PUSH1 0x60 DUP5 DUP7 SUB SLT ISZERO PUSH2 0x1CC6 JUMPI PUSH2 0x1CC5 PUSH2 0x1953 JUMP JUMPDEST JUMPDEST PUSH0 DUP5 ADD CALLDATALOAD PUSH8 0xFFFFFFFFFFFFFFFF DUP2 GT ISZERO PUSH2 0x1CE3 JUMPI PUSH2 0x1CE2 PUSH2 0x1957 JUMP JUMPDEST JUMPDEST PUSH2 0x1CEF DUP7 DUP3 DUP8 ADD PUSH2 0x1C82 JUMP JUMPDEST SWAP4 POP POP PUSH1 0x20 DUP5 ADD CALLDATALOAD PUSH8 0xFFFFFFFFFFFFFFFF DUP2 GT ISZERO PUSH2 0x1D10 JUMPI PUSH2 0x1D0F PUSH2 0x1957 JUMP JUMPDEST JUMPDEST PUSH2 0x1D1C DUP7 DUP3 DUP8 ADD PUSH2 0x1C82 JUMP JUMPDEST SWAP3 POP POP PUSH1 0x40 PUSH2 0x1D2D DUP7 DUP3 DUP8 ADD PUSH2 0x197A JUMP JUMPDEST SWAP2 POP POP SWAP3 POP SWAP3 POP SWAP3 JUMP JUMPDEST PUSH0 PUSH1 0x20 DUP3 ADD SWAP1 POP PUSH2 0x1D4A PUSH0 DUP4 ADD DUP5 PUSH2 0x19B9 JUMP JUMPDEST SWAP3 SWAP2 POP POP JUMP JUMPDEST PUSH2 0x1D59 DUP2 PUSH2 0x19E7 JUMP JUMPDEST DUP2 EQ PUSH2 0x1D63 JUMPI PUSH0 DUP1 REVERT JUMPDEST POP JUMP JUMPDEST PUSH0 DUP2 CALLDATALOAD SWAP1 POP PUSH2 0x1D74 DUP2 PUSH2 0x1D50 JUMP JUMPDEST SWAP3 SWAP2 POP POP JUMP JUMPDEST PUSH0 DUP1 PUSH1 0x40 DUP4 DUP6 SUB SLT ISZERO PUSH2 0x1D90 JUMPI PUSH2 0x1D8F PUSH2 0x1953 JUMP JUMPDEST JUMPDEST PUSH0 PUSH2 0x1D9D DUP6 DUP3 DUP7 ADD PUSH2 0x197A JUMP JUMPDEST SWAP3 POP POP PUSH1 0x20 PUSH2 0x1DAE DUP6 DUP3 DUP7 ADD PUSH2 0x1D66 JUMP JUMPDEST SWAP2 POP POP SWAP3 POP SWAP3 SWAP1 POP JUMP JUMPDEST PUSH0 DUP1 PUSH0 DUP1 PUSH1 0x80 DUP6 DUP8 SUB SLT ISZERO PUSH2 0x1DD0 JUMPI PUSH2 0x1DCF PUSH2 0x1953 JUMP JUMPDEST JUMPDEST PUSH0 PUSH2 0x1DDD DUP8 DUP3 DUP9 ADD PUSH2 0x197A JUMP JUMPDEST SWAP5 POP POP PUSH1 0x20 DUP6 ADD CALLDATALOAD PUSH8 0xFFFFFFFFFFFFFFFF DUP2 GT ISZERO PUSH2 0x1DFE JUMPI PUSH2 0x1DFD PUSH2 0x1957 JUMP JUMPDEST JUMPDEST PUSH2 0x1E0A DUP8 DUP3 DUP9 ADD PUSH2 0x1C82 JUMP JUMPDEST SWAP4 POP POP PUSH1 0x40 DUP6 ADD CALLDATALOAD PUSH8 0xFFFFFFFFFFFFFFFF DUP2 GT ISZERO PUSH2 0x1E2B JUMPI PUSH2 0x1E2A PUSH2 0x1957 JUMP JUMPDEST JUMPDEST PUSH2 0x1E37 DUP8 DUP3 DUP9 ADD PUSH2 0x1C82 JUMP JUMPDEST SWAP3 POP POP PUSH1 0x60 PUSH2 0x1E48 DUP8 DUP3 DUP9 ADD PUSH2 0x197A JUMP JUMPDEST SWAP2 POP POP SWAP3 SWAP6 SWAP2 SWAP5 POP SWAP3 POP JUMP JUMPDEST PUSH0 DUP1 PUSH1 0x40 DUP4 DUP6 SUB SLT ISZERO PUSH2 0x1E6A JUMPI PUSH2 0x1E69 PUSH2 0x1953 JUMP JUMPDEST JUMPDEST PUSH0 PUSH2 0x1E77 DUP6 DUP3 DUP7 ADD PUSH2 0x197A JUMP JUMPDEST SWAP3 POP POP PUSH1 0x20 PUSH2 0x1E88 DUP6 DUP3 DUP7 ADD PUSH2 0x197A JUMP JUMPDEST SWAP2 POP POP SWAP3 POP SWAP3 SWAP1 POP JUMP JUMPDEST PUSH0 PUSH1 0xE0 DUP3 ADD SWAP1 POP PUSH2 0x1EA5 PUSH0 DUP4 ADD DUP11 PUSH2 0x19F8 JUMP JUMPDEST DUP2 DUP2 SUB PUSH1 0x20 DUP4 ADD MSTORE PUSH2 0x1EB7 DUP2 DUP10 PUSH2 0x1A3F JUMP JUMPDEST SWAP1 POP DUP2 DUP2 SUB PUSH1 0x40 DUP4 ADD MSTORE PUSH2 0x1ECB DUP2 DUP9 PUSH2 0x1A3F JUMP JUMPDEST SWAP1 POP PUSH2 0x1EDA PUSH1 0x60 DUP4 ADD DUP8 PUSH2 0x19B9 JUMP JUMPDEST PUSH2 0x1EE7 PUSH1 0x80 DUP4 ADD DUP7 PUSH2 0x19B9 JUMP JUMPDEST PUSH2 0x1EF4 PUSH1 0xA0 DUP4 ADD DUP6 PUSH2 0x19B9 JUMP JUMPDEST PUSH2 0x1F01 PUSH1 0xC0 DUP4 ADD DUP5 PUSH2 0x19B9 JUMP JUMPDEST SWAP9 SWAP8 POP POP POP POP POP POP POP POP JUMP JUMPDEST PUSH0 DUP1 PUSH1 0x40 DUP4 DUP6 SUB SLT ISZERO PUSH2 0x1F23 JUMPI PUSH2 0x1F22 PUSH2 0x1953 JUMP JUMPDEST JUMPDEST PUSH0 PUSH2 0x1F30 DUP6 DUP3 DUP7 ADD PUSH2 0x1D66 JUMP JUMPDEST SWAP3 POP POP PUSH1 0x20 PUSH2 0x1F41 DUP6 DUP3 DUP7 ADD PUSH2 0x197A JUMP JUMPDEST SWAP2 POP POP SWAP3 POP SWAP3 SWAP1 POP JUMP JUMPDEST PUSH0 DUP2 ISZERO ISZERO SWAP1 POP SWAP2 SWAP1 POP JUMP JUMPDEST PUSH2 0x1F5F DUP2 PUSH2 0x1F4B JUMP JUMPDEST DUP3 MSTORE POP POP JUMP JUMPDEST PUSH0 PUSH1 0x40 DUP3 ADD SWAP1 POP PUSH2 0x1F78 PUSH0 DUP4 ADD DUP6 PUSH2 0x1F56 JUMP JUMPDEST PUSH2 0x1F85 PUSH1 0x20 DUP4 ADD DUP5 PUSH2 0x1F56 JUMP JUMPDEST SWAP4 SWAP3 POP POP POP JUMP JUMPDEST PUSH32 0x4E487B7100000000000000000000000000000000000000000000000000000000 PUSH0 MSTORE PUSH1 0x22 PUSH1 0x4 MSTORE PUSH1 0x24 PUSH0 REVERT JUMPDEST PUSH0 PUSH1 0x2 DUP3 DIV SWAP1 POP PUSH1 0x1 DUP3 AND DUP1 PUSH2 0x1FD0 JUMPI PUSH1 0x7F DUP3 AND SWAP2 POP JUMPDEST PUSH1 0x20 DUP3 LT DUP2 SUB PUSH2 0x1FE3 JUMPI PUSH2 0x1FE2 PUSH2 0x1F8C JUMP JUMPDEST JUMPDEST POP SWAP2 SWAP1 POP JUMP JUMPDEST PUSH32 0x4E487B7100000000000000000000000000000000000000000000000000000000 PUSH0 MSTORE PUSH1 0x11 PUSH1 0x4 MSTORE PUSH1 0x24 PUSH0 REVERT JUMPDEST PUSH0 PUSH2 0x2020 DUP3 PUSH2 0x195B JUMP JUMPDEST SWAP2 POP PUSH32 0xFFFFFFFFFFFFFFFFFFFFFFFFFFFFFFFFFFFFFFFFFFFFFFFFFFFFFFFFFFFFFFFF DUP3 SUB PUSH2 0x2052 JUMPI PUSH2 0x2051 PUSH2 0x1FE9 JUMP JUMPDEST JUMPDEST PUSH1 0x1 DUP3 ADD SWAP1 POP SWAP2 SWAP1 POP JUMP JUMPDEST PUSH0 DUP2 SWAP1 POP DUP2 PUSH0 MSTORE PUSH1 0x20 PUSH0 KECCAK256 SWAP1 POP SWAP2 SWAP1 POP JUMP JUMPDEST PUSH0 PUSH1 0x20 PUSH1 0x1F DUP4 ADD DIV SWAP1 POP SWAP2 SWAP1 POP JUMP JUMPDEST PUSH0 DUP3 DUP3 SHL SWAP1 POP SWAP3 SWAP2 POP POP JUMP JUMPDEST PUSH0 PUSH1 0x8 DUP4 MUL PUSH2 0x20B9 PUSH32 0xFFFFFFFFFFFFFFFFFFFFFFFFFFFFFFFFFFFFFFFFFFFFFFFFFFFFFFFFFFFFFFFF DUP3 PUSH2 0x207E JUMP JUMPDEST PUSH2 0x20C3 DUP7 DUP4 PUSH2 0x207E JUMP JUMPDEST SWAP6 POP DUP1 NOT DUP5 AND SWAP4 POP DUP1 DUP7 AND DUP5 OR SWAP3 POP POP POP SWAP4 SWAP3 POP POP POP JUMP JUMPDEST PUSH0 DUP2 SWAP1 POP SWAP2 SWAP1 POP JUMP JUMPDEST PUSH0 PUSH2 0x20FE PUSH2 0x20F9 PUSH2 0x20F4 DUP5 PUSH2 0x195B JUMP JUMPDEST PUSH2 0x20DB JUMP JUMPDEST PUSH2 0x195B JUMP JUMPDEST SWAP1 POP SWAP2 SWAP1 POP JUMP JUMPDEST PUSH0 DUP2 SWAP1 POP SWAP2 SWAP1 POP JUMP JUMPDEST PUSH2 0x2117 DUP4 PUSH2 0x20E4 JUMP JUMPDEST PUSH2 0x212B PUSH2 0x2123 DUP3 PUSH2 0x2105 JUMP JUMPDEST DUP5 DUP5 SLOAD PUSH2 0x208A JUMP JUMPDEST DUP3 SSTORE POP POP POP POP JUMP JUMPDEST PUSH0 SWAP1 JUMP JUMPDEST PUSH2 0x213F PUSH2 0x2133 JUMP JUMPDEST PUSH2 0x214A DUP2 DUP5 DUP5 PUSH2 0x210E JUMP JUMPDEST POP POP POP JUMP JUMPDEST JUMPDEST DUP2 DUP2 LT ISZERO PUSH2 0x216D JUMPI PUSH2 0x2162 PUSH0 DUP3 PUSH2 0x2137 JUMP JUMPDEST PUSH1 0x1 DUP2 ADD SWAP1 POP PUSH2 0x2150 JUMP JUMPDEST POP POP JUMP JUMPDEST PUSH1 0x1F DUP3 GT ISZERO PUSH2 0x21B2 JUMPI PUSH2 0x2183 DUP2 PUSH2 0x205D JUMP JUMPDEST PUSH2 0x218C DUP5 PUSH2 0x206F JUMP JUMPDEST DUP2 ADD PUSH1 0x20 DUP6 LT ISZERO PUSH2 0x219B JUMPI DUP2 SWAP1 POP JUMPDEST PUSH2 0x21AF PUSH2 0x21A7 DUP6 PUSH2 0x206F JUMP JUMPDEST DUP4 ADD DUP3 PUSH2 0x214F JUMP JUMPDEST POP POP JUMPDEST POP POP POP JUMP JUMPDEST PUSH0 DUP3 DUP3 SHR SWAP1 POP SWAP3 SWAP2 POP POP JUMP JUMPDEST PUSH0 PUSH2 0x21D2 PUSH0 NOT DUP5 PUSH1 0x8 MUL PUSH2 0x21B7 JUMP JUMPDEST NOT DUP1 DUP4 AND SWAP2 POP POP SWAP3 SWAP2 POP POP JUMP JUMPDEST PUSH0 PUSH2 0x21EA DUP4 DUP4 PUSH2 0x21C3 JUMP JUMPDEST SWAP2 POP DUP3 PUSH1 0x2 MUL DUP3 OR SWAP1 POP SWAP3 SWAP2 POP POP JUMP JUMPDEST PUSH2 0x2203 DUP3 PUSH2 0x1A07 JUMP JUMPDEST PUSH8 0xFFFFFFFFFFFFFFFF DUP2 GT ISZERO PUSH2 0x221C JUMPI PUSH2 0x221B PUSH2 0x1B8B JUMP JUMPDEST JUMPDEST PUSH2 0x2226 DUP3 SLOAD PUSH2 0x1FB9 JUMP JUMPDEST PUSH2 0x2231 DUP3 DUP3 DUP6 PUSH2 0x2171 JUMP JUMPDEST PUSH0 PUSH1 0x20 SWAP1 POP PUSH1 0x1F DUP4 GT PUSH1 0x1 DUP2 EQ PUSH2 0x2262 JUMPI PUSH0 DUP5 ISZERO PUSH2 0x2250 JUMPI DUP3 DUP8 ADD MLOAD SWAP1 POP JUMPDEST PUSH2 0x225A DUP6 DUP3 PUSH2 0x21DF JUMP JUMPDEST DUP7 SSTORE POP PUSH2 0x22C1 JUMP JUMPDEST PUSH1 0x1F NOT DUP5 AND PUSH2 0x2270 DUP7 PUSH2 0x205D JUMP JUMPDEST PUSH0 JUMPDEST DUP3 DUP2 LT ISZERO PUSH2 0x2297 JUMPI DUP5 DUP10 ADD MLOAD DUP3 SSTORE PUSH1 0x1 DUP3 ADD SWAP2 POP PUSH1 0x20 DUP6 ADD SWAP5 POP PUSH1 0x20 DUP2 ADD SWAP1 POP PUSH2 0x2272 JUMP JUMPDEST DUP7 DUP4 LT ISZERO PUSH2 0x22B4 JUMPI DUP5 DUP10 ADD MLOAD PUSH2 0x22B0 PUSH1 0x1F DUP10 AND DUP3 PUSH2 0x21C3 JUMP JUMPDEST DUP4 SSTORE POP JUMPDEST PUSH1 0x1 PUSH1 0x2 DUP9 MUL ADD DUP9 SSTORE POP POP POP JUMPDEST POP POP POP POP POP POP JUMP JUMPDEST PUSH0 PUSH2 0x22D3 DUP3 PUSH2 0x195B JUMP JUMPDEST SWAP2 POP PUSH2 0x22DE DUP4 PUSH2 0x195B JUMP JUMPDEST SWAP3 POP DUP3 DUP3 MUL PUSH2 0x22EC DUP2 PUSH2 0x195B JUMP JUMPDEST SWAP2 POP DUP3 DUP3 DIV DUP5 EQ DUP4 ISZERO OR PUSH2 0x2303 JUMPI PUSH2 0x2302 PUSH2 0x1FE9 JUMP JUMPDEST JUMPDEST POP SWAP3 SWAP2 POP POP JUMP JUMPDEST PUSH0 PUSH1 0x20 DUP3 ADD SWAP1 POP DUP2 DUP2 SUB PUSH0 DUP4 ADD MSTORE PUSH2 0x2322 DUP2 DUP5 PUSH2 0x1A3F JUMP JUMPDEST SWAP1 POP SWAP3 SWAP2 POP POP JUMP JUMPDEST PUSH0 PUSH2 0x2334 DUP3 PUSH2 0x195B JUMP JUMPDEST SWAP2 POP PUSH2 0x233F DUP4 PUSH2 0x195B JUMP JUMPDEST SWAP3 POP DUP3 DUP3 ADD SWAP1 POP DUP1 DUP3 GT ISZERO PUSH2 0x2357 JUMPI PUSH2 0x2356 PUSH2 0x1FE9 JUMP JUMPDEST JUMPDEST SWAP3 SWAP2 POP POP JUMP JUMPDEST PUSH32 0x566F74696E67207374696C6C20696E2070726F67726573730000000000000000 PUSH0 DUP3 ADD MSTORE POP JUMP JUMPDEST PUSH0 PUSH2 0x2391 PUSH1 0x18 DUP4 PUSH2 0x1A11 JUMP JUMPDEST SWAP2 POP PUSH2 0x239C DUP3 PUSH2 0x235D JUMP JUMPDEST PUSH1 0x20 DUP3 ADD SWAP1 POP SWAP2 SWAP1 POP JUMP JUMPDEST PUSH0 PUSH1 0x20 DUP3 ADD SWAP1 POP DUP2 DUP2 SUB PUSH0 DUP4 ADD MSTORE PUSH2 0x23BE DUP2 PUSH2 0x2385 JUMP JUMPDEST SWAP1 POP SWAP2 SWAP1 POP JUMP JUMPDEST PUSH32 0x50726F706F73616C20616C72656164792066696E616C697A6564000000000000 PUSH0 DUP3 ADD MSTORE POP JUMP JUMPDEST PUSH0 PUSH2 0x23F9 PUSH1 0x1A DUP4 PUSH2 0x1A11 JUMP JUMPDEST SWAP2 POP PUSH2 0x2404 DUP3 PUSH2 0x23C5 JUMP JUMPDEST PUSH1 0x20 DUP3 ADD SWAP1 POP SWAP2 SWAP1 POP JUMP JUMPDEST PUSH0 PUSH1 0x20 DUP3 ADD SWAP1 POP DUP2 DUP2 SUB PUSH0 DUP4 ADD MSTORE PUSH2 0x2426 DUP2 PUSH2 0x23ED JUMP JUMPDEST SWAP1 POP SWAP2 SWAP1 POP JUMP JUMPDEST PUSH0 PUSH1 0x20 DUP3 ADD SWAP1 POP PUSH2 0x2440 PUSH0 DUP4 ADD DUP5 PUSH2 0x1ADB JUMP JUMPDEST SWAP3 SWAP2 POP POP JUMP JUMPDEST PUSH32 0x4E6F742061206D656D626572206F662074686973205348470000000000000000 PUSH0 DUP3 ADD MSTORE POP JUMP JUMPDEST PUSH0 PUSH2 0x247A PUSH1 0x18 DUP4 PUSH2 0x1A11 JUMP JUMPDEST SWAP2 POP PUSH2 0x2485 DUP3 PUSH2 0x2446 JUMP JUMPDEST PUSH1 0x20 DUP3 ADD SWAP1 POP SWAP2 SWAP1 POP JUMP JUMPDEST PUSH0 PUSH1 0x20 DUP3 ADD SWAP1 POP DUP2 DUP2 SUB PUSH0 DUP4 ADD MSTORE PUSH2 0x24A7 DUP2 PUSH2 0x246E JUMP JUMPDEST SWAP1 POP SWAP2 SWAP1 POP JUMP JUMPDEST PUSH32 0x496E73756666696369656E74205348472062616C616E63650000000000000000 PUSH0 DUP3 ADD MSTORE POP JUMP JUMPDEST PUSH0 PUSH2 0x24E2 PUSH1 0x18 DUP4 PUSH2 0x1A11 JUMP JUMPDEST SWAP2 POP PUSH2 0x24ED DUP3 PUSH2 0x24AE JUMP JUMPDEST PUSH1 0x20 DUP3 ADD SWAP1 POP SWAP2 SWAP1 POP JUMP JUMPDEST PUSH0 PUSH1 0x20 DUP3 ADD SWAP1 POP DUP2 DUP2 SUB PUSH0 DUP4 ADD MSTORE PUSH2 0x250F DUP2 PUSH2 0x24D6 JUMP JUMPDEST SWAP1 POP SWAP2 SWAP1 POP JUMP JUMPDEST PUSH32 0x566F74696E6720706572696F642068617320656E646564000000000000000000 PUSH0 DUP3 ADD MSTORE POP JUMP JUMPDEST PUSH0 PUSH2 0x254A PUSH1 0x17 DUP4 PUSH2 0x1A11 JUMP JUMPDEST SWAP2 POP PUSH2 0x2555 DUP3 PUSH2 0x2516 JUMP JUMPDEST PUSH1 0x20 DUP3 ADD SWAP1 POP SWAP2 SWAP1 POP JUMP JUMPDEST PUSH0 PUSH1 0x20 DUP3 ADD SWAP1 POP DUP2 DUP2 SUB PUSH0 DUP4 ADD MSTORE PUSH2 0x2577 DUP2 PUSH2 0x253E JUMP JUMPDEST SWAP1 POP SWAP2 SWAP1 POP JUMP JUMPDEST PUSH32 0x50726F706F7365722063616E6E6F7420766F7465000000000000000000000000 PUSH0 DUP3 ADD MSTORE POP JUMP JUMPDEST PUSH0 PUSH2 0x25B2 PUSH1 0x14 DUP4 PUSH2 0x1A11 JUMP JUMPDEST SWAP2 POP PUSH2 0x25BD DUP3 PUSH2 0x257E JUMP JUMPDEST PUSH1 0x20 DUP3 ADD SWAP1 POP SWAP2 SWAP1 POP JUMP JUMPDEST PUSH0 PUSH1 0x20 DUP3 ADD SWAP1 POP DUP2 DUP2 SUB PUSH0 DUP4 ADD MSTORE PUSH2 0x25DF DUP2 PUSH2 0x25A6 JUMP JUMPDEST SWAP1 POP SWAP2 SWAP1 POP JUMP JUMPDEST PUSH32 0x596F75206861766520616C726561647920766F74656400000000000000000000 PUSH0 DUP3 ADD MSTORE POP JUMP JUMPDEST PUSH0 PUSH2 0x261A PUSH1 0x16 DUP4 PUSH2 0x1A11 JUMP JUMPDEST SWAP2 POP PUSH2 0x2625 DUP3 PUSH2 0x25E6 JUMP JUMPDEST PUSH1 0x20 DUP3 ADD SWAP1 POP SWAP2 SWAP1 POP JUMP JUMPDEST PUSH0 PUSH1 0x20 DUP3 ADD SWAP1 POP DUP2 DUP2 SUB PUSH0 DUP4 ADD MSTORE PUSH2 0x2647 DUP2 PUSH2 0x260E JUMP JUMPDEST SWAP1 POP SWAP2 SWAP1 POP JUMP JUMPDEST PUSH0 PUSH1 0x20 DUP3 ADD SWAP1 POP PUSH2 0x2661 PUSH0 DUP4 ADD DUP5 PUSH2 0x1F56 JUMP JUMPDEST SWAP3 SWAP2 POP POP JUMP JUMPDEST PUSH32 0x4D7573742073656E642066756E64730000000000000000000000000000000000 PUSH0 DUP3 ADD MSTORE POP JUMP JUMPDEST PUSH0 PUSH2 0x269B PUSH1 0xF DUP4 PUSH2 0x1A11 JUMP JUMPDEST SWAP2 POP PUSH2 0x26A6 DUP3 PUSH2 0x2667 JUMP JUMPDEST PUSH1 0x20 DUP3 ADD SWAP1 POP SWAP2 SWAP1 POP JUMP JUMPDEST PUSH0 PUSH1 0x20 DUP3 ADD SWAP1 POP DUP2 DUP2 SUB PUSH0 DUP4 ADD MSTORE PUSH2 0x26C8 DUP2 PUSH2 0x268F JUMP JUMPDEST SWAP1 POP SWAP2 SWAP1 POP JUMP JUMPDEST PUSH32 0x4E487B7100000000000000000000000000000000000000000000000000000000 PUSH0 MSTORE PUSH1 0x32 PUSH1 0x4 MSTORE PUSH1 0x24 PUSH0 REVERT JUMPDEST PUSH32 0x4F6E6C792070726F706F7365722063616E20636C61696D2066756E6473000000 PUSH0 DUP3 ADD MSTORE POP JUMP JUMPDEST PUSH0 PUSH2 0x2730 PUSH1 0x1D DUP4 PUSH2 0x1A11 JUMP JUMPDEST SWAP2 POP PUSH2 0x273B DUP3 PUSH2 0x26FC JUMP JUMPDEST PUSH1 0x20 DUP3 ADD SWAP1 POP SWAP2 SWAP1 POP JUMP JUMPDEST PUSH0 PUSH1 0x20 DUP3 ADD SWAP1 POP DUP2 DUP2 SUB PUSH0 DUP4 ADD MSTORE PUSH2 0x275D DUP2 PUSH2 0x2724 JUMP JUMPDEST SWAP1 POP SWAP2 SWAP1 POP JUMP JUMPDEST PUSH32 0x50726F706F73616C206E6F7420617070726F7665640000000000000000000000 PUSH0 DUP3 ADD MSTORE POP JUMP JUMPDEST PUSH0 PUSH2 0x2798 PUSH1 0x15 DUP4 PUSH2 0x1A11 JUMP JUMPDEST SWAP2 POP PUSH2 0x27A3 DUP3 PUSH2 0x2764 JUMP JUMPDEST PUSH1 0x20 DUP3 ADD SWAP1 POP SWAP2 SWAP1 POP JUMP JUMPDEST PUSH0 PUSH1 0x20 DUP3 ADD SWAP1 POP DUP2 DUP2 SUB PUSH0 DUP4 ADD MSTORE PUSH2 0x27C5 DUP2 PUSH2 0x278C JUMP JUMPDEST SWAP1 POP SWAP2 SWAP1 POP JUMP JUMPDEST PUSH0 PUSH2 0x27D6 DUP3 PUSH2 0x195B JUMP JUMPDEST SWAP2 POP PUSH2 0x27E1 DUP4 PUSH2 0x195B JUMP JUMPDEST SWAP3 POP DUP3 DUP3 SUB SWAP1 POP DUP2 DUP2 GT ISZERO PUSH2 0x27F9 JUMPI PUSH2 0x27F8 PUSH2 0x1FE9 JUMP JUMPDEST JUMPDEST SWAP3 SWAP2 POP POP JUMP JUMPDEST PUSH0 DUP2 SWAP1 POP SWAP3 SWAP2 POP POP JUMP JUMPDEST POP JUMP JUMPDEST PUSH0 PUSH2 0x2817 PUSH0 DUP4 PUSH2 0x27FF JUMP JUMPDEST SWAP2 POP PUSH2 0x2822 DUP3 PUSH2 0x2809 JUMP JUMPDEST PUSH0 DUP3 ADD SWAP1 POP SWAP2 SWAP1 POP JUMP JUMPDEST PUSH0 PUSH2 0x2836 DUP3 PUSH2 0x280C JUMP JUMPDEST SWAP2 POP DUP2 SWAP1 POP SWAP2 SWAP1 POP JUMP JUMPDEST PUSH32 0x5472616E73666572206661696C65640000000000000000000000000000000000 PUSH0 DUP3 ADD MSTORE POP JUMP JUMPDEST PUSH0 PUSH2 0x2874 PUSH1 0xF DUP4 PUSH2 0x1A11 JUMP JUMPDEST SWAP2 POP PUSH2 0x287F DUP3 PUSH2 0x2840 JUMP JUMPDEST PUSH1 0x20 DUP3 ADD SWAP1 POP SWAP2 SWAP1 POP JUMP JUMPDEST PUSH0 PUSH1 0x20 DUP3 ADD SWAP1 POP DUP2 DUP2 SUB PUSH0 DUP4 ADD MSTORE PUSH2 0x28A1 DUP2 PUSH2 0x2868 JUMP JUMPDEST SWAP1 POP SWAP2 SWAP1 POP JUMP INVALID LOG2 PUSH5 0x6970667358 0x22 SLT KECCAK256 SWAP9 JUMP CALLDATALOAD 0x2D ADDMOD ADD SWAP8 MSTORE 0xF8 0xE4 PUSH16 0xFEC2E3BE03E873F707D248BF5C290BF 0x2A SLT SWAP5 0xCC 0xB9 PUSH5 0x736F6C6343 STOP ADDMOD BYTE STOP CALLER "
				},
				"gasEstimates": {
					"creation": {
						"codeDepositCost": "2092400",
						"executionCost": "12229",
						"totalCost": "2104629"
					},
					"external": {
						"addFunds(uint256)": "infinite",
						"addSHG(string,string,uint256)": "infinite",
						"claimFund(uint256,uint256)": "infinite",
						"createProposal(uint256,string,string,uint256)": "infinite",
						"finalizeProposal(uint256)": "infinite",
						"getFunderDetails(uint256,address)": "infinite",
						"getProposalVoterDetails(uint256,address)": "infinite",
						"memberOfShg(address,uint256)": "infinite",
						"proposalDetails(uint256)": "infinite",
						"proposalId()": "2493",
						"proposalIdInShg(uint256,uint256)": "infinite",
						"shgDetails(uint256)": "infinite",
						"shgId()": "2491",
						"voteAgainst(uint256)": "infinite",
						"voteInFavour(uint256)": "infinite"
					}
				},
				"methodIdentifiers": {
					"addFunds(uint256)": "be999705",
					"addSHG(string,string,uint256)": "1cc75df4",
					"claimFund(uint256,uint256)": "f5fffc0f",
					"createProposal(uint256,string,string,uint256)": "5ada0a41",
					"finalizeProposal(uint256)": "5652077c",
					"getFunderDetails(uint256,address)": "484c4c81",
					"getProposalVoterDetails(uint256,address)": "c0b8bb61",
					"memberOfShg(address,uint256)": "bc35baa3",
					"proposalDetails(uint256)": "16e9eaec",
					"proposalId()": "2dfca445",
					"proposalIdInShg(uint256,uint256)": "7641f2b8",
					"shgDetails(uint256)": "976eb774",
					"shgId()": "b979ce06",
					"voteAgainst(uint256)": "750e443a",
					"voteInFavour(uint256)": "f37ad2e9"
				}
			},
			"storageLayout": {
				"storage": [
					{
						"astId": 58,
						"contract": "contract.sol:SelfHelp",
						"label": "shgId",
						"offset": 0,
						"slot": "0",
						"type": "t_uint256"
					},
					{
						"astId": 61,
						"contract": "contract.sol:SelfHelp",
						"label": "proposalId",
						"offset": 0,
						"slot": "1",
						"type": "t_uint256"
					},
					{
						"astId": 66,
						"contract": "contract.sol:SelfHelp",
						"label": "shgDetails",
						"offset": 0,
						"slot": "2",
						"type": "t_mapping(t_uint256,t_struct(SHG)23_storage)"
					},
					{
						"astId": 71,
						"contract": "contract.sol:SelfHelp",
						"label": "memberOfShg",
						"offset": 0,
						"slot": "3",
						"type": "t_mapping(t_address,t_array(t_uint256)dyn_storage)"
					},
					{
						"astId": 76,
						"contract": "contract.sol:SelfHelp",
						"label": "proposalIdInShg",
						"offset": 0,
						"slot": "4",
						"type": "t_mapping(t_uint256,t_array(t_uint256)dyn_storage)"
					},
					{
						"astId": 81,
						"contract": "contract.sol:SelfHelp",
						"label": "proposalDetails",
						"offset": 0,
						"slot": "5",
						"type": "t_mapping(t_uint256,t_struct(Proposal)55_storage)"
					}
				],
				"types": {
					"t_address": {
						"encoding": "inplace",
						"label": "address",
						"numberOfBytes": "20"
					},
					"t_array(t_address)dyn_storage": {
						"base": "t_address",
						"encoding": "dynamic_array",
						"label": "address[]",
						"numberOfBytes": "32"
					},
					"t_array(t_uint256)dyn_storage": {
						"base": "t_uint256",
						"encoding": "dynamic_array",
						"label": "uint256[]",
						"numberOfBytes": "32"
					},
					"t_bool": {
						"encoding": "inplace",
						"label": "bool",
						"numberOfBytes": "1"
					},
					"t_enum(ProposalStatus)27": {
						"encoding": "inplace",
						"label": "enum SelfHelp.ProposalStatus",
						"numberOfBytes": "1"
					},
					"t_mapping(t_address,t_array(t_uint256)dyn_storage)": {
						"encoding": "mapping",
						"key": "t_address",
						"label": "mapping(address => uint256[])",
						"numberOfBytes": "32",
						"value": "t_array(t_uint256)dyn_storage"
					},
					"t_mapping(t_address,t_bool)": {
						"encoding": "mapping",
						"key": "t_address",
						"label": "mapping(address => bool)",
						"numberOfBytes": "32",
						"value": "t_bool"
					},
					"t_mapping(t_address,t_uint256)": {
						"encoding": "mapping",
						"key": "t_address",
						"label": "mapping(address => uint256)",
						"numberOfBytes": "32",
						"value": "t_uint256"
					},
					"t_mapping(t_uint256,t_array(t_uint256)dyn_storage)": {
						"encoding": "mapping",
						"key": "t_uint256",
						"label": "mapping(uint256 => uint256[])",
						"numberOfBytes": "32",
						"value": "t_array(t_uint256)dyn_storage"
					},
					"t_mapping(t_uint256,t_struct(Proposal)55_storage)": {
						"encoding": "mapping",
						"key": "t_uint256",
						"label": "mapping(uint256 => struct SelfHelp.Proposal)",
						"numberOfBytes": "32",
						"value": "t_struct(Proposal)55_storage"
					},
					"t_mapping(t_uint256,t_struct(SHG)23_storage)": {
						"encoding": "mapping",
						"key": "t_uint256",
						"label": "mapping(uint256 => struct SelfHelp.SHG)",
						"numberOfBytes": "32",
						"value": "t_struct(SHG)23_storage"
					},
					"t_string_storage": {
						"encoding": "bytes",
						"label": "string",
						"numberOfBytes": "32"
					},
					"t_struct(Proposal)55_storage": {
						"encoding": "inplace",
						"label": "struct SelfHelp.Proposal",
						"members": [
							{
								"astId": 29,
								"contract": "contract.sol:SelfHelp",
								"label": "shgId",
								"offset": 0,
								"slot": "0",
								"type": "t_uint256"
							},
							{
								"astId": 31,
								"contract": "contract.sol:SelfHelp",
								"label": "proposer",
								"offset": 0,
								"slot": "1",
								"type": "t_address"
							},
							{
								"astId": 33,
								"contract": "contract.sol:SelfHelp",
								"label": "proposalName",
								"offset": 0,
								"slot": "2",
								"type": "t_string_storage"
							},
							{
								"astId": 35,
								"contract": "contract.sol:SelfHelp",
								"label": "proposalDescription",
								"offset": 0,
								"slot": "3",
								"type": "t_string_storage"
							},
							{
								"astId": 37,
								"contract": "contract.sol:SelfHelp",
								"label": "amount",
								"offset": 0,
								"slot": "4",
								"type": "t_uint256"
							},
							{
								"astId": 39,
								"contract": "contract.sol:SelfHelp",
								"label": "votesInFavour",
								"offset": 0,
								"slot": "5",
								"type": "t_uint256"
							},
							{
								"astId": 41,
								"contract": "contract.sol:SelfHelp",
								"label": "votesAgainst",
								"offset": 0,
								"slot": "6",
								"type": "t_uint256"
							},
							{
								"astId": 43,
								"contract": "contract.sol:SelfHelp",
								"label": "timeOfProposal",
								"offset": 0,
								"slot": "7",
								"type": "t_uint256"
							},
							{
								"astId": 46,
								"contract": "contract.sol:SelfHelp",
								"label": "status",
								"offset": 0,
								"slot": "8",
								"type": "t_enum(ProposalStatus)27"
							},
							{
								"astId": 50,
								"contract": "contract.sol:SelfHelp",
								"label": "votersInFavour",
								"offset": 0,
								"slot": "9",
								"type": "t_mapping(t_address,t_bool)"
							},
							{
								"astId": 54,
								"contract": "contract.sol:SelfHelp",
								"label": "votersAgainst",
								"offset": 0,
								"slot": "10",
								"type": "t_mapping(t_address,t_bool)"
							}
						],
						"numberOfBytes": "352"
					},
					"t_struct(SHG)23_storage": {
						"encoding": "inplace",
						"label": "struct SelfHelp.SHG",
						"members": [
							{
								"astId": 3,
								"contract": "contract.sol:SelfHelp",
								"label": "admin",
								"offset": 0,
								"slot": "0",
								"type": "t_address"
							},
							{
								"astId": 5,
								"contract": "contract.sol:SelfHelp",
								"label": "shgName",
								"offset": 0,
								"slot": "1",
								"type": "t_string_storage"
							},
							{
								"astId": 7,
								"contract": "contract.sol:SelfHelp",
								"label": "shgDescription",
								"offset": 0,
								"slot": "2",
								"type": "t_string_storage"
							},
							{
								"astId": 9,
								"contract": "contract.sol:SelfHelp",
								"label": "timeOfCreation",
								"offset": 0,
								"slot": "3",
								"type": "t_uint256"
							},
							{
								"astId": 11,
								"contract": "contract.sol:SelfHelp",
								"label": "balance",
								"offset": 0,
								"slot": "4",
								"type": "t_uint256"
							},
							{
								"astId": 15,
								"contract": "contract.sol:SelfHelp",
								"label": "funderDetails",
								"offset": 0,
								"slot": "5",
								"type": "t_mapping(t_address,t_uint256)"
							},
							{
								"astId": 17,
								"contract": "contract.sol:SelfHelp",
								"label": "numberOfFunders",
								"offset": 0,
								"slot": "6",
								"type": "t_uint256"
							},
							{
								"astId": 20,
								"contract": "contract.sol:SelfHelp",
								"label": "funders",
								"offset": 0,
								"slot": "7",
								"type": "t_array(t_address)dyn_storage"
							},
							{
								"astId": 22,
								"contract": "contract.sol:SelfHelp",
								"label": "votingDuration",
								"offset": 0,
								"slot": "8",
								"type": "t_uint256"
							}
						],
						"numberOfBytes": "288"
					},
					"t_uint256": {
						"encoding": "inplace",
						"label": "uint256",
						"numberOfBytes": "32"
					}
				}
			},
			"userdoc": {
				"kind": "user",
				"methods": {},
				"version": 1
			}
		}
	}
}